:020000040800F2
:10000000500D0020C1010008A73F0008533F000821
:10001000A53F0008FD2B00089946000800000000DD
:100020000000000000000000000000007140000817
:10003000FF2B000800000000A93F000873400008E3
:10004000DB010008DB010008DB010008DB01000820
:10005000DB010008DB010008DB010008DB01000810
:10006000DB010008DB010008DB010008DB01000800
:10007000DB010008DB010008DB010008DB010008F0
:10008000DB010008DB010008DB010008DB010008E0
:10009000DB010008DB010008DB010008DB010008D0
:1000A000DB010008DB010008DB010008DB010008C0
:1000B000DB010008DB010008DB010008DB010008B0
:1000C000DB010008DB010008DB010008DB010008A0
:1000D000DB010008DB01000881460008DB010008A5
:1000E000DB010008DB010008DB010008DB01000880
:1000F000DB010008DB010008DB010008DB01000870
:10010000DB010008DB010008DB010008DB0100085F
:10011000DB010008DB010008DB010008DB0100084F
:10012000DB010008DB010008DB010008DB0100083F
:10013000DB010008DB010008DB010008DB0100082F
:10014000DB010008DB010008DB010008DB0100081F
:10015000DB010008DB0100088D3F0008DB0100081F
:10016000DB010008DB010008DB010008DB010008FF
:10017000DB010008DB010008DB01000800000000D3
:10018000DB010008DB010008DB010008DB010008DF
:10019000DB010008DB010008DB010008DB010008CF
:1001A000DB010008DB010008DB010008DFF80CD0F0
:1001B00002F0EEFB004800475D500008500D0020A3
:1001C0000648804706480047FEE7FEE7FEE7FEE7F1
:1001D000FEE7FEE7FEE7FEE7FEE7FEE77541000803
:1001E000AD010008F0B5044683B0B4F900600D46D7
:1001F000300648BF06F07F0034D4C6F3C30040EA9F
:10020000001116F0070002D0012813D01CE02229AB
:10021000B8BF2221288F01900091B5F90230B5F9BD
:1002200000206969A86901F081FB07B2E88F60B915
:10023000EF870AE02A8F05F1280000F0B1FB07B232
:10024000A88F10B9AF8700E03746298FB8B201F008
:100250009CFE288726F0FF0107F07F00014341F054
:100260008001218003B0F0BD2DE9F041074682B046
:10027000B7F9004088461546200648BF04F07F06BF
:1002800033D4C4F3C30040EA001114F007000BD0CC
:1002900001281CD12A8F05F1280000F081FB06B24D
:1002A000A88FA8B9AE8713E02229B8BF2221288FD2
:1002B00001900091B5F90230B5F900206969A8698B
:1002C00001F034FB06B2E88F10B9EE8700E0264655
:1002D000298FB0B201F059FE288706F07F0624F07E
:1002E000FF00304340F080003880B8F900703806D5
:1002F00048BF07F07F0034D4C7F3C30040EA0011C1
:1003000017F007000BD001281CD12A8F05F1280017
:1003100000F046FB04B2A88FA8B9AC8713E02229ED
:10032000B8BF2221288F01900091B5F90230B5F9AC
:1003300000206969A86901F0F9FA04B2E88F10B9E0
:10034000EC8700E03C46298FA0B201F01EFE288712
:1003500027F0FF0104F07F00014341F08001A8F87D
:100360000010301A02B0BDE8F08172B9825EB0F9B7
:100370000030121262F307030380B1F90020B1F9D3
:100380000030121262F307030B80B0F90200B1F9DA
:100390000210401A70470A880280498841807047DD
:1003A0002DE9F04F024681B0B2F90460546A00238F
:1003B00000259A469C468946B6F1010FC0F28D8011
:1003C0000FFA89F95FFA85F82746B9F1000F21D4B1
:1003D000002F1EBF7868B0F9020048451CBF3F6877
:1003E000002F31D07868B0F9020048451CBF3F6843
:1003F000002F29D07868B0F9020048451CBF3F683B
:10040000002F1EBF7868B0F9020048451CD03F6835
:10041000DEE73F68C7B17868007840451CBF3F6899
:10042000002F11D07868007840451CBF3F68002F2E
:100430000AD07868007840451CBF3F68002F1EBF77
:10044000786800784045E4D120465FF00004D8B1D8
:10045000D0F800B00460BBF1000F04461FBFDBF80A
:100460000000CBF800405C4600280DD0D0F800B06A
:100470000460BBF1000F04461FBFDBF80000CBF89F
:1004800000405C460028E3D14FB920684068B0F9CD
:100490000000C0F300200CF1010CC31813E07868D1
:1004A000B0F900000AF1010A5FEAC07B44BFC0F363
:1004B0004020C318386830B1D0F800B0C7F800B099
:1004C000276807602060B9F1000F58BF09F10109E2
:1004D000681C05B2B542FFF673AF03EB8A00A0EBD0
:1004E0000C0A012904DBBD49204600F00BFA044642
:1004F0002068056841686A68426069602646296824
:10050000016000200FFA89F12860002921D4002E13
:100510001EBF7068B0F9020088421CBF3668002E0A
:1005200033D07068B0F9020088421CBF3668002ED4
:100530002BD07068B0F9020088421CBF3668002ECC
:100540001EBF7068B0F9020088421ED03668DEE730
:100550003668D6B1716809780FFA88F841451CBF32
:100560003668002E11D07168097841451CBF366885
:10057000002E0AD07168097841451CBF3668002EEC
:100580001EBF716809784145E2D106B9266856B1A7
:100590006068B0F900001FFA8AF101F035FE366894
:1005A0008246002EF4D12068696842686A60416022
:1005B00000220168296005602046894900F0A2F9FF
:1005C0000446D4F80080B8F1000F0CD06068B0F990
:1005D00000001FFA8AF101F017FED8F80080824669
:1005E000B8F1000FF2D11FFA8AF001B000F0D4B9CF
:1005F0002DE9F0471423B0FBF3F0A0F1020A0846FE
:10060000002601EBCA030660436000275F800831C3
:10061000744F1F801E1D01F1080703EB8A099F42DA
:100620003CBF371D4F450DD20F4600243C6007608C
:100630007E6008317F684FF0FF343C80361D47F6FE
:10064000FF747C804FF0000EBAF1000F00F0A5801F
:100650001AF0030C47F6FF7700F021808EEA0204BF
:1006600004F00F050EF0070444EAC50444EA042828
:1006700001F108049C423CBF341D4C450AD20C4693
:10068000056825600460666008316468361DA4F85A
:10069000008067800EF1010EBCF1010CDED15FEA33
:1006A0009A0C7AD08EEA020404F00F050EF00704CB
:1006B00044EAC50444EA042801F108049C423CBF12
:1006C000341D4C450AD20C460568256004606660FE
:1006D00008316468361DA4F8008067800EF1010EB1
:1006E0008EEA020404F00F050EF0070444EAC50484
:1006F00044EA042801F108049C423CBF341D4C45E7
:100700000AD20C460568256004606660083164689A
:10071000361DA4F8008067800EF1010E8EEA0204F7
:1007200004F00F050EF0070444EAC50444EA042867
:1007300001F108049C423CBF341D4C450AD20C46D2
:10074000056825600460666008316468361DA4F899
:10075000008067800EF1010E8EEA020404F00F059E
:100760000EF0070444EAC50444EA042801F1080431
:100770009C423CBF341D4C450AD20C46056825609E
:100780000460666008316468361DA4F800806780E4
:100790000EF1010EBCF1010C84D103684FF0050984
:1007A0000121BAFBF9F90BE082EA0104314601F0BC
:1007B000070644EA06245B68A404A40C5C803B465C
:1007C0001F6837B14E1C4945EED25B6859803146EF
:1007D000F5E7BDE8F0470022014993E0690200080F
:1007E0006B0300088080FFFFF0B41C461368049E72
:1007F00003F10805B5423FBF25682E1D059FBE4287
:1008000028BF00200FD203F10806166002681A60A4
:1008100003605D602068001D206058680A880280BF
:10082000498841801846F0BC7047016842684B68AF
:1008300043604A600A68026000200860084670470A
:1008400042684B6843604A600A680260086070470B
:10085000B1F90220002A21D400281EBF4168B1F955
:10086000021091421CBF0068002833D04168B1F9E2
:10087000021091421CBF006800282BD04168B1F9DA
:10088000021091421CBF006800281EBF4168B1F9E8
:10089000021091421ED00068DEE70068D0B14368C4
:1008A000B1F900201B7893421CBF0068002811D0CA
:1008B00043681B7893421CBF006800280AD0436835
:1008C0001B7893421CBF006800281EBF43681B783A
:1008D0009342E2D17047002188B10268016001466D
:1008E0006AB11368116011464BB11868196000288D
:1008F000194604D00268016001461000EDD1084697
:10090000704700002DE9F54F81B088464FF001098E
:1009100002E000BF4FEA4909019E00200190834692
:1009200082467EB30AF1010A35460024002000E029
:10093000401C484503DA2D68641C002DF8D14F4651
:1009400000E08346012C02DA012F19DBC5B16CB13E
:10095000002F18BF002D05D0029A69687068C04743
:10096000012803DA30463668641E02E028462D6806
:100970007F1EBBF1000F14BFCBF800000190E0E731
:100980002E00CFD10020CBF80000BAF1020FC1DA5F
:10099000019803B000F000B830BCBDE8C08F000083
:1009A0002DE9F44FD0F808A04668C7680468DFF85E
:1009B000E008884640EA08000FFA80F9002C4DD084
:1009C00004FB04F002001CD0314610F0030306D0F3
:1009D000B1F800C0C44421F802CB5B1EF8D18208F4
:1009E0000FD0521E0B8843440B804B8843444B80EE
:1009F0008B8843448B80CB884344CB800831002ACA
:100A0000EFD158B332463B4610F0030C00F009809A
:100A1000BCF1010C32F902EB1EFB08FE43F804EBBB
:100A2000F6D1800800F01A8032F902CB1CFB08FCDA
:100A300043F804CB401E32F902CB1CFB08FC43F800
:100A400004CB32F902CB1CFB08FC43F804CB32F98F
:100A500002CB1CFB08FC43F804CBE5D100220023A9
:100A60001046002C1CBF04FB04FCBCF1000F49D055
:100A700039461CF0030E10D00D68AA18914502DA11
:100A80000A30002202E0AB42B8BF401CAEF1010EBA
:100A9000091D2B46BEF1000FEED15FEA9C0C31D050
:100AA000D1F800E00EEB0205A94502DA0A30002574
:100AB00002E07345B8BF401C4A685319994502DAF1
:100AC0000A30002302E09645B8BF401CD1F808E088
:100AD0000EEB0305A94502DA0A30002502E0724553
:100AE000B8BF401CCB685A19914502DA0A3000227F
:100AF00002E09E45B8BF401CACF1010C1031BCF1C6
:100B0000000FCDD1002100B201F07EFB0146002C88
:100B10003BD000203A4623464FF0000E4FEA0E0C21
:100B20000CEB00053AF91CB036F915500CF1010C2C
:100B300015FB0BEEA44523D20CEB00053AF91CB0D3
:100B400036F915500CF1010C15FB0BEEA44517D22C
:100B50000CEB00053AF91CB036F915500CF1010CFC
:100B600015FB0BEEA4450BD20CEB00053AF91CB0BB
:100B700036F915500CF1010C15FB0BEEA445CFD343
:100B8000201842F804EB5B1EC6D100204FF0000C89
:100B90000246002C1CBF04FB04FEBEF1000F49D02E
:100BA0003B461EF0030510D0D3F800B0DC44E1450D
:100BB00003DA0A324FF0000C02E05845B8BF521C6D
:100BC0006D1E1B1D5846002DEED15FEA9E0E31D0E2
:100BD0001D68AC44E14503DA0A324FF0000C02E034
:100BE000A842B8BF521C58688444E14503DA0A326F
:100BF0004FF0000C02E08542B8BF521C9D68AC4427
:100C0000E14503DA0A324FF0000C02E0A842B8BF17
:100C1000521CD8688444E14503DA0A324FF0000CD4
:100C200002E08542B8BF521CAEF1010E1033BEF196
:100C3000000FCDD110B201F0E7FA05465346324617
:100C40003946204600F098FC002300200246002C84
:100C50001CBF04FB04FCBCF1000F49D039461CF05A
:100C6000030E11D0D1F800B05B44994502DA0A3284
:100C7000002302E05845B8BF521CAEF1010E091D19
:100C80005846BEF1000FEDD15FEA9C0C00F03080B9
:100C9000D1F800E07344994502DA0A32002302E0F9
:100CA0007045B8BF521C4868C318994502DA0A3229
:100CB000002302E08645B8BF521CD1F808E0734417
:100CC000994502DA0A32002302E07045B8BF521C8F
:100CD000C868C318994502DA0A32002302E0864543
:100CE000B8BF521CACF1010C1031BCF1000FCFD1D8
:100CF000294610B201F088FA054653463246394675
:100D0000204600F0F3FC002100220846002C1CBF06
:100D100004FB04F3002B45D013F0030A00F012800B
:100D2000D7F800C06144894502DA0A30002102E0A8
:100D30006245B8BF401CAAF1010A3F1D6246BAF1E4
:100D4000000FEDD19B082DD0D7F800A05144894564
:100D500002DA0A30002102E05245B8BF401C7A682E
:100D60005118894502DA0A30002102E09245B8BFE5
:100D7000401CD7F808A05144894502DA0A30002106
:100D800002E05245B8BF401CFA685118894502DAA2
:100D90000A30002102E09245B8BF401C5B1E1037AC
:100DA000002BD1D1294600B201F02EFAC8F1000182
:100DB000002C1CBF04FB04F2002A1CD012F0030319
:100DC00000F00780B6F80080884426F8028B5B1E8E
:100DD000F8D192080FD03388CB183380521E738815
:100DE000CB187380B388CB18B380F388CB18F3800B
:100DF0000836002AEFD1BDF8001001B000F08EBD1A
:100E000000B201F001BA00002DE9FA4F81B00400F0
:100E1000BDF93080DFF8780440EA08001546ADF8E7
:100E200000004BD004FB04F1D9B1284611F00302B5
:100E300005D00388434420F8023B521EF9D18908AB
:100E40000FD0491E028842440280428842444280B8
:100E5000828842448280C2884244C280083000298D
:100E6000EFD104FB04F34BB3019A294613F00307B7
:100E700007D07F1E31F902CB1CFB08FC42F804CBE3
:100E8000F7D19B0800F01A8031F9027B17FB08F7B5
:100E900042F8047B5B1E31F9027B17FB08F742F82E
:100EA000047B31F9027B17FB08F742F8047B31F928
:100EB000027B17FB08F742F8047BE5D100234FF0D3
:100EC000000C1846002C1CBF04FB04F7002F49D06F
:100ED000019ABDF9001017F0030E11D01668B44442
:100EE000614503DA0A304FF0000C02E0B342B8BFAC
:100EF000401CAEF1010E121D3346BEF1000FEDD1C4
:100F0000BF082FD01668B444614503DA0A304FF0A9
:100F1000000C02E0B342B8BF401C53689C446145DA
:100F200003DA0A304FF0000C02E09E42B8BF401CCA
:100F30009668B444614503DA0A304FF0000C02E0D1
:100F4000B342B8BF401CD3689C44614503DA0A3001
:100F50004FF0000C02E09E42B8BF401C7F1E1032D2
:100F6000002FCFD1002100B201F04EF9ADF8020000
:100F7000002C47D00020019A294623460027064628
:100F800001E000270026DDF808E08C4614F0030994
:100F900000F00A803CF902AB3EF902BB761C1AFB5A
:100FA0000B77B9F10109F5D15FEA940C00F02380C9
:100FB000DDF8089006EB000E05EB4E0E09EB460639
:100FC0003EF9029B36F902AB19FB0A773EF9029B08
:100FD00036F902AB19FB0A773EF9029B36F902ABF0
:100FE00019FB0A773EF9029B36F902AB19FB0A7727
:100FF000BCF1010CE4D1201842F8047B01EB440160
:101000005B1EBED100234FF0000C1846002C1CBF05
:1010100004FB04F7002F49D0019ABDF9001017F026
:10102000030E11D01668B444614503DA0A304FF05C
:10103000000C02E0B342B8BF401CAEF1010E121D1D
:101040003346BEF1000FEDD1BF082FD01668B4446F
:10105000614503DA0A304FF0000C02E0B342B8BF3A
:10106000401C53689C44614503DA0A304FF0000C81
:1010700002E09E42B8BF401C9668B444614503DA62
:101080000A304FF0000C02E0B342B8BF401CD368F6
:101090009C44614503DA0A304FF0000C02E09E42A6
:1010A000B8BF401C7F1E1032002FCFD1BDF80210F8
:1010B00000B201F0A9F80746029B01992A46204692
:1010C00000F05AFA00224FF0000E1046002C1CBF10
:1010D00004FB04FCBCF1000F4CD0019BBDF90010D7
:1010E0001CF0030600F01180D3F80090CE44714547
:1010F00003DA0A304FF0000E02E04A45B8BF401C48
:10110000761E1B1D4A46002EEED15FEA9C0C31D0A4
:101110001E68B644714503DA0A304FF0000E02E053
:10112000B242B8BF401C5A689644714503DA0A308F
:101130004FF0000E02E09642B8BF401C9E68B644D5
:10114000714503DA0A304FF0000E02E0B242B8BF38
:10115000401CDA689644714503DA0A304FF0000EFD
:1011600002E09642B8BF401CACF1010C1033BCF158
:10117000000FCDD1394600B201F046F80746029B78
:1011800001992A46204600F0B1FA00224FF0000EE5
:101190001046002C1CBF04FB04FCBCF1000F4BD01C
:1011A000019BBDF900101CF0030610D0D3F800908D
:1011B000CE44714503DA0A304FF0000E02E04A4592
:1011C000B8BF401C761E1B1D4A46002EEED15FEABA
:1011D0009C0C31D01E68B644714503DA0A304FF0DA
:1011E000000E02E0B242B8BF401C5A6896447145F6
:1011F00003DA0A304FF0000E02E09642B8BF401CFE
:101200009E68B644714503DA0A304FF0000E02E0E2
:10121000B242B8BF401CDA689644714503DA0A301E
:101220004FF0000E02E09642B8BF401CACF1010C3A
:101230001033BCF1000FCDD1394600B200F0E4FF0D
:10124000C8F10001002C1CBF04FB04F2002A1AD0D4
:1012500012F0030305D02C880C1925F8024B5B1EF5
:10126000F9D192080FD02B88CB182B80521E6B8897
:10127000CB186B80AB88CB18AB80EB88CB18EB809E
:101280000835002AEFD100B203B000F04CBB0000DB
:1012900000F0FFFF2DE9F0430125002402B90122EF
:1012A000B8B1641C04FB04F6F60086423FBF641C20
:1012B00004FB04F6F60086420BD2641C04FB04F621
:1012C000F60086423FBF641C04FB04F6F60086422B
:1012D000E7D3491E8908601E89000E1D00FB00F837
:1012E00006EB480C002818BF5FEA080E62D064467F
:1012F00031461EF0030716D06A434FEAE23902EB8B
:1013000019494FEA2949A2EB094205EB0209A4F861
:10131000009034F8029BA9445FFA89F96D1C21F80A
:10132000029B7F1EE8D15FEA9E0E43D06A43D7132B
:1013300002EB17473F14A2EB0747EA1924F8022BE8
:10134000AA18D2B221F8022B6A1C07FB02F5EF1390
:1013500005EB17473F14A5EB07455719278034F8CD
:10136000027BD719FFB221F8027B521C5543EF13C1
:1013700005EB17473F14A5EB07455719278034F8AD
:10138000027BD719FFB221F8027B571C05FB07F23D
:10139000D51302EB15452D14A2EB0542BD1825808F
:1013A00034F8025B7D19EDB221F8025B7D1CBEF1C1
:1013B000010EBBD10CEB4801491E89085E60890013
:1013C000C3F808C0091DD9601860BDE8F083F0B407
:1013D000002400252346002841D040433FD010F090
:1013E00003060ED00F683C19A24202DA0A33002429
:1013F00002E0BD42B8BF5B1C761E091D3D46002EB3
:10140000F0D180082BD00E683419A24202DA0A33D8
:10141000002402E0B542B8BF5B1C4D682C19A24203
:1014200002DA0A33002402E0AE42B8BF5B1C8E68C9
:101430003419A24202DA0A33002402E0B542B8BFEE
:101440005B1CCD682C19A24202DA0A33002402E0A8
:10145000AE42B8BF5B1C401E10310028D3D1F0BC97
:1014600018B2704700B9704730B4404326D010F02E
:10147000030407D0641E32F9025B15FB03F541F843
:10148000045BF7D1800819D032F9024B14FB03F446
:1014900041F8044B401E32F9024B14FB03F441F8AF
:1014A000044B32F9024B14FB03F441F8044B32F9BC
:1014B000024B14FB03F441F8044BE5D130BC7047F8
:1014C000F0B140431CD010F0030307D0B1F800C0C6
:1014D00094445B1E21F802CB002BF7D180080FD07B
:1014E0000B88D3180B80401E4B88D3184B808B88F9
:1014F000D3188B80CB88D318CB8008310028EFD14C
:101500007047000000B970472DE9F0414FEA000430
:101510004FF0000C15461E4610F0030700F008803F
:1015200035F902EB36F9028B1EFB08CC7F1EF7D192
:10153000870819D035F902EB36F9028B1EFB08CC6F
:1015400035F902EB36F9028B1EFB08CC35F902EBBC
:1015500036F9028B1EFB08CC35F902EB36F9028B0B
:101560001EFB08CC7F1EE5D141F804CB02EB400204
:10157000641ECDD1BDE8F08100B970472DE9FE4F62
:1015800081B00021019B009303460024022856D31A
:10159000039D009E4FF00008C146AE46944610F0F1
:1015A00003070DD03CF902ABBEF900B01AFB0B8863
:1015B000BEF902B01AFB0B990EEB400E7F1EF1D163
:1015C000870833D0BCF900A0BEF900B01AFB0B8825
:1015D000BEF902B00EEB400E1AFB0B9BBCF902A049
:1015E000BEF900901AFB0988BEF902900EEB400E7E
:1015F0001AFB09BBBCF904A0BEF900901AFB0988CC
:10160000BEF902900EEB400E1AFB09BBBCF906A016
:10161000BEF900901AFB0988BEF902901AFB09B9BD
:101620000EEB400E7F1E0CF1080CCBD1A41C46F82B
:10163000048B2D1D671C46F8049B8742AAD3844265
:1016400047D2039D002605EB44074FF000091546DD
:1016500010F0030C00F00C8035F902EBB7F90080B4
:10166000761C1EFB089907EB4007BCF1010CF3D177
:10167000850827D0DDF808C016EB01060CEB4606FE
:10168000B7F900E036F902CB07EB40071CFB0E9CD4
:10169000B7F9008036F902EB07EB40071EFB08CCD8
:1016A000B7F9008036F902EB07EB40071EFB08CCC8
:1016B00036F902EBB7F900801EFB08C907EB4007BB
:1016C0006D1EDDD1019E651846F82590641C84428C
:1016D000B7D3009C04EB80044118009402EB400255
:1016E0005B1E7FF452AF04B000F01DB900B9704723
:1016F0002DE9FE4F82B00021029B01930090002350
:101700000228C0F09780049CDDF804504FF00009D7
:10171000CC46A646174610F003061AD037F902AB9E
:10172000BEF90080BEF902B01AFB08F81AFB0BFAEA
:10173000C8F3830BC8F3461818FB0B99CAF3830848
:10174000CAF3461A761E1AFB08CC0EEB400E002E8A
:10175000E4D1860800F06480B7F90080BEF900A0EB
:10176000BEF902B018FB0AFA18FB0BF8CAF3830B98
:10177000CAF3461A1AFB0B99C8F3830AC8F3461832
:101780000EEB400E18FB0ACCB7F90280BEF900A0A0
:10179000BEF902B018FB0AFA18FB0BF8CAF3830B68
:1017A000CAF3461A1AFB0B99C8F3830AC8F3461802
:1017B0000EEB400E18FB0ACCB7F90480BEF900A06E
:1017C000BEF902B018FB0AFA18FB0BF8CAF3830B38
:1017D000CAF3461A1AFB0B99C8F3830AC8F34618D2
:1017E0000EEB400E18FB0ACCB7F90680BEF900A03C
:1017F000BEF902B018FB0AFA18FB0BF8CAF3830B08
:10180000CAF3461A1AFB0B99C8F3830AC8F34618A1
:10181000761E083718FB0ACC0EEB400E002E9BD12B
:101820009B1C45F8049B241D5E1C45F804CB864296
:10183000FFF46CAF834262D2049C002504EB4306A4
:101840004FF0000C144610F0030710D034F902EBEF
:10185000B6F900801EFB08FECEF38308CEF3461EC9
:101860006D1C1EFB08CC06EB40067F1EEED18408E3
:101870003ED0039F15EB010507EB450535F9027BCB
:10188000B6F900E017FB0EF8C8F38307C8F3461E4D
:1018900006EB40061EFB07C735F902CBB6F900E0A0
:1018A0001CFB0EFCCCF3830ECCF3461C06EB40066F
:1018B0001CFB0E7735F902CBB6F900E01CFB0EFCE1
:1018C000CCF3830ECCF3461C06EB40061CFB0E77D4
:1018D00035F902CBB6F900E01CFB0EFCCCF3830E0D
:1018E000CCF3461C1CFB0E7C06EB4006641EC5D1E7
:1018F000029D5C1845F824C05B1C83429CD3019B6D
:1019000003EB800301934118009B5B1E02EB400236
:1019100000937FF4F4AE05B000F005B830BCBDE82C
:10192000C04FFFF76DBA30BCBDE8C08F2DE9FE4F48
:1019300088B000AC002500956560A560E560256174
:1019400065610B46A561E561A94619780026AB469D
:10195000A8462F46AA46002900F08B80197800225D
:10196000002900F07D802C2979D0A1F130020A2ACB
:1019700067D32B2918BF2D296AD06D1C2E2963D15E
:10198000052215E0A1F130020BF1010B0A2A54D314
:101990002E2954D105220BE013F8011F00295FD036
:1019A0002C295CD02E2941D15FF0050208F10108F5
:1019B00013F8011F002953D02C2950D045292DD1CF
:1019C00013F8011F03227F1C002949D02C2946D07F
:1019D0002B291ED113F8011F0622761C00293FD0A7
:1019E0002C293CD030390AF1010A0A290FD30122EF
:1019F00035E000BF13F8011F002931D02C292ED06B
:101A000030390A29F6D3012209F1010927E007221A
:101A1000F0E72D29DED00122761C20E06529CFD009
:101A200030390A29C4D301227F1C18E030390A2931
:101A3000B2D3012208F1010811E00422ACE701222F
:101A40000DE004226D1CA7E7012209F1010906E05F
:101A500013F8011F02226D1C11B12C2992D15B1CBD
:101A600054F82210491C44F82210197800297FF4F8
:101A700075AF089BBDF950201946401881420DD220
:101A800093F800C0BCF12C0F05D0BDF824E08EEA1D
:101A90000C0C83F800C0D3188342F1D3089B1A784A
:101AA000B2F1000F00F0B08093F800C00022BCF14A
:101AB000000F00F09F80BCF12C0F00F09A80ACF179
:101AC00030020A2AC0F08380BCF12B0F18BFBCF192
:101AD0002D0F00F083806D1CBCF12E0F40F07A803A
:101AE000052219E0ACF130020BF1010B0A2A6AD38E
:101AF000BCF12E0F69D105220EE000BF13F801CF13
:101B0000BCF1000F76D0BCF12C0F72D0BCF12E0FBF
:101B100050D1052208F1010813F801CFBCF1000FE4
:101B200068D0BCF12C0F64D0BCF1450F37D113F84D
:101B300001CF03227F1CBCF1000F5BD0BCF12C0F46
:101B400057D0BCF12B0F24D113F801CF0622761CFD
:101B5000BCF1000F4ED0BCF12C0F4AD0ACF13002DA
:101B60000AF1010A0A2A12D3012242E013F801CF36
:101B7000BCF1000F3ED0BCF12C0F3AD0ACF1300CD0
:101B8000BCF10A0FF2D3012209F1010931E0072269
:101B9000ECE7BCF12D0FD7D00122761C29E0BCF177
:101BA000650FC4D0ACF1300CBCF10A0FB4D30122E4
:101BB0007F1C1EE0ACF1300CBCF10A0F9ED3012259
:101BC00008F1010815E0042298E7012211E004223F
:101BD0006D1C93E7012209F101090AE013F801CF16
:101BE00002226D1CBCF1000F04D0BCF12C0F7FF45D
:101BF00079AF5B1C54F822C00CF1010C44F822C0F0
:101C00001A78002A7FF450AF089BBDF9502081421A
:101C10000AD219782C2904D0BDF828C08CEA010119
:101C20001970D3188342F4D31599009800F022FA62
:101C30000146284600F01EFA0146606800F01AFAD4
:101C40000146484600F016FA0146A06800F012FA74
:101C50000146584600F00EFA0146E06800F00AFA24
:101C60000146304600F006FA0146206900F002FA0B
:101C70000146404600F0FEF90146606900F0FAF9BD
:101C80000146384600F0F6F90146A06900F0F2F985
:101C90000146504600F0EEF90146E06900F0EAF92D
:101CA0000146002000F0E6F90BB000F011B9000089
:101CB0002DE9F047002300251C46401EDFF8CC909C
:101CC00005E000BFC1F3C10459F824400425EF1812
:101CD0007F1C87424ED25DB39F184FF0000CBE466A
:101CE000A04615F0030607D00CF1010C18F801AB63
:101CF0000EF801AB761EF7D1AE0813D018F801AB81
:101D00000EF801AB0CF1040C18F801AB0EF801ABA6
:101D1000761E18F801AB0EF801AB18F801AB0EF8FF
:101D200001ABEBD14FF02C0E0CF807E06F1CFB1849
:101D3000491C01F00707072FC9D8DFE807F00404A2
:101D40000406060D0D14BDE7C1E7C1F3C10409EB9C
:101D5000840408252469BAE7C1F3C10409EB8404AB
:101D60000825246AB3E7C1F3C10409EB84040825FC
:101D7000246BACE7401C834206D2991800225B1CFE
:101D800001F8012B8342FAD3BDE8F08790000020D0
:101D900030B403681C7800227CB12C2C4BD10BE0B2
:101DA00013F8014F4CB12C2C06D0303C0A2CF7D341
:101DB0004C68641C01224C605B1C0360104630BC04
:101DC000704700BF13F8014F002CF6D02C2CF3D035
:101DD000452C18BF652C6BD14C69641C4C610322E7
:101DE00013F8014F002CE8D02C2CE5D02B2C18BF79
:101DF0002D2C65D1CC68641CCC60062213F8014FF1
:101E0000002CDAD02C2CD7D08A69551CA4F13002D2
:101E10000A2A5AD301228D61CEE700BF13F8014F81
:101E2000002CCAD02C2CC7D02E2C39D105220C69FD
:101E3000641C0C61C6E7A4F130020A2A04D20C68C3
:101E4000641C04220C60E9E72B2C18BF2D2C14D144
:101E500002220C68641C0C6013F8014F002CACD0FB
:101E60002C2CA9D08A68551CA4F130020A2A11D35F
:101E70002E2C12D105228D60A4E70A68551C2E2C49
:101E800002D105220D609DE701224C68641C4C6064
:101E90000D6091E704228D60C0E701228D608BE721
:101EA000303C0A2CBAD301220C69641C0C6183E714
:101EB000303C0A2C86D301224C69641C4C617BE7C0
:101EC0000122CC68641CCC6076E707228D6167E74D
:101ED00030BCBDE8C08F0000401E042813D8DFE8E6
:101EE00000F00306090C0F00084800687047084816
:101EF00000687047074800687047074800687047E7
:101F00000648006870470020704700006800002005
:101F10006C00002070000020740000207800002079
:101F200081EA00024B084AF20101D20748BF4B4048
:101F300083EA50025B08D20748BF4B4083EA900215
:101F40005B08D20748BF4B4083EAD0025B08D20748
:101F500048BF4B4083EA10125B08D20748BF4B4092
:101F600083EA50125B08D20748BF4B4083EA9012C5
:101F70004FEAD01C5B08D00748BF4B40580883EAA3
:101F80000C02D20748BF4840704781EA00030206AE
:101F90004FEA510C4AF20101DB0748BF81EA0C0C01
:101FA0008CEA52634FEA5C0CDB0748BF81EA0C0CF9
:101FB0008CEA92634FEA5C0CDB0748BF81EA0C0CA9
:101FC0008CEAD2634FEA5C0CDB0748BF81EA0C0C59
:101FD0008CEA12734FEA5C0CDB0748BF81EA0C0CF9
:101FE0008CEA52734FEA5C0CDB0748BF81EA0C0CA9
:101FF0008CEA92734FEA5C0CDB0748BF81EA0C0C59
:102000008CEAD2724FEA5C03D20748BF4B4083EAA6
:1020100010225B08D20748BF4B4083EA50225B087E
:10202000D20748BF4B4083EA90225B08D20748BFE3
:102030004B4083EAD0225B08D20748BF4B4083EA7B
:1020400010325B08D20748BF4B4083EA50325B082E
:10205000D20748BF4B4083EA90324FEAD03C5B083E
:10206000D00748BF4B40580883EA0C02D20748BF4C
:102070004840704730B481EA000403064D084AF234
:102080000101E40748BF4D4085EA53646D08E40749
:1020900048BF4D4085EA93646D08E40748BF4D4052
:1020A00085EAD3646D08E40748BF4D4085EA1374A0
:1020B0006D08E40748BF4D4085EA53746D08E40796
:1020C00048BF4D4085EA93746D08E40748BF4D4012
:1020D0006C0885EAD373DB0748BF4C40020484EAEE
:1020E00012636408DB0748BF4C4084EA526364080B
:1020F000DB0748BF4C4084EA92636408DB0748BFB3
:102100004C4084EAD2636408DB0748BF4C4084EA51
:1021100012736408DB0748BF4C4084EA52736408BA
:10212000DB0748BF4C4084EA92736408DB0748BF72
:102130004C40630884EAD272D20748BF4B40000C7F
:1021400083EA000402065B08E40748BF4B4083EAC9
:1021500052645B08E40748BF4B4083EA92645B0823
:10216000E40748BF4B4083EAD2645B08E40748BFFA
:102170004B4083EA12745B08E40748BF4B4083EA94
:1021800052745B08E40748BF4B4083EA92745B08D3
:10219000E40748BF4B405C0883EAD272D20748BFCD
:1021A0004C4084EA10226308D20748BF4B4083EAC0
:1021B00050225B08D20748BF4B4083EA90225B085D
:1021C000D20748BF4B4083EAD0225B08D20748BF02
:1021D0004B4083EA10325B08D20748BF4B4083EA8A
:1021E00050325B08D20748BF4B4083EA9032C40BA1
:1021F0005B08D00748BF4B40580883EA0402D20767
:1022000048BF484030BC704781EA000302064FEAED
:10221000510C4AF20101DB0748BF81EA0C0C8CEA41
:1022200052634FEA5C0CDB0748BF81EA0C0C8CEA76
:1022300092634FEA5C0CDB0748BF81EA0C0C8CEA26
:10224000D2634FEA5C0CDB0748BF81EA0C0C8CEAD6
:1022500012734FEA5C0CDB0748BF81EA0C0C8CEA76
:1022600052734FEA5C0CDB0748BF81EA0C0C8CEA26
:1022700092734FEA5C0CDB0748BF81EA0C0C8CEAD6
:10228000D2724FEA5C03D20748BF4B40000483EA96
:1022900010625B08D20748BF4B4083EA50625B087C
:1022A000D20748BF4B4083EA90625B08D20748BF21
:1022B0004B4083EAD0625B08D20748BF4B4083EAB9
:1022C00010725B08D20748BF4B4083EA50725B082C
:1022D000D20748BF4B4083EA90724FEAD07C5B083C
:1022E000D00748BF4B40580883EA0C02D20748BFCA
:1022F000484070472DE9F05F0546002092469B4616
:1023000088460646814640241BE02846414647460B
:10231000224600F044F953465A46C01A914110D360
:1023200011461846224600F02BF92D1A67EB0108DA
:102330004F4622460120002100F022F917EB000948
:102340004E41201EA4F10104DFDC484631462A46F6
:10235000434600F000B830BCBDE8C09FD2B201E0F7
:1023600000F8012B491EFBD270470022F6E710B59A
:1023700013460A4604461946FFF7F0FF204610BDF3
:1023800010B5002200E0521C835C8C5CA34201D19A
:10239000002BF8D1D8B2E1B2401A10BD2DE9F04DB2
:1023A00081EA030404F0004B21F0004514464FF08D
:1023B000000A23F0004150EA050220D054EA01024D
:1023C0001DD0C5F30A570246C5F31303C1F313002A
:1023D000C1F30A5640F4801543F48013A7EB0608B6
:1023E000101BD64608F2FD3873EB050002D308F146
:1023F000010801E092185B41B8F1000F03DA0020F8
:102400000146BDE8F08D00204FF480110646844659
:102410000EE0171B73EB050705D3121B63EB0503D7
:1024200006434CEA010C49084FEA300092185B4120
:1024300050EA0107EDD152EA030012D082EA04000B
:1024400083EA0501084305D0101BAB4106D20122E7
:10245000002306E000224FF0004302E06FF001028B
:1024600053101AEB06004CEB085110EB0A0041EB3D
:102470000B01BDE8F04D00F0D9B80EB540F2334184
:1024800002910021CDE900110A460B4600F0DDF86B
:1024900003B000BDC1F30A5210B5C1F3130140F2FD
:1024A000FF3341F480119A4201DA002010BD40F25E
:1024B00033439A42A2F2334203DC524200F06FF8F7
:1024C00010BD904010BD00F0004230F000400AD036
:1024D000C10D01F56071C0F3160042EA0151C20856
:1024E00040071143704700200146704730B5041E75
:1024F00071F1000404DB4FF00044404264EB010141
:10250000141E73F1000405DB1C464FF000435242D9
:1025100063EB04038B4208BF824230BD01F00043ED
:1025200030B421F0004150EA010206D00A0DA2F5B4
:102530006072C1F31301002A02DC30BC0020704736
:10254000440F44EAC104C100E01830BC00EBC250A3
:1025500000F035B830B50B4601460020202201249A
:1025600009E021FA02F59D4205D303FA02F5491B61
:1025700004FA02F52844151EA2F10102F1DC30BD77
:10258000202A04DB203A00FA02F100207047914033
:10259000C2F1200320FA03F3194390407047202A28
:1025A00004DB203A21FA02F00021704721FA02F3FD
:1025B000D040C2F1200291400843194670470029DB
:1025C000A8BF7047401C490008BF20F001007047B9
:1025D00010B4B0FA80FC00FA0CF050EA010404BF19
:1025E00010BC704749B1CCF1200421FA04F411FA6F
:1025F0000CF118BF012121430843A3EB0C01CB1DB3
:102600004FEA00614FEA102042BF002010BC704723
:1026100000EBC35010440029A4BF10BC7047401CFD
:10262000490008BF20F0010010BC704710B5141E0F
:1026300073F1000408DA401C41F1000192185B417B
:102640001A4301D120F0010010BD2DE9F04D924652
:102650009B4611B1B1FA81F202E0B0FA80F2203269
:102660009046FFF78DFF04460F4640EA0A0041EA14
:102670000B0153465A46084313D0114653EA010052
:1026800019D0C8F140025046FFF789FF05460E46B3
:10269000504659464246FFF773FF084305D00120D4
:1026A00004E020463946BDE8F08D0020054346EAA7
:1026B000E0762C4337430A986305E40AA0EB080050
:1026C0000022FD0A44EA47540A3002D500200146A0
:1026D000E9E7010510196941DDE90845001969417B
:1026E000BDE8F04DA2E72DE9FE4F804681EA0300E8
:1026F000C00F0C46009021F0004123F00045B8EBDC
:102700000200A94105D24046214690461C460B4690
:10271000024623F00040104347D0270DC7F30A00BC
:10272000C3F30A510290401A019040286BDAC3F3B8
:10273000130040F4801B0098924620B10023D2EB96
:10274000030A63EB0B0B01985946C0F14002504657
:10275000FFF716FF06460D4650465946019A00F00F
:1027600029F910EB08006141002487EA115284EA3C
:10277000E7731A4340D0009A62B3019A012A4FEAE4
:10278000075215DC001B61EB02014FF0004202EA28
:102790000752CDE90042001C41F5801132462B461C
:1027A000FFF753FF03B000F045B840462146F9E774
:1027B000001B61EB0201001C41F5801300185B4116
:1027C0002018A2F5001747EB030140EAD570B619AF
:1027D0006D4111E06D084FEA360645EAC0754FEAD3
:1027E0000752001B61EB0201001C41F580114908F2
:1027F0004FEA30000019514132462B4603B000F039
:102800001CB8FFF713BF0098012240000023D0EB53
:10281000020263EBE073009821464FEAE074B8EBE4
:10282000000061EB0401E9E783F000435BE781F01E
:10283000004158E730BCBDE8C08F30BCBDE8C04F98
:10284000FFF7DFBF2DE9FE4F81EA030404F00044E7
:1028500021F0004100944FF0000B23F0004350EAB8
:1028600001045ED052EA03045BD0C3F30A54C1F3FF
:102870000A552C44A4F2F3340194A0FB0254C1F392
:10288000130141F48011C3F3130343F4801301FBDC
:10289000024400FB034E840A970A44EA815447EA43
:1028A0008357A4FB076802958D0A05FB07854FEA4D
:1028B000932C04FB0C542705029D4FEA065847EA67
:1028C0001637B5EB08056EEB070C870E920E47EA3C
:1028D000811742EA8312A7FB0201B6EB0B0164EBFE
:1028E00000042B0D43EA0C335E1844EB1C50DA460F
:1028F0005146E7FB0201C5F313044FEA0B3343EAE9
:1029000014534FEA0432019C43EA0603A4F10C0479
:102910000294009CCDE900B4FFF797FE03B000F0ED
:1029200003B800200146F9E730BCBDE8C08FC1F311
:102930000A52C1F3130140F2FF3341F480119A426D
:1029400002DA00200146704740F233439A42A2F275
:10295000334202DC5242FFF722BEFFF711BE0000F5
:1029600030B5041E71F1000404DB4FF00044404216
:1029700064EB0101141E73F1000405DB1C464FF0EB
:102980000043524263EB0403994208BF904230BDBA
:10299000064C074D06E0E06840F0010394E80700AC
:1029A00098471034AC42F6D3FDF704FC146E0008CF
:1029B000346E0008202A06DBCB17203A41FA02F0D9
:1029C00043EAE07306E041FA02F3D040C2F120028C
:1029D00091400843194670470A684B68A3EB02040C
:1029E000C3FB0454C5FB036406EB0504046000BF8D
:1029F00000BF00BF00BF00BF00BF00BF00BF00BFDF
:102A000000BF00BF00BF8A68CB68A3EB0204C3FB12
:102A10000454C5FB036406EB0504446000BF00BF1B
:102A200000BF00BF00BF00BF00BF00BF00BF00BFAE
:102A300000BF00BF0A684B68A3EB0204C3FB045449
:102A4000C5FB036406EB0504046000BF00BF00BFC4
:102A500000BF00BF00BF00BF00BF00BF00BF00BF7E
:102A600000BF8A68CB68A3EB0204C3FB0454C5FB18
:102A7000036406EB0504446000BF00BF00BF00BF55
:102A800000BF00BF00BF00BF00BF00BF00BF00BF4E
:102A9000A2E7000000BF00BF00BF00BF00BF00BF33
:102AA0000A684B68A3EB0204C3FB0454C5FB036430
:102AB00006EB0504046000BF00BF09E000BF00BFD3
:102AC00000BF00BF00BF00BF00BF00BF00BF00BF0E
:102AD0008A68CB68A3EB0204C3FB0454C5FB036400
:102AE00006EB0504446000BF00BF00BF00BF00BF8D
:102AF00000BF00BF00BF00BF00BF00BF00BF0A682B
:102B00004B68A3EB0204C3FB0454C5FB036406EB50
:102B10000504046000BF00BF00BF00BF00BF00BFCE
:102B200000BF00BF00BF00BF00BF00BF8A68CB6806
:102B3000A3EB0204C3FB0454C5FB036406EB0504CA
:102B4000446000BF00BF00BF00BF00BF00BF00BFA8
:102B500000BF00BF00BF00BF00BF9BE770B504000F
:102B6000154886B0C16C1FD041F00201C164C06C31
:102B700000F00200114E0590114D36F8140000903F
:102B800001200190002002900220039055F82400BB
:102B9000694600F07BF936F8141055F8240000223D
:102BA00000F053FA06B070BD41F00401C164C06C7E
:102BB00000F00400DEE7000000100240786C00081E
:102BC000840000200449054A31F8101052F8200012
:102BD000002200F03ABA0000786C0008840000205F
:102BE0000449054A31F8101052F82000012200F083
:102BF0002CBA0000786C000884000020FEE77047C3
:102C00000120FFF7ABFF4FF496744FF42F754FF48C
:102C100048760120FFF7E4FF204600F02BF9012061
:102C2000FFF7D0FF204600F025F90120FFF7D8FF7D
:102C3000204600F01FF90120FFF7C4FF204600F0F6
:102C400019F90120FFF7CCFF204600F013F901200D
:102C5000FFF7B8FF204600F00DF90120FFF7C0FF95
:102C6000284600F007F90120FFF7ACFF284600F0E6
:102C700001F90120FFF7B4FF284600F0FBF801201E
:102C8000FFF7A0FF284600F0F5F80120FFF7A8FFA6
:102C9000284600F0EFF80120FFF794FF284600F0E7
:102CA000E9F80120FFF79CFF204600F0E3F801203F
:102CB000FFF788FF204600F0DDF80120FFF790FFC6
:102CC000204600F0D7F80120FFF77CFF204600F0F7
:102CD000D1F80120FFF784FF204600F0CBF8012057
:102CE000FFF770FF304600F0C5F892E710B5464C8C
:102CF00086B0E06C40F00100E064E06C00F00100A0
:102D00000590E06C40F00200E064E06C00F002002E
:102D10000590E06C40F00400E064E06C00F004001A
:102D20000590E06C40F00800E064E06C00F0080002
:102D30000590E06C40F01000E064E06C00F01000E2
:102D40000590E06C40F02000E064E06C00F02000B2
:102D50000590E06C40F04000E064E06C00F0400062
:102D60000590E06C40F08000E064E06C694600F0A3
:102D700080000590032001900390002002904FF600
:102D8000FF7000904FF0904000F080F869461F48B7
:102D900000F07CF869461E4800F078F869461D4846
:102DA00000F074F869461C4800F070F869461B484A
:102DB00000F06CF869461A4800F068F8694619484E
:102DC00000F064F8E06C20F00100E064E06C20F0BA
:102DD0000200E064E06C20F00400E064E06C20F0AD
:102DE0000800E064E06C20F01000E064E06C20F08B
:102DF0002000E064E06C20F04000E064E06C20F033
:102E00008000E06406B010BD0010024000040048DD
:102E100000080048000C004800100048001400485A
:102E200000180048001C004810B590F82510002438
:102E3000022903D00421C163012418E001680A6853
:102E400022F00E020A6001680A6822F001020A609C
:102E500090F84420036C012101FA02F25A6080F8D4
:102E60002510002180F82410816B01B1884720468D
:102E700010BD000070B5054600F0ECF84FEA000404
:102E800000F0E8F8001BA842FAD370BD2DE9F84F16
:102E9000DFF888B100234FF0010C4FF0030A4FF028
:102EA0000F090BF1040EB1E00CFA03F632406FD0BB
:102EB0004C68022C01D0122C11D1DC0800EB8407E5
:102EC0003C6A5D07ED0E09FA05F824EA0804D1F81A
:102ED000108008FA05F848EA0408C7F82080076857
:102EE0005D0091F804800AFA05F408F00308A7438E
:102EF00008FA05F848EA0708C0F800804F68012F73
:102F000005D0022F03D0112F01D0122F10D1D0F8ED
:102F10000880CF6828EA0408AF4047EA08078760BE
:102F20004768B7430E79C6F300169E403E4346609D
:102F3000C668A6438C68AC403443C4604C68E40067
:102F400063D5374C256E45F001052566246E23F0C8
:102F5000030504F001040094324C2F19BD689C074E
:102F6000260F09FA06F4A543B0F1904F04D02E4C79
:102F7000A04203D1012421E000241FE02B4CA042F9
:102F800001D102241AE02A4CA04202D1032415E008
:102F90003BE0284CA04201D104240FE0264CA04283
:102FA00001D105240AE0254CA04201D1062405E008
:102FB000234CA04201D1072400E00824B4402C4354
:102FC000BC60DBF800405D464E689443F60300D5D4
:102FD00014432C60DEF8004075464E689443B603F7
:102FE00000D514432C600D4D08352C684E68944371
:102FF000F60200D514432C60084D0C352C684E6841
:103000009443B60200D514432C605B1C0A6832FA64
:1030100003F47FF449AF00F015B80000000401404C
:103020000010024000000140000400480008004871
:10303000000C004800100048001400480018004828
:10304000001C004818BCBDE8E08F0AB181617047E0
:10305000816270470148006870470000000000204E
:1030600002480168491C0160704700000000002010
:1030700010B5032000F058F80F2000F005F800F01C
:1030800017F8002010BD000010B5044607484FF4A3
:103090007A710068B0FBF1F000F02AFD00222146B1
:1030A000501E00F021F8002010BD00000400002098
:1030B0007047002809DB00F01F0201219140400900
:1030C000800000F1E020C0F880127047002809DB82
:1030D00000F01F02012191404009800000F1E02032
:1030E000C0F8001170470000F0B40E4B1B680C468E
:1030F000C3F30223C3F10705042D00D90425191DCC
:10310000072901D2002300E0DB1E012606FA05F1A3
:10311000491E214099409E40761E16403143F0BC26
:1031200001F0CCBA0CED00E0064900F00702086897
:103130004FF6FF03184040EA0220034A104308609C
:10314000704700000CED00E00000FA051549B0F5ED
:10315000007F0868C0F3412009D0022805D0086824
:1031600020F4C06040F480600860002070470128AF
:10317000FBD0086820F4C06040F4007008600A4882
:103180000A4A0068B0FBF2F03222504300E0401ED1
:1031900010B14A695205FAD448694005E5D50320C3
:1031A00070470000007000400400002040420F0003
:1031B0000C49086820F4804008600B480B4A0068FE
:1031C000B0FBF2F03222504300E0401E10B14A69D9
:1031D0009205FAD44869800501D503207047002084
:1031E00070470000007000400400002040420F00C3
:1031F0000248016841F4804101607047007000405E
:103200000248816841F4807181607047007000401D
:103210000248416841F4007141607047007000400D
:103220000648016821F00701091D01600448016892
:1032300041F00401016030BF7047000000700040A1
:1032400010ED00E00B490A6822F00702521C0A60E8
:1032500009490A6842F004020A60012807D040BF09
:1032600020BF20BF086820F004000860704730BF0E
:10327000F8E700000070004010ED00E00B490A681C
:1032800022F00702921C0A6009490A6842F004020F
:103290000A60012807D040BF20BF20BF086820F087
:1032A00004000860704730BFF8E70000007000407D
:1032B00010ED00E00248006800F4C06070470000B4
:1032C000007000400248016841F48071016070475D
:1032D0000070004010B50C460D49002848690FD019
:1032E000C043800501D5FFF783FF0A48016821F03C
:1032F00004010160012C08D040BF20BF20BF10BDD9
:103300008005F2D5FFF754FFEFE730BF10BD000096
:103310000070004010ED00E00648016821F0070150
:10332000C91C01600448016841F00401016030BF1C
:10333000704700000070004010ED00E02DE9F047FC
:10334000DFF8688105460E46D8F8000000F0070057
:10335000B0420CD2D8F8001021F007013143C8F870
:103360000010D8F8000000F00700B04274D12878AF
:103370004F4C800705D5A068A96820F0F0000843ED
:10338000A0602878C00756D06868022818D00328A3
:1033900019D02168D0B1490500295DDAA16821F072
:1033A00003010143A160FFF755FE6968074641F23A
:1033B0008830022912D003291ED0814649B335E056
:1033C00021688903E8E721688901E5E78907E3E7E0
:1033D000FFF740FEC11B494501D924E08146A068A2
:1033E000C0F381000228F3D125E000BFFFF732FED1
:1033F000C11B494501D916E08146A068C0F3810090
:103400000328F3D117E000BFFFF724FEC11B494595
:1034100009D8A06810F00C0FF6D10CE0FFF71AFEE7
:10342000C11B494502D90320BDE8F087A068C0F35D
:1034300081000128F2D1D8F80010404601F00701C0
:10344000B1420BD9016821F00701314301600068E6
:1034500000F00700B04201D00120E5E728784007DE
:1034600005D5A068E96820F4E0600843A0602878EA
:10347000000706D5A068296920F4605040EAC10021
:10348000A06000F04BF8A168F02292FAA2F201F0DD
:10349000F001B2FA82F2D140064A515CC8400649B6
:1034A00008600F20FFF7F0FD0020BDE7002002407C
:1034B000001002402C6C0008040000200848094954
:1034C000006889684FF4E06292FAA2F201F4E061C8
:1034D000B2FA82F2D140044A515CC8407047000001
:1034E00004000020001002406C6C000808480949E4
:1034F000006889684FF4605292FAA2F201F46051B8
:10350000B2FA82F2D140044A515CC84070470000D0
:1035100004000020001002406C6C000870B53B49AC
:10352000002318468A683A4C12F00C0F4FEA6405E3
:1035300014D08A68C2F38102032A04D1CA6802F057
:103540000302012A0AD08A68C2F38102012A21D02B
:103550008A68C2F38102022A1ED01EE00A6812079E
:1035600006D4D1F894204FF4706302F4706203E043
:103570000A68F02302F0F00293FAA3F3B3FA83F39C
:10358000DA40244B53F822308A6812F00C0F04D131
:10359000184602E0204600E028468A68C2F381020D
:1035A000032A31D1C868CA6800F00300702696FA71
:1035B000A6F602F07002B6FA86F6F240521C4FF4FC
:1035C000FE46022804D0032805D0B3FBF2F004E045
:1035D000B4FBF2F001E0B5FBF2F0CA6896FAA6F38C
:1035E00002F4FE42B3FA83F3DA40C96850434FF065
:1035F000C06292FAA2F201F0C061B2FA82F2D14046
:10360000491C4900B0FBF1F070BD00000010024001
:103610000024F4003C6C00082DE9F84304460078CF
:10362000FE4DC00663D5A86810F00C0F0AD0A06943
:103630000028286878D040F001002860FFF70AFDD4
:1036400006465AE02868800702D5A06900286AD09B
:10365000216A28684FF0F006000703D5286800F0BB
:10366000F00003E0D5F8940006EA1010814216D964
:10367000084600F09BFC002855D1286840F008005F
:1036800028602868216A20F0F000084328606868F4
:10369000E16920F47F4040EA0120686015E0286875
:1036A00040F0080028602868216A20F0F0000843F4
:1036B00028606868E16920F47F4040EA0120686082
:1036C000206A00F073FC0028D6D1FFF727FFA96815
:1036D00096FAA6F201F0F001B2FA82F2D140D04A95
:1036E000515CC840CF4908600F20FFF7CDFC2BE0AC
:1036F000FFF7B0FC801B02287ED828688007F7D52A
:10370000286840F0080028602868216A20F0F0004E
:10371000084328606868E16920F47F4040EA01209E
:10372000686011E000E0B7E020F001002860FFF7DA
:1037300091FC064605E000BFFFF78CFC801B0228C9
:10374000DAD828688007F7D42078C00748D0A8685E
:10375000C0F3810002281DD0A868C0F381000328AF
:1037600003D1E868C043800714D06068B0F5803F9B
:1037700017D0B0F5A02F286817D020F4803028602B
:10378000286820F4802028606068E0B1FFF762FCC0
:10379000064614E02868800322D5606800287BD0A4
:1037A0001EE0286840F48030EDE740F48020286077
:1037B000F7E700BFFFF74EFC801B64289CD8286801
:1037C0008003F7D50CE0FFF745FC064605E000BF97
:1037D000FFF740FC801B64288ED828688003F7D44C
:1037E0002078800748D5A8684FF0FE47C0F38100D5
:1037F000012816D0A86800E0D4E0C0F381000328B7
:1038000004D1E86800F0030002280AD0E06800282C
:10381000286821D040F480702860FFF71BFC064622
:103820000BE0286840050BD5E0680028B7D007E01A
:10383000FFF710FC801B0228C0D828684005F7D588
:10384000686897FAA7F22169B2FA82F220F0FE4086
:103850009140084368600FE020F480702860FFF713
:10386000F9FB064605E000BFFFF7F4FB801B0228CA
:10387000A4D828684005F7D42078000729D56069C6
:103880000028D5F8940013D040F00100C5F894004A
:10389000FFF7E0FB064606E023E100BFFFF7DAFB97
:1038A000801B02287ED8D5F894008007F6D510E05A
:1038B00020F00100C5F89400FFF7CCFB064604E0B9
:1038C000FFF7C8FB801B02286CD8D5F8940080074E
:1038D000F6D42078400761D5A86D0026C00008D432
:1038E000A86D40F08050A865A86D012600F08050BA
:1038F00000904D480168C90511D40168804641F423
:1039000080710160FFF7A6FB074604E0FFF7A2FB0A
:10391000C01B022846D8D8F80000C005F6D5A0681C
:10392000012815D00528D5F8900016D020F0010008
:10393000C5F89000D5F8900020F00400C5F890007C
:10394000A06841F28838B8B1FFF784FB07460EE063
:10395000D5F8900040F00100F0E740F00400C5F811
:103960009000F5E7FFF776FBC11B41451AD8D5F863
:1039700090008007F6D50CE0FFF76CFB074604E0EB
:10398000FFF768FBC11B41450CD8D5F890008007B4
:10399000F6D41EB1A86D20F08050A865207880066E
:1039A00029D500E084E0606A0028D5F8980011D09D
:1039B00040F00100C5F89800FFF74CFB064604E014
:1039C000FFF748FB801B022872D8D5F898008007C3
:1039D000F6D510E020F00100C5F89800FFF73AFB9B
:1039E000064604E0FFF736FB801B022871D8D5F8A5
:1039F00098008007F6D4A06AF0B3A968C1F38101EA
:103A000003296FD00228286820F0807028601AD01F
:103A1000286800010FD42868800007E000100240E9
:103A20002C6C0008040000200070004003D4E868FB
:103A300020F00300E860E8682B490840E860FFF7E1
:103A400009FB044648E0FFF705FB064605E000BF1A
:103A5000FFF700FB801B02283BD828688001F7D4C1
:103A6000206B54F82C1F000110380843218A1F4A8C
:103A7000490802EB415100E031E0A26841EA02212D
:103A80000843217D4FF07E42490802EB4161084323
:103A9000217B40EAC160E860286840F080702860BF
:103AA000E86840F08070E860FFF7D4FA044606E06A
:103AB0000FE000BFFFF7CEFA001B022809D82868E4
:103AC0008001F7D50BE000BFFFF7C4FA001B022806
:103AD00002D90320BDE8F88328688001F4D40020CF
:103AE000F8E7FFE70120F5E7FFFFEEFE0000E0FF4B
:103AF00010B5401EB0F1807F01D3012010BD4FF002
:103B0000E02460610F21601700F0D8FD0020A06163
:103B100007202061002010BD4FF0E020016921F056
:103B200002010161704770477047000070B501687D
:103B30000446C8690A6810F00F0508D1830606D547
:103B4000930604D52046BDE8704000F0DFBB8B68CB
:103B5000002D66D003F0010502F490762E4360D06C
:103B6000C60707D0D60505D501260E62E16E41F0E5
:103B70000101E166810708D5D90706D02668022130
:103B80003162E16E41F00401E166410708D5D907D1
:103B900006D0236804211962E16E41F00201E1665A
:103BA00001070AD502F02001294306D02368082125
:103BB0001962E16E41F00801E166E16E002929D049
:103BC000800604D5900602D5204600F09FFBE06EEB
:103BD000000703D42068806840061CD5204600F00A
:103BE00087FB20688168490611D5816821F0400172
:103BF0008160606E58B133498163606EFFF714F9DC
:103C0000002807D0606E816BBDE8704008472046F1
:103C1000FFF78AFF70BD2046FFF786FF0020E066B1
:103C200070BD8D68C6024FF020030CD56D020AD519
:103C3000D803086284F8693084F86A302046BDE809
:103C40007040FFF770BF05062ED515062CD594F8E9
:103C500069002128E4D1B4F8520020B1A068B0F581
:103C6000805F0AD00BE0086820F0800008602068C0
:103C7000016841F04001016070BD206958B1E06CFD
:103C8000411CE16421680078A1F8280034F8520F43
:103C9000401E208070BDE06C0088C0F308000885DD
:103CA000E06C801CE064F1E74006F3D55006F1D5E6
:103CB000086820F04000086084F86930204600F071
:103CC00047F970BDDD42000810B5040003D094F838
:103CD000690010B107E0012010BD002084F86800E1
:103CE000204600F027F8242084F869002068016845
:103CF00021F001010160204600F044FB0128EBD0D7
:103D0000606A10B1204600F057FA2068416821F43B
:103D1000904141602068816821F02A01816020681B
:103D2000016841F0010101602046BDE8104000F04B
:103D3000A7BA000030B52F4A01682F480225012498
:103D400087B0914222D1C16C41F00101C164C16CC4
:103D500001F001010591816D41F400318165806DB3
:103D6000694600F4003005900C200090CDE9015424
:103D70000720CDE903404FF09040FFF787F800227D
:103D800001212620FFF7B0F926202EE01B4A9142A0
:103D90002DD1C16C41F04001C164C16C01F0400102
:103DA0000591C16D41F00101C165C16D01F00101D5
:103DB0000591816D41F080518165806D00F08050EA
:103DC0000590FFF725FA4FF4C0700090CDE901543B
:103DD0000820CDE9034069460948FFF757F800225B
:103DE00001214620FFF780F94620FFF76FF907B061
:103DF00030BD000000440040001002400080004040
:103E00000018004890F86A30202B3FD1B9B1B2B108
:103E100090F86830012B39D0012380F86830416573
:103E2000A0F85820A0F85A208168FF22B1F5805FE1
:103E300007D07F2351B1B1F1805F0CD010E0012099
:103E40007047016921B940F2FF1107E00169D1B95A
:103E5000A0F85C2004E00169A9B13F21A0F85C1042
:103E60000021C166222280F86A2080F8681001686B
:103E70008A6842F001028A600068016841F490712A
:103E8000016000207047A0F85C30E9E7022070472D
:103E90000149012088707047200000202DE9F84377
:103EA000044690F869001F4616460D4620284DD15D
:103EB000CDB1C6B194F86800012847D0012084F83C
:103EC00068004FF00008C4F86C80212084F8690075
:103ED0005034FFF7BFF824F8026B814624F852698A
:103EE0004FF4805618E00120BDE8F883B4F8520082
:103EF000401EA4F852004B46002280212046009725
:103F000000F08CFBA0B9A068B04201D1206988B153
:103F100015F8010B21680885B4F852000028E5D196
:103F20004B46002240212046009700F077FB30B13D
:103F30000320D9E735F8020BC0F30800EAE7202098
:103F400084F8690084F868800020CDE70220CBE780
:103F50007047FEE70C4810B50A4901604FF416514E
:103F6000416000218160C1600C220161C0E905212E
:103F7000C1610162FFF7A8FE002801D0FEF740FEF4
:103F800010BD0000008000400C01002010B546204C
:103F9000FFF78FF8BDE810400148FFF7C7BD0000EC
:103FA0000C010020FEE7704770470000F8B51C4D7B
:103FB00006460024A86DC00002D5FFF77BF90DE08E
:103FC000A86D40F08050A865A86D00F0805000906A
:103FD000FFF770F9A96D21F08051A965B0F5007F58
:103FE00004D0802E07D94FF003040AE0802E08D9B0
:103FF000A02E01D804E001D1022402E0702E00D1ED
:1040000001240848016821F007012143016000688C
:1040100000F00700A04201D00120F8BD0020F8BD4B
:10402000001002400020024000B591B044216846D3
:10403000FEF79BF904200090012002906846FFF7EC
:10404000EBFA08B1FEF7DCFD084850F8901F21F0AC
:1040500018010160016821F4407141F48071016030
:10406000016841F40041016011B000BD0010024040
:104070007047FEF7F5BF10B596B0142111A8FEF7F2
:1040800074F944216846FEF770F910200090012071
:104090000024CDE9060490210A9008916846FFF7B4
:1040A000BBFA58B90F20CDE91104139414940321DD
:1040B00011A81594FFF742F9002801D0FEF7A0FDE2
:1040C00016B010BD30B597B0142111A8FEF74DF908
:1040D00044216846FEF749F9102001250090069515
:1040E00050200024CDE9074068460A94FFF794FA6F
:1040F00050B9CDE9115413941494002111A81594CA
:10410000FFF71CF9002801D0FEF77AFD17B030BD8B
:1041100010B596B0142111A8FEF727F9442168467E
:10412000FEF723F910200090012060210024069062
:10413000CDE907410221CDE90A100C9028200D900D
:1041400007200E900420CDE90F016846FFF764FABE
:1041500060B90F2011900320CDE9120414940421BA
:1041600011A81594FFF7EAF8002801D0FEF748FDE2
:1041700016B010BD0D48016841F4700101600C4893
:10418000016841F001010160002181600268094B72
:104190001A4002608214C260026822F48022026027
:1041A00081610249C00380390860704788ED00E0F2
:1041B00000100240FFFFF6EA90F82410C90706D06D
:1041C00001684A68836A22F400321A434A6090F810
:1041D0002410890706D501684A68C36A22F4803230
:1041E0001A434A6090F82410490706D501684A68C6
:1041F000036B22F480221A434A6090F824100907C6
:1042000006D501684A68436B22F400421A434A60AB
:1042100090F82410C90606D501688A68836B22F4D9
:1042200080521A438A6090F82410890606D50168E6
:104230008A68C36B22F400521A438A6090F82410F3
:10424000490611D501684A68036C22F480121A43AA
:104250004A60016CB1F5801F06D101684A68436C61
:1042600022F4C0021A434A6090F82410090606D5C9
:1042700001684A68806C22F4002202434A60704759
:10428000F8B500260446C666FEF7E4FE054620683B
:1042900000686FF07E47000708D52B4600224FF4D8
:1042A00000112046009700F0B9F960B92068006855
:1042B00040070AD52B4600224FF480012046009784
:1042C00000F0ACF908B10320F8BD202084F86900A3
:1042D00084F86A0084F868600020F8BD10B5806A30
:1042E0000021A0F85A10A0F85210FFF71DFC10BDD5
:1042F00001680A6822F490720A6001688A6822F0F4
:1043000001028A60202180F86A10704710B5B0F869
:104310005C2090F86A300168222B05D0088B40F0B1
:1043200008000883022010BD898C8368B3F5805F84
:1043300001D103696BB11140426D531C436511708B
:10434000B0F85A10491E0904090CA0F85A1007D0F9
:1043500015E0436D11401980416D891C4165EFE7FF
:1043600001680A6822F490720A6001688A6822F083
:1043700001028A60202180F86A10FFF789FD002081
:1043800010BD00002DE9F0410446016880682669EF
:10439000D4F81CC0304366691025002246EA0C069A
:1043A0003043924B0E681746DFF844C206EA0C060B
:1043B00006430E6020684168E66821F440513143AD
:1043C00041602168A069994201D0266A30438E6815
:1043D00026F4306606438E60864E21688648B142D8
:1043E0000DD1D0F8880010F0030006D001285AD073
:1043F000022856D0032859D157E0012556E07F4EB8
:10440000B1420BD1D0F8880010F00C0047D004283E
:1044100049D0082845D00C2848D146E0784EB14212
:104420000BD1D0F8880010F0300038D010283AD0E6
:10443000202836D0302839D137E0724EB1420BD126
:10444000D0F8880010F0C00029D040282BD0802858
:1044500027D0C0282AD128E06B4EB1420ED1D0F827
:10446000880010F440701AD0B0F5807F1BD0B0F5F2
:10447000007F16D0B0F5407F18D116E0994215D1D3
:10448000D0F8880010F4406009D0B0F5806F0AD0F1
:10449000B0F5006F05D0B0F5406F07D105E00025FD
:1044A00004E0022502E0042500E00825574E4FF401
:1044B0000040994244D135B1022D07D0042D07D0D8
:1044C000082D10D107E0FEF7F9FF03E0304602E0C7
:1044D000FFF724F898B3626802EB4201814202D8E8
:1044E000B0EB023F01D901277CE000266DB1022D1F
:1044F0000ED0042D13D0082D1AD00127444AA0F560
:1045000040719142EFD821686BE0FEF7D7FF08E0D9
:10451000500840490FE00023FDF7ECFEEEE7FEF700
:10452000FDFF6268010E0302500818187141F2E79E
:1045300050084FF40001401846F10001EBE751E04C
:10454000E369834227D1092D1ED2DFE805F0050873
:10455000131D161D1D1D1900FEF7B0FF01E0FEF72B
:10456000C5FF4100D4F8040001EB5001B1FBF0F0AD
:1045700082B20AE028496068F6E7FEF7CFFFF0E76D
:104580004FF480316068EFE7012722F00F00C2F39B
:1045900042010843B7E7092DA5D2DFE805F0060977
:1045A0000C05120505051C009DE7FEF787FF0AE0D4
:1045B000FEF79CFF07E0606806EB5002B2FBF0F0EC
:1045C0000EE0FEF7ABFF0146606801EB5001B1FB66
:1045D000F0F080B297E7626800EB5200B0FBF2F0B7
:1045E00080B2C8603846BDE8F0810000008000401D
:1045F000F369FFEF00380140001002400044004022
:1046000000480040004C0040005000400024F400EE
:10461000FFFC0F00000024F40048E8012DE9F04100
:10462000984617460E460446069D1DE0681C1BD0A2
:104630002DB1FEF70FFDA0EB0800A84214D92068A9
:10464000016821F4D07101602068816821F00101C6
:104650008160202084F8690084F86A00002084F8D2
:1046600068000320BDE8F0812068C06936EA0000D8
:1046700004D00020B842D9D00020F3E70120F9E7A8
:1046800010B52620FEF715FDBDE810400148FFF7E4
:104690004DBA00000C010020FEE700000FB4054BEE
:1046A00010B503A9044A029800F0EEF810BC5DF8BA
:1046B00014FB0000BD4F0008D00000200907090EC0
:1046C000002804DB00F1E02080F80014704700F0BF
:1046D0000F0000F1E02080F8141D704702E008C8C8
:1046E000121F08C1002AFAD170477047002001E06C
:1046F00001C1121F002AFBD1704700002DE9FF5FA6
:1047000082B00021DDE90430020DDDF840B0034342
:1047100018D044F61050A2F2FF32424315141198FB
:1047200001281FD0A5EB0B00401C5FEA000A4FF0E8
:1047300000064E4FDFF83891B046504615D5CAF105
:10474000000413E0119801244AA3012801D16FEA63
:104750000B010298119AC0E90031C0E9024206B08B
:1047600000F08EB8CBF10000DFE704460021404A9C
:10477000491842EB0450CDE9001012E0E00707D0E1
:1047800032463B4640464946FEF75CF8804689463D
:1047900032463B4610461946FEF754F806460F4689
:1047A0006410002CEAD1DDE90401DDE90023BAF14F
:1047B000000F06DAFEF746F842464B46FEF742F88F
:1047C00005E0FDF7EBFD42464B46FDF7E7FD0446ED
:1047D0000E460022284BFEF7C3F803D84FF0FF30F7
:1047E000014607E00022254B20463146FDF77BFFBE
:1047F000FEF79DF8102409E0002C0ADB0A220023B2
:10480000FDF778FD039B30321A55641E50EA010211
:10481000F2D1641C039AC4F111031444119A012AC1
:1048200003D0012208430DD10AE0084304D0002040
:104830004FF0110B119072E7A3EB0B056D1E0DE00D
:104840005B4504DD4FF0000205F1010504E003DAE9
:104850004FF00002A5F10105002AECD00298119951
:10486000C0E90231C0E9004579E7000000001440CA
:104870000000F03F300000000000F0430000E03F87
:1048800030BCBDE8C09F00002DE9FF4F95B09B46AE
:104890008946064600250FE2252877D100242746C1
:1048A000F84A0121059400E0044316F8013F203B3B
:1048B00001FA03F01042F7D130782A2811D06FF0B6
:1048C0002F033078A0F13002092A16D8059A44F057
:1048D000020402EB820203EB42021044761C0590B4
:1048E000EFE759F8042B0592002A03DA504244F40A
:1048F0000054059044F00204761C30782E2816D11E
:1049000016F8010F44F004042A280DD06FF02F028E
:104910003078A0F13003092B09D807EB870302EBAD
:104920004303C718761CF3E759F8047B761C3078EC
:104930006C280FD006DC4C2817D068280DD06A28C8
:1049400014D104E0742810D07A280FD10DE044F47B
:1049500000140AE044F4801401E044F44014727836
:10496000824202D104F58014761C761C30786628C9
:104970000BD013DC582877D009DC002875D04528E7
:10498000F6D04628F4D047281AD19DE118E06328D4
:1049900035D0642879D0652812D195E1702873D07C
:1049A00008DC6728F1D069286FD06E280DD06F28F9
:1049B00006D1B5E073282CD0752875D0782874D02E
:1049C0005A46179990476D1C75E1C4F302500228AE
:1049D00009D003280DD0D9F8001004280DD00D609F
:1049E00009F1040967E1D9F80010EA17C1E900529A
:1049F000F6E7D9F800100D80F2E70D70F0E719F82E
:104A0000041B8DF8001000208DF80100EA460120FB
:104A100003E059F804AB4FF0FF3061074FF000019D
:104A200002D40DE008F101018846B9420FDA804551
:104A3000F8DB1AF808100029F4D108E008F10101A8
:104A400088468142FADB1AF808100029F6D1059849
:104A50005B46A0EB080721463846179A00F097FA04
:104A6000284400EB080507E04DE029E10DE01AF8C5
:104A7000010B5A4617999047B8F10108F7D25B46E7
:104A800021463846179A13E142E00A220092C4F305
:104A900002524FF0000A022A08D059F804CB032A28
:104AA0004FEAEC710AD00DE029E02AE009F1070194
:104AB00021F00702F2E802C1914609E00FFA8CFCEE
:104AC0004FEAEC71042A03D14FFA8CFC4FEAEC71E7
:104AD000002907DA0A460021DCF1000C61EB020133
:104AE0002D2202E0220504D52B228DF8042001227C
:104AF00003E0E20701D02022F7E7904659E00A21BF
:104B000002E010220DE010214FF0000A00910BE0AE
:104B100010224FF0000A44F004040827009203E03A
:104B200008224FF0000A0092C4F30252022A05D074
:104B300059F804CB0021032A08D009E009F1070144
:104B400021F00702F2E802C1914605E01FFA8CFC51
:104B5000042A01D10CF0FF0C4FF00008220728D5E1
:104B6000702806D0009B83F0100353EA0A0305D097
:104B70000EE040228DF80420012208E05CEA0102E8
:104B800006D030228DF804208DF8050002229046D0
:104B9000009B83F0080353EA0A030AD15CEA01028E
:104BA00001D1620705D530228DF804204FF00108AD
:104BB0007F1E582804D034A003900EA802900DE068
:104BC00036A0F9E753466046009AFDF793FB84460A
:104BD0000398825C0298401E029002705CEA010019
:104BE000F0D1029806A9081A00F1200A600702D540
:104BF00024F4803400E00127574502DDA7EB0A00CA
:104C000000E0002000EB0A01009005984144401AA2
:104C10000590E00306D45B462146179A059800F0FC
:104C2000B6F90544002706E001A85A46C05D179969
:104C300090476D1C7F1C4745F6DBE0030CD55B46B7
:104C40002146179A059800F0A2F9054404E03020A7
:104C50005A46179990476D1C0099481E00900029EC
:104C6000F5DC08E0029802995A460078491C029146
:104C7000179990476D1CBAF10001AAF1010AF1DC05
:104C800065E1000009280100303132333435363710
:104C90003839616263646566000000003031323388
:104CA0003435363738394142434445460000000028
:104CB00000F05BF90544761C307800287FF4ECADF9
:104CC00019B0284600F04EB9620700D4062709F152
:104CD000070222F0070CFCE80223E14603F000483B
:104CE0005FEA080C02D00FF2702C0DE05FEA045C62
:104CF00002D50FF2682C07E05FEAC47C02D00FF205
:104D0000602C01E0AFF2700C4FF0FF3823F000434D
:104D1000CDF850C065280CD006DC452809D04628BF
:104D20001DD047283DD13DE0662818D067287ED1A8
:104D300038E00021112F01DB112000E0781CCDE9C3
:104D4000000106A90EA8FFF7D9FCDDE90F010E9AB4
:104D500003910021009207F1010A04914DE04FF008
:104D600000400097CDE9011006A90EA8FFF7C6FC88
:104D7000DDE90F0203920E9B11990022DDF80CA0D1
:104D80000093049211B9791C00EB010AB7EB0A00F9
:104D900004D4C0F1FF3007F1010A0490AAEB070028
:104DA000019044E0012F00DA01270021112F01DDDD
:104DB000112000E03846CDE9000106A90EA8FFF752
:104DC0009DFCDDE90F010E9A0391002104910092F0
:104DD000BA4621070CD40399514500DA8A46BAF144
:104DE000010F05DD009AAAF10101515C302908D0BC
:104DF000B84202DA10F1040F06DA0121CDE9011000
:104E000015E0AAF10101E9E7002805DC0499014455
:104E10000491AAEB000102E0411C514500DD8A46E5
:104E20000499401A401C01904FF000400290200766
:104E300004D40198504501DBCDF8048000208DF8A2
:104E40004F0002980DF14F07B0F1004F25D02B20F5
:104E50000E9002984FF0020800280CDA40420290AF
:104E60002D200E9007E00A210298FDF773FB3031E8
:104E7000029007F8011DB8F10001A8F10108F2DC69
:104E800002980028EFD1791E0E980870307800F053
:104E9000200040F0450007F8020D12A8C01B00F1E9
:104EA00007081498007800B1012000EB0A0101986E
:104EB00001EBE07105984144401A401E0590E00363
:104EC00006D45B462146179A059800F060F8054421
:104ED0001498007818B15A46179990476D1CE00352
:104EE00024D55B462146179A059800F050F80544F2
:104EF0001CE00498002807DBDDE90301884203DD9C
:104F00000098405C179901E0179930205A46904765
:104F1000049805F10105401C04900198401E019081
:104F200004D12E205A46179990476D1CBAF1000102
:104F3000AAF1010ADDDC05E017F8010B5A461799C2
:104F400090476D1CB8F10001A8F10108F4DC5B4644
:104F50002146179A0598ABE62D0000002B000000B3
:104F60002000000030BCBDE8C08F2DE9F0410446B0
:104F700000251E461746880404D405E03946202043
:104F8000B0476D1C641EF9D52846BDE8F0812DE9B7
:104F9000F041044600251E469046C80301D530273F
:104FA00000E02027880404D505E041463846B04794
:104FB0006D1C641EF9D52846BDE8F08113B54FF687
:104FC000FF73012269460248FEF768FF00981CBD86
:104FD0000C01002070B50D4C60686FF07F41A0FBA4
:104FE00001026369CD1A0023281843EB02012269EC
:104FF0004FF47A75801A064A61EB03011268B2FB1E
:10500000F5F2FDF777F9A06070BD000050000020B8
:10501000040000202DE9F0410446C66900202087E5
:105020006087A087E0870546471E12E001212046E1
:10503000FBF7B6F9218FFCF7A8FF208739462046F9
:10504000FBF7AEF9218FFCF7A0FF208705B9608739
:105050006D1CB542EAD30020BDE8F08192B0FEF7A6
:1050600007F89D4CA06D40F08050A065A06D00F049
:1050700080500090FEF726F944216846FDF775F947
:1050800004200025009002956846FEF7C5FAB8B9DD
:105090006015FEF75BF8A06D20F08050A065FEF76C
:1050A00059FF01278D4E8E4CC2E06570DFF83082CB
:1050B0001AE08A4801228A492030FEF7A3FE08B18F
:1050C000FDF79EFDA0780028FCD0A57098F8001090
:1050D0002171E0883218401CE08011700D2901D048
:1050E0000A2901D1E580677060780128E1D1A046E6
:1050F000E77030467BA1A660FDF742F900287DD01D
:1051000079A1D8F80800FDF73BF9002877D077A1FE
:10511000D8F80800FDF734F9002871D074A1D8F848
:105120000800FDF72DF900286BD072A1D8F808000F
:10513000FDF726F9002865D06FA1D8F80800FDF723
:105140001FF9002879D06DA1D8F80800FDF718F9EB
:10515000002874D06AA1D8F80800FDF711F90028DA
:105160006FD068A1D8F80800FDF70AF900286AD0C6
:1051700065A1D8F80800FDF703F9002871D063A1F4
:10518000D8F80800FDF7FCF800286CD060A1D8F82A
:105190000800FDF7F5F800286FD05EA1D8F80800E8
:1051A000FDF7EEF800287CD05BA1D8F80800FDF7E9
:1051B000E7F8002878D059A1D8F80800FDF7E0F802
:1051C000002874D056A1D8F80800FDF7D9F8A8B384
:1051D00054A1D8F80800FDF7D3F888B352A1D8F845
:1051E0000800FDF7CDF868B350A1D8F80800FDF726
:1051F000C7F848B34EA1D8F8080004E025E027E03E
:1052000029E02BE030E0FDF7BBF858B348A1D8F80F
:105210000800FDF7B5F828B346A1D8F80800FDF757
:10522000AFF858B388F8035020212C48FDF79DF8BB
:10523000E07801287FF439AFFEE718E03AE019E0A2
:105240003BE01DE03CE01EE03DE001F0F7FBEFE756
:1052500001F04CFCECE701F05BFCE9E701F06CFCD1
:10526000E6E713E032E014E001F0A6FCE0E701F02D
:10527000B7FCDDE701F076FCDAE70FE029E010E0AB
:1052800001F084FCD4E700F0EBF8D1E700F0C8F8B7
:10529000CEE701F007FCCBE706E008E001F0E0FB19
:1052A000C6E701F081FBC3E701F06EFBC0E700F049
:1052B00053FFBDE701F038F9BAE701F035FBB7E776
:1052C00001F010FBB4E700F04FFDB1E700F054F936
:1052D000AEE700F051FBABE700100240EC0000200D
:1052E00020000020300D0000310D0000320D0000C4
:1052F000330D0000340D0000350D0000360D0000A8
:10530000370D0000380D0000390D000031300D0060
:1053100031310D0031320D0031330D0031340D00CB
:1053200031350D0031360D0031370D0031380D00AB
:1053300031390D0032300D0000210170FEE7000010
:10534000054900229FED050A0A700122027081EDD5
:10535000030A00F0EBB8000050000020000000003D
:10536000054900229FED050A0A700122027081EDB5
:10537000030A00F0C3B80000500000200000000045
:10538000044901229FED040A0A70027081ED030AAC
:1053900000F0AAB8500000200000000004490122DB
:1053A0009FED040A0A70027081ED030A00F082B8D2
:1053B0005000002000000000044901229FED040A73
:1053C0000A70027081ED030A00F07EB850000020E0
:1053D00000000000084A002151604FF0E02083697E
:1053E0001361064A4261064BF02283F8142D816155
:1053F000072101617047000050000020FEFFFF0000
:105400000FE000E04FF0E020016921F001010161AF
:105410008169024A5161002181617047500000207A
:1054200008B5FDF763FCFEF74DFEFEF775FB0B4C70
:10543000E06D20F00100E065A06D40F08050A065B7
:10544000A06D00F080500090FDF7D2FEA06D20F01E
:105450008050A06500BF00BFFEE7000000100240C2
:1054600008B5FDF743FC1148016841F48041016033
:10547000FEF728FEFEF750FB0D4800218166C1664D
:1054800001678167C167C0F8801050F8581F41F06C
:10549000805140F85419406D012100F08050009077
:1054A000BDE808408803FDF715BF0000002002405A
:1054B0000010024010B5FEF72BFEFEF74BFDBDE8D5
:1054C0001040FEF729BB0000064810B5016821F422
:1054D00080710160FEF7CFFDFEF73CFDBDE8104096
:1054E000FEF71ABB0020024010B5FEF7C4FDFEF720
:1054F00031FDBDE81040FEF70FBB0000094810B5B4
:10550000016821F480710160FEF702FEFDF7EEFBF9
:105510000548C16D21F00101C165BDE81040FEF7ED
:10552000FBBA0000002002400010024038B51048CD
:10553000016821F480710160FEF79DFD0D4CA06DA6
:1055400040F08050A065A06D00F0805000902015C4
:10555000FDF7FCFDA06D20F08050A065FDF7C6FBB7
:10556000E06D20F00100E065BDE83840FEF7D4BAF8
:1055700000200240001002402DE9F34F2DED068B74
:1055800000249BB0FFEE009ADFF8ACA300942646FF
:10559000A046CAED009A9FEDE99ADFF8A4B30A4647
:1055A0000DF14E008BED009A21A91A90FFF7F6FE3F
:1055B0000120FCF791FCADF80C000220FCF78CFCFC
:1055C000ADF80E000320FCF787FCADF81000DD48B5
:1055D000007840B14FF47A700A900520FCF77CFC0B
:1055E0000B9018B104E043F69820F5E707200B90E4
:1055F000BDF90C006621002238B9BDF80E3023B980
:10560000BDF810300BB9ADF8101001280DD1BDF860
:105610000E0050B9BDF8100038B943F21540ADF88E
:105620000C00ADF80E00ADF81010C74805904FF40F
:10563000FA6009900020ADF84C2001210B9D01FA81
:1056400000F32B4201D0761CB6B2401C80B2202859
:10565000F4D300200DF10C0500EB001305EB8303E0
:10566000401C9F690004B7FBF6F79F61000CF3D064
:10567000002089460B9A09FA00F1114208D0099AD4
:10568000059902FB041105EB8002641CA4B2D160F1
:10569000401C80B22028EDD35FF0000606EB061711
:1056A00005EB870494F82000C00706D035F92720C1
:1056B000E1680998FAF79CFF606294F8200080077F
:1056C0000AD535F92700618804F1280340EA014230
:1056D00021690998FBF7DEFD94F82000400705D505
:1056E00035F9271062690998FCF7E2FA761C36044E
:1056F000360CD3D00A9870BB9FED948B9FED95AB81
:10570000CDF8289013E00A9800EB800040000A9042
:10571000FFF760FE03A8FFF77DFCFFF773FEFFF7BE
:1057200059FC01F073FAB0EE408AF0EE608A53EC57
:105730001A2B51EC180BFCF7D9FEE4D351EC180BE3
:10574000FCF7A8FE00B901200A21B1FBF0F00A998C
:10575000401C48430A90FFF73DFE03A8FFF75AFCA0
:10576000FFF750FEFFF736FC1490BDF90C000099CE
:10577000FCF74AFD0146BDF90E00FCF745FD014668
:10578000BDF91000FCF740FD0146099800B2FCF796
:105790003BFD47F60532811A904214D00ADC00F234
:1057A0000E70B0F5005014D000F64320B0F5804FD5
:1057B00055D10AE0A1F56061FD390BD00D31B1F58D
:1057C000C04F4CD103E0012104E0022102E003219B
:1057D00000E00421DFF884910022D9F8006039E06C
:1057E00002EB021005EB80000023A0F84030046AB1
:1057F000E7070BD0DFF848C1478F0CF1040C3CF8E9
:1058000011C0674502D05B1CA0F84030A3070BD540
:105810004B4F838F0E3737F81170BB4204D0B0F86E
:1058200040305B1CA0F8403063070BD5444CC38F5D
:10583000183434F81140A34204D0B0F840305B1C57
:10584000A0F84030B0F84030521C03EB08000FFACB
:1058500080F892B2B242C3D3B8F1000F04D0CAEDBF
:10586000009A8BED009AFEE7149801F0CFF9B0EEA4
:10587000408A9DED0A0AF0EE608A4D46F8EE400A35
:1058800099ED000AB8EE400A20EE800A10EE100AE8
:10589000FCF719FE53EC182BFCF780FDFCF73EFEDD
:1058A000CAF800002E482F4954460068B0FBF1F0BA
:1058B000FCF7E3FD41EC180B149801F0A7F9B0EEEA
:1058C000409A9DED0A0AF0EE609AF8EE400A95EDD6
:1058D000000AB8EE400A20EE800A10EE100AFCF72B
:1058E000F2FD53EC192BFCF759FD53EC182BFCF788
:1058F00055FDFCF713FECBF800005D462068FCF771
:10590000E2FD41EC100B184853EC102BFEF7C6FEDD
:105910002868FCF7D8FD41EC100B144853EC102B11
:10592000FEF7BCFE1A98FFF707FD1BB00020BDEC88
:10593000068B00F01DB800005C0000200000000095
:105940002C000020500000207C01002000000000FE
:1059500000000000000000000000F03F7C0000207C
:105960000400002040420F00C86C0008146D0008BD
:105970001CBCBDE8E08F00002DE9F34F2DED068B38
:1059800000249BB0BFEE009ADFF89CA3009426464B
:10599000A0468AED009ADFEDE59ADFF894B30A4657
:1059A0000DF14E00CBED009A21A91990FFF704FDEF
:1059B0000120FCF791FAADF80C000220FCF78CFAFC
:1059C000ADF80E000320FCF787FAADF81000D948B7
:1059D000007840B14FF47A700A900520FCF77CFA09
:1059E0000B9018B104E043F69820F5E707200B90E0
:1059F000BDF90C106620002239B9BDF80E3023B96C
:105A0000BDF810300BB9ADF8100001290DD1BDF86B
:105A10000E1051B9BDF8101039B943F21541ADF867
:105A20000C10ADF80E10ADF81000C34805904FF4FF
:105A3000FA6009900020ADF84C2001210B9D01FA7D
:105A400000F32B4201D0761CB6B2401C80B2202855
:105A5000F4D300200DF10C0500EB001305EB8303DC
:105A6000401C9F690004B7FBF6F79F61000CF3D060
:105A7000002089460B9A09FA00F1114208D0099AD0
:105A8000059902FB041105EB8002641CA4B2D160ED
:105A9000401C80B22028EDD35FF0000606EB06170D
:105AA00005EB870494F82000C00706D035F92720BD
:105AB000E1680998FAF79CFD606294F8200080077D
:105AC0000AD535F92700618804F1280340EA01422C
:105AD00021690998FBF7DEFB94F82000400705D503
