:020000040800F2
:10000000780D0020A1010008C3440008BF44000887
:10001000C1440008912B0008114C000800000000AA
:10002000000000000000000000000000094500087A
:10003000932B000800000000C54400080D4500088F
:10004000BB010008BB010008BB010008BB010008A0
:10005000BB010008BB010008BB010008BB01000890
:10006000BB010008BB010008BB010008BB01000880
:10007000BB010008BB010008BB010008BB01000870
:10008000BB010008BB010008BB0100080000000024
:10009000000000000000000000000000BB0100089C
:1000A000BB010008BB010008BB010008BB01000840
:1000B000BB0100080000000000000000BB010008B8
:1000C000BB010008BB010008BB010008BB01000820
:1000D000BB010008BB010008F94B0008BB01000888
:1000E000BB010008BB010008000000000000000088
:1000F0000000000000000000000000000000000000
:1001000000000000000000000000000000000000EF
:100110000000000000000000BB010008000000001B
:10012000BB010008BB010008BB010008BB010008BF
:10013000BB010008000000000000000000000000FB
:10014000BB010008BB010008BB010008BB0100089F
:10015000BB010008BB010008BB010008BB0100088F
:10016000BB010008BB010008000000000000000007
:1001700000000000BB0100080000000000000000BB
:10018000BB010008BB010008BB010008DFF80CD070
:1001900002F0D0FB00480047A9550008780D002068
:1001A0000648804706480047FEE7FEE7FEE7FEE711
:1001B000FEE7FEE7FEE7FEE7FEE7FEE71D46000876
:1001C0008D010008F0B5044683B0B4F900600D4617
:1001D000300648BF06F07F0034D4C6F3C30040EABF
:1001E000001116F0070002D0012813D01CE02229CC
:1001F000B8BF2221288F01900091B5F90230B5F9DE
:1002000000206969A86901F075FB07B2E88F60B941
:10021000EF870AE02A8F05F1280000F0ADFB07B256
:10022000A88F10B9AF8700E03746298FB8B201F028
:100230008CFE288726F0FF0107F07F00014341F084
:100240008001218003B0F0BD2DE9F041074682B066
:10025000B7F9004088461546200648BF04F07F06DF
:1002600033D4C4F3C30040EA001114F007000BD0EC
:1002700001281CD12A8F05F1280000F07DFB06B271
:10028000A88FA8B9AE8713E02229B8BF2221288FF2
:1002900001900091B5F90230B5F900206969A869AB
:1002A00001F028FB06B2E88F10B9EE8700E0264681
:1002B000298FB0B201F049FE288706F07F0624F0AE
:1002C000FF00304340F080003880B8F900703806F5
:1002D00048BF07F07F0034D4C7F3C30040EA0011E1
:1002E00017F007000BD001281CD12A8F05F1280038
:1002F00000F042FB04B2A88FA8B9AC8713E0222912
:10030000B8BF2221288F01900091B5F90230B5F9CC
:1003100000206969A86901F0EDFA04B2E88F10B90C
:10032000EC8700E03C46298FA0B201F00EFE288742
:1003300027F0FF0104F07F00014341F08001A8F89D
:100340000010301A02B0BDE8F08172B9825EB0F9D7
:100350000030121262F307030380B1F90020B1F9F3
:100360000030121262F307030B80B0F90200B1F9FA
:100370000210401A70470A880280498841807047FD
:100380002DE9F04F024681B0B2F90460546A0023AF
:1003900000259A469C468946B6F1010FC0F28D8031
:1003A0000FFA89F95FFA85F82746B9F1000F21D4D1
:1003B000002F1EBF7868B0F9020048451CBF3F6897
:1003C000002F31D07868B0F9020048451CBF3F6863
:1003D000002F29D07868B0F9020048451CBF3F685B
:1003E000002F1EBF7868B0F9020048451CD03F6856
:1003F000DEE73F68C7B17868007840451CBF3F68BA
:10040000002F11D07868007840451CBF3F68002F4E
:100410000AD07868007840451CBF3F68002F1EBF97
:10042000786800784045E4D120465FF00004D8B1F8
:10043000D0F800B00460BBF1000F04461FBFDBF82A
:100440000000CBF800405C4600280DD0D0F800B08A
:100450000460BBF1000F04461FBFDBF80000CBF8BF
:1004600000405C460028E3D14FB920684068B0F9ED
:100470000000C0F300200CF1010CC31813E07868F1
:10048000B0F900000AF1010A5FEAC07B44BFC0F383
:100490004020C318386830B1D0F800B0C7F800B0B9
:1004A000276807602060B9F1000F58BF09F1010902
:1004B000681C05B2B542FFF673AF03EB8A00A0EBF0
:1004C0000C0A012904DBBD49204600F00BFA044662
:1004D0002068056841686A68426069602646296844
:1004E000016000200FFA89F12860002921D4002E34
:1004F0001EBF7068B0F9020088421CBF3668002E2B
:1005000033D07068B0F9020088421CBF3668002EF4
:100510002BD07068B0F9020088421CBF3668002EEC
:100520001EBF7068B0F9020088421ED03668DEE750
:100530003668D6B1716809780FFA88F841451CBF52
:100540003668002E11D07168097841451CBF3668A5
:10055000002E0AD07168097841451CBF3668002E0C
:100560001EBF716809784145E2D106B9266856B1C7
:100570006068B0F900001FFA8AF101F025FE3668C4
:100580008246002EF4D12068696842686A60416042
:1005900000220168296005602046894900F0A2F91F
:1005A0000446D4F80080B8F1000F0CD06068B0F9B0
:1005B00000001FFA8AF101F007FED8F80080824699
:1005C000B8F1000FF2D11FFA8AF001B0BDE8F08F48
:1005D0002DE9F0471423B0FBF3F0A0F1020A08461E
:1005E000002601EBCA030660436000275F800831E4
:1005F000744F1F801E1D01F1080703EB8A099F42FB
:100600003CBF371D4F450DD20F4600243C600760AC
:100610007E6008317F684FF0FF343C80361D47F61E
:10062000FF747C804FF0000EBAF1000F00F0A5803F
:100630001AF0030C47F6FF7700F021808EEA0204DF
:1006400004F00F050EF0070444EAC50444EA042848
:1006500001F108049C423CBF341D4C450AD20C46B3
:10066000056825600460666008316468361DA4F87A
:10067000008067800EF1010EBCF1010CDED15FEA53
:100680009A0C7AD08EEA020404F00F050EF00704EB
:1006900044EAC50444EA042801F108049C423CBF32
:1006A000341D4C450AD20C4605682560046066601E
:1006B00008316468361DA4F8008067800EF1010ED1
:1006C0008EEA020404F00F050EF0070444EAC504A4
:1006D00044EA042801F108049C423CBF341D4C4507
:1006E0000AD20C46056825600460666008316468BB
:1006F000361DA4F8008067800EF1010E8EEA020418
:1007000004F00F050EF0070444EAC50444EA042887
:1007100001F108049C423CBF341D4C450AD20C46F2
:10072000056825600460666008316468361DA4F8B9
:10073000008067800EF1010E8EEA020404F00F05BE
:100740000EF0070444EAC50444EA042801F1080451
:100750009C423CBF341D4C450AD20C4605682560BE
:100760000460666008316468361DA4F80080678004
:100770000EF1010EBCF1010C84D103684FF00509A4
:100780000121BAFBF9F90BE082EA0104314601F0DC
:10079000070644EA06245B68A404A40C5C803B467C
:1007A0001F6837B14E1C4945EED25B68598031460F
:1007B000F5E7BDE8F0470022014993E0490200084F
:1007C0004B0300088080FFFFF0B41C461368049EB2
:1007D00003F10805B5423FBF25682E1D059FBE42A7
:1007E00028BF00200FD203F10806166002681A60C5
:1007F00003605D602068001D206058680A880280E0
:10080000498841801846F0BC7047016842684B68CF
:1008100043604A600A68026000200860084670472A
:1008200042684B6843604A600A680260086070472B
:10083000B1F90220002A21D400281EBF4168B1F975
:10084000021091421CBF0068002833D04168B1F902
:10085000021091421CBF006800282BD04168B1F9FA
:10086000021091421CBF006800281EBF4168B1F908
:10087000021091421ED00068DEE70068D0B14368E4
:10088000B1F900201B7893421CBF0068002811D0EA
:1008900043681B7893421CBF006800280AD0436855
:1008A0001B7893421CBF006800281EBF43681B785A
:1008B0009342E2D17047002188B10268016001468D
:1008C0006AB11368116011464BB1186819600028AD
:1008D000194604D00268016001461000EDD10846B7
:1008E000704700002DE9F54F81B088464FF00109AF
:1008F00002E000BF4FEA4909019E002001908346B3
:1009000082467EB30AF1010A35460024002000E049
:10091000401C484503DA2D68641C002DF8D14F4671
:1009200000E08346012C02DA012F19DBC5B16CB15E
:10093000002F18BF002D05D0029A69687068C04763
:10094000012803DA30463668641E02E028462D6826
:100950007F1EBBF1000F14BFCBF800000190E0E751
:100960002E00CFD10020CBF80000BAF1020FC1DA7F
:10097000019803B0BDE8F08F2DE9F44FD0F808A03E
:100980004668C7680468DFF8E008884640EA08005F
:100990000FFA80F9002C4DD004FB04F002001CD0AB
:1009A000314610F0030306D0B1F800C0C44421F86A
:1009B00002CB5B1EF8D182080FD0521E0B88434435
:1009C0000B804B8843444B808B8843448B80CB887F
:1009D0004344CB800831002AEFD158B332463B461E
:1009E00010F0030C00F00980BCF1010C32F902EBAD
:1009F0001EFB08FE43F804EBF6D1800800F01A80D5
:100A000032F902CB1CFB08FC43F804CB401E32F940
:100A100002CB1CFB08FC43F804CB32F902CB1CFBD5
:100A200008FC43F804CB32F902CB1CFB08FC43F86A
:100A300004CBE5D1002200231046002C1CBF04FB90
:100A400004FCBCF1000F49D039461CF0030E10D055
:100A50000D68AA18914502DA0A30002202E0AB4282
:100A6000B8BF401CAEF1010E091D2B46BEF1000FB0
:100A7000EED15FEA9C0C31D0D1F800E00EEB02051C
:100A8000A94502DA0A30002502E07345B8BF401CD0
:100A90004A685319994502DA0A30002302E0964564
:100AA000B8BF401CD1F808E00EEB0305A94502DAF7
:100AB0000A30002502E07245B8BF401CCB685A19C5
:100AC000914502DA0A30002202E09E45B8BF401C80
:100AD000ACF1010C1031BCF1000FCDD1002100B2FE
:100AE00001F072FB0146002C3BD000203A46234621
:100AF0004FF0000E4FEA0E0C0CEB00053AF91CB05B
:100B000036F915500CF1010C15FB0BEEA44523D260
:100B10000CEB00053AF91CB036F915500CF1010C3C
:100B200015FB0BEEA44517D20CEB00053AF91CB0EF
:100B300036F915500CF1010C15FB0BEEA4450BD248
:100B40000CEB00053AF91CB036F915500CF1010C0C
:100B500015FB0BEEA445CFD3201842F804EB5B1E27
:100B6000C6D100204FF0000C0246002C1CBF04FB35
:100B700004FEBEF1000F49D03B461EF0030510D025
:100B8000D3F800B0DC44E14503DA0A324FF0000C40
:100B900002E05845B8BF521C6D1E1B1D5846002D63
:100BA000EED15FEA9E0E31D01D68AC44E14503DA18
:100BB0000A324FF0000C02E0A842B8BF521C58683D
:100BC0008444E14503DA0A324FF0000C02E085422A
:100BD000B8BF521C9D68AC44E14503DA0A324FF0BD
:100BE000000C02E0A842B8BF521CD8688444E1451A
:100BF00003DA0A324FF0000C02E08542B8BF521C03
:100C0000AEF1010E1033BEF1000FCDD110B201F0E4
:100C1000DBFA0546534632463946204600F098FC3A
:100C2000002300200246002C1CBF04FB04FCBCF186
:100C3000000F49D039461CF0030E11D0D1F800B096
:100C40005B44994502DA0A32002302E05845B8BFF6
:100C5000521CAEF1010E091D5846BEF1000FEDD138
:100C60005FEA9C0C00F03080D1F800E073449945B5
:100C700002DA0A32002302E07045B8BF521C48680D
:100C8000C318994502DA0A32002302E08645B8BF4C
:100C9000521CD1F808E07344994502DA0A32002365
:100CA00002E07045B8BF521CC868C318994502DA03
:100CB0000A32002302E08645B8BF521CACF1010C99
:100CC0001031BCF1000FCFD1294610B201F07CFAEF
:100CD0000546534632463946204600F0F3FC0021D3
:100CE00000220846002C1CBF04FB04F3002B45D057
:100CF00013F0030A00F01280D7F800C06144894560
:100D000002DA0A30002102E06245B8BF401CAAF1B5
:100D1000010A3F1D6246BAF1000FEDD19B082DD0AC
:100D2000D7F800A05144894502DA0A30002102E0D8
:100D30005245B8BF401C7A685118894502DA0A301A
:100D4000002102E09245B8BF401CD7F808A05144EA
:100D5000894502DA0A30002102E05245B8BF401C42
:100D6000FA685118894502DA0A30002102E09245FA
:100D7000B8BF401C5B1E1037002BD1D1294600B2F2
:100D800001F022FAC8F10001002C1CBF04FB04F2A0
:100D9000002A1CD012F0030300F00780B6F8008090
:100DA000884426F8028B5B1EF8D192080FD0338856
:100DB000CB183380521E7388CB187380B388CB183E
:100DC000B380F388CB18F3800836002AEFD1BDF842
:100DD000001001B0BDE8F04F00B201F0F5B900001D
:100DE0002DE9FA4F81B00400BDF93080DFF87804B6
:100DF00040EA08001546ADF800004BD004FB04F1B2
:100E0000D9B1284611F0030205D00388434420F8E5
:100E1000023B521EF9D189080FD0491E0288424474
:100E20000280428842444280828842448280C28852
:100E30004244C28008300029EFD104FB04F34BB3D5
:100E4000019A294613F0030707D07F1E31F902CB20
:100E50001CFB08FC42F804CBF7D19B0800F01A8079
:100E600031F9027B17FB08F742F8047B5B1E31F96E
:100E7000027B17FB08F742F8047B31F9027B17FB72
:100E800008F742F8047B31F9027B17FB08F742F8B8
:100E9000047BE5D100234FF0000C1846002C1CBF4A
:100EA00004FB04F7002F49D0019ABDF9001017F098
:100EB000030E11D01668B444614503DA0A304FF0CE
:100EC000000C02E0B342B8BF401CAEF1010E121D8F
:100ED0003346BEF1000FEDD1BF082FD01668B444E1
:100EE000614503DA0A304FF0000C02E0B342B8BFAC
:100EF000401C53689C44614503DA0A304FF0000CF3
:100F000002E09E42B8BF401C9668B444614503DAD3
:100F10000A304FF0000C02E0B342B8BF401CD36867
:100F20009C44614503DA0A304FF0000C02E09E4217
:100F3000B8BF401C7F1E1032002FCFD1002100B25D
:100F400001F042F9ADF80200002C47D00020019AD0
:100F5000294623460027064601E000270026DDF843
:100F600008E08C4614F0030900F00A803CF902AB5B
:100F70003EF902BB761C1AFB0B77B9F10109F5D1DA
:100F80005FEA940C00F02380DDF8089006EB000E79
:100F900005EB4E0E09EB46063EF9029B36F902AB15
:100FA00019FB0A773EF9029B36F902AB19FB0A7767
:100FB0003EF9029B36F902AB19FB0A773EF9029B18
:100FC00036F902AB19FB0A77BCF1010CE4D1201809
:100FD00042F8047B01EB44015B1EBED100234FF0BD
:100FE000000C1846002C1CBF04FB04F7002F49D04E
:100FF000019ABDF9001017F0030E11D01668B44421
:10100000614503DA0A304FF0000C02E0B342B8BF8A
:10101000401CAEF1010E121D3346BEF1000FEDD1A2
:10102000BF082FD01668B444614503DA0A304FF088
:10103000000C02E0B342B8BF401C53689C446145B9
:1010400003DA0A304FF0000C02E09E42B8BF401CA9
:101050009668B444614503DA0A304FF0000C02E0B0
:10106000B342B8BF401CD3689C44614503DA0A30E0
:101070004FF0000C02E09E42B8BF401C7F1E1032B1
:10108000002FCFD1BDF8021000B201F09DF8074645
:10109000029B01992A46204600F05AFA00224FF09E
:1010A000000E1046002C1CBF04FB04FCBCF1000F1A
:1010B0004CD0019BBDF900101CF0030600F011801C
:1010C000D3F80090CE44714503DA0A304FF0000E99
:1010D00002E04A45B8BF401C761E1B1D4A46002E42
:1010E000EED15FEA9C0C31D01E68B644714503DA3C
:1010F0000A304FF0000E02E0B242B8BF401C5A68FE
:101100009644714503DA0A304FF0000E02E0964231
:10111000B8BF401C9E68B644714503DA0A304FF0F0
:10112000000E02E0B242B8BF401CDA689644714536
:1011300003DA0A304FF0000E02E09642B8BF401CBE
:10114000ACF1010C1033BCF1000FCDD1394600B227
:1011500001F03AF80746029B01992A46204600F022
:10116000B1FA00224FF0000E1046002C1CBF04FB09
:1011700004FCBCF1000F4BD0019BBDF900101CF02A
:10118000030610D0D3F80090CE44714503DA0A303C
:101190004FF0000E02E04A45B8BF401C761E1B1DF2
:1011A0004A46002EEED15FEA9C0C31D01E68B64450
:1011B000714503DA0A304FF0000E02E0B242B8BFC8
:1011C000401C5A689644714503DA0A304FF0000E0D
:1011D00002E09642B8BF401C9E68B644714503DAEF
:1011E0000A304FF0000E02E0B242B8BF401CDA688D
:1011F0009644714503DA0A304FF0000E02E0964241
:10120000B8BF401CACF1010C1033BCF1000FCDD1C4
:10121000394600B200F0D8FFC8F10001002C1CBF15
:1012200004FB04F2002A1AD012F0030305D02C8824
:101230000C1925F8024B5B1EF9D192080FD02B88B0
:10124000CB182B80521E6B88CB186B80AB88CB18C9
:10125000AB80EB88CB18EB800835002AEFD100B2C9
:1012600003B0BDE8F08F000000F0FFFF2DE9F04370
:101270000125002402B90122B8B1641C04FB04F664
:10128000F60086423FBF641C04FB04F6F60086426B
:101290000BD2641C04FB04F6F60086423FBF641CBC
:1012A00004FB04F6F6008642E7D3491E8908601E57
:1012B00089000E1D00FB00F806EB480C002818BF43
:1012C0005FEA080E62D0644631461EF0030716D06E
:1012D0006A434FEAE23902EB19494FEA2949A2EB86
:1012E000094205EB0209A4F8009034F8029BA944D6
:1012F0005FFA89F96D1C21F8029B7F1EE8D15FEA35
:101300009E0E43D06A43D71302EB17473F14A2EB5C
:101310000747EA1924F8022BAA18D2B221F8022BA7
:101320006A1C07FB02F5EF1305EB17473F14A5EB0B
:1013300007455719278034F8027BD719FFB221F8E7
:10134000027B521C5543EF1305EB17473F14A5EBE7
:1013500007455719278034F8027BD719FFB221F8C7
:10136000027B571C05FB07F2D51302EB15452D1424
:10137000A2EB0542BD18258034F8025B7D19EDB261
:1013800021F8025B7D1CBEF1010EBBD10CEB4801C4
:10139000491E89085E608900C3F808C0091DD9602C
:1013A0001860BDE8F083F0B400240025234600282F
:1013B00041D040433FD010F003060ED00F683C19D7
:1013C000A24202DA0A33002402E0BD42B8BF5B1C2D
:1013D000761E091D3D46002EF0D180082BD00E68E8
:1013E0003419A24202DA0A33002402E0B542B8BF3F
:1013F0005B1C4D682C19A24202DA0A33002402E079
:10140000AE42B8BF5B1C8E683419A24202DA0A33BE
:10141000002402E0B542B8BF5B1CCD682C19A24283
:1014200002DA0A33002402E0AE42B8BF5B1C401E61
:1014300010310028D3D1F0BC18B2704700B9704702
:1014400030B4404326D010F0030407D0641E32F9B4
:10145000025B15FB03F541F8045BF7D1800819D056
:1014600032F9024B14FB03F441F8044B401E32F9ED
:10147000024B14FB03F441F8044B32F9024B14FB0A
:1014800003F441F8044B32F9024B14FB03F441F826
:10149000044BE5D130BC7047F0B140431CD010F094
:1014A000030307D0B1F800C094445B1E21F802CBBF
:1014B000002BF7D180080FD00B88D3180B80401E6B
:1014C0004B88D3184B808B88D3188B80CB88D3184C
:1014D000CB8008310028EFD17047000000B9704779
:1014E0002DE9F0414FEA00044FF0000C15461E466E
:1014F00010F0030700F0088035F902EB36F9028B93
:101500001EFB08CC7F1EF7D1870819D035F902EBF6
:1015100036F9028B1EFB08CC35F902EB36F9028B4B
:101520001EFB08CC35F902EB36F9028B1EFB08CC0A
:1015300035F902EB36F9028B1EFB08CC7F1EE5D194
:1015400041F804CB02EB4002641ECDD1BDE8F0812E
:1015500000B970472DE9FE4F81B00021019B009337
:1015600003460024022856D3039D009E4FF0000836
:10157000C146AE46944610F003070DD03CF902ABCD
:10158000BEF900B01AFB0B88BEF902B01AFB0B992A
:101590000EEB400E7F1EF1D1870833D0BCF900A0BE
:1015A000BEF900B01AFB0B88BEF902B00EEB400E7C
:1015B0001AFB0B9BBCF902A0BEF900901AFB09882C
:1015C000BEF902900EEB400E1AFB09BBBCF904A059
:1015D000BEF900901AFB0988BEF902900EEB400E8E
:1015E0001AFB09BBBCF906A0BEF900901AFB0988DA
:1015F000BEF902901AFB09B90EEB400E7F1E0CF1EA
:10160000080CCBD1A41C46F8048B2D1D671C46F892
:10161000049B8742AAD3844247D2039D002605EB50
:1016200044074FF00009154610F0030C00F00C8041
:1016300035F902EBB7F90080761C1EFB089907EB21
:101640004007BCF1010CF3D1850827D0DDF808C0B4
:1016500016EB01060CEB4606B7F900E036F902CBB3
:1016600007EB40071CFB0E9CB7F9008036F902EB34
:1016700007EB40071EFB08CCB7F9008036F902EBF8
:1016800007EB40071EFB08CC36F902EBB7F90080E8
:101690001EFB08C907EB40076D1EDDD1019E6518D2
:1016A00046F82590641C8442B7D3009C04EB800468
:1016B0004118009402EB40025B1E7FF452AF04B06D
:1016C000BDE8F08F00B970472DE9FE4F82B00021D0
:1016D000029B0193009000230228C0F09780049C95
:1016E000DDF804504FF00009CC46A646174610F02E
:1016F00003061AD037F902ABBEF90080BEF902B07A
:101700001AFB08F81AFB0BFAC8F3830BC8F3461848
:1017100018FB0B99CAF38308CAF3461A761E1AFB04
:1017200008CC0EEB400E002EE4D1860800F0648059
:10173000B7F90080BEF900A0BEF902B018FB0AFAA2
:1017400018FB0BF8CAF3830BCAF3461A1AFB0B9962
:10175000C8F3830AC8F346180EEB400E18FB0ACCF8
:10176000B7F90280BEF900A0BEF902B018FB0AFA70
:1017700018FB0BF8CAF3830BCAF3461A1AFB0B9932
:10178000C8F3830AC8F346180EEB400E18FB0ACCC8
:10179000B7F90480BEF900A0BEF902B018FB0AFA3E
:1017A00018FB0BF8CAF3830BCAF3461A1AFB0B9902
:1017B000C8F3830AC8F346180EEB400E18FB0ACC98
:1017C000B7F90680BEF900A0BEF902B018FB0AFA0C
:1017D00018FB0BF8CAF3830BCAF3461A1AFB0B99D2
:1017E000C8F3830AC8F34618761E083718FB0ACCDC
:1017F0000EEB400E002E9BD19B1C45F8049B241D34
:101800005E1C45F804CB8642FFF46CAF834262D283
:10181000049C002504EB43064FF0000C144610F026
:10182000030710D034F902EBB6F900801EFB08FE66
:10183000CEF38308CEF3461E6D1C1EFB08CC06EBD0
:1018400040067F1EEED184083ED0039F15EB0105B4
:1018500007EB450535F9027BB6F900E017FB0EF8FA
:10186000C8F38307C8F3461E06EB40061EFB07C7F6
:1018700035F902CBB6F900E01CFB0EFCCCF3830E6D
:10188000CCF3461C06EB40061CFB0E7735F902CB69
:10189000B6F900E01CFB0EFCCCF3830ECCF3461C27
:1018A00006EB40061CFB0E7735F902CBB6F900E0DB
:1018B0001CFB0EFCCCF3830ECCF3461C1CFB0E7CF5
:1018C00006EB4006641EC5D1029D5C1845F824C095
:1018D0005B1C83429CD3019B03EB80030193411863
:1018E000009B5B1E02EB400200937FF4F4AE05B058
:1018F000BDE8F08F2DE9FE4F88B000AC00250095C3
:101900006560A560E560256165610B46A561E561DF
:10191000A94619780026AB46A8462F46AA460029B4
:1019200000F08B8019780022002900F07D802C299E
:1019300079D0A1F130020A2A67D32B2918BF2D29AB
:101940006AD06D1C2E2963D1052215E0A1F1300269
:101950000BF1010B0A2A54D32E2954D105220BE096
:1019600013F8011F00295FD02C295CD02E2941D10A
:101970005FF0050208F1010813F8011F002953D098
:101980002C2950D045292DD113F8011F03227F1C8B
:10199000002949D02C2946D02B291ED113F8011F2C
:1019A0000622761C00293FD02C293CD030390AF180
:1019B000010A0A290FD3012235E000BF13F8011FE5
:1019C000002931D02C292ED030390A29F6D3012212
:1019D00009F1010927E00722F0E72D29DED00122D5
:1019E000761C20E06529CFD030390A29C4D30122E2
:1019F0007F1C18E030390A29B2D3012208F101080E
:101A000011E00422ACE701220DE004226D1CA7E7DF
:101A1000012209F1010906E013F8011F02226D1CE1
:101A200011B12C2992D15B1C54F82210491C44F8A6
:101A30002210197800297FF475AF089BBDF950205A
:101A40001946401881420DD293F800C0BCF12C0F0A
:101A500005D0BDF824E08EEA0C0C83F800C0D31842
:101A60008342F1D3089B1A78B2F1000F00F0B080E6
:101A700093F800C00022BCF1000F00F09F80BCF181
:101A80002C0F00F09A80ACF130020A2AC0F083805B
:101A9000BCF12B0F18BFBCF12D0F00F083806D1C23
:101AA000BCF12E0F40F07A80052219E0ACF1300233
:101AB0000BF1010B0A2A6AD3BCF12E0F69D1052262
:101AC0000EE000BF13F801CFBCF1000F76D0BCF1DF
:101AD0002C0F72D0BCF12E0F50D1052208F1010855
:101AE00013F801CFBCF1000F68D0BCF12C0F64D00B
:101AF000BCF1450F37D113F801CF03227F1CBCF195
:101B0000000F5BD0BCF12C0F57D0BCF12B0F24D1B0
:101B100013F801CF0622761CBCF1000F4ED0BCF1A9
:101B20002C0F4AD0ACF130020AF1010A0A2A12D372
:101B3000012242E013F801CFBCF1000F3ED0BCF10E
:101B40002C0F3AD0ACF1300CBCF10A0FF2D30122C9
:101B500009F1010931E00722ECE7BCF12D0FD7D0E4
:101B60000122761C29E0BCF1650FC4D0ACF1300C29
:101B7000BCF10A0FB4D301227F1C1EE0ACF1300C83
:101B8000BCF10A0F9ED3012208F1010815E00422DE
:101B900098E7012211E004226D1C93E7012209F16C
:101BA00001090AE013F801CF02226D1CBCF1000FFD
:101BB00004D0BCF12C0F7FF479AF5B1C54F822C029
:101BC0000CF1010C44F822C01A78002A7FF450AFBF
:101BD000089BBDF9502081420AD219782C2904D0E3
:101BE000BDF828C08CEA01011970D3188342F4D3E0
:101BF0001599009800F01EFA0146284600F01AFADE
:101C00000146606800F016FA0146484600F012FAF4
:101C10000146A06800F00EFA0146584600F00AFAA4
:101C20000146E06800F006FA0146304600F002FA8C
:101C30000146206900F0FEF90146404600F0FAF93D
:101C40000146606900F0F6F90146384600F0F2F905
:101C50000146A06900F0EEF90146504600F0EAF9AD
:101C60000146E06900F0E6F90146002000F0E2F9E3
:101C70000BB0BDE8F08F00002DE9F04700230025F0
:101C80001C46401EDFF8CC9005E000BFC1F3C10444
:101C900059F824400425EF187F1C87424ED25DB3CB
:101CA0009F184FF0000CBE46A04615F0030607D063
:101CB0000CF1010C18F801AB0EF801AB761EF7D150
:101CC000AE0813D018F801AB0EF801AB0CF1040C00
:101CD00018F801AB0EF801AB761E18F801AB0EF840
:101CE00001AB18F801AB0EF801ABEBD14FF02C0EA5
:101CF0000CF807E06F1CFB18491C01F00707072FC1
:101D0000C9D8DFE807F004040406060D0D14BDE78A
:101D1000C1E7C1F3C10409EB840408252469BAE7CB
:101D2000C1F3C10409EB84040825246AB3E7C1F3B5
:101D3000C10409EB84040825246BACE7401C8342F2
:101D400006D2991800225B1C01F8012B8342FAD3BA
:101D5000BDE8F0878400002030B403681C780022BE
:101D60007CB12C2C4BD10BE013F8014F4CB12C2C37
:101D700006D0303C0A2CF7D34C68641C01224C601E
:101D80005B1C0360104630BC704700BF13F8014F66
:101D9000002CF6D02C2CF3D0452C18BF652C6BD121
:101DA0004C69641C4C61032213F8014F002CE8D0ED
:101DB0002C2CE5D02B2C18BF2D2C65D1CC68641CA5
:101DC000CC60062213F8014F002CDAD02C2CD7D08F
:101DD0008A69551CA4F130020A2A5AD301228D6166
:101DE000CEE700BF13F8014F002CCAD02C2CC7D06F
:101DF0002E2C39D105220C69641C0C61C6E7A4F1B4
:101E000030020A2A04D20C68641C04220C60E9E740
:101E10002B2C18BF2D2C14D102220C68641C0C60D2
:101E200013F8014F002CACD02C2CA9D08A68551C7B
:101E3000A4F130020A2A11D32E2C12D105228D6072
:101E4000A4E70A68551C2E2C02D105220D609DE7DF
:101E500001224C68641C4C600D6091E704228D6087
:101E6000C0E701228D608BE7303C0A2CBAD30122F7
:101E70000C69641C0C6183E7303C0A2C86D3012278
:101E80004C69641C4C617BE70122CC68641CCC600B
:101E900076E707228D6167E7401E042813D8DFE844
:101EA00000F00306090C0F00084800687047084856
:101EB0000068704707480068704707480068704727
:101EC0000648006870470020704700006C00002042
:101ED0007000002074000020780000207C000020AA
:101EE00081EA00024B084AF20101D20748BF4B4089
:101EF00083EA50025B08D20748BF4B4083EA900256
:101F00005B08D20748BF4B4083EAD0025B08D20788
:101F100048BF4B4083EA10125B08D20748BF4B40D2
:101F200083EA50125B08D20748BF4B4083EA901205
:101F30004FEAD01C5B08D00748BF4B40580883EAE3
:101F40000C02D20748BF4840704781EA00030206EE
:101F50004FEA510C4AF20101DB0748BF81EA0C0C41
:101F60008CEA52634FEA5C0CDB0748BF81EA0C0C39
:101F70008CEA92634FEA5C0CDB0748BF81EA0C0CE9
:101F80008CEAD2634FEA5C0CDB0748BF81EA0C0C99
:101F90008CEA12734FEA5C0CDB0748BF81EA0C0C39
:101FA0008CEA52734FEA5C0CDB0748BF81EA0C0CE9
:101FB0008CEA92734FEA5C0CDB0748BF81EA0C0C99
:101FC0008CEAD2724FEA5C03D20748BF4B4083EAE7
:101FD00010225B08D20748BF4B4083EA50225B08BF
:101FE000D20748BF4B4083EA90225B08D20748BF24
:101FF0004B4083EAD0225B08D20748BF4B4083EABC
:1020000010325B08D20748BF4B4083EA50325B086E
:10201000D20748BF4B4083EA90324FEAD03C5B087E
:10202000D00748BF4B40580883EA0C02D20748BF8C
:102030004840704730B481EA000403064D084AF274
:102040000101E40748BF4D4085EA53646D08E40789
:1020500048BF4D4085EA93646D08E40748BF4D4092
:1020600085EAD3646D08E40748BF4D4085EA1374E0
:102070006D08E40748BF4D4085EA53746D08E407D6
:1020800048BF4D4085EA93746D08E40748BF4D4052
:102090006C0885EAD373DB0748BF4C40020484EA2E
:1020A00012636408DB0748BF4C4084EA526364084B
:1020B000DB0748BF4C4084EA92636408DB0748BFF3
:1020C0004C4084EAD2636408DB0748BF4C4084EA92
:1020D00012736408DB0748BF4C4084EA52736408FB
:1020E000DB0748BF4C4084EA92736408DB0748BFB3
:1020F0004C40630884EAD272D20748BF4B40000CC0
:1021000083EA000402065B08E40748BF4B4083EA09
:1021100052645B08E40748BF4B4083EA92645B0863
:10212000E40748BF4B4083EAD2645B08E40748BF3A
:102130004B4083EA12745B08E40748BF4B4083EAD4
:1021400052745B08E40748BF4B4083EA92745B0813
:10215000E40748BF4B405C0883EAD272D20748BF0D
:102160004C4084EA10226308D20748BF4B4083EA00
:1021700050225B08D20748BF4B4083EA90225B089D
:10218000D20748BF4B4083EAD0225B08D20748BF42
:102190004B4083EA10325B08D20748BF4B4083EACA
:1021A00050325B08D20748BF4B4083EA9032C40BE1
:1021B0005B08D00748BF4B40580883EA0402D207A7
:1021C00048BF484030BC704781EA000302064FEA2E
:1021D000510C4AF20101DB0748BF81EA0C0C8CEA82
:1021E00052634FEA5C0CDB0748BF81EA0C0C8CEAB7
:1021F00092634FEA5C0CDB0748BF81EA0C0C8CEA67
:10220000D2634FEA5C0CDB0748BF81EA0C0C8CEA16
:1022100012734FEA5C0CDB0748BF81EA0C0C8CEAB6
:1022200052734FEA5C0CDB0748BF81EA0C0C8CEA66
:1022300092734FEA5C0CDB0748BF81EA0C0C8CEA16
:10224000D2724FEA5C03D20748BF4B40000483EAD6
:1022500010625B08D20748BF4B4083EA50625B08BC
:10226000D20748BF4B4083EA90625B08D20748BF61
:102270004B4083EAD0625B08D20748BF4B4083EAF9
:1022800010725B08D20748BF4B4083EA50725B086C
:10229000D20748BF4B4083EA90724FEAD07C5B087C
:1022A000D00748BF4B40580883EA0C02D20748BF0A
:1022B000484070472DE9F05F0546002092469B4656
:1022C00088460646814640241BE02846414647464C
:1022D000224600F042F953465A46C01A914110D3A3
:1022E00011461846224600F029F92D1A67EB01081D
:1022F0004F4622460120002100F020F917EB00098B
:102300004E41201EA4F10104DFDC484631462A4636
:102310004346BDE8F09FD2B201E000F8012B491E10
:10232000FBD270470022F6E710B513460A46044672
:102330001946FFF7F0FF204610BD10B5002200E05F
:10234000521C835C8C5CA34201D1002BF8D1D8B223
:10235000E1B2401A10BD2DE9F04D81EA030404F00A
:10236000004B21F0004514464FF0000A23F00041D5
:1023700050EA050220D054EA01021DD0C5F30A57E5
:102380000246C5F31303C1F31300C1F30A5640F428
:10239000801543F48013A7EB0608101BD64608F2FD
:1023A000FD3873EB050002D308F1010801E0921833
:1023B0005B41B8F1000F03DA00200146BDE8F08D63
:1023C00000204FF48011064684460EE0171B73EB85
:1023D000050705D3121B63EB050306434CEA010C0A
:1023E00049084FEA300092185B4150EA0107EDD1ED
:1023F00052EA030012D082EA040083EA050108438E
:1024000005D0101BAB4106D20122002306E00022BA
:102410004FF0004302E06FF0010253101AEB060088
:102420004CEB085110EB0A0041EB0B01BDE8F04DFD
:1024300000F0DAB80EB540F2334102910021CDE947
:1024400000110A460B4600F0DEF803B000BDC1F3F0
:102450000A5210B5C1F3130140F2FF3341F4801169
:102460009A4201DA002010BD40F233439A42A2F2B0
:10247000334203DC524200F070F810BD904010BDB2
:1024800000F0004230F000400AD0C10D01F560714B
:10249000C0F3160042EA0151C208400711437047D9
:1024A000002001467047000030B5041E71F10004A1
:1024B00004DB4FF00044404264EB0101141E73F151
:1024C000000405DB1C464FF00043524263EB04035B
:1024D0008B4208BF824230BD01F0004330B421F08E
:1024E000004150EA010206D00A0DA2F56072C1F364
:1024F0001301002A02DC30BC00207047440F44EA7C
:10250000C104C100E01830BC00EBC25000F035B887
:1025100030B50B46014600202022012409E021FAB3
:1025200002F59D4205D303FA02F5491B04FA02F5B0
:102530002844151EA2F10102F1DC30BD202A04DB83
:10254000203A00FA02F1002070479140C2F12003C6
:1025500020FA03F3194390407047202A04DB203A05
:1025600021FA02F00021704721FA02F3D040C2F1B3
:10257000200291400843194670470029A8BF7047C0
:10258000401C490008BF20F00100704710B4B0FAA9
:1025900080FC00FA0CF050EA010404BF10BC704744
:1025A00049B1CCF1200421FA04F411FA0CF118BF5E
:1025B000012121430843A3EB0C01CB1D4FEA00612D
:1025C0004FEA102042BF002010BC704700EBC35000
:1025D00010440029A4BF10BC7047401C490008BF2C
:1025E00020F0010010BC704710B5141E73F10004F8
:1025F00008DA401C41F1000192185B411A4301D1F5
:1026000020F0010010BD2DE9F04D92469B4611B11E
:10261000B1FA81F202E0B0FA80F220329046FFF780
:102620008DFF04460F4640EA0A0041EA0B0153467B
:102630005A46084313D0114653EA010019D0C8F195
:1026400040025046FFF789FF05460E465046594660
:102650004246FFF773FF084305D0012004E02046FF
:102660003946BDE8F08D0020054346EAE0762C436C
:1026700037430A986305E40AA0EB08000022FD0A2C
:1026800044EA47540A3002D500200146E9E7010533
:1026900010196941DDE9084500196941BDE8F04DAF
:1026A000A2E72DE9FE4F804681EA0300C00F0C46E9
:1026B000009021F0004123F00045B8EB0200A94151
:1026C00005D24046214690461C460B46024623F062
:1026D0000040104347D0270DC7F30A00C3F30A5147
:1026E0000290401A019040286BDAC3F3130040F4C3
:1026F000801B0098924620B10023D2EB030A63EBC3
:102700000B0B01985946C0F140025046FFF716FFE7
:1027100006460D4650465946019A00F01DF910EB49
:1027200008006141002487EA115284EAE7731A43E2
:1027300040D0009A62B3019A012A4FEA075215DC91
:10274000001B61EB02014FF0004202EA0752CDE9A3
:102750000042001C41F5801132462B46FFF753FF23
:1027600003B0BDE8F08F40462146F9E7001B61EB5E
:102770000201001C41F5801300185B412018A2F5EE
:10278000001747EB030140EAD570B6196D4111E01F
:102790006D084FEA360645EAC0754FEA0752001B3E
:1027A00061EB0201001C41F5801149084FEA30003D
:1027B0000019514132462B4603B0BDE8F04FFFF7F8
:1027C00013BF0098012240000023D0EB020263EB0C
:1027D000E073009821464FEAE074B8EB000061EB2B
:1027E0000401E9E783F000435BE781F0004158E72B
:1027F0002DE9FE4F81EA030404F0004421F000417A
:1028000000944FF0000B23F0004350EA01045ED027
:1028100052EA03045BD0C3F30A54C1F30A552C44B3
:10282000A4F2F3340194A0FB0254C1F3130141F468
:102830008011C3F3130343F4801301FB024400FB34
:10284000034E840A970A44EA815447EA8357A4FB5B
:10285000076802958D0A05FB07854FEA932C04FB58
:102860000C542705029D4FEA065847EA1637B5EB88
:1028700008056EEB070C870E920E47EA811742EAB5
:102880008312A7FB0201B6EB0B0164EB00042B0DD6
:1028900043EA0C335E1844EB1C50DA465146E7FB22
:1028A0000201C5F313044FEA0B3343EA14534FEA12
:1028B0000432019C43EA0603A4F10C040294009C38
:1028C000CDE900B4FFF79FFE03B0BDE8F08F002014
:1028D0000146F9E7C1F30A52C1F3130140F2FF3395
:1028E00041F480119A4202DA00200146704740F21A
:1028F00033439A42A2F2334202DC5242FFF72DBE2A
:10290000FFF71CBE30B5041E71F1000404DB4FF06C
:102910000044404264EB0101141E73F1000405DB26
:102920001C464FF00043524263EB0403994208BF38
:10293000904230BD064C074D06E0E06840F00103D0
:1029400094E8070098471034AC42F6D3FDF722FC18
:102950007073000890730008202A06DBCB17203A1A
:1029600041FA02F043EAE07306E041FA02F3D04094
:10297000C2F1200291400843194670470A684B682B
:10298000A3EB0204C3FB0454C5FB036406EB05047C
:10299000046000BF00BF00BF00BF00BF00BF00BF9A
:1029A00000BF00BF00BF00BF00BF8A68CB68A3EBB9
:1029B0000204C3FB0454C5FB036406EB0504446036
:1029C00000BF00BF00BF00BF00BF00BF00BF00BF0F
:1029D00000BF00BF00BF00BF0A684B68A3EB020442
:1029E000C3FB0454C5FB036406EB0504046000BF8D
:1029F00000BF00BF00BF00BF00BF00BF00BF00BFDF
:102A000000BF00BF00BF8A68CB68A3EB0204C3FB12
:102A10000454C5FB036406EB0504446000BF00BF1B
:102A200000BF00BF00BF00BF00BF00BF00BF00BFAE
:102A300000BF00BFA2E7000000BF00BF00BF00BF93
:102A400000BF00BF0A684B68A3EB0204C3FB045439
:102A5000C5FB036406EB0504046000BF00BF09E08A
:102A600000BF00BF00BF00BF00BF00BF00BF00BF6E
:102A700000BF00BF8A68CB68A3EB0204C3FB045409
:102A8000C5FB036406EB0504446000BF00BF00BF44
:102A900000BF00BF00BF00BF00BF00BF00BF00BF3E
:102AA00000BF0A684B68A3EB0204C3FB0454C5FBD8
:102AB000036406EB0504046000BF00BF00BF00BF55
:102AC00000BF00BF00BF00BF00BF00BF00BF00BF0E
:102AD0008A68CB68A3EB0204C3FB0454C5FB036400
:102AE00006EB0504446000BF00BF00BF00BF00BF8D
:102AF00000BF00BF00BF00BF00BF00BF00BF9BE71B
:102B000070B50446114886B0C16C41F00201C16441
:102B1000C06C0F4E00F00200059036F814000090D3
:102B200001200190002002900A4D0220039055F8E8
:102B30002400694600F050F936F8141055F82400C6
:102B4000002200F04BFA06B070BD000000100240F9
:102B500020720008040000200449054A31F81010D2
:102B600052F82000002200F039BA0000207200085C
:102B7000040000200449054A31F8101052F82000E2
:102B8000012200F02BBA000020720008040000208F
:102B9000FEE770470020FFF7B3FF0020FFF7EAFFD2
:102BA0004FF4967000F008F90020FFF7D5FF4FF4BE
:102BB000967000F001F90020FFF7DCFF4FF49670EB
:102BC00000F0FAF80020FFF7C7FF4FF4967000F00E
:102BD000F3F80020FFF7CEFF4FF4967000F0ECF80A
:102BE0000020FFF7B9FF4FF4967000F0E5F80020E1
:102BF000FFF7C0FF4FF42F7000F0DEF80020FFF762
:102C0000ABFF4FF42F7000F0D7F80020FFF7B2FFB2
:102C10004FF42F7000F0D0F80020FFF79DFF4FF425
:102C20002F7000F0C9F80020FFF7A4FF4FF42F70B9
:102C300000F0C2F80020FFF78FFF4FF42F7000F074
:102C4000BBF80020FFF796FF4FF4967000F0B4F841
:102C50000020FFF781FF4FF4967000F0ADF80020E0
:102C6000FFF788FF4FF4967000F0A6F80020FFF7FA
:102C700073FF4FF4967000F09FF80020FFF77AFF83
:102C80004FF4967000F098F80020FFF765FF4FF4BE
:102C9000487000F091F880E710B52E4C86B0E06CDB
:102CA00040F00100E064E06C00F001000590E06C91
:102CB00040F00200E064E06C00F002000590E06C7F
:102CC00040F00400E064E06C00F004000590E06C6B
:102CD00040F00800E064E06C00F008000590E06C53
:102CE00040F08000E064E06C694600F080000590F0
:102CF000032001900390002002904FF6FF70009097
:102D00004FF0904000F068F86946134800F064F80E
:102D10006946124800F060F86946114800F05CF816
:102D20006946104800F058F8E06C20F00100E064BB
:102D3000E06C20F00200E064E06C20F00400E0644D
:102D4000E06C20F00800E064E06C20F08000E064BB
:102D500006B010BD00100240000400480008004802
:102D6000000C0048001C004810B590F82510002405
:102D7000022903D00421C16301241BE001680A6811
:102D800022F00E020A6001680A6822F001020A605D
:102D900090F84410036C01F01C02012101FA02F2C8
:102DA0005A6080F82510002180F82410816B0029DA
:102DB00018BF8847204610BD70B5044600F014F9CE
:102DC0000546B4F1FF3F18BF641C00F00DF9401B2D
:102DD000A042FAD370BD00000B680022002B08BF90
:102DE00070472DE9F84F784EDFF8E0E101274FF00A
:102DF000030A4FF00F0800BF0B6807FA02F52B40DB
:102E00007ED0D1F804C0BCF1020F18BFBCF1120F84
:102E100015D14FEAD20C00EB8C04D4F820904FEA85
:102E2000427C4FEADC6C08FA0CFB29EA0B09D1F86A
:102E300010B00BFA0CFC4CEA090CC4F820C0D0F816
:102E400000904FEA420C91F804B00AFA0CF40BF02F
:102E5000030B29EA04090BFA0CFB4BEA0909C0F839
:102E60000090D1F80490B9F1010F18BFB9F1020F29
:102E700005D0B9F1110F18BFB9F1120F18D1D0F860
:102E80000890D1F80CB029EA04090BFA0CFB4BEAC4
:102E90000909C0F80890D0F8049029EA050591F8CE
:102EA0000490C9F3001909FA02F949EA05054560D9
:102EB000C56825EA04048D6805FA0CFC4CEA040C8C
:102EC000C0F80CC0D1F804C01CF0805F75D0D6F8F3
:102ED00060C04CF0010CC6F860C0D6F860C00CF0C1
:102EE000010CCDF800C022F0030C0CF1804404F575
:102EF0008034D4F808C04FEA82754FEA157500E0B7
:102F00005BE008FA05F92CEA090CB0F1904F08BF14
:102F10004FF0000918D0A0F19049B9F5806908BFB9
:102F20004FF0010910D0A0F19049B9F5006908BF30
:102F30004FF0020908D0A0F19049B9F540690CBFE3
:102F40004FF003094FF0070909FA05F545EA0C0CA3
:102F5000C4F808C0DEF800C04C682CEA030C14F476
:102F6000803F18BF4CEA030CCEF800C0184CD4F8D0
:102F700000C04D682CEA030C15F4003F18BF4CEA62
:102F8000030CC4F800C0134CD4F800C04D682CEA00
:102F9000030C15F4801F18BF4CEA030CC4F800C0E2
:102FA0000D4CD4F800C04D682CEA030C15F4001F3A
:102FB00018BF4CEA030CC4F800C00B68521CD34085
:102FC0007FF41AAFBDE8F88F001002400004014002
:102FD00004040140080401400C040140002A14BF0D
:102FE00081618162704700000148006870470000FD
:102FF0001400002002480168491C0160704700006D
:1030000014000020074810B5016841F48071016088
:10301000032000F069F80F2000F006F800F018F81F
:10302000002010BD0020024010B5044607484FF4B0
:103030007A720068B0FBF2F000F0E4FF0022214653
:10304000501E00F01FF8002010BD000000000020FE
:10305000704700F01F01012202FA01F140098000CF
:1030600000F1E020C0F88012704700F01F0101223B
:1030700002FA01F14009800000F1E020C0F80011DF
:1030800070470000174B10B41B68C3F30223C3F151
:10309000070CBCF1040F88BF4FF0040C1C1D072C5B
:1030A00034BF0023DB1E012404FA0CFCACF1010C3C
:1030B0000CEA0101994004FA03F35B1E1A40114324
:1030C00000284FEA0111A1BF00F1E02080F80014B0
:1030D00010BC704700F00F0000F1E02080F8141DD4
:1030E00010BC70470CED00E0074900F007000A68CB
:1030F0004FF6FF031A4042EA002040F0FD7040F016
:1031000080600860704700000CED00E01749B0F5E2
:10311000007F086800F4C0600AD0B0F5806F05D069
:10312000086820F4C06040F48060086000207047A8
:10313000B0F5007FFAD0086820F4C06040F4007059
:1031400008600B480B4A0068B0FBF2F03222504393
:1031500000281EBF4A6912F4806F401EF8D14869EA
:1031600010F4806F18BF0320E0D07047007000405B
:103170000000002040420F000C49086820F4804005
:1031800008600B480B4A0068B0FBF2F03222504353
:1031900000281EBF4A6912F4007F401EF8D148691A
:1031A00010F4007018BF032070470000007000404A
:1031B0000000002040420F000248816841F4006195
:1031C00081607047007000400248016841F480410E
:1031D00001607047007000400248816841F48071CE
:1031E00081607047007000400B490A6822F00702B6
:1031F00042F001020A6009490A6842F004020A60CA
:1032000001280FBF30BF40BF20BF20BF086820F09B
:1032100004000860704700000070004010ED00E0FE
:103220000B490A6822F0070242F002020A600949CB
:103230000A6842F004020A6001280FBF30BF40BF95
:1032400020BF20BF086820F004000860704700001D
:103250000070004010ED00E00248006800F4C0601B
:1032600070470000007000400248016841F480711E
:10327000016070470070004010B50C460D490028F1
:10328000486900F4007004D0002808BFFFF79CFFD5
:1032900003E0002818BFFFF76FFF0748016821F01F
:1032A00004010160012C04BF30BF10BD40BF20BF2E
:1032B00020BF10BD0070004010ED00E0064801681E
:1032C00021F0070141F0030101600448016841F069
:1032D0000401016030BF70470070004010ED00E055
:1032E0002DE9F843044600680026844D10F4003FA1
:1032F0006CD0A86D002710F0805F08D1A86D40F059
:103300008050A865A86D012700F080500090DFF87C
:10331000F091D9F8000040F48070C9F80000FFF780
:1033200063FE8046D9F8000010F4807F0BD100BF07
:10333000FFF75AFEA0EB0800022833D8D9F80000A6
:1033400010F4807FF4D0D5F8900010F440701CBFCA
:10335000216B814211D0D5F89000D5F8901020F45F
:10336000407041F48031C5F89010D5F8901021F4E8
:103370008031C5F89010C5F8900010F0010F18D0FA
:10338000FFF732FE8046D5F8900010F0020F08BF1C
:1033900041F288390DD100BFFFF726FEA0EB0800EF
:1033A000484501D903260CE0D5F8900010F0020F33
:1033B000F2D0D5F89000216B20F440700843C5F896
:1033C00090001FB1A86D20F08050A865207810F003
:1033D000010F07D0D5F88800616820F0030008438A
:1033E000C5F88800207810F0020F07D0D5F88800C3
:1033F000A16820F00C000843C5F88800207810F080
:10340000040F07D0D5F88800E16820F030000843A9
:10341000C5F88800207810F0200F07D0D5F8880074
:10342000216920F440600843C5F88800208810F422
:10343000007F07D0D5F88800216A20F44020084397
:10344000C5F88800208810F4806F07D0D5F8880070
:10345000616A20F440100843C5F88800207810F015
:10346000400F07D0D5F88800616920F44050084328
:10347000C5F88800207810F0800F07D0D5F88800B4
:10348000A16920F440400843C5F88800208810F462
:10349000807F07D0D5F88800E16920F440300843E8
:1034A000C5F88800208810F4005F0FD0D5F8880098
:1034B000A16A20F040600843C5F88800A06AB0F116
:1034C000006F03D1E86840F48010E860206810F4D1
:1034D000802F0FD0D5F88800E16A20F040600843C3
:1034E000C5F88800E06AB0F1006F03D1E86840F4E5
:1034F0008010E8603046BDE8F8830000001002400C
:1035000000700040002804BF012070472DE9F047FB
:10351000DFF8308105460E46D8F8000000F00700BD
:10352000B0420CD2D8F8000020F007003043C8F8B1
:103530000000D8F8000000F00700B0425AD1287807
:10354000414C10F0010F38D06868032820D00228C1
:1035500023D0216830B311F4806F4BD0A16821F0E3
:1035600003010843A060FFF73FFD0746A0686968B4
:1035700000F00C00B0EB810F18BF41F288391CD06D
:10358000FFF732FDC01B484510D90320BDE8F08786
:10359000216811F0007FE1D12CE0216811F4003F97
:1035A000DCD127E011F0020FD8D123E0A0686968D0
:1035B00000F00C00B0EB810FE2D1287810F0020F80
:1035C00005D0A068A96820F0F0000843A060D8F8F2
:1035D000000000F00700B0420FD9D8F8000020F03A
:1035E00007003043C8F80000D8F8000000F00700DA
:1035F000B04202D00120BDE8F087287810F0040F17
:1036000005D0A068E96820F4E0600843A06028784D
:1036100010F0080F06D0A068296920F4605040EA35
:10362000C100A06000F036F8A168084AC1F3031198
:10363000515CC840064908600F20FFF7F5FC0020E8
:10364000BDE8F0870020024000100240D871000859
:10365000000000200448054900688968044AC1F355
:103660000221515CC8407047000000200010024059
:10367000187200080448054900688968044AC1F3C3
:10368000C221515CC8407047000000200010024079
:10369000187200082F4930B400228B68104613F0CE
:1036A0000C0F2D4B4FF00C044FEA630C36D08D6895
:1036B00034EA050504D1CD6805F00305012D2DD0B0
:1036C0008D6805F00C05042D08BF184605D08D68DF
:1036D00005F00C05082D08BF60468D68AC431CBF83
:1036E00030BC7047C86800F00304C868C0F302101B
:1036F000401C022C26D0032C0CBFBCFBF0F0B2FB0C
:10370000F0F0CA68C2F306225043C96830BCC1F366
:103710004161491C4900B0FBF1F070470A6812F0A2
:10372000080F07BFD1F89420C2F303220A68C2F33E
:1037300003120A4D55F822208D6815F00C0F08BFB2
:103740001046CAE7B3FBF0F0CA68C2F30622504342
:10375000DBE70000001002400024F400E8710008DC
:10376000002804BF012070472DE9F8430446007883
:10377000FF4D10F0100F00F00181A86810F00C0F41
:103780000FD0E0690028286800F0E48040F00100D4
:103790002860FFF729FC0646286810F0020F7BD04E
:1037A000C5E0286810F0020F02D0E069002874D04C
:1037B000676A286810F0080F19BF286800F0F00049
:1037C000D5F89400F02108BF01EA1010DFF8A483B7
:1037D000874247D9A86D002610F0805F02D0FFF71E
:1037E0003BFD0DE0A86D40F08050A865A86D00F08D
:1037F00080500090FFF730FDA96D21F08051A96540
:10380000B0F5007F07D0802F88BF03260BD807D1E3
:103810004FF0020607E0802F05D9A02F02D9F7E765
:10382000702F00D10126D8F8000020F007003043A7
:10383000C8F80000D8F8000000F00700B0425BD1E3
:10384000286840F0080028602868616A20F0F000CD
:1038500008432860686820F47F41206A41EA00201C
:1038600068604CE0286840F0080028602868616AB9
:1038700020F0F000084328606868216A20F47F4047
:1038800040EA01206860676AA86D002610F0805F3A
:1038900004D0FFF7E1FC0FE03FE02DE0A86D40F021
:1038A0008050A865A86D00F080500090FFF7D4FC10
:1038B000A96D21F08051A965B0F5007F07D0802F58
:1038C00088BF03260BD807D14FF0020607E0802FF0
:1038D00005D9A02F02D9F7E7702F00D10126D8F81B
:1038E000000020F007003043C8F80000D8F80000BE
:1038F00000F00700B04202D00120BDE8F883FFF7D6
:10390000C9FEA9689C4AC1F30311515CC8409B4998
:1039100008600F20FFF788FB30E0FFF765FB801B96
:10392000022800F23882286810F0020FF5D02868CB
:1039300040F0080028602868616A20F0F000084321
:1039400028606868216A20F47F4040EA01206860AE
:1039500014E000BF20F001002860FFF745FB064699
:10396000286810F0020F09D0FFF73EFB801B0228E9
:1039700000F21182286810F0020FF5D120784FF084
:103980000C0710F0010F55D0A86800F00C000828B3
:1039900026D0A86837EA000004D1E868032131EA9C
:1039A00000001DD06068B0F5803F21D0B0F5A02F99
:1039B00028680CBF40F4802020F4803028602868FC
:1039C0000CBF40F4803020F4802028606068F8B19B
:1039D000FFF70AFB0646286810F4003F0DD029E0E7
:1039E000286810F4003F25D06068002884D021E0CA
:1039F000286840F480302860E8E7FFF7F5FA801B7C
:103A0000642800F2C881286810F4003FF5D011E066
:103A1000FFF7EAFA0646286810F4003F0AD000BF14
:103A2000FFF7E2FA801B642800F2B581286810F4E1
:103A3000003FF5D1207810F0020F4AD0A86800F0BE
:103A40000C00042817D0A86837EA000004D1E86801
:103A500000F0030002280ED0E0680028286824D077
:103A600040F480702860FFF7BFFA0646286810F41B
:103A7000806F09D011E0286810F4806F0DD0E068E5
:103A800000283FF439AF08E0FFF7AEFA801B0228A8
:103A900076D8286810F4806FF6D06868217C20F012
:103AA000FE4040EA0160686013E020F48070286006
:103AB000FFF79AFA0646286810F4806F09D000BF15
:103AC000FFF792FA801B02285AD8286810F4806FFA
:103AD000F6D1207810F0080F6ED060690028D5F874
:103AE000940052D0A16900F0100291422AD010F047
:103AF000020F00F0010003D000283FF4FDAE00E00B
:103B0000C0B1D5F8940020F00100C5F89400FFF78B
:103B10006BFA0646D5F8940010F0020F0AD000BFE9
:103B2000FFF762FA801B11282AD8D5F8940010F00C
:103B3000020FF5D1D5F89400A16920F010000843D8
:103B4000C5F89400D5F8940040F00100C5F8940041
:103B5000FFF74AFA0646D5F8940010F0020F2BD171
:103B6000FFF742FA801B11280AD8D5F8940008E024
:103B70000010024000200240D87100080000002020
:103B80008FE010F0020FEBD016E020F00100C5F836
:103B90009400FFF729FA0646D5F8940010F0020FBA
:103BA0000AD000BFFFF720FA801B112879D8D5F87A
:103BB000940010F0020FF5D1207810F0040F71D0AE
:103BC000A86D4FF0000810F0805F09D1A86D40F09B
:103BD0008050A865A86D4FF0010800F0805000905B
:103BE000DFF85092D9F8000010F4807F18D1D9F88E
:103BF000000040F48070C9F80000FFF7F5F90646B0
:103C0000D9F8000010F4807F0AD100BFFFF7ECF96B
:103C1000801B022845D8D9F8000010F4807FF5D029
:103C2000A06810F0010F26D0D5F8901000F08000A9
:103C300021F080010843C5F89000207A10F0040FAD
:103C400005D0D5F8900040F00400C5F89000D5F8F4
:103C5000900040F0010000BFC5F89000A06841F25C
:103C6000883900B3FFF7C0F90646D5F8900010F088
:103C7000020F0BD030E0D5F8900020F00100C5F81D
:103C80009000D5F8900020F00400E5E7FFF7ACF9CC
:103C9000801B48457FD8D5F8900010F0020FF5D072
:103CA0001AE078E01FE0FFF79FF90646D5F890008C
:103CB00010F0020F0AD000BFFFF796F9801B4845AD
:103CC00069D8D5F8900010F0020FF5D1D5F8900022
:103CD00020F08000C5F89000B8F1000F03D0A86D67
:103CE00020F08050A865207810F0200F32D0A06A14
:103CF0000028D5F8980016D040F00100C5F89800CB
:103D0000FFF772F90646D5F8980010F0020F21D19E
:103D1000FFF76AF9801B02283DD8D5F8980010F00B
:103D2000020FF5D016E020F00100C5F89800FFF76B
:103D30005BF90646D5F8980010F0020F0AD000BFD4
:103D4000FFF752F9801B022825D8D5F8980010F00B
:103D5000020FF5D1E06AE8B3A96837EA01013FF440
:103D6000CBAD0228286820F08070286016D0E86863
:103D700020F00300E860E86820F08870E860FFF752
:103D800033F90446286810F0007F4FD0FFF72CF974
:103D9000001B022846D90320BDE8F883FFF724F969
:103DA0000646286810F0007F09D000BFFFF71CF915
:103DB000801B0228EFD8286810F0007FF6D1606BD6
:103DC000216B000110380843A18F1B4A490802EB00
:103DD000415100E02AE0A26B41EA0221084394F835
:103DE00040104FF07E42490802EB41610843E86011
:103DF000286840F080702860E86840F08070E860D3
:103E0000FFF7F2F80446286810F0007F0ED100BFDB
:103E1000FFF7EAF8001B0228BDD8286810F0007FE1
:103E2000F6D003E0286810F0007FAFD10020BDE895
:103E3000F8830000007000400000E0FF90F82820A8
:103E4000012A04BF02207047012280F828200223A3
:103E500080F82930D0F800C0CA23CCF82430D0F83C
:103E600000C05323CCF824300368D3F828C04CEAB0
:103E7000010199620368FF21596280F8292000211D
:103E800080F82810084670472DE9F04104004FF0F3
:103E9000010570D094F829100025284621B984F82E
:103EA0002800204600F084F84FF440606060022053
:103EB00084F829002168CA2048622168532048629A
:103EC0002068C1684FF0FF0711F0400F4FF0040861
:103ED00017D1C16841F08001C160FFF785F806463F
:103EE0002068C06810F0400F0BD100BFFFF77CF8CE
:103EF000801BB0F57A7F39D82068C06810F0400F79
:103F0000F4D02068816921F0400121F08E61816147
:103F100020688169A268E369114362691A43114309
:103F2000816121682069086120680169A28941EAEC
:103F3000024101612068C16821F08001C1602068F0
:103F4000816911F0200F1CD1C16821F0A001C1606E
:103F5000FFF74AF806462068C06810F0200F10D11D
:103F6000FFF742F8801BB0F57A7F05D920684762D9
:103F700084F82980012517E02068C06810F0200F20
:103F8000EED02068816921F06041816120688169FB
:103F9000626AA3691143226A1A431143816120684E
:103FA0004762012084F829002846BDE8F08100001E
:103FB00000B59FB00420009000200B90812002905B
:103FC0006846FFF7CDFB00B1FEE74FF400301190DB
:103FD00040121D9011A8FFF783F900B1FEE70848D1
:103FE00050F8901F41F40041016000221146032067
:103FF000FFF748F80320FFF738F81FB000BD0000B6
:1040000000100240411EB1F1807F24BF01207047A3
:104010004FF0E0204161054AF02182F8141D002193
:104020008161072101610020704700000FE000E07E
:104030004FF0E020016921F00201016170477047F3
:10404000704700002DE9F04102680446D06911680C
:10405000936810F00F0F4FF000054FF0200650D07E
:1040600003F0010C01F490775CEA07077ED010F0B2
:10407000010F18BF11F4807F05D001271762626F0E
:1040800042F00102626710F0020F18BF13F0010F37
:1040900006D0276802223A62626F42F00402626729
:1040A00010F0040F18BF13F0010F06D0236804228C
:1040B0001A62626F42F00202626710F0080F1CBFC2
:1040C00001F0200252EA0C0206D0236808221A628C
:1040D000626F42F008026267626F002A08BFBDE8A3
:1040E000F08110F0200F18BF11F0200F04D0216EC6
:1040F00000291CBF20468847606F10F0080F11D1BF
:104100000BE010F0200F18BF11F0200F3DD0216EF2
:10411000002908BFBDE8F08150E02068806810F0F9
:10412000400F2CD02068016821F490710160206854
:10413000816821F00101816084F872602566206841
:10414000816811F0400F15D0816821F04001816035
:10415000E06E78B125498163E06EFEF705FE002828
:1041600008BFBDE8F081E06E816B00E00DE0BDE8C6
:10417000F04108472046FFF763FFBDE8F081204685
:10418000FFF75EFF6567BDE8F08110F4801F18BF80
:1041900013F4800F07D04FF4801010622046BDE862
:1041A000F041FFF74CBF10F0800F18BF11F0800FE7
:1041B00008D0616E002908BFBDE8F0812046BDE847
:1041C000F041084710F0400F14BF11F0400FBDE858
:1041D000F0812046116821F04001116084F871607F
:1041E000656600F06BF9BDE8F08100009F470008AC
:1041F000002804BF0120704710B5044690F87100F4
:1042000028B9002084F87000204600F029F8242006
:1042100084F871002068016821F0010101602046E6
:1042200000F024FB012808BF10BD606A00281CBFF5
:10423000204600F017FA2068416821F4904141605F
:104240002068816821F02A0181602068016841F0BE
:10425000010101602046BDE8104000F070BA000086
:1042600030B5006887B0A0F18041B1F588411CBF2E
:1042700007B030BD1A48C16C41F00101C164C16C86
:1042800001F001010591816D41F400318165806D7E
:10429000022500F400300590042000900124CDE9AF
:1042A00001540720CDE9034069464FF09040FEF7E6
:1042B00093FDE0030090CDE901540320CDE90340D4
:1042C00069464FF09040FEF787FD0022012126202D
:1042D000FEF7D8FE2620FEF7C8FE07B030BD00006E
:1042E0000010024090F87230202B50D1002912BFEC
:1042F000002A0120704790F87030012B47D001232D
:1043000080F870304165A0F85820A0F85A200022AB
:1043100002668168FF23B1F5805F06D04FF07F0C05
:1043200051B1B1F1805F0CD012E00169002908BFE2
:1043300040F2FF1102D109E0016929BBA0F85C300D
:1043400006E00169002918BF3F211DD0A0F85C10CC
:104350004267222180F8721001688B6843F00103E4
:104360008B608168B1F5805F05BF0169002909494B
:104370000949016680F870200068016841F4907175
:1043800001604FF000007047A0F85CC0E0E74FF01C
:104390000200704711480008B34700080149012096
:1043A00088707047080000202DE9F84F044690F807
:1043B00071001D4617460E4620287CD1002E12BFE4
:1043C000002F0120BDE8F88F94F87000012872D00A
:1043D000012084F870004FF00009C4F87490212087
:1043E00084F87100FEF700FEA4F850708046A4F82F
:1043F0005270B4F852004FF0200A00283ED02068D6
:104400008027C06937EA000022D000BFB5F1FF3F26
:1044100019D02DB1FEF7E8FDA0EB0801A94212D991
:104420002068016821F4D07101602068816821F062
:104430000101816084F871A084F872A084F8709002
:104440000320BDE8F88F2068C06937EA0000DDD19D
:10445000A068B0F5805F04BF2069002824D02168DF
:1044600016F8010BA1F82800B4F85200A0F10100E1
:10447000A4F85200B4F852000028C0D143464FF0CF
:1044800000024FF040012046009500F05DFB00283F
:104490001CBF0320BDE8F88F84F871A084F87090E9
:1044A0000020BDE8F88F06E036F8020B2168C0F363
:1044B00008000885D8E70220BDE8F88F7047FEE7BE
:1044C000FEE77047704700000E4810B50C490160C8
:1044D00000217F22C0E902124FF49872C0E9042142
:1044E000C1614FF080410162FFF7CEFC08B1FEF7D9
:1044F00051FBBDE810404FF480510248FFF79EBCCD
:1045000000280040E80000207047000002480168D1
:10451000491C0160FEF76EBD5800002010B596B032
:104520000024119412941394149444216846159411
:10453000FDF7F8FE10200090902101200991CDE9AF
:1045400007040B906846FFF70BF968B90F20CDE917
:10455000110413941494032111A81594FEF7D2FFAB
:10456000002804BF16B010BDFEF714FB30B597B09D
:1045700000241194129413941494442168461594C1
:10458000FDF7D0FE102000905020CDE90840012515
:10459000079568460B94FFF7E3F860B9CDE911542D
:1045A00013941494002111A81594FEF7ABFF002872
:1045B00004BF17B030BDFEF7EDFA10B596B0002479
:1045C0001194129413941494442168461594FDF7A1
:1045D000A9FE60211020CDE908410090012007903C
:1045E0000221CDE90B100D9028200E900420CDE97A
:1045F0000F016846FFF7B4F870B90F20119003203F
:10460000CDE912041494042111A81594FEF77AFF41
:10461000002804BF16B010BDFEF7BCFA0E480168B2
:1046200041F4700101600D48016841F00101016031
:1046300000218160026822F4102222F0A852026058
:104640008214C260026822F48022026081610449FF
:10465000C00308607047000088ED00E000100240D1
:1046600008ED00E090F8241011F0010F06D0016869
:104670004A68836A22F400321A434A6090F8241090
:1046800011F0020F06D001684A68C36A22F4803232
:104690001A434A6090F8241011F0040F06D0016804
:1046A0004A68036B22F480221A434A6090F824106F
:1046B00011F0080F06D001684A68436B22F40042EB
:1046C0001A434A6090F8241011F0100F06D00168C8
:1046D0008A68836B22F480521A438A6090F824100F
:1046E00011F0200F06D001688A68C36B22F40052D3
:1046F0001A438A6090F8241011F0400F11D001681D
:104700004A68036C22F480121A434A60016CB1F5C6
:10471000801F06D101684A68436C22F4C0021A4324
:104720004A6090F8241011F0800F08BF70470168AC
:104730004A68806C22F40022104348607047F8B544
:10474000002504464567FEF74FFC074620680068D1
:104750006FF07E4610F0080F08D03B4600224FF461
:1047600000112046009600F0EFF968B92068006853
:1047700010F0040F0AD03B4600224FF4800120467F
:10478000009600F0E1F908B10320F8BD202084F87C
:10479000710084F8720084F870500020F8BD10B5E4
:1047A000806A0021A0F85A10A0F85210FFF748FCC8
:1047B00010BD10B5B0F85C2090F872300168222B63
:1047C00004D0088B40F00800088310BD8B8C416D2D
:1047D0001A400A80416D891C4165B0F85A10491E83
:1047E0000904090CA0F85A1018BF10BD01680A6826
:1047F00022F490720A6001688A6822F001028A60DD
:10480000202180F8721000210166FFF7C7FD10BD5E
:1048100010B5B0F85C2090F872300168222B04D0FB
:10482000088B40F00800088310BD898C0A40416D58
:104830004B1C43650A70B0F85A10491E0904090C54
:10484000A0F85A1018BF10BD01680A6822F49072CF
:104850000A6001688A6822F001028A60202180F8DB
:10486000721000210166FFF799FD10BD2DE9F0419E
:10487000044600682369A168D4F81CC01943636921
:104880001025002743EA0C031943A84A0368DFF800
:10489000A0C203EA0C031943016020684168E36881
:1048A00021F44051194341602168A06991421CBF25
:1048B000236A18438B6823F43063184388602168A7
:1048C0009C48A1F18043B3F59C331AD0A1F18043F9
:1048D000B3F5884323D0A1F18043B3F590432AD0A8
:1048E00091423BD1D0F8880010F440602FD0B0F551
:1048F000806F30D0B0F5006F2BD0B0F5406F2CD06A
:104900002CE0D0F8880010F0030008BF012525D066
:10491000012820D002281CD003281ED01EE0D0F889
:10492000880010F00C0012D0042814D0082810D0F1
:104930000C2812D012E0D0F8880010F0300006D019
:10494000102808D0202804D0302806D006E0002502
:1049500004E0022502E0042500E008257648002650
:10496000914253D14DB1022D0ED0042D08D0082D07
:1049700008BF4FF4004007D00EE0FEF76BFE01E0E9
:10498000FEF788FE00286FD0626802EB4201814288
:1049900098BFB0EB023F01D90127C2E0DFF89C814C
:1049A0009DB1022D1DD0042D24D0082DF4D1500826
:1049B00010F5000046F100010023FDF77BFC00BF6D
:1049C000A0F54071414578D9E6E7FEF743FE6268FD
:1049D000010E03025008181871410023FDF76AFC0C
:1049E000EEE757495008401846F100010023FDF753
:1049F00061FCE5E7FEF74EFE6268010E0302500817
:104A0000181871410023FDF755FCD9E7E1694FF60D
:104A1000EF78B1F5004F09D0092DBDD2DFE805F0E0
:104A20004E576105680505057200B5E7092DB3D23B
:104A3000DFE805F006101B05230505052D00ABE793
:104A4000FEF708FE4100606801EB5001B1FBF0F099
:104A500080B224E0FEF70EFE4100606801EB5001D9
:104A6000B1FBF0F080B21AE05BE03649606801EB20
:104A70005001B1FBF0F080B211E0FEF70BFE4100F7
:104A8000606801EB5001B1FBF0F080B207E06068B4
:104A90004FF4803101EB5001B1FBF0F080B2A0F196
:104AA000100141453FF678AF4FF6F0710140C0F379
:104AB000420008432168C86033E030E0FEF7CAFDD9
:104AC0000146606801EB5001B1FBF0F00EE0FEF72B
:104AD000D1FD0146606801EB5001B1FBF0F080B2FE
:104AE00018E0616800EB5100B0FBF1F080B211E01A
:104AF000FEF7D0FD0146606801EB5001B1FBF0F01C
:104B000080B207E060684FF4004101EB5001B1FB57
:104B1000F0F080B2A0F1100141453FF63DAF2168B1
:104B2000C860266638466666BDE8F08100800040B1
:104B3000F369FFEF001002400024F400FFFC0F00B7
:104B4000000024F40048E8012DE9F0410446006823
:104B5000069F9846C06915460E4631EA00000CBF14
:104B600001200020A84227D1B7F1FF3F1BD02FB171
:104B7000FEF73AFAA0EB0800B84214D920680168A1
:104B800021F4D07101602068816821F00101816009
:104B9000202084F8710084F87200002084F87000EE
:104BA0000320BDE8F0812068C06936EA00000CBF30
:104BB00001200020A842D7D00020BDE8F0810000ED
:104BC0000C4810B50A4901604FF4165141600021AC
:104BD0008160C1600C220161C0E90521C1610162EF
:104BE000FFF706FB002808BF10BDFDF7D3FF00004C
:104BF000004400401401002010B52620FEF729FAD9
:104C0000BDE810400148FFF71DBA00001401002064
:104C1000FEE700000FB4054B10B503A9044A029843
:104C200000F0DAF810BC5DF814FB0000095500082C
:104C3000C400002002E008C8121F08C1002AFAD1EF
:104C400070477047002001E001C1121F002AFBD10C
:104C5000704700002DE9FF5F82B00021DDE90430DC
:104C6000020DDDF840B0034318D044F61050A2F214
:104C7000FF3242431514119801281FD0A5EB0B00F9
:104C8000401C5FEA000A4FF000064E4FDFF83891F3
:104C9000B046504615D5CAF1000413E0119801241E
:104CA0004AA3012801D16FEA0B010298119AC0E9C9
:104CB0000031C0E9024206B0BDE8F09FCBF1000030
:104CC000DFE704460021404A491842EB0450CDE991
:104CD000001012E0E00707D032463B464046494606
:104CE000FDF786FD8046894632463B46104619460A
:104CF000FDF77EFD06460F466410002CEAD1DDE983
:104D00000401DDE90023BAF1000F06DAFDF770FDBA
:104D100042464B46FDF76CFD05E0FDF71CFB4246A5
:104D20004B46FDF718FB04460E460022284BFDF7C4
:104D3000E9FD03D84FF0FF30014607E00022254B84
:104D400020463146FDF7ADFCFDF7C4FD102409E017
:104D5000002C0ADB0A220023FDF7ACFA039B303259
:104D60001A55641E50EA0102F2D1641C039AC4F180
:104D700011031444119A012A03D0012208430DD1D2
:104D80000AE0084304D000204FF0110B119072E7A5
:104D9000A3EB0B056D1E0DE05B4504DD4FF000023B
:104DA00005F1010504E003DA4FF00002A5F1010569
:104DB000002AECD002981199C0E90231C0E90045FF
:104DC00079E70000000014400000F03F30000000D0
:104DD0000000F0430000E03F2DE9FF4F95B09B46F7
:104DE0008946064600250FE2252877D1002427466C
:104DF000F84A0121059400E0044316F8013F203BE6
:104E000001FA03F01042F7D130782A2811D06FF060
:104E10002F033078A0F13002092A16D8059A44F001
:104E2000020402EB820203EB42021044761C05905E
:104E3000EFE759F8042B0592002A03DA504244F4B4
:104E40000054059044F00204761C30782E2816D1C8
:104E500016F8010F44F004042A280DD06FF02F0239
:104E60003078A0F13003092B09D807EB870302EB58
:104E70004303C718761CF3E759F8047B761C307897
:104E80006C280FD006DC4C2817D068280DD06A2873
:104E900014D104E0742810D07A280FD10DE044F426
:104EA00000140AE044F4801401E044F440147278E1
:104EB000824202D104F58014761C761C3078662874
:104EC0000BD013DC582877D009DC002875D0452892
:104ED000F6D04628F4D047281AD19DE118E063287F
:104EE00035D0642879D0652812D195E1702873D027
:104EF00008DC6728F1D069286FD06E280DD06F28A4
:104F000006D1B5E073282CD0752875D0782874D0D8
:104F10005A46179990476D1C75E1C4F30250022858
:104F200009D003280DD0D9F8001004280DD00D6049
:104F300009F1040967E1D9F80010EA17C1E9005244
:104F4000F6E7D9F800100D80F2E70D70F0E719F8D8
:104F5000041B8DF8001000208DF80100EA460120A6
:104F600003E059F804AB4FF0FF3061074FF0000148
:104F700002D40DE008F101018846B9420FDA8045FC
:104F8000F8DB1AF808100029F4D108E008F1010153
:104F900088468142FADB1AF808100029F6D10598F4
:104FA0005B46A0EB080721463846179A00F094FAB2
:104FB000284400EB080507E04DE029E10DE01AF870
:104FC000010B5A4617999047B8F10108F7D25B4692
:104FD00021463846179A13E142E00A220092C4F3B0
:104FE00002524FF0000A022A08D059F804CB032AD3
:104FF0004FEAEC710AD00DE029E02AE009F107013F
:1050000021F00702F2E802C1914609E00FFA8CFC98
:105010004FEAEC71042A03D14FFA8CFC4FEAEC7191
:10502000002907DA0A460021DCF1000C61EB0201DD
:105030002D2202E0220504D52B228DF80420012226
:1050400003E0E20701D02022F7E7904659E00A2169
:1050500002E010220DE010214FF0000A00910BE059
:1050600010224FF0000A44F004040827009203E0E5
:1050700008224FF0000A0092C4F30252022A05D01F
:1050800059F804CB0021032A08D009E009F10701EF
:1050900021F00702F2E802C1914605E01FFA8CFCFC
:1050A000042A01D10CF0FF0C4FF00008220728D58C
:1050B000702806D0009B83F0100353EA0A0305D042
:1050C0000EE040228DF80420012208E05CEA010293
:1050D00006D030228DF804208DF80500022290467B
:1050E000009B83F0080353EA0A030AD15CEA010239
:1050F00001D1620705D530228DF804204FF0010858
:105100007F1E582804D034A003900EA802900DE012
:1051100036A0F9E753466046009AFDF7CBF884467F
:105120000398825C0298401E029002705CEA0100C3
:10513000F0D1029806A9081A00F1200A600702D5EA
:1051400024F4803400E00127574502DDA7EB0A0074
:1051500000E0002000EB0A01009005984144401A4D
:105160000590E00306D45B462146179A059800F0A7
:10517000B3F90544002706E001A85A46C05D179917
:1051800090476D1C7F1C4745F6DBE0030CD55B4662
:105190002146179A059800F09FF9054404E0302055
:1051A0005A46179990476D1C0099481E0090002997
:1051B000F5DC08E0029802995A460078491C0291F1
:1051C000179990476D1CBAF10001AAF1010AF1DCB0
:1051D00065E10000092801003031323334353637BB
:1051E0003839616263646566000000003031323333
:1051F00034353637383941424344454600000000D3
:1052000000F058F90544761C307800287FF4ECADA6
:1052100019B02846BDE8F08F620700D4062709F1CF
:10522000070222F0070CFCE80223E14603F00048E5
:105230005FEA080C02D00FF2702C0DE05FEA045C0C
:1052400002D50FF2682C07E05FEAC47C02D00FF2AF
:10525000602C01E0AFF2700C4FF0FF3823F00043F8
:10526000CDF850C065280CD006DC452809D046286A
:105270001DD047283DD13DE0662818D067287ED153
:1052800038E00021112F01DB112000E0781CCDE96E
:10529000000106A90EA8FFF7DDFCDDE90F010E9A5B
:1052A00003910021009207F1010A04914DE04FF0B3
:1052B00000400097CDE9011006A90EA8FFF7CAFC2F
:1052C000DDE90F0203920E9B11990022DDF80CA07C
:1052D0000093049211B9791C00EB010AB7EB0A00A4
:1052E00004D4C0F1FF3007F1010A0490AAEB0700D3
:1052F000019044E0012F00DA01270021112F01DD88
:10530000112000E03846CDE9000106A90EA8FFF7FC
:10531000A1FCDDE90F010E9A039100210491009296
:10532000BA4621070CD40399514500DA8A46BAF1EE
:10533000010F05DD009AAAF10101515C302908D066
:10534000B84202DA10F1040F06DA0121CDE90110AA
:1053500015E0AAF10101E9E7002805DC0499014400
:105360000491AAEB000102E0411C514500DD8A4690
:105370000499401A401C01904FF000400290200711
:1053800004D40198504501DBCDF8048000208DF84D
:105390004F0002980DF14F07B0F1004F25D02B20A0
:1053A0000E9002984FF0020800280CDA404202905A
:1053B0002D200E9007E00A210298FDF7A9F8303160
:1053C000029007F8011DB8F10001A8F10108F2DC14
:1053D00002980028EFD1791E0E980870307800F0FE
:1053E000200040F0450007F8020D12A8C01B00F194
:1053F00007081498007800B1012000EB0A01019819
:1054000001EBE07105984144401A401E0590E0030D
:1054100006D45B462146179A059800F05DF80544CE
:105420001498007818B15A46179990476D1CE003FC
:1054300024D55B462146179A059800F04DF805449F
:105440001CE00498002807DBDDE90301884203DD46
:105450000098405C179901E0179930205A46904710
:10546000049805F10105401C04900198401E01902C
:1054700004D12E205A46179990476D1CBAF10001AD
:10548000AAF1010ADDDC05E017F8010B5A4617996D
:1054900090476D1CB8F10001A8F10108F4DC5B46EF
:1054A0002146179A0598ABE62D0000002B0000005E
:1054B000200000002DE9F041044600251E46174655
:1054C000880404D405E039462020B0476D1C641ED2
:1054D000F9D52846BDE8F0812DE9F04104460025C4
:1054E0001E469046C80301D5302700E020278804D7
:1054F00004D505E041463846B0476D1C641EF9D519
:105500002846BDE8F081000013B54FF6FF73012275
:1055100069460348FEF748FF009802B010BD00003E
:105520001401002010B50C4C60686FF07F42A0FBA6
:10553000020163694FF47A7CD21A101800232269A1
:105540005941801A054A61EB03011268B2FBFCF273
:10555000FCF7B0FEA06010BD540000200000002049
:1055600070B50446C669002020876087A087E08761
:105570000546002E16D901212046FAF701FF218F9A
:10558000FCF7E3FC20874FF0FF312046FAF7F8FEE6
:10559000218FFCF7DAFC2087002D08BF60876D1C87
:1055A000B542E8D3002070BD92B0FDF72BFD9E4CB4
:1055B000A06D40F08050A065A06D00F0805000907C
:1055C000FDF752FE44216846FCF7ACFE042000269D
:1055D000009002966846FEF7C3F800282AD16015AD
:1055E000FDF794FDA06D20F08050A06590488F4994
:1055F00001604FF41651C0E90116C6600C21066126
:10560000C0E90516C6610662FEF7F2FD90B9894C45
:10561000E078012800F0B880874D27464FF0010858
:105620006670607801281BD0012282498048FEF70D
:1056300059FE08B1FDF7AEFAA0780028FCD0A6709C
:1056400039782171E288AB18521CE28019700D295B
:1056500012BF0A29E68084F8018060780128E3D12E
:1056600084F80380284675A1A560FCF766FE002833
:105670007ED073A1A068FCF760FE002879D071A1EC
:10568000A068FCF75AFE002874D06FA1A068FCF750
:1056900054FE00286FD06DA1A068FCF74EFE0028D4
:1056A0006AD06BA1A068FCF748FE002870D069A101
:1056B000A068FCF742FE00286DD067A1A068FCF747
:1056C0003CFE002869D065A1A068FCF736FE0028E2
:1056D0006ED063A1A068FCF730FE00287DD061A1E8
:1056E000A068FCF72AFE00287AD05FA1A068FCF72A
:1056F00024FE002877D05DA1A068FCF71EFE0028DC
:1057000074D05BA1A068FCF718FE002874D059A1E2
:10571000A068FCF712FE002871D057A1A068FCF722
:105720000CFE00286ED055A1A068FCF706FE80B3E1
:1057300053A1A068FCF701FE60B352A1A068FCF77A
:10574000FCFD48B350A1A068FCF7F7FD78B34EA16B
:10575000A068FCF7F2FD50B34CA1A068FCF7EDFD8A
:1057600040B3E6702E606E60AE60EE602E6104E0C5
:105770000BE013E015E017E01DE06E61AE61EE6135
:10578000E07801287FF44CAFFEE701F017FCF7E763
:1057900014E03AE03CE014E03DE015E001F072FC7A
:1057A000EEE701F083FCEBE701F096FCE8E735E07B
:1057B00010E012E035E001F0D1FCE1E701F0E4FC9B
:1057C000DEE701F0A1FCDBE701F0B2FCD8E707E07F
:1057D00009E00BE000F0F0F8D2E700F0CDF8CFE7F9
:1057E00001F02CFCCCE701F007FCC9E701F0BEFB9F
:1057F000C6E701E003E005E001F09CFBC0E700F034
:105800006FFFBDE701F05CF9BAE701F063FBB7E7B2
:1058100001F03EFBB4E700F063FDB1E700F058F99A
:10582000AEE700F05DFBABE7001002400044004033
:105830001401002008000020C8000020300D0000E6
:10584000310D0000320D0000330D0000340D00005A
:10585000350D0000360D0000370D0000380D00003A
:10586000390D000031300D0031310D0031320D00A5
:1058700031330D0031340D0031350D0031360D005E
:1058800031370D0031380D0031390D0032300D0047
:1058900000210170FEE70000054900229FED050A86
:1058A0000A700122027081ED030A00F0EBB80000DB
:1058B0005400002000000000054900229FED050A69
:1058C0000A700122027081ED030A00F0C3B80000E3
:1058D0005400002000000000044901229FED040A4A
:1058E0000A70027081ED030A00F0AAB8540000208B
:1058F00000000000044901229FED040A0A700270B2
:1059000081ED030A00F082B854000020000000007E
:10591000044901229FED040A0A70027081ED030A16
:1059200000F07EB85400002000000000084A00216A
:1059300051604FF0E02083691361064A4261064BD3
:10594000F02283F8142D8161072101617047000066
:1059500054000020FEFFFF000FE000E04FF0E020C9
:10596000016921F0010101618169024A516100214F
:10597000816170475400002082B0FDF78DF9FEF779
:10598000F5FDFEF755FB0B4CA06D20F40030A06533
:10599000A06D40F08050A065A06D00F08050009098
:1059A000FDF712FCA06D20F08050A06500BF00BF85
:1059B000FEE700000010024008B5FDF76DF9114840
:1059C000016841F480410160FEF7D0FDFEF730FB35
:1059D0000D4800218166C16601678167C167C0F813
:1059E000801050F8581F41F0805140F85419406D14
:1059F000012100F080500090BDE808408803FDF7C9
:105A00003BBC0000002002400010024010B5FEF731
:105A1000D4FDFFF7D5F8BDE81040FEF709BB000044
:105A2000064810B5016821F480710160FEF776FD2B
:105A3000FFF7C6F8BDE81040FEF7FABA00200240B2
:105A400010B5FEF76BFDFFF7BBF8BDE81040FEF7A1
:105A5000EFBA0000094810B5016821F480710160B7
:105A6000FEF7ABFDFDF718F90548816D21F4003113
:105A70008165BDE81040FEF7DBBA0000002002405F
:105A80000010024038B51048016821F480710160AF
:105A9000FEF744FD0D4CA06D40F08050A065A06D58
:105AA00000F0805000902015FDF730FBA06D20F035
:105AB0008050A065FDF7F0F8A06D20F40030A065DF
:105AC000BDE83840FEF7B4BA0020024000100240A2
:105AD0002DE9F34F2DED068B002493B0BFEE00AA05
