:020000040800F2
:10000000480D0020A1010008EF49000899490008A7
:10001000ED490008752D0008555200080000000049
:10002000000000000000000000000000954B0008E8
:10003000772D000800000000F1490008994B0008E6
:10004000BB010008BB010008BB010008BB010008A0
:10005000BB010008BB010008BB010008BB01000890
:10006000BB010008BB010008BB010008BB01000880
:10007000BB010008BB010008BB010008BB01000870
:10008000BB010008BB010008BB010008BB01000860
:10009000BB010008BB010008BB010008BB01000850
:1000A000BB010008BB010008BB010008BB01000840
:1000B000BB0100080000000000000000BB010008B8
:1000C000BB010008BB010008BB010008BB01000820
:1000D000BB010008BB0100083D520008BB0100083D
:1000E000BB010008BB010008000000000000000088
:1000F0000000000000000000000000000000000000
:1001000000000000BB01000800000000BB01000867
:100110000000000000000000BB010008BB01000857
:10012000BB010008BB010008BB010008BB010008BF
:10013000BB010008000000000000000000000000FB
:10014000BB010008BB010008BB010008BB0100089F
:10015000BB010008BB010008D5490008BB0100082D
:10016000BB010008BB010008BB0100080000000043
:10017000BB010008BB010008BB0100080000000033
:10018000BB010008BB010008BB010008DFF80CD070
:1001900002F0EEFB00480047F95B0008480D002024
:1001A0000648804706480047FEE7FEE7FEE7FEE711
:1001B000FEE7FEE7FEE7FEE7FEE7FEE7414D00084B
:1001C0008D010008F0B5044683B0B4F900600D4617
:1001D000300648BF06F07F0034D4C6F3C30040EABF
:1001E000001116F0070002D0012813D01CE02229CC
:1001F000B8BF2221288F01900091B5F90230B5F9DE
:1002000000206969A86901F081FB07B2E88F60B935
:10021000EF870AE02A8F05F1280000F0B1FB07B252
:10022000A88F10B9AF8700E03746298FB8B201F028
:100230009CFE288726F0FF0107F07F00014341F074
:100240008001218003B0F0BD2DE9F041074682B066
:10025000B7F9004088461546200648BF04F07F06DF
:1002600033D4C4F3C30040EA001114F007000BD0EC
:1002700001281CD12A8F05F1280000F081FB06B26D
:10028000A88FA8B9AE8713E02229B8BF2221288FF2
:1002900001900091B5F90230B5F900206969A869AB
:1002A00001F034FB06B2E88F10B9EE8700E0264675
:1002B000298FB0B201F059FE288706F07F0624F09E
:1002C000FF00304340F080003880B8F900703806F5
:1002D00048BF07F07F0034D4C7F3C30040EA0011E1
:1002E00017F007000BD001281CD12A8F05F1280038
:1002F00000F046FB04B2A88FA8B9AC8713E022290E
:10030000B8BF2221288F01900091B5F90230B5F9CC
:1003100000206969A86901F0F9FA04B2E88F10B900
:10032000EC8700E03C46298FA0B201F01EFE288732
:1003300027F0FF0104F07F00014341F08001A8F89D
:100340000010301A02B0BDE8F08172B9825EB0F9D7
:100350000030121262F307030380B1F90020B1F9F3
:100360000030121262F307030B80B0F90200B1F9FA
:100370000210401A70470A880280498841807047FD
:100380002DE9F04F024681B0B2F90460546A0023AF
:1003900000259A469C468946B6F1010FC0F28D8031
:1003A0000FFA89F95FFA85F82746B9F1000F21D4D1
:1003B000002F1EBF7868B0F9020048451CBF3F6897
:1003C000002F31D07868B0F9020048451CBF3F6863
:1003D000002F29D07868B0F9020048451CBF3F685B
:1003E000002F1EBF7868B0F9020048451CD03F6856
:1003F000DEE73F68C7B17868007840451CBF3F68BA
:10040000002F11D07868007840451CBF3F68002F4E
:100410000AD07868007840451CBF3F68002F1EBF97
:10042000786800784045E4D120465FF00004D8B1F8
:10043000D0F800B00460BBF1000F04461FBFDBF82A
:100440000000CBF800405C4600280DD0D0F800B08A
:100450000460BBF1000F04461FBFDBF80000CBF8BF
:1004600000405C460028E3D14FB920684068B0F9ED
:100470000000C0F300200CF1010CC31813E07868F1
:10048000B0F900000AF1010A5FEAC07B44BFC0F383
:100490004020C318386830B1D0F800B0C7F800B0B9
:1004A000276807602060B9F1000F58BF09F1010902
:1004B000681C05B2B542FFF673AF03EB8A00A0EBF0
:1004C0000C0A012904DBBD49204600F00BFA044662
:1004D0002068056841686A68426069602646296844
:1004E000016000200FFA89F12860002921D4002E34
:1004F0001EBF7068B0F9020088421CBF3668002E2B
:1005000033D07068B0F9020088421CBF3668002EF4
:100510002BD07068B0F9020088421CBF3668002EEC
:100520001EBF7068B0F9020088421ED03668DEE750
:100530003668D6B1716809780FFA88F841451CBF52
:100540003668002E11D07168097841451CBF3668A5
:10055000002E0AD07168097841451CBF3668002E0C
:100560001EBF716809784145E2D106B9266856B1C7
:100570006068B0F900001FFA8AF101F035FE3668B4
:100580008246002EF4D12068696842686A60416042
:1005900000220168296005602046894900F0A2F91F
:1005A0000446D4F80080B8F1000F0CD06068B0F9B0
:1005B00000001FFA8AF101F017FED8F80080824689
:1005C000B8F1000FF2D11FFA8AF001B000F0D4B9EF
:1005D0002DE9F0471423B0FBF3F0A0F1020A08461E
:1005E000002601EBCA030660436000275F800831E4
:1005F000744F1F801E1D01F1080703EB8A099F42FB
:100600003CBF371D4F450DD20F4600243C600760AC
:100610007E6008317F684FF0FF343C80361D47F61E
:10062000FF747C804FF0000EBAF1000F00F0A5803F
:100630001AF0030C47F6FF7700F021808EEA0204DF
:1006400004F00F050EF0070444EAC50444EA042848
:1006500001F108049C423CBF341D4C450AD20C46B3
:10066000056825600460666008316468361DA4F87A
:10067000008067800EF1010EBCF1010CDED15FEA53
:100680009A0C7AD08EEA020404F00F050EF00704EB
:1006900044EAC50444EA042801F108049C423CBF32
:1006A000341D4C450AD20C4605682560046066601E
:1006B00008316468361DA4F8008067800EF1010ED1
:1006C0008EEA020404F00F050EF0070444EAC504A4
:1006D00044EA042801F108049C423CBF341D4C4507
:1006E0000AD20C46056825600460666008316468BB
:1006F000361DA4F8008067800EF1010E8EEA020418
:1007000004F00F050EF0070444EAC50444EA042887
:1007100001F108049C423CBF341D4C450AD20C46F2
:10072000056825600460666008316468361DA4F8B9
:10073000008067800EF1010E8EEA020404F00F05BE
:100740000EF0070444EAC50444EA042801F1080451
:100750009C423CBF341D4C450AD20C4605682560BE
:100760000460666008316468361DA4F80080678004
:100770000EF1010EBCF1010C84D103684FF00509A4
:100780000121BAFBF9F90BE082EA0104314601F0DC
:10079000070644EA06245B68A404A40C5C803B467C
:1007A0001F6837B14E1C4945EED25B68598031460F
:1007B000F5E7BDE8F0470022014993E0490200084F
:1007C0004B0300088080FFFFF0B41C461368049EB2
:1007D00003F10805B5423FBF25682E1D059FBE42A7
:1007E00028BF00200FD203F10806166002681A60C5
:1007F00003605D602068001D206058680A880280E0
:10080000498841801846F0BC7047016842684B68CF
:1008100043604A600A68026000200860084670472A
:1008200042684B6843604A600A680260086070472B
:10083000B1F90220002A21D400281EBF4168B1F975
:10084000021091421CBF0068002833D04168B1F902
:10085000021091421CBF006800282BD04168B1F9FA
:10086000021091421CBF006800281EBF4168B1F908
:10087000021091421ED00068DEE70068D0B14368E4
:10088000B1F900201B7893421CBF0068002811D0EA
:1008900043681B7893421CBF006800280AD0436855
:1008A0001B7893421CBF006800281EBF43681B785A
:1008B0009342E2D17047002188B10268016001468D
:1008C0006AB11368116011464BB1186819600028AD
:1008D000194604D00268016001461000EDD10846B7
:1008E000704700002DE9F54F81B088464FF00109AF
:1008F00002E000BF4FEA4909019E002001908346B3
:1009000082467EB30AF1010A35460024002000E049
:10091000401C484503DA2D68641C002DF8D14F4671
:1009200000E08346012C02DA012F19DBC5B16CB15E
:10093000002F18BF002D05D0029A69687068C04763
:10094000012803DA30463668641E02E028462D6826
:100950007F1EBBF1000F14BFCBF800000190E0E751
:100960002E00CFD10020CBF80000BAF1020FC1DA7F
:10097000019803B000F000B830BCBDE8C08F0000A3
:100980002DE9F44FD0F808A04668C7680468DFF87E
:10099000E008884640EA08000FFA80F9002C4DD0A4
:1009A00004FB04F002001CD0314610F0030306D013
:1009B000B1F800C0C44421F802CB5B1EF8D1820814
:1009C0000FD0521E0B8843440B804B8843444B800E
:1009D0008B8843448B80CB884344CB800831002AEA
:1009E000EFD158B332463B4610F0030C00F00980BB
:1009F000BCF1010C32F902EB1EFB08FE43F804EBDC
:100A0000F6D1800800F01A8032F902CB1CFB08FCFA
:100A100043F804CB401E32F902CB1CFB08FC43F820
:100A200004CB32F902CB1CFB08FC43F804CB32F9AF
:100A300002CB1CFB08FC43F804CBE5D100220023C9
:100A40001046002C1CBF04FB04FCBCF1000F49D075
:100A500039461CF0030E10D00D68AA18914502DA31
:100A60000A30002202E0AB42B8BF401CAEF1010EDA
:100A7000091D2B46BEF1000FEED15FEA9C0C31D070
:100A8000D1F800E00EEB0205A94502DA0A30002594
:100A900002E07345B8BF401C4A685319994502DA11
:100AA0000A30002302E09645B8BF401CD1F808E0A8
:100AB0000EEB0305A94502DA0A30002502E0724573
:100AC000B8BF401CCB685A19914502DA0A3000229F
:100AD00002E09E45B8BF401CACF1010C1031BCF1E6
:100AE000000FCDD1002100B201F07EFB0146002CA9
:100AF0003BD000203A4623464FF0000E4FEA0E0C42
:100B00000CEB00053AF91CB036F915500CF1010C4C
:100B100015FB0BEEA44523D20CEB00053AF91CB0F3
:100B200036F915500CF1010C15FB0BEEA44517D24C
:100B30000CEB00053AF91CB036F915500CF1010C1C
:100B400015FB0BEEA4450BD20CEB00053AF91CB0DB
:100B500036F915500CF1010C15FB0BEEA445CFD363
:100B6000201842F804EB5B1EC6D100204FF0000CA9
:100B70000246002C1CBF04FB04FEBEF1000F49D04E
:100B80003B461EF0030510D0D3F800B0DC44E1452D
:100B900003DA0A324FF0000C02E05845B8BF521C8D
:100BA0006D1E1B1D5846002DEED15FEA9E0E31D002
:100BB0001D68AC44E14503DA0A324FF0000C02E054
:100BC000A842B8BF521C58688444E14503DA0A328F
:100BD0004FF0000C02E08542B8BF521C9D68AC4447
:100BE000E14503DA0A324FF0000C02E0A842B8BF38
:100BF000521CD8688444E14503DA0A324FF0000CF5
:100C000002E08542B8BF521CAEF1010E1033BEF1B6
:100C1000000FCDD110B201F0E7FA05465346324637
:100C20003946204600F098FC002300200246002CA4
:100C30001CBF04FB04FCBCF1000F49D039461CF07A
:100C4000030E11D0D1F800B05B44994502DA0A32A4
:100C5000002302E05845B8BF521CAEF1010E091D39
:100C60005846BEF1000FEDD15FEA9C0C00F03080D9
:100C7000D1F800E07344994502DA0A32002302E019
:100C80007045B8BF521C4868C318994502DA0A3249
:100C9000002302E08645B8BF521CD1F808E0734437
:100CA000994502DA0A32002302E07045B8BF521CAF
:100CB000C868C318994502DA0A32002302E0864563
:100CC000B8BF521CACF1010C1031BCF1000FCFD1F8
:100CD000294610B201F088FA054653463246394695
:100CE000204600F0F3FC002100220846002C1CBF27
:100CF00004FB04F3002B45D013F0030A00F012802C
:100D0000D7F800C06144894502DA0A30002102E0C8
:100D10006245B8BF401CAAF1010A3F1D6246BAF104
:100D2000000FEDD19B082DD0D7F800A05144894584
:100D300002DA0A30002102E05245B8BF401C7A684E
:100D40005118894502DA0A30002102E09245B8BF05
:100D5000401CD7F808A05144894502DA0A30002126
:100D600002E05245B8BF401CFA685118894502DAC2
:100D70000A30002102E09245B8BF401C5B1E1037CC
:100D8000002BD1D1294600B201F02EFAC8F10001A2
:100D9000002C1CBF04FB04F2002A1CD012F0030339
:100DA00000F00780B6F80080884426F8028B5B1EAE
:100DB000F8D192080FD03388CB183380521E738835
:100DC000CB187380B388CB18B380F388CB18F3802B
:100DD0000836002AEFD1BDF8001001B000F08EBD3A
:100DE00000B201F001BA00002DE9FA4F81B0040011
:100DF000BDF93080DFF8780440EA08001546ADF808
:100E000000004BD004FB04F1D9B1284611F00302D5
:100E100005D00388434420F8023B521EF9D18908CB
:100E20000FD0491E028842440280428842444280D8
:100E3000828842448280C2884244C28008300029AD
:100E4000EFD104FB04F34BB3019A294613F00307D7
:100E500007D07F1E31F902CB1CFB08FC42F804CB03
:100E6000F7D19B0800F01A8031F9027B17FB08F7D5
:100E700042F8047B5B1E31F9027B17FB08F742F84E
:100E8000047B31F9027B17FB08F742F8047B31F948
:100E9000027B17FB08F742F8047BE5D100234FF0F3
:100EA000000C1846002C1CBF04FB04F7002F49D08F
:100EB000019ABDF9001017F0030E11D01668B44462
:100EC000614503DA0A304FF0000C02E0B342B8BFCC
:100ED000401CAEF1010E121D3346BEF1000FEDD1E4
:100EE000BF082FD01668B444614503DA0A304FF0CA
:100EF000000C02E0B342B8BF401C53689C446145FB
:100F000003DA0A304FF0000C02E09E42B8BF401CEA
:100F10009668B444614503DA0A304FF0000C02E0F1
:100F2000B342B8BF401CD3689C44614503DA0A3021
:100F30004FF0000C02E09E42B8BF401C7F1E1032F2
:100F4000002FCFD1002100B201F04EF9ADF8020020
:100F5000002C47D00020019A294623460027064648
:100F600001E000270026DDF808E08C4614F00309B4
:100F700000F00A803CF902AB3EF902BB761C1AFB7A
:100F80000B77B9F10109F5D15FEA940C00F02380E9
:100F9000DDF8089006EB000E05EB4E0E09EB460659
:100FA0003EF9029B36F902AB19FB0A773EF9029B28
:100FB00036F902AB19FB0A773EF9029B36F902AB10
:100FC00019FB0A773EF9029B36F902AB19FB0A7747
:100FD000BCF1010CE4D1201842F8047B01EB440180
:100FE0005B1EBED100234FF0000C1846002C1CBF26
:100FF00004FB04F7002F49D0019ABDF9001017F047
:10100000030E11D01668B444614503DA0A304FF07C
:10101000000C02E0B342B8BF401CAEF1010E121D3D
:101020003346BEF1000FEDD1BF082FD01668B4448F
:10103000614503DA0A304FF0000C02E0B342B8BF5A
:10104000401C53689C44614503DA0A304FF0000CA1
:1010500002E09E42B8BF401C9668B444614503DA82
:101060000A304FF0000C02E0B342B8BF401CD36816
:101070009C44614503DA0A304FF0000C02E09E42C6
:10108000B8BF401C7F1E1032002FCFD1BDF8021018
:1010900000B201F0A9F80746029B01992A462046B2
:1010A00000F05AFA00224FF0000E1046002C1CBF30
:1010B00004FB04FCBCF1000F4CD0019BBDF90010F7
:1010C0001CF0030600F01180D3F80090CE44714567
:1010D00003DA0A304FF0000E02E04A45B8BF401C68
:1010E000761E1B1D4A46002EEED15FEA9C0C31D0C5
:1010F0001E68B644714503DA0A304FF0000E02E074
:10110000B242B8BF401C5A689644714503DA0A30AF
:101110004FF0000E02E09642B8BF401C9E68B644F5
:10112000714503DA0A304FF0000E02E0B242B8BF58
:10113000401CDA689644714503DA0A304FF0000E1D
:1011400002E09642B8BF401CACF1010C1033BCF178
:10115000000FCDD1394600B201F046F80746029B98
:1011600001992A46204600F0B1FA00224FF0000E05
:101170001046002C1CBF04FB04FCBCF1000F4BD03C
:10118000019BBDF900101CF0030610D0D3F80090AD
:10119000CE44714503DA0A304FF0000E02E04A45B2
:1011A000B8BF401C761E1B1D4A46002EEED15FEADA
:1011B0009C0C31D01E68B644714503DA0A304FF0FA
:1011C000000E02E0B242B8BF401C5A689644714516
:1011D00003DA0A304FF0000E02E09642B8BF401C1E
:1011E0009E68B644714503DA0A304FF0000E02E003
:1011F000B242B8BF401CDA689644714503DA0A303F
:101200004FF0000E02E09642B8BF401CACF1010C5A
:101210001033BCF1000FCDD1394600B200F0E4FF2D
:10122000C8F10001002C1CBF04FB04F2002A1AD0F4
:1012300012F0030305D02C880C1925F8024B5B1E15
:10124000F9D192080FD02B88CB182B80521E6B88B7
:10125000CB186B80AB88CB18AB80EB88CB18EB80BE
:101260000835002AEFD100B203B000F04CBB0000FB
:1012700000F0FFFF2DE9F0430125002402B901220F
:10128000B8B1641C04FB04F6F60086423FBF641C40
:1012900004FB04F6F60086420BD2641C04FB04F641
:1012A000F60086423FBF641C04FB04F6F60086424B
:1012B000E7D3491E8908601E89000E1D00FB00F857
:1012C00006EB480C002818BF5FEA080E62D064469F
:1012D00031461EF0030716D06A434FEAE23902EBAB
:1012E00019494FEA2949A2EB094205EB0209A4F882
:1012F000009034F8029BA9445FFA89F96D1C21F82B
:10130000029B7F1EE8D15FEA9E0E43D06A43D7134B
:1013100002EB17473F14A2EB0747EA1924F8022B08
:10132000AA18D2B221F8022B6A1C07FB02F5EF13B0
:1013300005EB17473F14A5EB07455719278034F8ED
:10134000027BD719FFB221F8027B521C5543EF13E1
:1013500005EB17473F14A5EB07455719278034F8CD
:10136000027BD719FFB221F8027B571C05FB07F25D
:10137000D51302EB15452D14A2EB0542BD182580AF
:1013800034F8025B7D19EDB221F8025B7D1CBEF1E1
:10139000010EBBD10CEB4801491E89085E60890033
:1013A000C3F808C0091DD9601860BDE8F083F0B427
:1013B000002400252346002841D040433FD010F0B0
:1013C00003060ED00F683C19A24202DA0A33002449
:1013D00002E0BD42B8BF5B1C761E091D3D46002ED3
:1013E000F0D180082BD00E683419A24202DA0A33F9
:1013F000002402E0B542B8BF5B1C4D682C19A24224
:1014000002DA0A33002402E0AE42B8BF5B1C8E68E9
:101410003419A24202DA0A33002402E0B542B8BF0E
:101420005B1CCD682C19A24202DA0A33002402E0C8
:10143000AE42B8BF5B1C401E10310028D3D1F0BCB7
:1014400018B2704700B9704730B4404326D010F04E
:10145000030407D0641E32F9025B15FB03F541F863
:10146000045BF7D1800819D032F9024B14FB03F466
:1014700041F8044B401E32F9024B14FB03F441F8CF
:10148000044B32F9024B14FB03F441F8044B32F9DC
:10149000024B14FB03F441F8044BE5D130BC704718
:1014A000F0B140431CD010F0030307D0B1F800C0E6
:1014B00094445B1E21F802CB002BF7D180080FD09B
:1014C0000B88D3180B80401E4B88D3184B808B8819
:1014D000D3188B80CB88D318CB8008310028EFD16C
:1014E0007047000000B970472DE9F0414FEA000451
:1014F0004FF0000C15461E4610F0030700F0088060
:1015000035F902EB36F9028B1EFB08CC7F1EF7D1B2
:10151000870819D035F902EB36F9028B1EFB08CC8F
:1015200035F902EB36F9028B1EFB08CC35F902EBDC
:1015300036F9028B1EFB08CC35F902EB36F9028B2B
:101540001EFB08CC7F1EE5D141F804CB02EB400224
:10155000641ECDD1BDE8F08100B970472DE9FE4F82
:1015600081B00021019B009303460024022856D33A
:10157000039D009E4FF00008C146AE46944610F011
:1015800003070DD03CF902ABBEF900B01AFB0B8883
:10159000BEF902B01AFB0B990EEB400E7F1EF1D183
:1015A000870833D0BCF900A0BEF900B01AFB0B8845
:1015B000BEF902B00EEB400E1AFB0B9BBCF902A069
:1015C000BEF900901AFB0988BEF902900EEB400E9E
:1015D0001AFB09BBBCF904A0BEF900901AFB0988EC
:1015E000BEF902900EEB400E1AFB09BBBCF906A037
:1015F000BEF900901AFB0988BEF902901AFB09B9DE
:101600000EEB400E7F1E0CF1080CCBD1A41C46F84B
:10161000048B2D1D671C46F8049B8742AAD3844285
:1016200047D2039D002605EB44074FF000091546FD
:1016300010F0030C00F00C8035F902EBB7F90080D4
:10164000761C1EFB089907EB4007BCF1010CF3D197
:10165000850827D0DDF808C016EB01060CEB46061E
:10166000B7F900E036F902CB07EB40071CFB0E9CF4
:10167000B7F9008036F902EB07EB40071EFB08CCF8
:10168000B7F9008036F902EB07EB40071EFB08CCE8
:1016900036F902EBB7F900801EFB08C907EB4007DB
:1016A0006D1EDDD1019E651846F82590641C8442AC
:1016B000B7D3009C04EB80044118009402EB400275
:1016C0005B1E7FF452AF04B000F01DB900B9704743
:1016D0002DE9FE4F82B00021029B01930090002370
:1016E0000228C0F09780049CDDF804504FF00009F8
:1016F000CC46A646174610F003061AD037F902ABBF
:10170000BEF90080BEF902B01AFB08F81AFB0BFA0A
:10171000C8F3830BC8F3461818FB0B99CAF3830868
:10172000CAF3461A761E1AFB08CC0EEB400E002EAA
:10173000E4D1860800F06480B7F90080BEF900A00B
:10174000BEF902B018FB0AFA18FB0BF8CAF3830BB8
:10175000CAF3461A1AFB0B99C8F3830AC8F3461852
:101760000EEB400E18FB0ACCB7F90280BEF900A0C0
:10177000BEF902B018FB0AFA18FB0BF8CAF3830B88
:10178000CAF3461A1AFB0B99C8F3830AC8F3461822
:101790000EEB400E18FB0ACCB7F90480BEF900A08E
:1017A000BEF902B018FB0AFA18FB0BF8CAF3830B58
:1017B000CAF3461A1AFB0B99C8F3830AC8F34618F2
:1017C0000EEB400E18FB0ACCB7F90680BEF900A05C
:1017D000BEF902B018FB0AFA18FB0BF8CAF3830B28
:1017E000CAF3461A1AFB0B99C8F3830AC8F34618C2
:1017F000761E083718FB0ACC0EEB400E002E9BD14C
:101800009B1C45F8049B241D5E1C45F804CB8642B6
:10181000FFF46CAF834262D2049C002504EB4306C4
:101820004FF0000C144610F0030710D034F902EB0F
:10183000B6F900801EFB08FECEF38308CEF3461EE9
:101840006D1C1EFB08CC06EB40067F1EEED1840803
:101850003ED0039F15EB010507EB450535F9027BEB
:10186000B6F900E017FB0EF8C8F38307C8F3461E6D
:1018700006EB40061EFB07C735F902CBB6F900E0C0
:101880001CFB0EFCCCF3830ECCF3461C06EB40068F
:101890001CFB0E7735F902CBB6F900E01CFB0EFC01
:1018A000CCF3830ECCF3461C06EB40061CFB0E77F4
:1018B00035F902CBB6F900E01CFB0EFCCCF3830E2D
:1018C000CCF3461C1CFB0E7C06EB4006641EC5D107
:1018D000029D5C1845F824C05B1C83429CD3019B8D
:1018E00003EB800301934118009B5B1E02EB400257
:1018F00000937FF4F4AE05B000F005B830BCBDE84D
:10190000C04FFFF76DBA30BCBDE8C08F2DE9FE4F68
:1019100088B000AC002500956560A560E560256194
:1019200065610B46A561E561A94619780026AB46BD
:10193000A8462F46AA46002900F08B80197800227D
:10194000002900F07D802C2979D0A1F130020A2AEB
:1019500067D32B2918BF2D296AD06D1C2E2963D17E
:10196000052215E0A1F130020BF1010B0A2A54D334
:101970002E2954D105220BE013F8011F00295FD056
:101980002C295CD02E2941D15FF0050208F1010815
:1019900013F8011F002953D02C2950D045292DD1EF
:1019A00013F8011F03227F1C002949D02C2946D09F
:1019B0002B291ED113F8011F0622761C00293FD0C7
:1019C0002C293CD030390AF1010A0A290FD301220F
:1019D00035E000BF13F8011F002931D02C292ED08B
:1019E00030390A29F6D3012209F1010927E007223B
:1019F000F0E72D29DED00122761C20E06529CFD02A
:101A000030390A29C4D301227F1C18E030390A2951
:101A1000B2D3012208F1010811E00422ACE701224F
:101A20000DE004226D1CA7E7012209F1010906E07F
:101A300013F8011F02226D1C11B12C2992D15B1CDD
:101A400054F82210491C44F82210197800297FF418
:101A500075AF089BBDF950201946401881420DD240
:101A600093F800C0BCF12C0F05D0BDF824E08EEA3D
:101A70000C0C83F800C0D3188342F1D3089B1A786A
:101A8000B2F1000F00F0B08093F800C00022BCF16A
:101A9000000F00F09F80BCF12C0F00F09A80ACF199
:101AA00030020A2AC0F08380BCF12B0F18BFBCF1B2
:101AB0002D0F00F083806D1CBCF12E0F40F07A805A
:101AC000052219E0ACF130020BF1010B0A2A6AD3AE
:101AD000BCF12E0F69D105220EE000BF13F801CF33
:101AE000BCF1000F76D0BCF12C0F72D0BCF12E0FE0
:101AF00050D1052208F1010813F801CFBCF1000F05
:101B000068D0BCF12C0F64D0BCF1450F37D113F86D
:101B100001CF03227F1CBCF1000F5BD0BCF12C0F66
:101B200057D0BCF12B0F24D113F801CF0622761C1D
:101B3000BCF1000F4ED0BCF12C0F4AD0ACF13002FA
:101B40000AF1010A0A2A12D3012242E013F801CF56
:101B5000BCF1000F3ED0BCF12C0F3AD0ACF1300CF0
:101B6000BCF10A0FF2D3012209F1010931E0072289
:101B7000ECE7BCF12D0FD7D00122761C29E0BCF197
:101B8000650FC4D0ACF1300CBCF10A0FB4D3012204
:101B90007F1C1EE0ACF1300CBCF10A0F9ED3012279
:101BA00008F1010815E0042298E7012211E004225F
:101BB0006D1C93E7012209F101090AE013F801CF36
:101BC00002226D1CBCF1000F04D0BCF12C0F7FF47D
:101BD00079AF5B1C54F822C00CF1010C44F822C010
:101BE0001A78002A7FF450AF089BBDF9502081423B
:101BF0000AD219782C2904D0BDF828C08CEA01013A
:101C00001970D3188342F4D31599009800F022FA82
:101C10000146284600F01EFA0146606800F01AFAF4
:101C20000146484600F016FA0146A06800F012FA94
:101C30000146584600F00EFA0146E06800F00AFA44
:101C40000146304600F006FA0146206900F002FA2B
:101C50000146404600F0FEF90146606900F0FAF9DD
:101C60000146384600F0F6F90146A06900F0F2F9A5
:101C70000146504600F0EEF90146E06900F0EAF94D
:101C80000146002000F0E6F90BB000F011B90000A9
:101C90002DE9F047002300251C46401EDFF8CC90BC
:101CA00005E000BFC1F3C10459F824400425EF1832
:101CB0007F1C87424ED25DB39F184FF0000CBE468A
:101CC000A04615F0030607D00CF1010C18F801AB83
:101CD0000EF801AB761EF7D1AE0813D018F801ABA1
:101CE0000EF801AB0CF1040C18F801AB0EF801ABC7
:101CF000761E18F801AB0EF801AB18F801AB0EF820
:101D000001ABEBD14FF02C0E0CF807E06F1CFB1869
:101D1000491C01F00707072FC9D8DFE807F00404C2
:101D20000406060D0D14BDE7C1E7C1F3C10409EBBC
:101D3000840408252469BAE7C1F3C10409EB8404CB
:101D40000825246AB3E7C1F3C10409EB840408251C
:101D5000246BACE7401C834206D2991800225B1C1E
:101D600001F8012B8342FAD3BDE8F08788000020F8
:101D700030B403681C7800227CB12C2C4BD10BE0D2
:101D800013F8014F4CB12C2C06D0303C0A2CF7D361
:101D90004C68641C01224C605B1C0360104630BC24
:101DA000704700BF13F8014F002CF6D02C2CF3D055
:101DB000452C18BF652C6BD14C69641C4C61032207
:101DC00013F8014F002CE8D02C2CE5D02B2C18BF99
:101DD0002D2C65D1CC68641CCC60062213F8014F11
:101DE000002CDAD02C2CD7D08A69551CA4F13002F3
:101DF0000A2A5AD301228D61CEE700BF13F8014FA2
:101E0000002CCAD02C2CC7D02E2C39D105220C691D
:101E1000641C0C61C6E7A4F130020A2A04D20C68E3
:101E2000641C04220C60E9E72B2C18BF2D2C14D164
:101E300002220C68641C0C6013F8014F002CACD01B
:101E40002C2CA9D08A68551CA4F130020A2A11D37F
:101E50002E2C12D105228D60A4E70A68551C2E2C69
:101E600002D105220D609DE701224C68641C4C6084
:101E70000D6091E704228D60C0E701228D608BE741
:101E8000303C0A2CBAD301220C69641C0C6183E734
:101E9000303C0A2C86D301224C69641C4C617BE7E0
:101EA0000122CC68641CCC6076E707228D6167E76D
:101EB00030BCBDE8C08F0000401E042813D8DFE806
:101EC00000F00306090C0F00084800687047084836
:101ED0000068704707480068704707480068704707
:101EE000064800687047002070470000700000201E
:101EF00074000020780000207C000020800000207A
:101F000081EA00024B084AF20101D20748BF4B4068
:101F100083EA50025B08D20748BF4B4083EA900235
:101F20005B08D20748BF4B4083EAD0025B08D20768
:101F300048BF4B4083EA10125B08D20748BF4B40B2
:101F400083EA50125B08D20748BF4B4083EA9012E5
:101F50004FEAD01C5B08D00748BF4B40580883EAC3
:101F60000C02D20748BF4840704781EA00030206CE
:101F70004FEA510C4AF20101DB0748BF81EA0C0C21
:101F80008CEA52634FEA5C0CDB0748BF81EA0C0C19
:101F90008CEA92634FEA5C0CDB0748BF81EA0C0CC9
:101FA0008CEAD2634FEA5C0CDB0748BF81EA0C0C79
:101FB0008CEA12734FEA5C0CDB0748BF81EA0C0C19
:101FC0008CEA52734FEA5C0CDB0748BF81EA0C0CC9
:101FD0008CEA92734FEA5C0CDB0748BF81EA0C0C79
:101FE0008CEAD2724FEA5C03D20748BF4B4083EAC7
:101FF00010225B08D20748BF4B4083EA50225B089F
:10200000D20748BF4B4083EA90225B08D20748BF03
:102010004B4083EAD0225B08D20748BF4B4083EA9B
:1020200010325B08D20748BF4B4083EA50325B084E
:10203000D20748BF4B4083EA90324FEAD03C5B085E
:10204000D00748BF4B40580883EA0C02D20748BF6C
:102050004840704730B481EA000403064D084AF254
:102060000101E40748BF4D4085EA53646D08E40769
:1020700048BF4D4085EA93646D08E40748BF4D4072
:1020800085EAD3646D08E40748BF4D4085EA1374C0
:102090006D08E40748BF4D4085EA53746D08E407B6
:1020A00048BF4D4085EA93746D08E40748BF4D4032
:1020B0006C0885EAD373DB0748BF4C40020484EA0E
:1020C00012636408DB0748BF4C4084EA526364082B
:1020D000DB0748BF4C4084EA92636408DB0748BFD3
:1020E0004C4084EAD2636408DB0748BF4C4084EA72
:1020F00012736408DB0748BF4C4084EA52736408DB
:10210000DB0748BF4C4084EA92736408DB0748BF92
:102110004C40630884EAD272D20748BF4B40000C9F
:1021200083EA000402065B08E40748BF4B4083EAE9
:1021300052645B08E40748BF4B4083EA92645B0843
:10214000E40748BF4B4083EAD2645B08E40748BF1A
:102150004B4083EA12745B08E40748BF4B4083EAB4
:1021600052745B08E40748BF4B4083EA92745B08F3
:10217000E40748BF4B405C0883EAD272D20748BFED
:102180004C4084EA10226308D20748BF4B4083EAE0
:1021900050225B08D20748BF4B4083EA90225B087D
:1021A000D20748BF4B4083EAD0225B08D20748BF22
:1021B0004B4083EA10325B08D20748BF4B4083EAAA
:1021C00050325B08D20748BF4B4083EA9032C40BC1
:1021D0005B08D00748BF4B40580883EA0402D20787
:1021E00048BF484030BC704781EA000302064FEA0E
:1021F000510C4AF20101DB0748BF81EA0C0C8CEA62
:1022000052634FEA5C0CDB0748BF81EA0C0C8CEA96
:1022100092634FEA5C0CDB0748BF81EA0C0C8CEA46
:10222000D2634FEA5C0CDB0748BF81EA0C0C8CEAF6
:1022300012734FEA5C0CDB0748BF81EA0C0C8CEA96
:1022400052734FEA5C0CDB0748BF81EA0C0C8CEA46
:1022500092734FEA5C0CDB0748BF81EA0C0C8CEAF6
:10226000D2724FEA5C03D20748BF4B40000483EAB6
:1022700010625B08D20748BF4B4083EA50625B089C
:10228000D20748BF4B4083EA90625B08D20748BF41
:102290004B4083EAD0625B08D20748BF4B4083EAD9
:1022A00010725B08D20748BF4B4083EA50725B084C
:1022B000D20748BF4B4083EA90724FEAD07C5B085C
:1022C000D00748BF4B40580883EA0C02D20748BFEA
:1022D000484070472DE9F05F0546002092469B4636
:1022E00088460646814640241BE02846414647462C
:1022F000224600F044F953465A46C01A914110D381
:1023000011461846224600F02BF92D1A67EB0108FA
:102310004F4622460120002100F022F917EB000968
:102320004E41201EA4F10104DFDC484631462A4616
:10233000434600F000B830BCBDE8C09FD2B201E017
:1023400000F8012B491EFBD270470022F6E710B5BA
:1023500013460A4604461946FFF7F0FF204610BD13
:1023600010B5002200E0521C835C8C5CA34201D1BA
:10237000002BF8D1D8B2E1B2401A10BD2DE9F04DD2
:1023800081EA030404F0004B21F0004514464FF0AD
:10239000000A23F0004150EA050220D054EA01026D
:1023A0001DD0C5F30A570246C5F31303C1F313004A
:1023B000C1F30A5640F4801543F48013A7EB0608D6
:1023C000101BD64608F2FD3873EB050002D308F166
:1023D000010801E092185B41B8F1000F03DA002018
:1023E0000146BDE8F08D00204FF48011064684467A
:1023F0000EE0171B73EB050705D3121B63EB0503F8
:1024000006434CEA010C49084FEA300092185B4140
:1024100050EA0107EDD152EA030012D082EA04002B
:1024200083EA0501084305D0101BAB4106D2012207
:10243000002306E000224FF0004302E06FF00102AB
:1024400053101AEB06004CEB085110EB0A0041EB5D
:102450000B01BDE8F04D00F0D9B80EB540F23341A4
:1024600002910021CDE900110A460B4600F0DDF88B
:1024700003B000BDC1F30A5210B5C1F3130140F21D
:10248000FF3341F480119A4201DA002010BD40F27E
:1024900033439A42A2F2334203DC524200F06FF817
:1024A00010BD904010BD00F0004230F000400AD056
:1024B000C10D01F56071C0F3160042EA0151C20876
:1024C00040071143704700200146704730B5041E95
:1024D00071F1000404DB4FF00044404264EB010161
:1024E000141E73F1000405DB1C464FF000435242FA
:1024F00063EB04038B4208BF824230BD01F000430E
:1025000030B421F0004150EA010206D00A0DA2F5D4
:102510006072C1F31301002A02DC30BC0020704756
:10252000440F44EAC104C100E01830BC00EBC250C3
:1025300000F035B830B50B460146002020220124BA
:1025400009E021FA02F59D4205D303FA02F5491B81
:1025500004FA02F52844151EA2F10102F1DC30BD97
:10256000202A04DB203A00FA02F100207047914053
:10257000C2F1200320FA03F3194390407047202A48
:1025800004DB203A21FA02F00021704721FA02F31D
:10259000D040C2F1200291400843194670470029FB
:1025A000A8BF7047401C490008BF20F001007047D9
:1025B00010B4B0FA80FC00FA0CF050EA010404BF39
:1025C00010BC704749B1CCF1200421FA04F411FA8F
:1025D0000CF118BF012121430843A3EB0C01CB1DD3
:1025E0004FEA00614FEA102042BF002010BC704744
:1025F00000EBC35010440029A4BF10BC7047401C1E
:10260000490008BF20F0010010BC704710B5141E2F
:1026100073F1000408DA401C41F1000192185B419B
:102620001A4301D120F0010010BD2DE9F04D924672
:102630009B4611B1B1FA81F202E0B0FA80F2203289
:102640009046FFF78DFF04460F4640EA0A0041EA34
:102650000B0153465A46084313D0114653EA010072
:1026600019D0C8F140025046FFF789FF05460E46D3
:10267000504659464246FFF773FF084305D00120F4
:1026800004E020463946BDE8F08D0020054346EAC7
:10269000E0762C4337430A986305E40AA0EB080070
:1026A0000022FD0A44EA47540A3002D500200146C0
:1026B000E9E7010510196941DDE90845001969419B
:1026C000BDE8F04DA2E72DE9FE4F804681EA030008
:1026D000C00F0C46009021F0004123F00045B8EBFC
:1026E0000200A94105D24046214690461C460B46B1
:1026F000024623F00040104347D0270DC7F30A00DD
:10270000C3F30A510290401A019040286BDAC3F3D8
:10271000130040F4801B0098924620B10023D2EBB6
:10272000030A63EB0B0B01985946C0F14002504677
:10273000FFF716FF06460D4650465946019A00F02F
:1027400029F910EB08006141002487EA115284EA5C
:10275000E7731A4340D0009A62B3019A012A4FEA04
:10276000075215DC001B61EB02014FF0004202EA48
:102770000752CDE90042001C41F5801132462B463C
:10278000FFF753FF03B000F045B840462146F9E794
:10279000001B61EB0201001C41F5801300185B4136
:1027A0002018A2F5001747EB030140EAD570B619CF
:1027B0006D4111E06D084FEA360645EAC0754FEAF3
:1027C0000752001B61EB0201001C41F58011490812
:1027D0004FEA30000019514132462B4603B000F059
:1027E0001CB8FFF713BF0098012240000023D0EB74
:1027F000020263EBE073009821464FEAE074B8EB05
:10280000000061EB0401E9E783F000435BE781F03E
:10281000004158E730BCBDE8C08F30BCBDE8C04FB8
:10282000FFF7DFBF2DE9FE4F81EA030404F0004407
:1028300021F0004100944FF0000B23F0004350EAD8
:1028400001045ED052EA03045BD0C3F30A54C1F31F
:102850000A552C44A4F2F3340194A0FB0254C1F3B2
:10286000130141F48011C3F3130343F4801301FBFC
:10287000024400FB034E840A970A44EA815447EA63
:102880008357A4FB076802958D0A05FB07854FEA6D
:10289000932C04FB0C542705029D4FEA065847EA87
:1028A0001637B5EB08056EEB070C870E920E47EA5C
:1028B000811742EA8312A7FB0201B6EB0B0164EB1E
:1028C00000042B0D43EA0C335E1844EB1C50DA462F
:1028D0005146E7FB0201C5F313044FEA0B3343EA09
:1028E00014534FEA0432019C43EA0603A4F10C049A
:1028F0000294009CCDE900B4FFF797FE03B000F00E
:1029000003B800200146F9E730BCBDE8C08FC1F331
:102910000A52C1F3130140F2FF3341F480119A428D
:1029200002DA00200146704740F233439A42A2F295
:10293000334202DC5242FFF722BEFFF711BE000015
:1029400030B5041E71F1000404DB4FF00044404236
:1029500064EB0101141E73F1000405DB1C464FF00B
:102960000043524263EB0403994208BF904230BDDA
:10297000064C074D06E0E06840F0010394E80700CC
:1029800098471034AC42F6D3FDF704FC1C7D0008D8
:102990003C7D0008202A06DBCB17203A41FA02F0E2
:1029A00043EAE07306E041FA02F3D040C2F12002AC
:1029B00091400843194670470A684B68A3EB02042C
:1029C000C3FB0454C5FB036406EB0504046000BFAD
:1029D00000BF00BF00BF00BF00BF00BF00BF00BFFF
:1029E00000BF00BF00BF8A68CB68A3EB0204C3FB33
:1029F0000454C5FB036406EB0504446000BF00BF3C
:102A000000BF00BF00BF00BF00BF00BF00BF00BFCE
:102A100000BF00BF0A684B68A3EB0204C3FB045469
:102A2000C5FB036406EB0504046000BF00BF00BFE4
:102A300000BF00BF00BF00BF00BF00BF00BF00BF9E
:102A400000BF8A68CB68A3EB0204C3FB0454C5FB38
:102A5000036406EB0504446000BF00BF00BF00BF75
:102A600000BF00BF00BF00BF00BF00BF00BF00BF6E
:102A7000A2E7000000BF00BF00BF00BF00BF00BF53
:102A80000A684B68A3EB0204C3FB0454C5FB036450
:102A900006EB0504046000BF00BF09E000BF00BFF3
:102AA00000BF00BF00BF00BF00BF00BF00BF00BF2E
:102AB0008A68CB68A3EB0204C3FB0454C5FB036420
:102AC00006EB0504446000BF00BF00BF00BF00BFAD
:102AD00000BF00BF00BF00BF00BF00BF00BF0A684B
:102AE0004B68A3EB0204C3FB0454C5FB036406EB71
:102AF0000504046000BF00BF00BF00BF00BF00BFEF
:102B000000BF00BF00BF00BF00BF00BF8A68CB6826
:102B1000A3EB0204C3FB0454C5FB036406EB0504EA
:102B2000446000BF00BF00BF00BF00BF00BF00BFC8
:102B300000BF00BF00BF00BF00BF9BE700B587B06C
:102B400000210091019102910391049140B90C4937
:102B5000CA6C42F00202CA64C96C01F0020105911C
:102B6000084931F8101000910121019102210391CF
:102B7000054951F82000694600F034FA07B000BD5D
:102B800000100240807B0008040000200449054A30
:102B900031F8101052F82000002200F035BB000080
:102BA000807B0008040000200449054A31F8101019
:102BB00052F82000012200F027BB0000807B0008B3
:102BC00004000020184800B5816D87B041F08051A5
:102BD0008165816D01F080510591C16C41F0010169
:102BE000C164C06C002200F00100059080214FF00C
:102BF000904000F009FB012000F0E4F900221021D0
:102C00004FF0904000F000FB012001900020039065
:102C100002200290D020009069464FF0904000F0D2
:102C2000E1F907B0002000BD0010024038B5154A98
:102C300005460C46906D40F080509065906D00F018
:102C400080500090D06C40F00100D064D06C012224
:102C500000F00100009010214FF0904000F0D4FAF5
:102C6000002D1CBF284600F0ADF944B140214FF0C3
:102C7000904000F0C4FA002804BF012038BD0020B5
:102C800038BD00000010024030B5224887B0816D89
:102C900041F080518165816D01F080510591C16CD9
:102CA00041F00101C164C06C00F0010005901A48B8
:102CB000006A10F0100F14D18021002000F092FB68
:102CC0001021002000F08EFB0421002000F0CCFB3E
:102CD0004FF40051002000F0C7FB0821012000F054
:102CE000C3FB002401254020CDE902540090694631
:102CF00001944FF0904000F075F99020CDE9000567
:102D0000039469460294C00500F06CF907B00020F6
:102D100030BD0000001002400070004038B5144A79
:102D20000C46916D41F080519165916D01F080519B
:102D30000091D16C41F00101D164D16C002801F007
:102D40000101009118BF00F03DF944B140214FF05E
:102D5000904000F054FA002804BF012038BD012241
:102D600080214FF0904000F04FFA002038BD000065
:102D700000100240FEE770470020FFF7DFFE002052
:102D8000FFF712FF4FF4967000F01CF90020FFF7D8
:102D9000FDFE4FF4967000F015F90020FFF704FFD8
:102DA0004FF4967000F00EF90020FFF7EFFE4FF49D
:102DB000967000F007F90020FFF7F6FE4FF49670CA
:102DC00000F000F90020FFF7E1FE4FF4967000F0EC
:102DD000F9F80020FFF7E8FE4FF42F7000F0F2F84A
:102DE0000020FFF7D3FE4FF42F7000F0EBF8002027
:102DF000FFF7DAFE4FF42F7000F0E4F80020FFF741
:102E0000C5FE4FF42F7000F0DDF80020FFF7CCFE78
:102E10004FF42F7000F0D6F80020FFF7B7FE4FF404
:102E20002F7000F0CFF80020FFF7BEFE4FF4967031
:102E300000F0C8F80020FFF7A9FE4FF4967000F0EC
:102E4000C1F80020FFF7B0FE4FF4967000F0BAF81A
:102E50000020FFF79BFE4FF4967000F0B3F80020BF
:102E6000FFF7A2FE4FF4967000F0ACF80020FFF7D9
:102E70008DFE4FF4487000F0A5F880E730B5384C6F
:102E800087B0E06C40F00100E064E06C00F001000D
:102E90000590E06C40F00200E064E06C00F002009D
:102EA0000590E06C40F00400E064E06C00F0040089
:102EB0000590E06C40F00800E064E06C00F0080071
:102EC0000590E06C40F01000E064E06C00F0100051
:102ED0000590E06C40F08000E064E06C4FF6FF7518
:102EE00000F08000059003200190002003900290E4
:102EF000694600954FF0904000F074F86946194813
:102F0000009500F06FF86946174800F06BF86946C5
:102F1000164800F067F86946154800F063F80B2082
:102F200000906946134800F05DF8E06C20F0010065
:102F3000E064E06C20F00200E064E06C20F004004B
:102F4000E064E06C20F00800E064E06C20F0100029
:102F5000E064E06C20F08000E06407B030BD000069
:102F6000001002400004004800080048000C00481F
:102F700000100048001C004810B590F825100024EF
:102F8000022903D00421C163012419E001680A6801
:102F900022F00E020A6001680A6822F001020A604B
:102FA00090F84420036C012101FA02F25A6080F883
:102FB0002510002180F82410816B002918BF884754
:102FC000204610BD70B5044600F024F90546B4F162
:102FD000FF3F18BF641C00F01DF9401BA042FAD34C
:102FE00070BD00000B680022002B08BF70472DE960
:102FF000F84F7C4EDFF8F0E101274FF0030A4FF065
:103000000F0800BF0B6807FA02F52B407ED0D1F8FD
:1030100004C0BCF1020F18BFBCF1120F15D14FEA6A
:10302000D20C00EB8C04D4F820904FEA427C4FEA9B
:10303000DC6C08FA0CFB29EA0B09D1F810B00BFA8A
:103040000CFC4CEA090CC4F820C0D0F800904FEA00
:10305000420C91F804B00AFA0CF40BF0030B29EAC5
:1030600004090BFA0CFB4BEA0909C0F80090D1F8EF
:103070000490B9F1010F18BFB9F1020F05D0B9F1F1
:10308000110F18BFB9F1120F18D1D0F80890D1F86C
:103090000CB029EA04090BFA0CFB4BEA0909C0F849
:1030A0000890D0F8049029EA050591F80490C9F336
:1030B000001909FA02F949EA05054560C56825EADB
:1030C00004048D6805FA0CFC4CEA040CC0F80CC032
:1030D000D1F804C01CF0805F7DD0D6F860C04CF001
:1030E000010CC6F860C0D6F860C00CF0010CCDF839
:1030F00000C022F0030C0CF1804505F58035D5F8B1
:1031000008C04FEA82744FEA147400E063E008FAE2
:1031100004F92CEA090CB0F1904F08BF4FF00009F8
:1031200020D0A0F19049B9F5806908BF4FF001099E
:1031300018D0A0F19049B9F5006908BF4FF0020915
:1031400010D0A0F19049B9F5406908BF4FF00309CC
:1031500008D0A0F19049B9F580590CBF4FF004098F
:103160004FF0070909FA04F444EA0C0CC5F808C04A
:10317000DEF800C04C682CEA030C14F4803F18BF42
:103180004CEA030CCEF800C0184CD4F800C04D68CF
:103190002CEA030C15F4003F18BF4CEA030CC4F8EA
:1031A00000C0134CD4F800C04D682CEA030C15F491
:1031B000801F18BF4CEA030CC4F800C00D4CD4F8B3
:1031C00000C04D682CEA030C15F4001F18BF4CEA30
:1031D000030CC4F800C00B68521CD3407FF412AF3C
:1031E00000F00AB80010024000040140040401404D
:1031F000080401400C04014018BCBDE8E08F0069E0
:10320000084018BF01207047002A14BF8161816205
:103210007047000001480068704700001800002057
:1032200002480168491C0160704700001800002036
:10323000074810B5016841F480710160032000F077
:1032400069F80F2000F006F800F018F8002010BD13
:103250000020024010B5044607484FF47A72006817
:10326000B0FBF2F001F08EF800222146501E00F073
:103270001FF8002010BD000000000020704700F083
:103280001F01012202FA01F14009800000F1E02053
:10329000C0F88012704700F01F01012202FA01F10C
:1032A0004009800000F1E020C0F8001170470000E4
:1032B000174B10B41B68C3F30223C3F1070CBCF116
:1032C000040F88BF4FF0040C1C1D072C34BF0023D3
:1032D000DB1E012404FA0CFCACF1010C0CEA010128
:1032E000994004FA03F35B1E1A40114300284FEA89
:1032F0000111A1BF00F1E02080F8001410BC70475C
:1033000000F00F0000F1E02080F8141D10BC7047A1
:103310000CED00E0074900F007000A684FF6FF03D4
:103320001A4042EA002040F0FD7040F080600860E2
:10333000704700000CED00E01749B0F5007F086809
:1033400000F4C0600AD0B0F5806F05D0086820F4A2
:10335000C06040F48060086000207047B0F5007FD6
:10336000FAD0086820F4C06040F4007008600B4890
:103370000B4A0068B0FBF2F03222504300281EBF17
:103380004A6912F4806F401EF8D1486910F4806FCA
:1033900018BF0320E0D070470070004000000020FC
:1033A00040420F000C49086820F4804008600B4838
:1033B0000B4A0068B0FBF2F03222504300281EBFD7
:1033C0004A6912F4007F401EF8D1486910F4007079
:1033D00018BF03207047000000700040000000206C
:1033E00040420F001F4A08283AD2DFE800F0040FDD
:1033F000181F2639392D506A21F420431843506292
:10340000106A21F480418843106227E0D06A21F0DD
:1034100010031843D062906A884390621EE0506B9C
:1034200008435063106B8843106317E0D06B084368
:10343000D063906B8843906310E0506C08435064F5
:10344000106C8843106409E0D36D01F00B0043EA6F
:103450000001D165916D21EA000090650020704760
:1034600001207047007000401F4A08283AD2DFE868
:1034700000F0040F181F2639392D106A21F48043FB
:1034800018431062506A21F420418843506227E0BB
:10349000906A08439062D06A21F010018843D0629C
:1034A0001EE0106B08431063506B8843506317E0B5
:1034B000906B08439063D06B8843D06310E0106C2E
:1034C00008431064506C8843506409E0936D01F028
:1034D0000B0043EA00019165D16D21EA0000D0653F
:1034E00000207047012070470070004002480168CA
:1034F00041F48041016070470070004002488168DB
:1035000041F480618160704700700040024881682A
:1035100041F4807181607047007000400648016886
:1035200021F0070141F0040101600448016841F005
:103530000401016030BF70470070004010ED00E0F2
:103540000A490A6822F007020A6009490A6842F03B
:1035500004020A6001280FBF30BF40BF20BF20BF58
:10356000086820F004000860704700000070004008
:1035700010ED00E00B490A6822F0070242F0010258
:103580000A6009490A6842F004020A6001280FBF74
:1035900030BF40BF20BF20BF086820F00400086093
:1035A000704700000070004010ED00E00B490A6811
:1035B00022F0070242F002020A6009490A6842F05A
:1035C00004020A6001280FBF30BF40BF20BF20BFE8
:1035D000086820F004000860704700000070004098
:1035E00010ED00E00248006800F4C0607047000081
:1035F000007000400248016841F48071016070472A
:103600000070004010B50C460D490028486900F4D0
:10361000007004D0002808BFFFF768FF03E000280F
:1036200018BFFFF7BFFE0748016821F004010160E1
:10363000012C04BF30BF10BD40BF20BF20BF10BD54
:103640000070004010ED00E00648016821F007011D
:1036500041F0030101600448016841F00401016088
:1036600030BF70470070004010ED00E02DE9F84FCA
:10367000044600270088CA4D3E4610F4006F16D05D
:10368000606C68B1B0F5000F05D0B0F5400F18BF01
:10369000012717D00AE0E86840F48030E86011E0C4
:1036A0000021201D01F0A6F907000BD03E4620683E
:1036B00010F4003F41D0A86D4FF0000810F0805F7B
:1036C00009D012E0D5F88800616C20F4400008436E
:1036D000C5F88800EBE7A86D40F08050A865A86D9C
:1036E0004FF0010800F080500090DFF8B8A2DAF83F
:1036F000000040F48070CAF80000FFF78BFD81469F
:10370000DAF8000010F4807F0DD100BFFFF782FDD2
:10371000A0EB0900022801D9032706E0DAF800002F
:1037200010F4807FF2D0002F7ED03E46B8F1000F1B
:1037300003D0A86D20F08050A865207810F0010F0C
:1037400007D0D5F88800216A20F003000843C5F8A7
:103750008800207810F0020F07D0D5F88800616A41
:1037600020F00C000843C5F88800207810F0040F02
:1037700007D0D5F88800A16A20F030000843C5F8CA
:103780008800207810F0200F07D0D5F88800E16A73
:1037900020F440600843C5F88800208810F4007FBA
:1037A00007D0D5F88800E16B20F440200843C5F825
:1037B0008800208810F4806F07D0D5F88800216C2D
:1037C00020F440100843C5F88800207810F0400F1E
:1037D00007D0D5F88800216B20F440500843C5F885
:1037E0008800207810F0800F07D0D5F88800616B32
:1037F00020F440400843C5F88800208810F4807FFA
:1038000007D0D5F88800A16B20F440300843C5F8F4
:103810008800208810F4005F5BD0D5F88800A16C88
:1038200020F04060084300E009E0C5F88800A06C83
:10383000B0F1006F41D0B0F1806F43D049E0D5F8CE
:10384000900010F440701CBFE16D814211D0D5F89A
:103850009000D5F8901020F4407041F48031C5F804
:103860009010D5F8901021F48031C5F89010C5F86B
:10387000900010F0010F17D0FFF7CCFC0746D5F8E9
:10388000900010F0020F08BF41F288390CD100BF40
:10389000FFF7C0FCC01B484501D9032646E7D5F811
:1038A000900010F0020FF3D0D5F89000E16D20F4F5
:1038B00040700843C5F8900038E7E86840F480108D
:1038C000E86006E00121201D01F094F8002818BFEF
:1038D0000646206810F4002F1BD0D5F88800E16C54
:1038E00020F040600843C5F88800E06CB0F1006F3C
:1038F00003D0B0F1806F05D00BE0E86840F4801091
:10390000E86006E00121201D01F074F8002818BFCE
:103910000646206810F4802F1BD0D5F88800216D52
:1039200020F040600843C5F88800206DB0F1006FBA
:1039300003D0B0F1806F05D00BE0E86840F4801050
:10394000E86006E00121201D01F054F8002818BFAE
:103950000646208810F4804F12D0D5F88800616D9B
:1039600020F040500843C5F88800606DB0F1805FDA
:1039700006D10221201D01F03DF8002818BF06469F
:10398000208810F4004F07D0D5F88800A16D20F0F2
:1039900080400843C5F88800304600F005B80000B4
:1039A000001002400070004018BCBDE8E08F00002D
:1039B0002DE9F047614F06468846386800F0070059
:1039C00040450AD2386820F0070040EA0800386015
:1039D000386800F0070040457ED13078584D10F02F
:1039E000010F66D07068032824D0022827D02968E8
:1039F00050B311F4806F78D0A96821F00301084317
:103A0000A860FFF707FC0446706841F28839032874
:103A10001ED002282CD00028A86800F00C0038D056
:103A2000042846D0FFF7F6FB001B48453CD903208D
:103A3000BDE8F087296811F0007FDDD155E02968E5
:103A400011F4003FD8D150E011F0020FD4D14CE076
:103A5000A8684FF00C0A3AEA00002AD0FFF7DAFB18
:103A6000001B4845E3D8A8683AEA0000F6D120E0F8
:103A7000A86800F00C0008281BD000BFFFF7CAFBA5
:103A8000001B4845D3D8A86800F00C000828F5D1E1
:103A90000FE070B1FFF7BEFB001B4845C7D8A86810
:103AA00010F00C0FF6D104E0A86800F00C00042818
:103AB000B8D1307810F0020F05D0A868B16820F0B6
:103AC000F0000843A860386800F0070040450FD9AF
:103AD000386820F0070000E007E040EA080038609E
:103AE000386800F00700404502D00120BDE8F087AB
:103AF000307810F0040F05D0A868F16820F4E06079
:103B00000843A860307810F0080F06D0A868316923
:103B100020F4605040EAC100A86000F06DF8A96888
:103B2000084AC1F30311515CC840074908600F20DF
:103B3000FFF790FB0020BDE8F08700000020024066
:103B400000100240387B0008000000201648016881
:103B500041F001010160016811F0020F04D100BFC2
:103B6000016811F0020FFAD0016821F0F00141F074
:103B7000600101600021816002680C4B1A40026004
:103B8000C160C26842F48052C2600161026942F4BD
:103B900080520261026822F480220260816105493C
:103BA000034808607047000000100240FFF4FEFA6E
:103BB00000093D00000000200448054900688968AC
:103BC000044AC1F30221515CC84070470000002044
:103BD00000100240787B00080448054900688968A5
:103BE000044AC1F3C221515CC84070470000002064
:103BF00000100240787B00082F4930B400228B6807
:103C0000104613F00C0F2D4B4FF00C044FEA630CD1
:103C100036D08D6834EA050504D1CD6805F003057A
:103C2000012D2DD08D6805F00C05042D08BF184618
:103C300005D08D6805F00C05082D08BF60468D681D
:103C4000AC431CBF30BC7047C86800F00304C868B0
:103C5000C0F30210401C022C26D0032C0CBFBCFB6E
:103C6000F0F0B2FBF0F0CA68C2F306225043C96814
:103C700030BCC1F34161491C4900B0FBF1F0704711
:103C80000A6812F0080F07BFD1F89420C2F303228C
:103C90000A68C2F303120A4D55F822208D6815F008
:103CA0000C0F08BF1046CAE7B3FBF0F0CA68C2F3B6
:103CB00006225043DBE70000001002400024F4001D
:103CC000487B000870B5114C86B01546E06C0E4676
:103CD00040F00100E064E06C694600F001000590EE
:103CE000A015009002200190039000200290049003
:103CF0004FF09040FFF776F9A06846EA050120F002
:103D0000FE400843A06006B070BD000000100240F5
:103D10002DE9F84304460078FF4E10F0100F00F034
:103D20000581B06810F00C0F0FD0A0690028306832
:103D300000F0E88040F001003060FFF76BFA0546C4
:103D4000306810F0020F7CD0C9E0306810F0020F2C
:103D500002D0A069002875D0276A306810F0080FDB
:103D600019BF306800F0F000D6F89400F02108BFC9
:103D700001EA1010DFF8A483874247D9B06D00250F
:103D800010F0805F02D0FFF72DFC0DE0B06D40F029
:103D90008050B065B06D00F080500090FFF722FCBD
:103DA000B16D21F08051B165B0F5007F07D0802F53
:103DB00088BF03250BD807D14FF0020507E0802FFD
:103DC00005D9A02F02D9F7E7702F00D10125D8F827
:103DD000000020F007002843C8F80000D8F80000D1
:103DE00000F00700A8425DD1306840F00800306064
:103DF0003068216A20F0F000084330607068E169A3
:103E000020F47F4040EA012070604EE0306840F0CE
:103E1000080030603068216A20F0F000084330600C
:103E20007068E16920F47F4040EA01207060256AF3
:103E3000B06D002710F0805F05D0FFF7D3FB01467F
:103E400010E042E02EE0B06D40F08050B065B06D03
:103E500000F080500090FFF7C5FB0146B06D20F0E8
:103E60008050B065B1F5007F07D0802D88BF032753
:103E70000BD807D14FF0020707E0802D05D9A02D00
:103E800002D9F7E7702D00D10127D8F8000020F003
:103E900007003843C8F80000D8F8000000F0070019
:103EA000B84202D00120BDE8F883FFF7A5FE014625
:103EB000B0689B4AC0F30310105C21FA00F09949E6
:103EC00008600F20FFF7C6F930E0FFF7A3F9401BA9
:103ED000022800F24882306810F0020FF5D03068F6
:103EE00040F0080030603068216A20F0F00008439C
:103EF00030607068E16920F47F4040EA0120706022
:103F000014E000BF20F001003060FFF783F90546A0
:103F1000306810F0020F09D0FFF77CF9401B02282F
:103F200000F22182306810F0020FF5D120784FF0B6
:103F30000C0710F0010F55D0B06800F00C000828F5
:103F400026D0B06837EA000004D1F068032131EAD6
:103F500000001DD06068B0F5803F21D0B0F5A02FE3
:103F600030680CBF40F4802020F48030306030682E
:103F70000CBF40F4803020F4802030606068F8B1DD
:103F8000FFF748F90546306810F4003F0DD029E0EE
:103F9000306810F4003F25D06068002882D021E00E
:103FA000306840F480303060E8E7FFF733F9401BB9
:103FB000642800F2D881306810F4003FF5D011E099
:103FC000FFF728F90546306810F4003F0AD000BF1B
:103FD000FFF720F9401B642800F2C581306810F417
:103FE000003FF5D1207810F0020F4AD0B06800F001
:103FF0000C00042817D0B06837EA000004D1F0683C
:1040000000F0030002280ED0E0680028306825D0B8
:1040100040F480703060FFF7FDF80546306810F41A
:10402000806F09D012E0306810F4806F0ED0E06825
:1040300000283FF437AF09E0FFF7ECF8401B0228F7
:1040400000F29181306810F4806FF5D07068217CA7
:1040500020F0F85040EA0160706012E020F48070B7
:104060003060FFF7D7F80546306810F4806F08D04D
:10407000FFF7D0F8401B02287DD8306810F4806F1D
:10408000F6D1207810F0080F32D060690028D6F8F9
:10409000940016D040F00100C6F89400FFF7BAF87B
:1040A0000546D6F8940010F0020F21D1FFF7B2F8C0
:1040B000401B02285FD8D6F8940010F0020FF5D00C
:1040C00016E020F00100C6F89400FFF7A3F80546BB
:1040D000D6F8940010F0020F0AD000BFFFF79AF84C
:1040E000401B022847D8D6F8940010F0020FF5D1F3
:1040F000207810F0040F6FD0B06D4FF0000810F072
:10410000805F12D1B06D40F08050B065B06D4FF05F
:10411000010800F0805007E000100240002002403B
:10412000387B0008000000200090DFF85092D9F89A
:10413000000010F4807F17D1D9F8000040F480709F
:10414000C9F80000FFF766F80546D9F8000010F43A
:10415000807F09D1FFF75EF8401B02280BD8D9F801
:10416000000010F4807FF5D0A068012821D0052838
:10417000D6F8900000E0A7E00CBF40F0040020F06B
:104180000100C6F89000D6F890000CBF40F0010086
:1041900020F00400C6F89000A06841F28835E0B134
:1041A000FFF738F88146D6F8900010F0020F07D0DC
:1041B00027E0D6F8900040F00100C6F89000EBE749
:1041C000FFF728F8A0EB0900A8427DD8D6F89000A8
:1041D00010F0020FF4D014E01AE0FFF71BF881464C
:1041E000D6F8900010F0020F0BD000BFFFF712F8C6
:1041F000A0EB0900A84267D8D6F8900010F0020F93
:10420000F4D1B8F1000F03D0B06D20F08050B0654C
:10421000207810F0200F33D0606A0028D6F898007C
:1042200017D040F00100C6F89800FEF7F3FF0546EE
:10423000D6F8980010F0020F22D100BFFEF7EAFF77
:10424000401B022840D8D6F8980010F0020FF5D095
:1042500016E020F00100C6F89800FEF7DBFF0546E7
:10426000D6F8980010F0020F0AD000BFFEF7D2FF78
:10427000401B022877D8D6F8980010F0020FF5D12D
:10428000A06AE8B3B16837EA01013FF40BAE022837
:10429000306820F08070306004D0306810F0006F1B
:1042A0004AD04DE0FEF7B6FF0546306810F0007FBB
:1042B00009D000BFFEF7AEFF401B022853D830687C
:1042C00010F0007FF6D100E04DE0206BE16A0001C4
:1042D00010380843A18F2A4A490802EB4151626B0A
:1042E00041EA0221084394F840104FF07E42490809
:1042F00002EB4161084394F8381040EAC16000E0E5
:1043000038E0F060306840F080703060F06840F075
:104310008070F060FEF77EFF0446306810F0007F8A
:1043200028D100BFFEF776FF011B02291BD8306899
:1043300010F0007FF6D01DE0F06820F00300F06080
:10434000F06820F4881020F08070F060FEF762FFC3
:104350000446306810F0007F0CD000BFFEF75AFF13
:10436000001B022802D90320BDE8F883306810F052
:10437000007FF3D10020BDE8F8830000007000400A
:104380000000E0FF411EB1F1807F24BF0120704793
:104390004FF0E0204161054AF02182F8141D002110
:1043A0008161072101610020704700000FE000E0FB
:1043B0004FF0E020016921F0020101617047704770
:1043C0007047000070B501680446C8690A6810F0BB
:1043D0000F0F4FF0200557D08B6802F4907603F052
:1043E000010C5CEA06067DD010F0010F18BF12F434
:1043F000807F05D001260E62E16E41F00101E16689
:1044000010F0020F18BF13F0010F06D0266802212A
:104410003162E16E41F00401E16610F0040F18BF53
:1044200013F0010F06D0236804211962E16E41F0F8
:104430000201E16610F0080F1CBF02F0200151EAF2
:104440000C0106D0236808211962E16E41F00801D1
:10445000E166E16E002908BF70BD10F0200F18BFA3
:1044600012F0200F0BD0B4F85C1094F86A202046AC
:10447000222A60D02068018B41F008010183E06EA0
:1044800010F0080F7ED188E010F0200F14BF12F05A
:10449000200F8B683CD0B4F85C2094F86A3020463A
:1044A000222B04D0088B40F00800088370BD898C53
:1044B0008368B3F5805F04BF0369002B21D001EA54
:1044C0000202416D01F1010343650A70B0F85A1010
:1044D000A1F101010904090CA0F85A1018BF70BD20
:1044E000016800E014E00A6822F490720A60016832
:1044F0008A6822F001028A6080F86A5000F0B8F9F8
:1045000070BD436D11401980416D891C4165DDE727
:104510008B6810F4801F18BF13F4800F71D04FF414
:104520008010086284F8695084F86A502046BDE81B
:104530007040FFF744BF0268928C8368B3F5805FD8
:1045400004BF0369002B21D002EA0102416D01F191
:104550000103436581F80020B0F85A10A1F1010170
:104560000904090CA0F85A1089D101680A6822F4DC
:1045700090720A6001688A6822F001028A6080F8FD
:104580006A5000E00EE000F073F978E7436D1140E7
:104590001980416D891C4165DEE72068806810F054
:1045A000400F27D02068016821F4907101602068D5
:1045B000816821F00101816084F86A502068816877
:1045C00011F0400F12D0816821F040018160606ECF
:1045D00060B12F498163606EFEF7CEFC002808BFF2
:1045E00070BD606E816BBDE8704008472046FFF7E4
:1045F000E7FE70BD2046FFF7E3FE0020E06670BDD9
:10460000FFE710F0800F18BF12F0800F30D094F841
:104610006900212818BF70BDB4F85200A8B1A06885
:10462000B0F5805F04BF20690028E06C17D000F16E
:104630000101E16421680078A1F82800B4F8520073
:10464000A0F10100A4F8520070BD086820F08000BD
:1046500008602068016841F04001016070BD008879
:10466000C0F308000885E06C00F10200E064E5E7B3
:1046700010F0400F14BF12F0400F70BD20460A68C2
:1046800022F040020A6084F8695000F084F970BD9D
:10469000C34E0008002804BF0120704710B504462F
:1046A00090F8690028B9002084F86800204600F0DE
:1046B00029F8242084F869002068016821F00101AC
:1046C0000160204600F008FC012808BF10BD606AA8
:1046D00000281CBF204600F057FB2068416821F4E9
:1046E000904141602068816821F02A018160206842
:1046F000016841F0010101602046BDE8104000F072
:10470000B0BB000010B5D0F800C032480C22022324
:104710000121ACF1804486B0B4F5884432D0ACF1CC
:104720008044B4F500441CBF06B010BDD0F84CC0A6
:104730004CF0010CC0F84CC0D0F84CC00CF0010C8F
:10474000CDF814C0D0F85CC04CF0010CC0F85CC0CF
:10475000C06D009200F001000590CDE90131082004
:10476000CDE9031069464FF09040FEF73BFC002274
:1047700001214620FEF79CFD5FF04600FEF78BFD11
:1047800006B010BDD0F84CC04CF0010CC0F84CC0C5
:10479000D0F84CC00CF0010CCDF814C0D0F858C0C3
:1047A0004CF4003CC0F858C0806D009200F400301A
:1047B0000590CDE901310720CDE9031069464FF09E
:1047C0009040FEF70FFC002201212620FEF770FD2D
:1047D0002620D3E70010024090F86A30202B44D105
:1047E000002912BF002A0120704790F86830012B81
:1047F0003BD0012380F868304165A0F85820A0F82C
:104800005A208168FF22B1F5805F05D07F2351B126
:10481000B1F1805F0CD012E00169002908BF40F2BD
:10482000FF1102D109E00169E1B9A0F85C2006E0BE
:104830000169002918BF3F2114D0A0F85C100021A5
:10484000C166222280F86A2080F8681001688A68B0
:1048500042F001028A600068016841F490710160D1
:1048600000207047A0F85C30E9E7022070470000A4
:1048700001490120887070470C0000202DE9F84F95
:10488000044690F869001D4617460E4620287CD144
:10489000002E12BF002F012000F07AB894F86800B3
:1048A000012872D0012084F868004FF00009C4F894
:1048B0006C90212084F86900FEF7ACFCA4F85070DD
:1048C0008046A4F85270B4F852004FF0200A002835
:1048D0003ED000BFB4F85200401EA4F85200206839
:1048E0008027C06937EA000022D000BFB5F1FF3F42
:1048F00019D02DB1FEF78EFCA0EB0801A94212D908
:104900002068016821F4D07101602068816821F07D
:104910000101816084F869A084F86AA084F8689035
:10492000032000F035B82068C06937EA0000DDD107
:10493000A068B0F5805F04BF206900281ED0216800
:1049400016F8010BA1F82800B4F852000028C1D1D4
:1049500043464FF000024FF040012046009500F022
:1049600031FC00281CBF032000F012B884F869A0B5
:1049700084F86890002000F00BB806E036F8020BCF
:104980002168C0F308000885DEE7022000F000B8C7
:1049900018BCBDE8E08F7047FEE700000C4810B57A
:1049A0000A4901604FF41651416000218160C160E5
:1049B0000C220161C0E90521C1610162FFF76AFEB5
:1049C000002808BF10BDFEF7D7F9000000800040A6
:1049D000EC00002010B54620FEF751FCBDE8104069
:1049E0000148FFF7EFBC0000EC000020FEE7704735
:1049F000704700002DE9F041524C05468846E068BA
:104A0000002610F0030F28680ED0E16801F00301C2
:104A1000814266D1002864D0E0686968C0F3021062
:104A2000401C884226D05CE0012804D0022807D030
:104A300003280AD055E0216811F0020F0DD150E093
:104A4000216811F4806F08D14BE0216811F4003F18
:104A500004BF216811F4802F43D0E1686A686FF0C9
:104A60000F0321F0730103EB021241EA020141EA54
:104A70000000E060206820F080602060FEF7CAFB44
:104A80000746206810F0006F09D000BFFEF7C2FB98
:104A9000C01B022849D8206810F0006FF6D1B8F189
:104AA000000F20D0B8F1010F2AD0287D4FF07E41B1
:104AB000400801EB4060A96840EA0120216921F427
:104AC000FE4121F0C06108432061206840F0806011
:104AD0002060FEF79FFB0746206810F0006F1FD094
:104AE00029E001262BE0A868297B000240EAC1608A
:104AF000216921F4FE4121F0784108432061E4E777
:104B0000288A1149400801EB4050A96840EA012079
:104B1000216921F4FE4121F4C00108432061D4E75A
:104B2000FEF778FBC01B022801D9032607E02068A6
:104B300010F0006FF4D02069A96908432061304665
:104B4000BDE8F081001002400000E0FF00B591B028
:104B500044216846FDF7F9FB0420009001200290F3
:104B60006846FFF7D5F808B1FEF706F9084850F88F
:104B7000901F21F018010160016821F4407141F497
:104B800080710160016841F40041016011B000BD15
:104B9000001002407047000002480168491C016093
:104BA000FEF73EBB5C00002010B596B000241194C7
:104BB000129413941494442168461594FDF7C5FB90
:104BC000102000900120CDE9060490210A90089160
:104BD0006846FFF79DF868B90F20CDE911041394DA
:104BE0001494032111A81594FEF7E2FE002804BFD7
:104BF00016B010BDFEF7C0F830B5AFB000242A944F
:104C00002B942C942D94442168462E94FDF79DFB03
:104C10001D4D286820F0070040F003002860FEF7D3
:104C200095FF102000900120CDE9060490210A9004
:104C300008916846FFF76CF8002818BFFEF79CF84B
:104C40000F20CDE92A042C942D942E94286800F08E
:104C500007012AA8FEF7ACFE002818BFFEF78CF863
:104C6000202012901D9412A8FEF700FD002818BF06
:104C7000FEF782F84FF040524FF000710020FFF72E
:104C800021F82FB030BD00000020024030B597B0B1
:104C9000002411941294139414944421684615949A
:104CA000FDF753FB10200125009006955020CDE91B
:104CB000074068460A94FFF72BF860B9CDE9115414
:104CC00013941494002111A81594FEF771FE002886
:104CD00004BF17B030BDFEF74FF810B596B00024F2
:104CE0001194129413941494442168461594FDF77A
:104CF0002CFB10200090012060210690CDE9074197
:104D00000221CDE90A100C9028200D9007200E906A
:104D10000420CDE90F016846FEF7FAFF70B90F20B5
:104D200011900320CDE912041494042111A81594C4
:104D3000FEF73EFE002804BF16B010BDFEF71CF8BB
:104D40000E48016841F4700101600D48016841F0AE
:104D50000101016000218160026822F4102222F02A
:104D6000A85202608214C260026822F480220260AB
:104D700081610449C00308607047000088ED00E0CD
:104D80000010024008ED00E090F8241011F0010F2F
:104D900006D001684A68836A22F400321A434A60E6
:104DA00090F8241011F0020F06D001684A68C36A17
:104DB00022F480321A434A6090F8241011F0040F54
:104DC00006D001684A68036B22F480221A434A60C5
:104DD00090F8241011F0080F06D001684A68436B60
:104DE00022F400421A434A6090F8241011F0100F88
:104DF00006D001688A68836B22F480521A438A6065
:104E000090F8241011F0200F06D001688A68C36B57
:104E100022F400521A438A6090F8241011F0400FD7
:104E200011D001684A68036C22F480121A434A6068
:104E3000016CB1F5801F06D101684A68436C22F409
:104E4000C0021A434A6090F8241011F0800F08BF86
:104E5000704701684A68806C22F400221043486061
:104E60007047F8B500250446C566FEF7D3F9074636
:104E7000206800686FF07E4610F0080F08D03B46AF
:104E800000224FF400112046009600F09BF968B90B
:104E90002068006810F0040F0AD03B4600224FF44F
:104EA00080012046009600F08DF908B10320F8BD7E
:104EB000202084F8690084F86A0084F86850002093
:104EC000F8BD10B5806A0021A0F85A10A0F8521061
:104ED000FFF776FA10BD00002DE9F04104460068A6
:104EE000D4F810C0A268E66942EA0C02D4F814C0F3
:104EF00010254CEA060C42EA0C020021AA4BD0F81D
:104F000000C00F46A94E0CEA060C4CEA02020260F1
:104F100020684268D4F80CC022F4405242EA0C02E5
:104F200042602268A0699A421CBFD4F820C04CEAB3
:104F30000000D2F808C02CF4306C4CEA00009060FD
:104F400022689B48A2F1804CBCF59C3C1AD0A2F18F
:104F5000804CBCF5884C23D0A2F1804CBCF5904C21
:104F60002AD09A423BD1D0F8880010F440602FD06C
:104F7000B0F5806F30D0B0F5006F2BD0B0F5406F3A
:104F80002CD02CE0D0F8880010F0030008BF0125D9
:104F900025D0012820D002281CD003281ED01EE0D6
:104FA000D0F8880010F00C0012D0042814D0082883
:104FB00010D00C2812D012E0D0F8880010F0300089
:104FC00006D0102808D0202804D0302806D006E0CB
:104FD000002504E0022502E0042500E008257548CC
:104FE0009A4258D14DB1022D0ED0042D08D0082D73
:104FF00008BF4FF4004007D00EE0FEF7DDFD01E0F2
:10500000FEF7FAFD002871D0626802EB420181428E
:1050100098BFB0EB023F01D90127C1E0002685B15E
:10502000022D1AD0042D21D0082D18BF012729D018
:10503000614AA0F5407191429CBF2168C86055D972
:10504000EAE7FEF7B9FD6268010E0302500818187E
:1050500071410023FDF73EF9EAE75849500840182E
:1050600046F100010023FDF735F9E1E7FEF7C4FD45
:105070006268010E03025008181871410023FDF701
:1050800029F9D5E7500810F5000046F1000100238A
:10509000FDF720F9CCE7E369B3F5004F09D0092DFE
:1050A000BAD2DFE805F048546005680505057400CC
:1050B000B2E7092D36D2DFE805F0050F1A352235A3
:1050C00035352C00FEF778FD4100606801EB50019A
:1050D000B1FBF0F081B226E0FEF77EFD4100606892
:1050E00001EB5001B1FBF0F081B21CE058E0344913
:1050F000606801EB5001B1FBF0F081B213E0FEF704
:105100007BFD4100606801EB5001B1FBF0F081B222
:1051100009E060684FF4803101EB5001B1FBF0F021
:1051200081B200E0012721F00F00C1F342010843E2
:105130002168C86034E0FEF73FFD0146606801EB7E
:105140005001B1FBF0F0216880B2C86028E0FEF7A2
:1051500043FD0146606801EB5001B1FBF0F02168AE
:1051600080B2C8601CE0616800EB5100B0FBF1F058
:1051700080B2D06014E0FEF73FFD0146606801EBAD
:105180005001B1FBF0F0216880B2C86008E06068AF
:105190004FF4004101EB5001B1FBF0F080B2D06060
:1051A0003846BDE8F081000000800040F369FFEF61
:1051B000001002400024F400FFFC0F00000024F463
:1051C0000048E8012DE9F04104460068069F984632
:1051D000C06915460E4631EA00000CBF01200020D0
:1051E000A84227D1B7F1FF3F1BD02FB1FEF712F82D
:1051F000A0EB0800B84214D92068016821F4D071EE
:1052000001602068816821F001018160202084F81C
:10521000690084F86A00002084F868000320BDE873
:10522000F0812068C06936EA00000CBF0120002030
:10523000A842D7D00020BDE8F081000010B526209C
:10524000FEF71DF8BDE810400148FFF7BBB80000AD
:10525000EC000020FEE700000FB4054B10B503A9D9
:10526000044A029800F0DEF810BC5DF814FB000060
:10527000595B0008C800002002E008C8121F08C1DE
:10528000002AFAD170477047002001E001C1121FC7
:10529000002AFBD1704700002DE9FF5F82B000219A
:1052A000DDE90430020DDDF840B0034318D044F6C8
:1052B0001050A2F2FF3242431514119801281FD05A
:1052C000A5EB0B00401C5FEA000A4FF000064E4FB2
:1052D000DFF83891B046504615D5CAF1000413E006
:1052E000119801244AA3012801D16FEA0B01029809
:1052F000119AC0E90031C0E9024206B000F08EB850
:10530000CBF10000DFE704460021404A491842EB98
:105310000450CDE9001012E0E00707D032463B46CA
:1053200040464946FDF77EFA8046894632463B466E
:1053300010461946FDF776FA06460F466410002C13
:10534000EAD1DDE90401DDE90023BAF1000F06DA54
:10535000FDF768FA42464B46FDF764FA05E0FDF7B3
:105360000DF842464B46FDF709F804460E4600226A
:10537000284BFDF7E5FA03D84FF0FF30014607E070
:105380000022254B20463146FDF79DF9FDF7BFFA77
:10539000102409E0002C0ADB0A220023FCF79AFF04
:1053A000039B30321A55641E50EA0102F2D1641C8C
:1053B000039AC4F111031444119A012A03D0012263
:1053C00008430DD10AE0084304D000204FF0110B30
:1053D000119072E7A3EB0B056D1E0DE05B4504DD3C
:1053E0004FF0000205F1010504E003DA4FF000027E
:1053F000A5F10105002AECD002981199C0E902310B
:10540000C0E9004579E70000000014400000F03FCB
:10541000300000000000F0430000E03F30BCBDE879
:10542000C09F00002DE9FF4F95B09B468946064678
:1054300000250FE2252877D100242746F84A0121CC
:10544000059400E0044316F8013F203B01FA03F005
:105450001042F7D130782A2811D06FF02F0330781E
:10546000A0F13002092A16D8059A44F0020402EB92
:10547000820203EB42021044761C0590EFE759F8D4
:10548000042B0592002A03DA504244F4005405909C
:1054900044F00204761C30782E2816D116F8010F3D
:1054A00044F004042A280DD06FF02F023078A0F1C8
:1054B0003003092B09D807EB870302EB4303C71816
:1054C000761CF3E759F8047B761C30786C280FD0F3
:1054D00006DC4C2817D068280DD06A2814D104E0C7
:1054E000742810D07A280FD10DE044F400140AE09B
:1054F00044F4801401E044F440147278824202D1F2
:1055000004F58014761C761C307866280BD013DCEA
:10551000582877D009DC002875D04528F6D04628D1
:10552000F4D047281AD19DE118E0632835D06428CB
:1055300079D0652812D195E1702873D008DC6728EE
:10554000F1D069286FD06E280DD06F2806D1B5E054
:1055500073282CD0752875D0782874D05A4617999E
:1055600090476D1C75E1C4F30250022809D003284E
:105570000DD0D9F8001004280DD00D6009F10409F0
:1055800067E1D9F80010EA17C1E90052F6E7D9F847
:1055900000100D80F2E70D70F0E719F8041B8DF88C
:1055A000001000208DF80100EA46012003E059F8C0
:1055B00004AB4FF0FF3061074FF0000102D40DE063
:1055C00008F101018846B9420FDA8045F8DB1AF884
:1055D00008100029F4D108E008F101018846814251
:1055E000FADB1AF808100029F6D105985B46A0EB03
:1055F000080721463846179A00F097FA284400EB2E
:10560000080507E04DE029E10DE01AF8010B5A46C4
:1056100017999047B8F10108F7D25B462146384602
:10562000179A13E142E00A220092C4F302524FF0AB
:10563000000A022A08D059F804CB032A4FEAEC7179
:105640000AD00DE029E02AE009F1070121F0070264
:10565000F2E802C1914609E00FFA8CFC4FEAEC71C6
:10566000042A03D14FFA8CFC4FEAEC71002907DAC7
:105670000A460021DCF1000C61EB02012D2202E060
:10568000220504D52B228DF80420012203E0E20735
:1056900001D02022F7E7904659E00A2102E01022CB
:1056A0000DE010214FF0000A00910BE010224FF0A6
:1056B000000A44F004040827009203E008224FF097
:1056C000000A0092C4F30252022A05D059F804CB12
:1056D0000021032A08D009E009F1070121F007029F
:1056E000F2E802C1914605E01FFA8CFC042A01D1C0
:1056F0000CF0FF0C4FF00008220728D5702806D0C8
:10570000009B83F0100353EA0A0305D00EE0402209
:105710008DF80420012208E05CEA010206D0302264
:105720008DF804208DF8050002229046009B83F03E
:10573000080353EA0A030AD15CEA010201D16207B5
:1057400005D530228DF804204FF001087F1E58281F
:1057500004D034A003900EA802900DE036A0F9E723
:1057600053466046009AFCF7B5FD84460398825C78
:105770000298401E029002705CEA0100F0D102988B
:1057800006A9081A00F1200A600702D524F4803423
:1057900000E00127574502DDA7EB0A0000E00020EA
:1057A00000EB0A01009005984144401A0590E0037F
:1057B00006D45B462146179A059800F0B6F90544D1
:1057C000002706E001A85A46C05D179990476D1C56
:1057D0007F1C4745F6DBE0030CD55B462146179A54
:1057E000059800F0A2F9054404E030205A461799C4
:1057F00090476D1C0099481E00900029F5DC08E0D8
:10580000029802995A460078491C029117999047CC
:105810006D1CBAF10001AAF1010AF1DC65E100009A
:105820000928010030313233343536373839616276
:10583000636465660000000030313233343536373A
:1058400038394142434445460000000000F05BF90E
:105850000544761C307800287FF4ECAD19B028465A
:1058600000F04EB9620700D4062709F1070222F0C2
:10587000070CFCE80223E14603F000485FEA080C4D
:1058800002D00FF2702C0DE05FEA045C02D50FF23B
:10589000682C07E05FEAC47C02D00FF2602C01E0C4
:1058A000AFF2700C4FF0FF3823F00043CDF850C03A
:1058B00065280CD006DC452809D046281DD047288D
:1058C0003DD13DE0662818D067287ED138E0002120
:1058D000112F01DB112000E0781CCDE9000106A9A1
:1058E0000EA8FFF7D9FCDDE90F010E9A0391002104
:1058F000009207F1010A04914DE04FF0004000973B
:10590000CDE9011006A90EA8FFF7C6FCDDE90F02DC
:1059100003920E9B11990022DDF80CA000930492D3
:1059200011B9791C00EB010AB7EB0A0004D4C0F1ED
:10593000FF3007F1010A0490AAEB0700019044E050
:10594000012F00DA01270021112F01DD112000E0D5
:105950003846CDE9000106A90EA8FFF79DFCDDE958
:105960000F010E9A0391002104910092BA4621077B
:105970000CD40399514500DA8A46BAF1010F05DDCE
:10598000009AAAF10101515C302908D0B84202DA2C
:1059900010F1040F06DA0121CDE9011015E0AAF19A
:1059A0000101E9E7002805DC049901440491AAEB10
:1059B000000102E0411C514500DD8A460499401A6D
:1059C000401C01904FF000400290200704D4019841
:1059D000504501DBCDF8048000208DF84F0002987F
:1059E0000DF14F07B0F1004F25D02B200E900298FB
:1059F0004FF0020800280CDA404202902D200E9051
:105A000007E00A210298FCF795FD3031029007F873
:105A1000011DB8F10001A8F10108F2DC029800288C
:105A2000EFD1791E0E980870307800F0200040F019
:105A3000450007F8020D12A8C01B00F107081498D2
:105A4000007800B1012000EB0A01019801EBE07140
:105A500005984144401A401E0590E00306D45B4679
:105A60002146179A059800F060F8054414980078CC
:105A700018B15A46179990476D1CE00324D55B4630
:105A80002146179A059800F050F805441CE0049848
:105A9000002807DBDDE90301884203DD0098405C54
:105AA000179901E0179930205A469047049805F15C
:105AB0000105401C04900198401E019004D12E2045
:105AC0005A46179990476D1CBAF10001AAF1010AD4
:105AD000DDDC05E017F8010B5A46179990476D1C5D
