:020000040800F2
:10000000700D0020D101000813410008BF40000816
:1000100011410008D12B0008B14E0008000000007B
:10002000000000000000000000000000DD410008AA
:10003000D32B00080000000015410008DF41000834
:10004000EB010008EB010008EB010008EB010008E0
:10005000EB010008EB010008EB010008EB010008D0
:10006000EB010008EB010008EB010008EB010008C0
:10007000EB010008EB010008EB010008EB010008B0
:10008000EB010008EB010008EB010008EB010008A0
:10009000EB010008EB010008EB010008EB01000890
:1000A000EB010008EB010008EB010008EB01000880
:1000B000EB010008EB010008EB010008EB01000870
:1000C000EB010008EB010008EB010008EB01000860
:1000D000EB010008EB010008994E0008EB01000855
:1000E000EB010008EB01000800000000EB01000834
:1000F000EB010008EB010008EB010008EB01000830
:10010000EB010008EB010008EB010008EB0100081F
:10011000EB010008EB010008EB010008EB0100080F
:10012000EB010008EB010008EB010008EB010008FF
:10013000EB010008EB010008EB01000800000000E3
:10014000EB010008EB010008EB010008EB010008DF
:10015000EB010008EB010008F9400008EB01000882
:10016000EB010008EB010008EB010008EB010008BF
:10017000EB010008EB010008000000000000000097
:10018000EB010008EB010008EB010008EB0100089F
:10019000EB010008EB010008000000000000000077
:1001A0000000000000000000EB010008EB01000867
:1001B000EB01000800000000EB010008DFF80CD0A4
:1001C00002F0D0FB0048004769580008700D00207D
:1001D0000648804706480047FEE7FEE7FEE7FEE7E1
:1001E000FEE7FEE7FEE7FEE7FEE7FEE7E142000886
:1001F000BD010008F0B5044683B0B4F900600D46B7
:10020000300648BF06F07F0034D4C6F3C30040EA8E
:10021000001116F0070002D0012813D01CE022299B
:10022000B8BF2221288F01900091B5F90230B5F9AD
:1002300000206969A86901F075FB07B2E88F60B911
:10024000EF870AE02A8F05F1280000F0ADFB07B226
:10025000A88F10B9AF8700E03746298FB8B201F0F8
:100260008CFE288726F0FF0107F07F00014341F054
:100270008001218003B0F0BD2DE9F041074682B036
:10028000B7F9004088461546200648BF04F07F06AF
:1002900033D4C4F3C30040EA001114F007000BD0BC
:1002A00001281CD12A8F05F1280000F07DFB06B241
:1002B000A88FA8B9AE8713E02229B8BF2221288FC2
:1002C00001900091B5F90230B5F900206969A8697B
:1002D00001F028FB06B2E88F10B9EE8700E0264651
:1002E000298FB0B201F049FE288706F07F0624F07E
:1002F000FF00304340F080003880B8F900703806C5
:1003000048BF07F07F0034D4C7F3C30040EA0011B0
:1003100017F007000BD001281CD12A8F05F1280007
:1003200000F042FB04B2A88FA8B9AC8713E02229E1
:10033000B8BF2221288F01900091B5F90230B5F99C
:1003400000206969A86901F0EDFA04B2E88F10B9DC
:10035000EC8700E03C46298FA0B201F00EFE288712
:1003600027F0FF0104F07F00014341F08001A8F86D
:100370000010301A02B0BDE8F08172B9825EB0F9A7
:100380000030121262F307030380B1F90020B1F9C3
:100390000030121262F307030B80B0F90200B1F9CA
:1003A0000210401A70470A880280498841807047CD
:1003B0002DE9F04F024681B0B2F90460546A00237F
:1003C00000259A469C468946B6F1010FC0F28D8001
:1003D0000FFA89F95FFA85F82746B9F1000F21D4A1
:1003E000002F1EBF7868B0F9020048451CBF3F6867
:1003F000002F31D07868B0F9020048451CBF3F6833
:10040000002F29D07868B0F9020048451CBF3F682A
:10041000002F1EBF7868B0F9020048451CD03F6825
:10042000DEE73F68C7B17868007840451CBF3F6889
:10043000002F11D07868007840451CBF3F68002F1E
:100440000AD07868007840451CBF3F68002F1EBF67
:10045000786800784045E4D120465FF00004D8B1C8
:10046000D0F800B00460BBF1000F04461FBFDBF8FA
:100470000000CBF800405C4600280DD0D0F800B05A
:100480000460BBF1000F04461FBFDBF80000CBF88F
:1004900000405C460028E3D14FB920684068B0F9BD
:1004A0000000C0F300200CF1010CC31813E07868C1
:1004B000B0F900000AF1010A5FEAC07B44BFC0F353
:1004C0004020C318386830B1D0F800B0C7F800B089
:1004D000276807602060B9F1000F58BF09F10109D2
:1004E000681C05B2B542FFF673AF03EB8A00A0EBC0
:1004F0000C0A012904DBBD49204600F00BFA044632
:100500002068056841686A68426069602646296813
:10051000016000200FFA89F12860002921D4002E03
:100520001EBF7068B0F9020088421CBF3668002EFA
:1005300033D07068B0F9020088421CBF3668002EC4
:100540002BD07068B0F9020088421CBF3668002EBC
:100550001EBF7068B0F9020088421ED03668DEE720
:100560003668D6B1716809780FFA88F841451CBF22
:100570003668002E11D07168097841451CBF366875
:10058000002E0AD07168097841451CBF3668002EDC
:100590001EBF716809784145E2D106B9266856B197
:1005A0006068B0F900001FFA8AF101F025FE366894
:1005B0008246002EF4D12068696842686A60416012
:1005C00000220168296005602046894900F0A2F9EF
:1005D0000446D4F80080B8F1000F0CD06068B0F980
:1005E00000001FFA8AF101F007FED8F80080824669
:1005F000B8F1000FF2D11FFA8AF001B0BDE8F08F18
:100600002DE9F0471423B0FBF3F0A0F1020A0846ED
:10061000002601EBCA030660436000275F800831B3
:10062000744F1F801E1D01F1080703EB8A099F42CA
:100630003CBF371D4F450DD20F4600243C6007607C
:100640007E6008317F684FF0FF343C80361D47F6EE
:10065000FF747C804FF0000EBAF1000F00F0A5800F
:100660001AF0030C47F6FF7700F021808EEA0204AF
:1006700004F00F050EF0070444EAC50444EA042818
:1006800001F108049C423CBF341D4C450AD20C4683
:10069000056825600460666008316468361DA4F84A
:1006A000008067800EF1010EBCF1010CDED15FEA23
:1006B0009A0C7AD08EEA020404F00F050EF00704BB
:1006C00044EAC50444EA042801F108049C423CBF02
:1006D000341D4C450AD20C460568256004606660EE
:1006E00008316468361DA4F8008067800EF1010EA1
:1006F0008EEA020404F00F050EF0070444EAC50474
:1007000044EA042801F108049C423CBF341D4C45D6
:100710000AD20C460568256004606660083164688A
:10072000361DA4F8008067800EF1010E8EEA0204E7
:1007300004F00F050EF0070444EAC50444EA042857
:1007400001F108049C423CBF341D4C450AD20C46C2
:10075000056825600460666008316468361DA4F889
:10076000008067800EF1010E8EEA020404F00F058E
:100770000EF0070444EAC50444EA042801F1080421
:100780009C423CBF341D4C450AD20C46056825608E
:100790000460666008316468361DA4F800806780D4
:1007A0000EF1010EBCF1010C84D103684FF0050974
:1007B0000121BAFBF9F90BE082EA0104314601F0AC
:1007C000070644EA06245B68A404A40C5C803B464C
:1007D0001F6837B14E1C4945EED25B6859803146DF
:1007E000F5E7BDE8F0470022014993E079020008EF
:1007F0007B0300088080FFFFF0B41C461368049E52
:1008000003F10805B5423FBF25682E1D059FBE4276
:1008100028BF00200FD203F10806166002681A6094
:1008200003605D602068001D206058680A880280AF
:10083000498841801846F0BC7047016842684B689F
:1008400043604A600A6802600020086008467047FA
:1008500042684B6843604A600A68026008607047FB
:10086000B1F90220002A21D400281EBF4168B1F945
:10087000021091421CBF0068002833D04168B1F9D2
:10088000021091421CBF006800282BD04168B1F9CA
:10089000021091421CBF006800281EBF4168B1F9D8
:1008A000021091421ED00068DEE70068D0B14368B4
:1008B000B1F900201B7893421CBF0068002811D0BA
:1008C00043681B7893421CBF006800280AD0436825
:1008D0001B7893421CBF006800281EBF43681B782A
:1008E0009342E2D17047002188B10268016001465D
:1008F0006AB11368116011464BB11868196000287D
:10090000194604D00268016001461000EDD1084686
:10091000704700002DE9F54F81B088464FF001097E
:1009200002E000BF4FEA4909019E00200190834682
:1009300082467EB30AF1010A35460024002000E019
:10094000401C484503DA2D68641C002DF8D14F4641
:1009500000E08346012C02DA012F19DBC5B16CB12E
:10096000002F18BF002D05D0029A69687068C04733
:10097000012803DA30463668641E02E028462D68F6
:100980007F1EBBF1000F14BFCBF800000190E0E721
:100990002E00CFD10020CBF80000BAF1020FC1DA4F
:1009A000019803B0BDE8F08F2DE9F44FD0F808A00E
:1009B0004668C7680468DFF8E008884640EA08002F
:1009C0000FFA80F9002C4DD004FB04F002001CD07B
:1009D000314610F0030306D0B1F800C0C44421F83A
:1009E00002CB5B1EF8D182080FD0521E0B88434405
:1009F0000B804B8843444B808B8843448B80CB884F
:100A00004344CB800831002AEFD158B332463B46ED
:100A100010F0030C00F00980BCF1010C32F902EB7C
:100A20001EFB08FE43F804EBF6D1800800F01A80A4
:100A300032F902CB1CFB08FC43F804CB401E32F910
:100A400002CB1CFB08FC43F804CB32F902CB1CFBA5
:100A500008FC43F804CB32F902CB1CFB08FC43F83A
:100A600004CBE5D1002200231046002C1CBF04FB60
:100A700004FCBCF1000F49D039461CF0030E10D025
:100A80000D68AA18914502DA0A30002202E0AB4252
:100A9000B8BF401CAEF1010E091D2B46BEF1000F80
:100AA000EED15FEA9C0C31D0D1F800E00EEB0205EC
:100AB000A94502DA0A30002502E07345B8BF401CA0
:100AC0004A685319994502DA0A30002302E0964534
:100AD000B8BF401CD1F808E00EEB0305A94502DAC7
:100AE0000A30002502E07245B8BF401CCB685A1995
:100AF000914502DA0A30002202E09E45B8BF401C50
:100B0000ACF1010C1031BCF1000FCDD1002100B2CD
:100B100001F072FB0146002C3BD000203A462346F0
:100B20004FF0000E4FEA0E0C0CEB00053AF91CB02A
:100B300036F915500CF1010C15FB0BEEA44523D230
:100B40000CEB00053AF91CB036F915500CF1010C0C
:100B500015FB0BEEA44517D20CEB00053AF91CB0BF
:100B600036F915500CF1010C15FB0BEEA4450BD218
:100B70000CEB00053AF91CB036F915500CF1010CDC
:100B800015FB0BEEA445CFD3201842F804EB5B1EF7
:100B9000C6D100204FF0000C0246002C1CBF04FB05
:100BA00004FEBEF1000F49D03B461EF0030510D0F5
:100BB000D3F800B0DC44E14503DA0A324FF0000C10
:100BC00002E05845B8BF521C6D1E1B1D5846002D33
:100BD000EED15FEA9E0E31D01D68AC44E14503DAE8
:100BE0000A324FF0000C02E0A842B8BF521C58680D
:100BF0008444E14503DA0A324FF0000C02E08542FA
:100C0000B8BF521C9D68AC44E14503DA0A324FF08C
:100C1000000C02E0A842B8BF521CD8688444E145E9
:100C200003DA0A324FF0000C02E08542B8BF521CD2
:100C3000AEF1010E1033BEF1000FCDD110B201F0B4
:100C4000DBFA0546534632463946204600F098FC0A
:100C5000002300200246002C1CBF04FB04FCBCF156
:100C6000000F49D039461CF0030E11D0D1F800B066
:100C70005B44994502DA0A32002302E05845B8BFC6
:100C8000521CAEF1010E091D5846BEF1000FEDD108
:100C90005FEA9C0C00F03080D1F800E07344994585
:100CA00002DA0A32002302E07045B8BF521C4868DD
:100CB000C318994502DA0A32002302E08645B8BF1C
:100CC000521CD1F808E07344994502DA0A32002335
:100CD00002E07045B8BF521CC868C318994502DAD3
:100CE0000A32002302E08645B8BF521CACF1010C69
:100CF0001031BCF1000FCFD1294610B201F07CFABF
:100D00000546534632463946204600F0F3FC0021A2
:100D100000220846002C1CBF04FB04F3002B45D026
:100D200013F0030A00F01280D7F800C0614489452F
:100D300002DA0A30002102E06245B8BF401CAAF185
:100D4000010A3F1D6246BAF1000FEDD19B082DD07C
:100D5000D7F800A05144894502DA0A30002102E0A8
:100D60005245B8BF401C7A685118894502DA0A30EA
:100D7000002102E09245B8BF401CD7F808A05144BA
:100D8000894502DA0A30002102E05245B8BF401C12
:100D9000FA685118894502DA0A30002102E09245CA
:100DA000B8BF401C5B1E1037002BD1D1294600B2C2
:100DB00001F022FAC8F10001002C1CBF04FB04F270
:100DC000002A1CD012F0030300F00780B6F8008060
:100DD000884426F8028B5B1EF8D192080FD0338826
:100DE000CB183380521E7388CB187380B388CB180E
:100DF000B380F388CB18F3800836002AEFD1BDF812
:100E0000001001B0BDE8F04F00B201F0F5B90000EC
:100E10002DE9FA4F81B00400BDF93080DFF8780485
:100E200040EA08001546ADF800004BD004FB04F181
:100E3000D9B1284611F0030205D00388434420F8B5
:100E4000023B521EF9D189080FD0491E0288424444
:100E50000280428842444280828842448280C28822
:100E60004244C28008300029EFD104FB04F34BB3A5
:100E7000019A294613F0030707D07F1E31F902CBF0
:100E80001CFB08FC42F804CBF7D19B0800F01A8049
:100E900031F9027B17FB08F742F8047B5B1E31F93E
:100EA000027B17FB08F742F8047B31F9027B17FB42
:100EB00008F742F8047B31F9027B17FB08F742F888
:100EC000047BE5D100234FF0000C1846002C1CBF1A
:100ED00004FB04F7002F49D0019ABDF9001017F068
:100EE000030E11D01668B444614503DA0A304FF09E
:100EF000000C02E0B342B8BF401CAEF1010E121D5F
:100F00003346BEF1000FEDD1BF082FD01668B444B0
:100F1000614503DA0A304FF0000C02E0B342B8BF7B
:100F2000401C53689C44614503DA0A304FF0000CC2
:100F300002E09E42B8BF401C9668B444614503DAA3
:100F40000A304FF0000C02E0B342B8BF401CD36837
:100F50009C44614503DA0A304FF0000C02E09E42E7
:100F6000B8BF401C7F1E1032002FCFD1002100B22D
:100F700001F042F9ADF80200002C47D00020019AA0
:100F8000294623460027064601E000270026DDF813
:100F900008E08C4614F0030900F00A803CF902AB2B
:100FA0003EF902BB761C1AFB0B77B9F10109F5D1AA
:100FB0005FEA940C00F02380DDF8089006EB000E49
:100FC00005EB4E0E09EB46063EF9029B36F902ABE5
:100FD00019FB0A773EF9029B36F902AB19FB0A7737
:100FE0003EF9029B36F902AB19FB0A773EF9029BE8
:100FF00036F902AB19FB0A77BCF1010CE4D12018D9
:1010000042F8047B01EB44015B1EBED100234FF08C
:10101000000C1846002C1CBF04FB04F7002F49D01D
:10102000019ABDF9001017F0030E11D01668B444F0
:10103000614503DA0A304FF0000C02E0B342B8BF5A
:10104000401CAEF1010E121D3346BEF1000FEDD172
:10105000BF082FD01668B444614503DA0A304FF058
:10106000000C02E0B342B8BF401C53689C44614589
:1010700003DA0A304FF0000C02E09E42B8BF401C79
:101080009668B444614503DA0A304FF0000C02E080
:10109000B342B8BF401CD3689C44614503DA0A30B0
:1010A0004FF0000C02E09E42B8BF401C7F1E103281
:1010B000002FCFD1BDF8021000B201F09DF8074615
:1010C000029B01992A46204600F05AFA00224FF06E
:1010D000000E1046002C1CBF04FB04FCBCF1000FEA
:1010E0004CD0019BBDF900101CF0030600F01180EC
:1010F000D3F80090CE44714503DA0A304FF0000E69
:1011000002E04A45B8BF401C761E1B1D4A46002E11
:10111000EED15FEA9C0C31D01E68B644714503DA0B
:101120000A304FF0000E02E0B242B8BF401C5A68CD
:101130009644714503DA0A304FF0000E02E0964201
:10114000B8BF401C9E68B644714503DA0A304FF0C0
:10115000000E02E0B242B8BF401CDA689644714506
:1011600003DA0A304FF0000E02E09642B8BF401C8E
:10117000ACF1010C1033BCF1000FCDD1394600B2F7
:1011800001F03AF80746029B01992A46204600F0F2
:10119000B1FA00224FF0000E1046002C1CBF04FBD9
:1011A00004FCBCF1000F4BD0019BBDF900101CF0FA
:1011B000030610D0D3F80090CE44714503DA0A300C
:1011C0004FF0000E02E04A45B8BF401C761E1B1DC2
:1011D0004A46002EEED15FEA9C0C31D01E68B64420
:1011E000714503DA0A304FF0000E02E0B242B8BF98
:1011F000401C5A689644714503DA0A304FF0000EDD
:1012000002E09642B8BF401C9E68B644714503DABE
:101210000A304FF0000E02E0B242B8BF401CDA685C
:101220009644714503DA0A304FF0000E02E0964210
:10123000B8BF401CACF1010C1033BCF1000FCDD194
:10124000394600B200F0D8FFC8F10001002C1CBFE5
:1012500004FB04F2002A1AD012F0030305D02C88F4
:101260000C1925F8024B5B1EF9D192080FD02B8880
:10127000CB182B80521E6B88CB186B80AB88CB1899
:10128000AB80EB88CB18EB800835002AEFD100B299
:1012900003B0BDE8F08F000000F0FFFF2DE9F04340
:1012A0000125002402B90122B8B1641C04FB04F634
:1012B000F60086423FBF641C04FB04F6F60086423B
:1012C0000BD2641C04FB04F6F60086423FBF641C8C
:1012D00004FB04F6F6008642E7D3491E8908601E27
:1012E00089000E1D00FB00F806EB480C002818BF13
:1012F0005FEA080E62D0644631461EF0030716D03E
:101300006A434FEAE23902EB19494FEA2949A2EB55
:10131000094205EB0209A4F8009034F8029BA944A5
:101320005FFA89F96D1C21F8029B7F1EE8D15FEA04
:101330009E0E43D06A43D71302EB17473F14A2EB2C
:101340000747EA1924F8022BAA18D2B221F8022B77
:101350006A1C07FB02F5EF1305EB17473F14A5EBDB
:1013600007455719278034F8027BD719FFB221F8B7
:10137000027B521C5543EF1305EB17473F14A5EBB7
:1013800007455719278034F8027BD719FFB221F897
:10139000027B571C05FB07F2D51302EB15452D14F4
:1013A000A2EB0542BD18258034F8025B7D19EDB231
:1013B00021F8025B7D1CBEF1010EBBD10CEB480194
:1013C000491E89085E608900C3F808C0091DD960FC
:1013D0001860BDE8F083F0B40024002523460028FF
:1013E00041D040433FD010F003060ED00F683C19A7
:1013F000A24202DA0A33002402E0BD42B8BF5B1CFD
:10140000761E091D3D46002EF0D180082BD00E68B7
:101410003419A24202DA0A33002402E0B542B8BF0E
:101420005B1C4D682C19A24202DA0A33002402E048
:10143000AE42B8BF5B1C8E683419A24202DA0A338E
:10144000002402E0B542B8BF5B1CCD682C19A24253
:1014500002DA0A33002402E0AE42B8BF5B1C401E31
:1014600010310028D3D1F0BC18B2704700B97047D2
:1014700030B4404326D010F0030407D0641E32F984
:10148000025B15FB03F541F8045BF7D1800819D026
:1014900032F9024B14FB03F441F8044B401E32F9BD
:1014A000024B14FB03F441F8044B32F9024B14FBDA
:1014B00003F441F8044B32F9024B14FB03F441F8F6
:1014C000044BE5D130BC7047F0B140431CD010F064
:1014D000030307D0B1F800C094445B1E21F802CB8F
:1014E000002BF7D180080FD00B88D3180B80401E3B
:1014F0004B88D3184B808B88D3188B80CB88D3181C
:10150000CB8008310028EFD17047000000B9704748
:101510002DE9F0414FEA00044FF0000C15461E463D
:1015200010F0030700F0088035F902EB36F9028B62
:101530001EFB08CC7F1EF7D1870819D035F902EBC6
:1015400036F9028B1EFB08CC35F902EB36F9028B1B
:101550001EFB08CC35F902EB36F9028B1EFB08CCDA
:1015600035F902EB36F9028B1EFB08CC7F1EE5D164
:1015700041F804CB02EB4002641ECDD1BDE8F081FE
:1015800000B970472DE9FE4F81B00021019B009307
:1015900003460024022856D3039D009E4FF0000806
:1015A000C146AE46944610F003070DD03CF902AB9D
:1015B000BEF900B01AFB0B88BEF902B01AFB0B99FA
:1015C0000EEB400E7F1EF1D1870833D0BCF900A08E
:1015D000BEF900B01AFB0B88BEF902B00EEB400E4C
:1015E0001AFB0B9BBCF902A0BEF900901AFB0988FC
:1015F000BEF902900EEB400E1AFB09BBBCF904A029
:10160000BEF900901AFB0988BEF902900EEB400E5D
:101610001AFB09BBBCF906A0BEF900901AFB0988A9
:10162000BEF902901AFB09B90EEB400E7F1E0CF1B9
:10163000080CCBD1A41C46F8048B2D1D671C46F862
:10164000049B8742AAD3844247D2039D002605EB20
:1016500044074FF00009154610F0030C00F00C8011
:1016600035F902EBB7F90080761C1EFB089907EBF1
:101670004007BCF1010CF3D1850827D0DDF808C084
:1016800016EB01060CEB4606B7F900E036F902CB83
:1016900007EB40071CFB0E9CB7F9008036F902EB04
:1016A00007EB40071EFB08CCB7F9008036F902EBC8
:1016B00007EB40071EFB08CC36F902EBB7F90080B8
:1016C0001EFB08C907EB40076D1EDDD1019E6518A2
:1016D00046F82590641C8442B7D3009C04EB800438
:1016E0004118009402EB40025B1E7FF452AF04B03D
:1016F000BDE8F08F00B970472DE9FE4F82B00021A0
:10170000029B0193009000230228C0F09780049C64
:10171000DDF804504FF00009CC46A646174610F0FD
:1017200003061AD037F902ABBEF90080BEF902B049
:101730001AFB08F81AFB0BFAC8F3830BC8F3461818
:1017400018FB0B99CAF38308CAF3461A761E1AFBD4
:1017500008CC0EEB400E002EE4D1860800F0648029
:10176000B7F90080BEF900A0BEF902B018FB0AFA72
:1017700018FB0BF8CAF3830BCAF3461A1AFB0B9932
:10178000C8F3830AC8F346180EEB400E18FB0ACCC8
:10179000B7F90280BEF900A0BEF902B018FB0AFA40
:1017A00018FB0BF8CAF3830BCAF3461A1AFB0B9902
:1017B000C8F3830AC8F346180EEB400E18FB0ACC98
:1017C000B7F90480BEF900A0BEF902B018FB0AFA0E
:1017D00018FB0BF8CAF3830BCAF3461A1AFB0B99D2
:1017E000C8F3830AC8F346180EEB400E18FB0ACC68
:1017F000B7F90680BEF900A0BEF902B018FB0AFADC
:1018000018FB0BF8CAF3830BCAF3461A1AFB0B99A1
:10181000C8F3830AC8F34618761E083718FB0ACCAB
:101820000EEB400E002E9BD19B1C45F8049B241D03
:101830005E1C45F804CB8642FFF46CAF834262D253
:10184000049C002504EB43064FF0000C144610F0F6
:10185000030710D034F902EBB6F900801EFB08FE36
:10186000CEF38308CEF3461E6D1C1EFB08CC06EBA0
:1018700040067F1EEED184083ED0039F15EB010584
:1018800007EB450535F9027BB6F900E017FB0EF8CA
:10189000C8F38307C8F3461E06EB40061EFB07C7C6
:1018A00035F902CBB6F900E01CFB0EFCCCF3830E3D
:1018B000CCF3461C06EB40061CFB0E7735F902CB39
:1018C000B6F900E01CFB0EFCCCF3830ECCF3461CF7
:1018D00006EB40061CFB0E7735F902CBB6F900E0AB
:1018E0001CFB0EFCCCF3830ECCF3461C1CFB0E7CC5
:1018F00006EB4006641EC5D1029D5C1845F824C065
:101900005B1C83429CD3019B03EB80030193411832
:10191000009B5B1E02EB400200937FF4F4AE05B027
:10192000BDE8F08F2DE9FE4F88B000AC0025009592
:101930006560A560E560256165610B46A561E561AF
:10194000A94619780026AB46A8462F46AA46002984
:1019500000F08B8019780022002900F07D802C296E
:1019600079D0A1F130020A2A67D32B2918BF2D297B
:101970006AD06D1C2E2963D1052215E0A1F1300239
:101980000BF1010B0A2A54D32E2954D105220BE066
:1019900013F8011F00295FD02C295CD02E2941D1DA
:1019A0005FF0050208F1010813F8011F002953D068
:1019B0002C2950D045292DD113F8011F03227F1C5B
:1019C000002949D02C2946D02B291ED113F8011FFC
:1019D0000622761C00293FD02C293CD030390AF150
:1019E000010A0A290FD3012235E000BF13F8011FB5
:1019F000002931D02C292ED030390A29F6D30122E2
:101A000009F1010927E00722F0E72D29DED00122A4
:101A1000761C20E06529CFD030390A29C4D30122B1
:101A20007F1C18E030390A29B2D3012208F10108DD
:101A300011E00422ACE701220DE004226D1CA7E7AF
:101A4000012209F1010906E013F8011F02226D1CB1
:101A500011B12C2992D15B1C54F82210491C44F876
:101A60002210197800297FF475AF089BBDF950202A
:101A70001946401881420DD293F800C0BCF12C0FDA
:101A800005D0BDF824E08EEA0C0C83F800C0D31812
:101A90008342F1D3089B1A78B2F1000F00F0B080B6
:101AA00093F800C00022BCF1000F00F09F80BCF151
:101AB0002C0F00F09A80ACF130020A2AC0F083802B
:101AC000BCF12B0F18BFBCF12D0F00F083806D1CF3
:101AD000BCF12E0F40F07A80052219E0ACF1300203
:101AE0000BF1010B0A2A6AD3BCF12E0F69D1052232
:101AF0000EE000BF13F801CFBCF1000F76D0BCF1AF
:101B00002C0F72D0BCF12E0F50D1052208F1010824
:101B100013F801CFBCF1000F68D0BCF12C0F64D0DA
:101B2000BCF1450F37D113F801CF03227F1CBCF164
:101B3000000F5BD0BCF12C0F57D0BCF12B0F24D180
:101B400013F801CF0622761CBCF1000F4ED0BCF179
:101B50002C0F4AD0ACF130020AF1010A0A2A12D342
:101B6000012242E013F801CFBCF1000F3ED0BCF1DE
:101B70002C0F3AD0ACF1300CBCF10A0FF2D3012299
:101B800009F1010931E00722ECE7BCF12D0FD7D0B4
:101B90000122761C29E0BCF1650FC4D0ACF1300CF9
:101BA000BCF10A0FB4D301227F1C1EE0ACF1300C53
:101BB000BCF10A0F9ED3012208F1010815E00422AE
:101BC00098E7012211E004226D1C93E7012209F13C
:101BD00001090AE013F801CF02226D1CBCF1000FCD
:101BE00004D0BCF12C0F7FF479AF5B1C54F822C0F9
:101BF0000CF1010C44F822C01A78002A7FF450AF8F
:101C0000089BBDF9502081420AD219782C2904D0B2
:101C1000BDF828C08CEA01011970D3188342F4D3AF
:101C20001599009800F01EFA0146284600F01AFAAD
:101C30000146606800F016FA0146484600F012FAC4
:101C40000146A06800F00EFA0146584600F00AFA74
:101C50000146E06800F006FA0146304600F002FA5C
:101C60000146206900F0FEF90146404600F0FAF90D
:101C70000146606900F0F6F90146384600F0F2F9D5
:101C80000146A06900F0EEF90146504600F0EAF97D
:101C90000146E06900F0E6F90146002000F0E2F9B3
:101CA0000BB0BDE8F08F00002DE9F04700230025C0
:101CB0001C46401EDFF8CC9005E000BFC1F3C10414
:101CC00059F824400425EF187F1C87424ED25DB39B
:101CD0009F184FF0000CBE46A04615F0030607D033
:101CE0000CF1010C18F801AB0EF801AB761EF7D120
:101CF000AE0813D018F801AB0EF801AB0CF1040CD0
:101D000018F801AB0EF801AB761E18F801AB0EF80F
:101D100001AB18F801AB0EF801ABEBD14FF02C0E74
:101D20000CF807E06F1CFB18491C01F00707072F90
:101D3000C9D8DFE807F004040406060D0D14BDE75A
:101D4000C1E7C1F3C10409EB840408252469BAE79B
:101D5000C1F3C10409EB84040825246AB3E7C1F385
:101D6000C10409EB84040825246BACE7401C8342C2
:101D700006D2991800225B1C01F8012B8342FAD38A
:101D8000BDE8F0879800002030B403681C7800227A
:101D90007CB12C2C4BD10BE013F8014F4CB12C2C07
:101DA00006D0303C0A2CF7D34C68641C01224C60EE
:101DB0005B1C0360104630BC704700BF13F8014F36
:101DC000002CF6D02C2CF3D0452C18BF652C6BD1F1
:101DD0004C69641C4C61032213F8014F002CE8D0BD
:101DE0002C2CE5D02B2C18BF2D2C65D1CC68641C75
:101DF000CC60062213F8014F002CDAD02C2CD7D05F
:101E00008A69551CA4F130020A2A5AD301228D6135
:101E1000CEE700BF13F8014F002CCAD02C2CC7D03E
:101E20002E2C39D105220C69641C0C61C6E7A4F183
:101E300030020A2A04D20C68641C04220C60E9E710
:101E40002B2C18BF2D2C14D102220C68641C0C60A2
:101E500013F8014F002CACD02C2CA9D08A68551C4B
:101E6000A4F130020A2A11D32E2C12D105228D6042
:101E7000A4E70A68551C2E2C02D105220D609DE7AF
:101E800001224C68641C4C600D6091E704228D6057
:101E9000C0E701228D608BE7303C0A2CBAD30122C7
:101EA0000C69641C0C6183E7303C0A2C86D3012248
:101EB0004C69641C4C617BE70122CC68641CCC60DB
:101EC00076E707228D6167E7401E042813D8DFE814
:101ED00000F00306090C0F00084800687047084826
:101EE00000687047074800687047074800687047F7
:101EF000064800687047002070470000700000200E
:101F000074000020780000207C0000208000002069
:101F100081EA00024B084AF20101D20748BF4B4058
:101F200083EA50025B08D20748BF4B4083EA900225
:101F30005B08D20748BF4B4083EAD0025B08D20758
:101F400048BF4B4083EA10125B08D20748BF4B40A2
:101F500083EA50125B08D20748BF4B4083EA9012D5
:101F60004FEAD01C5B08D00748BF4B40580883EAB3
:101F70000C02D20748BF4840704781EA00030206BE
:101F80004FEA510C4AF20101DB0748BF81EA0C0C11
:101F90008CEA52634FEA5C0CDB0748BF81EA0C0C09
:101FA0008CEA92634FEA5C0CDB0748BF81EA0C0CB9
:101FB0008CEAD2634FEA5C0CDB0748BF81EA0C0C69
:101FC0008CEA12734FEA5C0CDB0748BF81EA0C0C09
:101FD0008CEA52734FEA5C0CDB0748BF81EA0C0CB9
:101FE0008CEA92734FEA5C0CDB0748BF81EA0C0C69
:101FF0008CEAD2724FEA5C03D20748BF4B4083EAB7
:1020000010225B08D20748BF4B4083EA50225B088E
:10201000D20748BF4B4083EA90225B08D20748BFF3
:102020004B4083EAD0225B08D20748BF4B4083EA8B
:1020300010325B08D20748BF4B4083EA50325B083E
:10204000D20748BF4B4083EA90324FEAD03C5B084E
:10205000D00748BF4B40580883EA0C02D20748BF5C
:102060004840704730B481EA000403064D084AF244
:102070000101E40748BF4D4085EA53646D08E40759
:1020800048BF4D4085EA93646D08E40748BF4D4062
:1020900085EAD3646D08E40748BF4D4085EA1374B0
:1020A0006D08E40748BF4D4085EA53746D08E407A6
:1020B00048BF4D4085EA93746D08E40748BF4D4022
:1020C0006C0885EAD373DB0748BF4C40020484EAFE
:1020D00012636408DB0748BF4C4084EA526364081B
:1020E000DB0748BF4C4084EA92636408DB0748BFC3
:1020F0004C4084EAD2636408DB0748BF4C4084EA62
:1021000012736408DB0748BF4C4084EA52736408CA
:10211000DB0748BF4C4084EA92736408DB0748BF82
:102120004C40630884EAD272D20748BF4B40000C8F
:1021300083EA000402065B08E40748BF4B4083EAD9
:1021400052645B08E40748BF4B4083EA92645B0833
:10215000E40748BF4B4083EAD2645B08E40748BF0A
:102160004B4083EA12745B08E40748BF4B4083EAA4
:1021700052745B08E40748BF4B4083EA92745B08E3
:10218000E40748BF4B405C0883EAD272D20748BFDD
:102190004C4084EA10226308D20748BF4B4083EAD0
:1021A00050225B08D20748BF4B4083EA90225B086D
:1021B000D20748BF4B4083EAD0225B08D20748BF12
:1021C0004B4083EA10325B08D20748BF4B4083EA9A
:1021D00050325B08D20748BF4B4083EA9032C40BB1
:1021E0005B08D00748BF4B40580883EA0402D20777
:1021F00048BF484030BC704781EA000302064FEAFE
:10220000510C4AF20101DB0748BF81EA0C0C8CEA51
:1022100052634FEA5C0CDB0748BF81EA0C0C8CEA86
:1022200092634FEA5C0CDB0748BF81EA0C0C8CEA36
:10223000D2634FEA5C0CDB0748BF81EA0C0C8CEAE6
:1022400012734FEA5C0CDB0748BF81EA0C0C8CEA86
:1022500052734FEA5C0CDB0748BF81EA0C0C8CEA36
:1022600092734FEA5C0CDB0748BF81EA0C0C8CEAE6
:10227000D2724FEA5C03D20748BF4B40000483EAA6
:1022800010625B08D20748BF4B4083EA50625B088C
:10229000D20748BF4B4083EA90625B08D20748BF31
:1022A0004B4083EAD0625B08D20748BF4B4083EAC9
:1022B00010725B08D20748BF4B4083EA50725B083C
:1022C000D20748BF4B4083EA90724FEAD07C5B084C
:1022D000D00748BF4B40580883EA0C02D20748BFDA
:1022E000484070472DE9F05F0546002092469B4626
:1022F00088460646814640241BE02846414647461C
:10230000224600F042F953465A46C01A914110D372
:1023100011461846224600F029F92D1A67EB0108EC
:102320004F4622460120002100F020F917EB00095A
:102330004E41201EA4F10104DFDC484631462A4606
:102340004346BDE8F09FD2B201E000F8012B491EE0
:10235000FBD270470022F6E710B513460A46044642
:102360001946FFF7F0FF204610BD10B5002200E02F
:10237000521C835C8C5CA34201D1002BF8D1D8B2F3
:10238000E1B2401A10BD2DE9F04D81EA030404F0DA
:10239000004B21F0004514464FF0000A23F00041A5
:1023A00050EA050220D054EA01021DD0C5F30A57B5
:1023B0000246C5F31303C1F31300C1F30A5640F4F8
:1023C000801543F48013A7EB0608101BD64608F2CD
:1023D000FD3873EB050002D308F1010801E0921803
:1023E0005B41B8F1000F03DA00200146BDE8F08D33
:1023F00000204FF48011064684460EE0171B73EB55
:10240000050705D3121B63EB050306434CEA010CD9
:1024100049084FEA300092185B4150EA0107EDD1BC
:1024200052EA030012D082EA040083EA050108435D
:1024300005D0101BAB4106D20122002306E000228A
:102440004FF0004302E06FF0010253101AEB060058
:102450004CEB085110EB0A0041EB0B01BDE8F04DCD
:1024600000F0DAB80EB540F2334102910021CDE917
:1024700000110A460B4600F0DEF803B000BDC1F3C0
:102480000A5210B5C1F3130140F2FF3341F4801139
:102490009A4201DA002010BD40F233439A42A2F280
:1024A000334203DC524200F070F810BD904010BD82
:1024B00000F0004230F000400AD0C10D01F560711B
:1024C000C0F3160042EA0151C208400711437047A9
:1024D000002001467047000030B5041E71F1000471
:1024E00004DB4FF00044404264EB0101141E73F121
:1024F000000405DB1C464FF00043524263EB04032B
:102500008B4208BF824230BD01F0004330B421F05D
:10251000004150EA010206D00A0DA2F56072C1F333
:102520001301002A02DC30BC00207047440F44EA4B
:10253000C104C100E01830BC00EBC25000F035B857
:1025400030B50B46014600202022012409E021FA83
:1025500002F59D4205D303FA02F5491B04FA02F580
:102560002844151EA2F10102F1DC30BD202A04DB53
:10257000203A00FA02F1002070479140C2F1200396
:1025800020FA03F3194390407047202A04DB203AD5
:1025900021FA02F00021704721FA02F3D040C2F183
:1025A000200291400843194670470029A8BF704790
:1025B000401C490008BF20F00100704710B4B0FA79
:1025C00080FC00FA0CF050EA010404BF10BC704714
:1025D00049B1CCF1200421FA04F411FA0CF118BF2E
:1025E000012121430843A3EB0C01CB1D4FEA0061FD
:1025F0004FEA102042BF002010BC704700EBC350D0
:1026000010440029A4BF10BC7047401C490008BFFB
:1026100020F0010010BC704710B5141E73F10004C7
:1026200008DA401C41F1000192185B411A4301D1C4
:1026300020F0010010BD2DE9F04D92469B4611B1EE
:10264000B1FA81F202E0B0FA80F220329046FFF750
:102650008DFF04460F4640EA0A0041EA0B0153464B
:102660005A46084313D0114653EA010019D0C8F165
:1026700040025046FFF789FF05460E465046594630
:102680004246FFF773FF084305D0012004E02046CF
:102690003946BDE8F08D0020054346EAE0762C433C
:1026A00037430A986305E40AA0EB08000022FD0AFC
:1026B00044EA47540A3002D500200146E9E7010503
:1026C00010196941DDE9084500196941BDE8F04D7F
:1026D000A2E72DE9FE4F804681EA0300C00F0C46B9
:1026E000009021F0004123F00045B8EB0200A94121
:1026F00005D24046214690461C460B46024623F032
:102700000040104347D0270DC7F30A00C3F30A5116
:102710000290401A019040286BDAC3F3130040F492
:10272000801B0098924620B10023D2EB030A63EB92
:102730000B0B01985946C0F140025046FFF716FFB7
:1027400006460D4650465946019A00F01DF910EB19
:1027500008006141002487EA115284EAE7731A43B2
:1027600040D0009A62B3019A012A4FEA075215DC61
:10277000001B61EB02014FF0004202EA0752CDE973
:102780000042001C41F5801132462B46FFF753FFF3
:1027900003B0BDE8F08F40462146F9E7001B61EB2E
:1027A0000201001C41F5801300185B412018A2F5BE
:1027B000001747EB030140EAD570B6196D4111E0EF
:1027C0006D084FEA360645EAC0754FEA0752001B0E
:1027D00061EB0201001C41F5801149084FEA30000D
:1027E0000019514132462B4603B0BDE8F04FFFF7C8
:1027F00013BF0098012240000023D0EB020263EBDC
:10280000E073009821464FEAE074B8EB000061EBFA
:102810000401E9E783F000435BE781F0004158E7FA
:102820002DE9FE4F81EA030404F0004421F0004149
:1028300000944FF0000B23F0004350EA01045ED0F7
:1028400052EA03045BD0C3F30A54C1F30A552C4483
:10285000A4F2F3340194A0FB0254C1F3130141F438
:102860008011C3F3130343F4801301FB024400FB04
:10287000034E840A970A44EA815447EA8357A4FB2B
:10288000076802958D0A05FB07854FEA932C04FB28
:102890000C542705029D4FEA065847EA1637B5EB58
:1028A00008056EEB070C870E920E47EA811742EA85
:1028B0008312A7FB0201B6EB0B0164EB00042B0DA6
:1028C00043EA0C335E1844EB1C50DA465146E7FBF2
:1028D0000201C5F313044FEA0B3343EA14534FEAE2
:1028E0000432019C43EA0603A4F10C040294009C08
:1028F000CDE900B4FFF79FFE03B0BDE8F08F0020E4
:102900000146F9E7C1F30A52C1F3130140F2FF3364
:1029100041F480119A4202DA00200146704740F2E9
:1029200033439A42A2F2334202DC5242FFF72DBEF9
:10293000FFF71CBE30B5041E71F1000404DB4FF03C
:102940000044404264EB0101141E73F1000405DBF6
:102950001C464FF00043524263EB0403994208BF08
:10296000904230BD064C074D06E0E06840F00103A0
:1029700094E8070098471034AC42F6D3FDF722FCE8
:102980003476000854760008202A06DBCB17203A5C
:1029900041FA02F043EAE07306E041FA02F3D04064
:1029A000C2F1200291400843194670470A684B68FB
:1029B000A3EB0204C3FB0454C5FB036406EB05044C
:1029C000046000BF00BF00BF00BF00BF00BF00BF6A
:1029D00000BF00BF00BF00BF00BF8A68CB68A3EB89
:1029E0000204C3FB0454C5FB036406EB0504446006
:1029F00000BF00BF00BF00BF00BF00BF00BF00BFDF
:102A000000BF00BF00BF00BF0A684B68A3EB020411
:102A1000C3FB0454C5FB036406EB0504046000BF5C
:102A200000BF00BF00BF00BF00BF00BF00BF00BFAE
:102A300000BF00BF00BF8A68CB68A3EB0204C3FBE2
:102A40000454C5FB036406EB0504446000BF00BFEB
:102A500000BF00BF00BF00BF00BF00BF00BF00BF7E
:102A600000BF00BFA2E7000000BF00BF00BF00BF63
:102A700000BF00BF0A684B68A3EB0204C3FB045409
:102A8000C5FB036406EB0504046000BF00BF09E05A
:102A900000BF00BF00BF00BF00BF00BF00BF00BF3E
:102AA00000BF00BF8A68CB68A3EB0204C3FB0454D9
:102AB000C5FB036406EB0504446000BF00BF00BF14
:102AC00000BF00BF00BF00BF00BF00BF00BF00BF0E
:102AD00000BF0A684B68A3EB0204C3FB0454C5FBA8
:102AE000036406EB0504046000BF00BF00BF00BF25
:102AF00000BF00BF00BF00BF00BF00BF00BF00BFDE
:102B00008A68CB68A3EB0204C3FB0454C5FB0364CF
:102B100006EB0504446000BF00BF00BF00BF00BF5C
:102B200000BF00BF00BF00BF00BF00BF00BF9BE7EA
:102B300070B50400154886B0C16C1FD041F0020189
:102B4000C164C06C00F00200114E0590114D36F8C2
:102B500014000090012001900020029002200390B8
:102B600055F82400694600F093F936F8141055F82A
:102B70002400002200F068FA06B070BD41F00401A4
:102B8000C164C06C00F00400DEE7000000100240E9
:102B9000987400088C0000200449054A31F8101090
:102BA00052F82000002200F04FBA0000987400088C
:102BB0008C0000200449054A31F8101052F820001A
:102BC000012200F041BA0000987400088C00002037
:102BD000FEE770470120FFF7ABFF4FF496744FF408
:102BE0002F754FF448760120FFF7E4FF204600F0F0
:102BF0003DF90120FFF7D0FF204600F037F9012012
:102C0000FFF7D8FF204600F031F90120FFF7C4FF9D
:102C1000204600F02BF90120FFF7CCFF204600F002
:102C200025F90120FFF7B8FF204600F01FF9012029
:102C3000FFF7C0FF284600F019F90120FFF7ACFFAD
:102C4000284600F013F90120FFF7B4FF284600F0F2
:102C50000DF90120FFF7A0FF284600F007F9012039
:102C6000FFF7A8FF284600F001F90120FFF794FFC5
:102C7000284600F0FBF80120FFF79CFF204600F0FB
:102C8000F5F80120FFF788FF204600F0EFF801205B
:102C9000FFF790FF204600F0E9F80120FFF77CFFE6
:102CA000204600F0E3F80120FFF784FF204600F003
:102CB000DDF80120FFF770FF304600F0D7F892E70B
:102CC00010B5464C86B0E06C40F00100E064E06C6A
:102CD00000F001000590E06C40F00200E064E06C60
:102CE00000F002000590E06C40F00400E064E06C4D
:102CF00000F004000590E06C40F00800E064E06C37
:102D000000F008000590E06C40F01000E064E06C1A
:102D100000F010000590E06C40F02000E064E06CF2
:102D200000F020000590E06C40F04000E064E06CB2
:102D300000F040000590E06C40F08000E064E06C42
:102D4000694600F080000590032001900390002068
:102D500002904FF6FF7000904FF0904000F098F80E
:102D600069461F4800F094F869461E4800F090F844
:102D700069461D4800F08CF869461C4800F088F848
:102D800069461B4800F084F869461A4800F080F84C
:102D90006946194800F07CF8E06C20F00100E0641E
:102DA000E06C20F00200E064E06C20F00400E064DD
:102DB000E06C20F00800E064E06C20F01000E064BB
:102DC000E06C20F02000E064E06C20F04000E06463
:102DD000E06C20F08000E06406B010BD00100240FE
:102DE0000004004800080048000C0048001000489B
:102DF0000014004800180048001C004810B590F866
:102E000025100024022903D00421C16301242BE0F2
:102E100001680A6822F00E020A6001680A6822F05E
:102E200001020A60816C0A6822F480720A6090F8DC
:102E30004410036C01F01C01012202FA01F15960F7
:102E4000D0E913134B60416D31B10B6823F48073EB
:102E50000B60D0E916134B6080F82520002180F824
:102E60002410816B01B18847204610BD70B504461F
:102E700000F0F0F80546601C02D0044840680444A5
:102E800000F0E8F8401BA042FAD370BD000000201B
:102E90002DE9F84FDFF888B100234FF0010C4FF017
:102EA000030A4FF00F090BF1040EB1E00CFA03F620
:102EB00032406FD04C68022C01D0122C11D1DC08AA
:102EC00000EB84073C6A5D07ED0E09FA05F824EA79
:102ED0000804D1F8108008FA05F848EA0408C7F891
:102EE000208007685D0091F804800AFA05F408F074
:102EF0000308A74308FA05F848EA0708C0F8008065
:102F00004F68012F05D0022F03D0112F01D0122FAF
:102F100010D1D0F80880CF6828EA0408AF4047EA0B
:102F2000080787604768B7430E79C6F300169E40CE
:102F30003E434660C668A6438C68AC403443C460D8
:102F40004C68E40063D5374C256E45F001052566D5
:102F5000246E23F0030504F001040094324C2F1971
:102F6000BD689C07260F09FA06F4A543B0F1904FFF
:102F700004D02E4CA04203D1012421E000241FE004
:102F80002B4CA04201D102241AE02A4CA04202D1CB
:102F9000032415E03BE0284CA04201D104240FE0BB
:102FA000264CA04201D105240AE0254CA04201D1C3
:102FB000062405E0234CA04201D1072400E00824A8
:102FC000B4402C43BC60DBF800405D464E6894433F
:102FD000F60300D514432C60DEF8004075464E68B9
:102FE0009443B60300D514432C600D4D08352C686E
:102FF0004E689443F60200D514432C60084D0C35FE
:103000002C684E689443B60200D514432C605B1CB8
:103010000A6832FA03F47FF449AFBDE8F88F000084
:10302000000401400010024000000140000400487C
:1030300000080048000C0048001000480014004838
:1030400000180048001C00480AB181617047816285
:1030500070470000014880687047000000000020B1
:103060000248816842681144816070470000002076
:1030700010B50024032000F069F80F2000F008F8D4
:1030800008B1012401E000F025F8204610BD000041
:1030900070B50E4E05460024706898B14FF47A71F1
:1030A000B1FBF0F00A490968B1FBF0F000F084FDD3
:1030B00040B9102D06D200222946501E00F026F8F5
:1030C000356000E00124204670BD000000000020B3
:1030D0000C0000207047002809DB00F01F020121CE
:1030E00091404009800000F1E020C0F88012704754
:1030F000002809DB00F01F020121914040098000F7
:1031000000F1E020C0F8001170470000F0B40E4B51
:103110001B680C46C3F30223C3F10705042D00D935
:103120000425191D072901D2002300E0DB1E01261A
:1031300006FA05F1491E214099409E40761E164030
:103140003143F0BC01F0C6BE0CED00E0064900F0D2
:10315000070208684FF6FF03184040EA0220034ABE
:1031600010430860704700000CED00E00000FA0515
:103170002B492C4B0A6832214A432B4940B1B0F508
:10318000007F086829D020F4C06040F480602CE003
:103190000868C0F34120022804D051F8800F20F4C1
:1031A000807022E0D1F8800020F48070C1F88000A7
:1031B000086820F4C06040F400700860B2FBF3F0CF
:1031C000401C00E0401E4A69520501D50028F9D193
:1031D000486940050AD503207047C0F34120022802
:1031E00006D051F8800F40F48070086000207047CE
:1031F000D1F8800040F48070C1F88000086820F4A5
:10320000C06040F400700860B2FBF3F0401C00E0C6
:10321000401E4A695205DBD50028F9D1D8E70000E5
:103220000C00002040420F00007000400D4908686B
:1032300020F4804008600C483222006850430B4A5A
:10324000B0FBF2F0401C00E0401E4A69920501D537
:103250000028F9D14869800501D503207047002076
:1032600070470000007000400C00002040420F003A
:103270000248016841F480410160704700700040DD
:103280004FF4807000F066B80248416841F4007164
:1032900041607047007000400648016821F0070156
:1032A000091D01600448016841F00401016030BF5C
:1032B000704700000070004010ED00E00B490A6804
:1032C00022F00702521C0A6009490A6842F004020F
:1032D0000A60012807D040BF20BF20BF086820F047
:1032E00004000860704730BFF8E70000007000403D
:1032F00010ED00E00B490A6822F00702921C0A60F8
:1033000009490A6842F004020A60012807D040BF58
:1033100020BF20BF086820F004000860704730BF5D
:10332000F8E700000070004010ED00E00848016878
:10333000C1F34121022906D0D0F88000C00505D58F
:103340004FF4007070474FF4806070470020704762
:10335000007000400D4938B1B0F5807F08D0B0F55D
:10336000007F0BD001207047886820F440700AE08D
:10337000886820F4407040F4807004E0886820F48D
:10338000407040F40070886000207047007000407A
:103390000248016841F4807101607047007000408C
:1033A00010B50C460E49002848690FD0C04380056F
:1033B00001D5FFF75DFF0B48016821F004010160B2
:1033C000012C0AD040BF20BF20BF10BD8005F2D520
:1033D000FFF72CFF0028F8D1EDE730BF10BD00004B
:1033E0000070004010ED00E00648016821F0070180
:1033F000C91C01600448016841F00401016030BF4C
:10340000704700000070004010ED00E02DE9F0472B
:103410000F46050058D0404E306800F00F00B8420B
:1034200009D2306820F00F0038433060306800F077
:103430000F00B84248D12878384CC0072CD06868B3
:10344000032811D0022812D0216898B1490500291B
:103450003ADAA16821F003010143A160FFF7FAFD08
:10346000804641F2883910E021688901EFE7216840
:103470008903ECE78907EAE7FFF7ECFDA0EB080119
:10348000494502D90320BDE8F087A068696800F0CB
:103490000C00B0EB810FEFD12878800705D5A0682C
:1034A000A96820F0F0000843A060306800F00F0029
:1034B000B8420BD9306820F00F00384330603068D4
:1034C00000F00F00B84201D00120DCE72878400767
:1034D00005D5A068E96820F4E0600843A06028787A
:1034E000000706D5A068296920F4605040EAC100B1
:1034F000A06000F03FF8A168094AC1F30311515CD4
:1035000001F01F01C8400749086007480068BDE88E
:10351000F047FFF7BDBD0000002002400010024050
:103520004C7400080C0000200000002005480649EB
:1035300000688968054AC1F30221515C01F01F014E
:10354000C84070470C000020001002408C74000836
:103550000548064900688968054AC1F3C221515CE3
:1035600001F01F01C84070470C000020001002400D
:103570008C74000870B52549002318468A68CC6809
:1035800012F00C0204F00306214C4FEA640509D046
:103590000C2A05D0042A32D0082A00D1284670BD52
:1035A000012E10D10B681B0704D4D1F89430C3F35B
:1035B000032302E00B68C3F30313164E56F82330BF
:1035C000DAB10C2AEBD1C86800F00300022818D049
:1035D000032818D01846CA68CB68C2F30312C3F395
:1035E00006234343521CB3FBF2F2C868C0F34160A8
:1035F000401C4000B2FBF0F070BD184670BD204684
:1036000070BD2046E7E72846E5E7000000100240CD
:103610000024F4005C7400082DE9F84304006ED027
:10362000FE4DA86800F00C06E86800F0030720785B
:10363000C00663D576B10C2E01D1012F0AD0E06906
:103640000028286878D040F001002860FFF702FDCC
:1036500080465BE02868800702D5E0690028DED05C
:10366000616A2868000703D5286800F0F00004E0CC
:10367000D5F89400F02202EA1010814216D90846CB
:1036800000F04AFD00283AD1286840F00800286080
:103690002868616A20F0F000084328606868216AA1
:1036A00020F47F4040EA0120686015E0286840F07F
:1036B000080028602868616A20F0F000084328604C
:1036C0006868216A20F47F4040EA01206860606AEF
:1036D00000F022FD0028D6D1FFF74CFFA968D04AA0
:1036E000C1F30311515C01F01F01C840CD490860CE
:1036F000CD480068FFF7CCFC00287DD12DE0C3E069
:10370000FFF7A8FCA0EB0800022876D828688007FD
:10371000F6D5286840F0080028602868616A20F023
:10372000F000084328606868216A20F47F4040EA7E
:103730000120686011E0FFE720F001002860FFF73A
:1037400089FC804606E000BFFFF784FCA0EB080080
:103750000228DAD828688007F6D42078C00740D03D
:10376000082E18D00C2E01D1032F14D06068B0F5AC
:10377000803F17D0B0F5A02F286817D020F48030F4
:103780002860286820F4802028606068E0B1FFF796
:1037900061FC804614E02868800322D56068002818
:1037A00072D01EE0286840F48030EDE740F48020BD
:1037B0002860F7E7FFF74EFCA0EB08006428A4D8C8
:1037C00028688003F6D50CE0FFF744FC804605E04E
:1037D000FFF740FCA0EB0800642896D82868800317
:1037E000F6D4207880073BD5042E11D00C2E01D1C1
:1037F000022F0DD0E06801E0A0E1EAE0002828688F
:103800001ED040F480702860FFF724FC07460CE0CF
:10381000286840050CD5E0680028C1D008E000BF4A
:10382000FFF718FCC01B022893D828684005F7D57D
:103830006868217C20F0FE4040EA016068600FE08B
:1038400020F480702860FFF705FC074605E000BF04
:10385000FFF700FCC01B0228B1D828684005F7D448
:103860002078000753D560690028D5F894003DD032
:10387000A16900F01002914223D081074FEAC07085
:1038800003D500288CD001E08EE190B1D5F89400EA
:1038900020F00100C5F89400FFF7DCFB074604E0C8
:1038A000FFF7D8FBC01B112889D8D5F894008007F2
:1038B000F6D4D5F89400A16920F010000843C5F8AB
:1038C0009400D5F8940040F00100C5F89400FFF78B
:1038D000C1FB074605E000BFFFF7BCFBC01B11287A
:1038E00077D8D5F894008007F6D510E020F00100D5
:1038F000C5F89400FFF7AEFB074604E0FFF7AAFB0C
:10390000C01B112865D8D5F894008007F6D420781C
:10391000400778D5A86D0027C00008D4A86D40F0F6
:103920008050A865A86D012700F0805000903F48A6
:103930000168C90512D40168814641F480710160B3
:10394000FFF788FB804605E0FFF784FBA0EB08004B
:1039500002283ED8D9F80000C005F5D5A068C107F7
:1039600020D0D5F8901000F0800021F080010143B4
:10397000C5F89010207A400705D5D5F8900040F0A2
:103980000400C5F89000D5F8900040F0010000BF99
:10399000C5F89000A06841F28839D8B1FFF75AFB0A
:1039A000804611E0D5F8900020F00100C5F89000A5
:1039B000D5F8900020F00400EAE700BFFFF74AFBCB
:1039C000A0EB0801494504D8D5F890008007F5D54B
:1039D00014E087E0FFF73EFB804605E0FFF73AFB87
:1039E000A0EB080149457DD8D5F890008007F5D4B3
:1039F000D5F8900020F08000C5F890001FB1A86DA8
:103A000020F08050A8652078800632D5A06A002872
:103A1000D5F898001CD040F0010009E000100240E9
:103A20004C7400080C0000200000002000700040D2
:103A3000C5F89800FFF70EFB074604E0FFF70AFB06
:103A4000C01B022879D8D5F898008007F6D510E079
:103A500020F00100C5F89800FFF7FCFA074604E0E3
:103A6000FFF7F8FAC01B022867D8D5F8980080073E
:103A7000F6D4E06AB8B30C2E66D00228286820F08D
:103A80008070286004D0286810F0205F43D046E0A2
:103A9000FFF7E0FA064604E0FFF7DCFA801B022895
:103AA0004BD828688001F7D4F4E90C016FF00F02BD
:103AB00002EB01110843218A5204490802EB4151EB
:103AC000A26841EA02210843217D4FF07E42490865
:103AD00002EB41610843217B40EAC160E968344A56
:103AE000114001E029E061E00843E860286840F007
:103AF00080702860E86840F08070E860FFF7AAFAFC
:103B0000044604E0FFF7A6FA001B022815D828682F
:103B10008001F7D54AE0E86820F00300E860E86833
:103B200024490840E860FFF795FA044608E000BF22
:103B3000FFF790FA001B022802D90320BDE8F883A2
:103B400028688001F4D431E00128F7D0E868226BBE
:103B500000F00301914227D1616B00F0F0020901EE
:103B60001039914220D1A26B00F4FE41B1EB022F3B
:103B70001AD194F83C2000F07841B1EBC26F13D118
:103B8000B4F8401000F4C00249084905A1F500113D
:103B9000914209D194F8441000F0C06049084906E8
:103BA000A1F10071814201D00120C7E70020C5E7E3
:103BB0000C809D01FFFFEEFE10B5401EB0F1807F2E
:103BC00001D3012010BD4FF0E02460610F21601788
:103BD00001F080F90020A06107202061002010BDC5
:103BE0004FF0E020016921F0020101617047704748
:103BF00070477047704700002DE9F04103680446A4
:103C0000D86919689A6840F60F0528424FF00005F8
:103C100009D186067ED501F0200602F080573E438A
:103C200078D0E16E9EE0624E624F16400F403743FF
:103C300070D0C70709D0CF0507D501271F62D4F878
:103C4000883043F00103C4F8883083070AD5D307CE
:103C500008D0276802233B62D4F8883043F004037D
:103C6000C4F8883043070AD5D30708D0276804234F
:103C70003B62D4F8883043F00203C4F8883003076D
:103C80000CD501F02003334308D0266808233362A3
:103C9000D4F8883043F00803C4F8883003050BD506
:103CA0004B0109D526684FF400633362D4F888309D
:103CB00043F02003C4F88830D4F88830002B34D087
:103CC000800609D501F0200002F08051084303D09E
:103CD000E16E09B120468847D4F8880021688968D8
:103CE000490602D410F0280F21D0204600F0B8FB7E
:103CF00020688168490615D5816821F040018160FE
:103D0000A06F78B12C498163A06FFFF777F8002886
:103D10000BD000E011E0A06F816B00E02046BDE811
:103D2000F04108472046FFF765FFBDE8F0812046D7
:103D3000FFF760FFC4F88850F7E7C60209D55602BE
:103D400007D54FF4801018622046BDE8F041FFF718
:103D500050BF060609D501F0800602F400021643A2
:103D600003D0216F0029D9D1DFE742060DD54A06DD
:103D70000BD51968204621F0400119602021C4F8B4
:103D80008010256700F09AF9CFE7020206D54A00B5
:103D900004D52046BDE8F041FFF72ABFC001C4D5D5
:103DA0000029C2DA2046BDE8F041FFF720BF00003D
:103DB00001000010200100044B44000810B504006D
:103DC00003D0D4F8800010B107E0012010BD00201E
:103DD00084F87C00204600F027F82420C4F88000F6
:103DE0002068016821F001010160204600F04AFCD2
:103DF0000128EBD0A06A10B1204600F093FA2068A9
:103E0000416821F4904141602068816821F02A01D5
:103E100081602068016841F0010101602046BDE831
:103E2000104000F0E3BA000030B52F4A01682F4877
:103E30000225012487B0914222D1C16C41F00101D9
:103E4000C164C16C01F001010591816D41F4003143
:103E50008165806D694600F4003005900C2000906B
:103E6000CDE901540720CDE903404FF09040FFF722
:103E70000FF8002201212620FFF748F926202EE026
:103E80001B4A91422DD1C16C41F04001C164C16C0B
:103E900001F040010591C16D41F00101C165C16DA5
:103EA00001F001010591816D41F080518165806DC6
:103EB00000F080500590FFF7E7F94FF4C0700090D4
:103EC000CDE901540820CDE9034069460948FEF7D1
:103ED000DFFF002201214620FFF718F94620FFF7F7
:103EE00007F907B030BD0000004400400010024058
:103EF000008000400018004870B5D0F88430202BB6
:103F00006DD1B9B1B2B190F87C30012B67D00123EB
:103F100080F87C308165A0F85C20A0F85E2000214C
:103F2000C16683684FF48056FF24B34207D103690A
:103F300013B11CE0012070BD40F2FF131DE07F258E
:103F40009BB1B3F1805F15D0A0F86010C0F8881065
:103F50002223C0F8843003689C6844F001049C600C
:103F6000436EB3F1005F0ED027E0036943B9A0F8B8
:103F70006040EBE703691BB13F23A0F86030E5E741
:103F8000A0F86050E2E7B0F86830934215D8826834
:103F9000B24201D1026972B1124AC26680F87C1045
:103FA00001680A6842F480720A600068816841F022
:103FB000805181600FE00C4AEFE78268B24201D184
:103FC000026952B1094AC26680F87C100068016833
:103FD00041F490710160002070BD054AF3E70220B2
:103FE00070BD0000E5450008E5440008854500086F
:103FF000854400080149012088707047280000208E
:104000002DE9F8430446D0F880001F4616460D46B9
:10401000202851D1DDB1D6B194F87C0001284BD0D5
:10402000012084F87C004FF00008C4F8888021202B
:10403000C4F880001834FFF70DF8A6878146E6879C
:1040400054F8100C183CB0F5805F03D004E0012058
:10405000BDE8F883206910B12E46002510E0002647
:104060000EE08021204600F0C5FEB8B9C6B116F8B2
:10407000010B21688862B4F85600401EA4F856006F
:10408000B4F856004B464FF0000200970028E8D1E4
:104090004FF04001204600F0ADFE30B10320D7E7DD
:1040A00035F8020BC0F30800E3E72020C4F88000D5
:1040B00084F87C800020CBE70220C9E77047FEE748
:1040C0000C4810B50A4901604FF4165141600021B7
:1040D0008160C1600C220161C0E90521C1610162FA
:1040E000FFF76CFE002801D0FEF774FD10BD000044
:1040F000008000401401002010B54620FEF7EBFFC1
:10410000BDE810400148FFF777BD00001401002012
:10411000FEE7704770470000F8B51C4D06460024C6
:10412000A86DC00002D5FFF701F90DE0A86D40F0C1
:104130008050A865A86D00F080500090FFF7F6F859
:10414000A96D21F08051A965B0F5007F04D0802EC3
:1041500007D94FF003040AE0802E08D9A02E01D819
:1041600004E001D1022402E0702E00D101240848AD
:10417000016821F00F0121430160006800F00F0089
:10418000A04201D00120F8BD0020F8BD001002407F
:104190000020024000B593B048216846FEF7DAF8E7
:1041A00004200090012002906846FFF735FA08B11C
:1041B000FEF710FD084850F8901F21F0180101602B
:1041C000016821F4407141F480710160016841F49B
:1041D0000041016013B000BD001002407047FEF7BF
:1041E0003FBF10B598B0142112A8FEF7B3F84821CC
:1041F0006846FEF7AFF810200090902101200024BF
:104200000991CDE907040B906846FFF705FA58B904
:104210000F20CDE9120414941594032112A81694CA
:10422000FFF7F4F8002801D0FEF7D4FC18B010BD59
:1042300030B597B0142112A8FEF78CF848216846D3
:10424000FEF788F81020009000245020CDE90840A7
:104250000125079568460B94FFF7DEF950B9CDE9C3
:10426000125414941594002112A81694FFF7CEF856
:10427000002801D0FEF7AEFC17B030BD10B598B0E5
:10428000142112A8FEF766F848216846FEF762F886
:10429000602100241020CDE9084100900120079002
:1042A0000221CDE90B100D9028200E9007200F90D1
:1042B0000420CDE910016846FFF7AEF960B90F2080
:1042C00012900320CDE913041594042112A816942A
:1042D000FFF79CF8002801D0FEF77CFC18B010BD59
:1042E0000D48016841F4700101600C48016841F01B
:1042F00001010160002181600268094B1A400260DF
:104300008214C260026822F4802202608161024944
:10431000C00380390860704788ED00E0001002405B
:10432000FFFFF6EA90F82810C90706D001684A682E
:10433000C36A22F400321A434A6090F828108907B1
:1043400006D501684A68036B22F480321A434A603A
:1043500090F82810490706D501684A68436B22F493
:1043600080221A434A6090F82810090706D5016890
:104370004A68836B22F400421A434A6090F828107E
:10438000C90606D501688A68C36B22F480521A43B5
:104390008A6090F82810890606D501688A68036C3F
:1043A00022F400521A438A6090F82810490611D569
:1043B00001684A68436C22F480121A434A60416CD7
:1043C000B1F5801F06D101684A68836C22F4C002EF
:1043D0001A434A6090F82810090606D501684A6811
:1043E000C06C22F4002202434A607047F8B50026F0
:1043F0000446C0F88860FEF72DFE05462068006878
:104400006FF07E47000708D52B4600224FF40011BD
:104410002046009700F0EEFC60B920680068400775
:104420000AD52B4600224FF480012046009700F069
:10443000E1FC08B10320F8BD2020C4F88000C4F8D6
:10444000840084F87C600020F8BD10B5806A0021EB
:10445000A0F85E10A0F85610FFF7CCFB10BD0000CE
:1044600001680A6822F490720A6001688A68044B45
:104470001A408A602021C0F884100021C16670476C
:10448000FEFFFFEF10B5B0F86020D0F8843001686F
:10449000222B04D0886940F00800886110BD496A69
:1044A000836D11401980816D891C8165B0F85E10A3
:1044B000491EA0F85E10B0F85E100029EED1016828
:1044C0000A6822F490720A6001688A6822F0010288
:1044D0008A602021C0F884100021C166FFF78AFDA0
:1044E00010BD000070B50446B0F86060D0F88400DC
:1044F000222805D02068816941F00801816170BDE2
:10450000B4F8685023E02068406AA16D304008800C
:10451000A06D801CA065B4F85E00401EA4F85E008B
:10452000B4F85E0088B92068016821F480710160E8
:1045300020688168114A114081602020C4F88400FD
:104540000020E0662046FFF755FD6D1EADB2002D40
:10455000D9D1B4F85E000028D1D0B4F868108142F7
:10456000CDD92068816821F0805181600448E066DF
:104570002068016841F02001016070BDFEFFFFEF7F
:104580008544000810B5B0F86020D0F88430016888
:10459000222B04D0886940F00800886110BD496A68
:1045A0001140826D1170816D491C8165B0F85E10FB
:1045B000491EA0F85E10B0F85E100029EED1016827
:1045C0000A6822F490720A6001688A6822F0010287
:1045D0008A602021C0F884100021C166FFF70AFD1F
:1045E00010BD000070B50446B0F86060D0F88400DB
:1045F000222805D02068816941F00801816170BDE1
:10460000B4F8685023E02068406AA16D304008701B
:10461000A06D401CA065B4F85E00401EA4F85E00CA
:10462000B4F85E0088B92068016821F480710160E7
:1046300020688168114A114081602020C4F88400FC
:104640000020E0662046FFF7D5FC6D1EADB2002DC0
:10465000D9D1B4F85E000028D1D0B4F868108142F6
:10466000CDD92068816821F0805181600448E066DE
:104670002068016841F02001016070BDFEFFFFEF7E
:10468000854500082DE9F05F0446016880682369CC
:10469000E5691843636900272B431843636EF64AA4
:1046A00003430868F54D28401843086020684168B6
:1046B000E36821F44051194341602168A0699142A7
:1046C00001D0236A18438B68ED4D2B4003438B6068
:1046D0002068C16A636A21F00F011943C162EA4987
:1046E000E84B20688E1598420DD1D1F8881011F052
:1046F000030106D0012969D0022965D0032950D1D0
:1047000066E001254EE0E14B98420BD1D1F88810CC
:1047100011F00C0156D0042958D0082954D00C2986
:104720003FD155E0DA4B98420BD1D1F8881011F007
:10473000300147D0102949D0202945D0302930D127
:1047400046E0D44B98420BD1D1F8881011F0C0014B
:1047500038D040293AD0802936D0C02921D137E03D
:10476000CD4B98420DD1D1F8881011F4407129D069
:10477000B1422BD0B1F5007F26D0B1F5407F10D1EA
:1047800026E090420DD1D1F8881011F4406119D083
:10479000B1F5806F1AD0B1F5006F15D0B1F5406F4B
:1047A00016D01025DFF8F4A24FF000094FF4004BAB
:1047B00090426ED175B1022D29D0042D59D0082D0B
:1047C00068D176E00025EDE70225EBE70425E9E76F
:1047D0000825E7E7FEF7AAFE4DE0012851D00228A0
:1047E00051D0032851D0042851D0052853D0062891
:1047F00053D0072853D0082853D0092853D00A286B
:1048000053D00B2853D03AE0B1FBF0F06CE0606A73
:10481000A8B1012817D0022817D0032817D00428E0
:1048200017D0052817D0062817D0072817D0082832
:1048300017D0092817D00A2817D00B2817D0012025
:10484000BAFBF0F050E00220FAE70420F8E7062077
:10485000F6E70820F4E70A20F2E70C20F0E7102042
:10486000EEE72020ECE74020EAE78020E8E730464A
:10487000E6E7FEF77FFE0146606A0028ADD1012021
:10488000C2E70220C0E70420BEE70620BCE70820FC
:10489000BAE738E14AE00A20B6E70C20B4E7102076
:1048A000B2E72020B0E74020AEE78020ACE73046FA
:1048B000AAE7606AA8B1012822D0022822D00328E2
:1048C00022D0042822D0052822D0062822D007286A
:1048D00022D0082822D0092822D00A2822D00B284A
:1048E00022D00120BBFBF0F0002820D06168884670
:1048F00001EB4101814219D8B0EB083F16D817E00F
:104900000220EFE70420EDE70620EBE70820E9E7C7
:104910000A20E7E70C20E5E71020E3E72020E1E7A5
:104920004020DFE78020DDE73046DBE701270EE2AD
:104930007DB3022D7ED0042D73D0082DF6D1606A90
:10494000A8B101286ED002286DD003286CD00428AD
:104950006BD005286AD0062869D0072868D00828B7
:1049600067D009287ED00A287DD00B2800D00126E8
:1049700032464D46002358460021FDF7B3FC09029C
:1049800041EA106102024FEA58001018694142469C
:104990003DE0FFE7FEF7CAFD9AE0012815D00228A6
:1049A00015D0032815D0042815D0052815D00628C1
:1049B00015D0072815D0082815D0092815D00A28A1
:1049C00015D00B2814D0012612E0022610E0042690
:1049D0000EE006260CE008260AE00A2608E00C266F
:1049E00006E0102604E0202602E0402600E08026B3
:1049F0000023084632464D461946FDF773FC09026E
:104A0000626841EA106103025008181869410023E6
:104A1000FDF768FC224AA0F54071914270D985E704
:104A200008E053E05AE05BE05CE05DE05EE05FE000
:104A300060E061E0606AC0B1012833D0022833D061
:104A4000032833D0042833D0052833D0062833D0A8
:104A5000072833D0082833D0092833D00A2833D088
:104A60000B2801E04AE04CE000D0012632464D46DA
:104A70000023504680E7000000800040F369FFCF2C
:104A8000FFF4FF11003801400010024000440040D4
:104A900000480040004C0040005000400024F4005A
:104AA000FFFC0F000226E1E70426DFE70626DDE72C
:104AB0000826DBE70A26D9E70C26D7E71026D5E734
:104AC0002026D3E74026D1E78026CFE7FEF752FD28
:104AD0000146606A00283FF476AF5EE7022647E7AA
:104AE000042645E7062643E7082641E70A263FE76E
:104AF0000C263DE710263BE7202639E7402637E71E
:104B000023E1802634E7E0694FF6EF7858456ED10F
:104B1000092D84D2DFE805F006093C05800505056E
:104B2000830003E7FEF702FD01E0FEF711FD0146F9
:104B3000606AA8B1012815D0022815D0032815D025
:104B4000042815D0052815D0062815D0072815D01B
:104B5000082815D0092815D00A2815D00B2814D0FC
:104B6000012612E0022610E004260EE006260CE0E4
:104B700008260AE00A2608E00C2606E0102604E0D3
:104B8000202602E0402600E08026B1FBF6F01AE085
:104B9000606AA8B101282BD002282BD003282BD083
:104BA00004282BD005282BD006282BD007282BD063
:104BB00008282BD009282BD00A282BD00B2800D06E
:104BC0000126BAFBF6F04100606801EB5001B1FB31
:104BD000F0F080B2A0F110014145A2D84FF6F0717B
:104BE0000140C0F3420001432068C160AFE046E0ED
:104BF0000226E6E70426E4E70626E2E70826E0E7E1
:104C00000A26DEE70C26DCE71026DAE72026D8E7BE
:104C10004026D6E78026D4E7FEF7ACFC87E7606A3B
:104C2000A8B1012817D0022817D0032817D00428CC
:104C300017D0052817D0062817D0072817D008281E
:104C400017D0092817D00A2817D00B2800D0012622
:104C5000BBFBF6F0B7E70226FAE70426F8E70626DC
:104C6000F6E70826F4E70A26F2E70C26F0E7102616
:104C7000EEE72026ECE74026EAE78026E8E7092D64
:104C8000BFF4CDAEDFE805F006093C058305050558
:104C900086004BE6FEF74AFC01E0FEF759FC0146B0
:104CA000606AA8B1012815D0022815D0032815D0B4
:104CB000042815D0052815D0062815D0072815D0AA
:104CC000082815D0092815D00A2815D00B2814D08B
:104CD000012612E0022610E004260EE006260CE073
:104CE00008260AE00A2608E00C2606E0102604E062
:104CF000202602E0402600E08026B1FBF6F11AE013
:104D0000606AA8B101282ED002282ED003282ED008
:104D100004282ED005282ED006282ED007282ED0E5
:104D200008282ED009282ED00A282ED00B2800D0F3
:104D30000126BAFBF6F1606801EB5001B1FBF0F01F
:104D400080B2A0F110014145A3D82168C8600120BC
:104D5000A4F86A0024F8680F3846C4F80490C4F830
:104D60000890BDE8F09F0226E3E70426E1E7062667
:104D7000DFE70826DDE70A26DBE70C26D9E7102661
:104D8000D7E72026D5E74026D3E78026D1E7FEF7F0
:104D9000F1FB84E7606AA8B1012817D0022817D078
:104DA000032817D0042817D0052817D0062817D0B5
:104DB000072817D0082817D0092817D00A2817D095
:104DC0000B2800D00126BBFBF6F1B4E70226FAE778
:104DD0000426F8E70626F6E70826F4E70A26F2E7AF
:104DE0000C26F0E71026EEE72026ECE74026EAE75F
:104DF0008026E8E72DE9F0479A4617460E46044616
:104E00004FF000094FF02008089D39E0681C37D0AA
:104E1000FEF720F9A0EB0A00A84222D80DB32068C3
:104E2000016849072CD5C069C043000528D4216812
:104E30004FF4006008622068016821F4D0710160BD
:104E40002068816821F001018160C4F88080C4F885
:104E50008480C4F8888000BF84F87C900320BDE87B
:104E6000F0872068016821F4D071016020688168B2
:104E700021F001018160C4F88080C4F88480EBE7F0
:104E80002068C06936EA000004D00020B842BDD0D6
:104E90000020E4E70120F9E710B52620FEF71BF912
:104EA000BDE810400148FEF7A7BE00001401002035
:104EB000FEE700000FB4054B10B503A9044A0298A1
:104EC00000F0EAF810BC5DF814FB0000C9570008B8
:104ED000D80000200907090E002804DB00F1E020BB
:104EE00080F80014704700F00F0000F1E02080F817
:104EF000141D704702E008C8121F08C1002AFAD129
:104F000070477047002001E001C1121F002AFBD149
:104F1000704700002DE9FF5F82B00021DDE9043019
:104F2000020DDDF840B0034318D044F61050A2F251
:104F3000FF3242431514119801281FD0A5EB0B0036
:104F4000401C5FEA000A4FF000064E4FDFF8389130
:104F5000B046504615D5CAF1000413E0119801245B
:104F60004AA3012801D16FEA0B010298119AC0E906
:104F70000031C0E9024206B0BDE8F09FCBF100006D
:104F8000DFE704460021404A491842EB0450CDE9CE
:104F9000001012E0E00707D032463B464046494643
:104FA000FDF73EFC8046894632463B461046194690
:104FB000FDF736FC06460F466410002CEAD1DDE909
:104FC0000401DDE90023BAF1000F06DAFDF728FC41
:104FD00042464B46FDF724FC05E0FDF7D4F9424676
:104FE0004B46FDF7D0F904460E460022284BFDF74C
:104FF000A1FC03D84FF0FF30014607E00022254B0B
:1050000020463146FDF765FBFDF77CFC102409E0E6
:10501000002C0ADB0A220023FDF764F9039B3032DF
:105020001A55641E50EA0102F2D1641C039AC4F1BD
:1050300011031444119A012A03D0012208430DD10F
:105040000AE0084304D000204FF0110B119072E7E2
:10505000A3EB0B056D1E0DE05B4504DD4FF0000278
:1050600005F1010504E003DA4FF00002A5F10105A6
:10507000002AECD002981199C0E90231C0E900453C
:1050800079E70000000014400000F03F300000000D
:105090000000F0430000E03F2DE9FF4F95B09B4634
:1050A0008946064600250FE2252877D100242746A9
:1050B000F84A0121059400E0044316F8013F203B23
:1050C00001FA03F01042F7D130782A2811D06FF09E
:1050D0002F033078A0F13002092A16D8059A44F03F
:1050E000020402EB820203EB42021044761C05909C
:1050F000EFE759F8042B0592002A03DA504244F4F2
:105100000054059044F00204761C30782E2816D105
:1051100016F8010F44F004042A280DD06FF02F0276
:105120003078A0F13003092B09D807EB870302EB95
:105130004303C718761CF3E759F8047B761C3078D4
:105140006C280FD006DC4C2817D068280DD06A28B0
:1051500014D104E0742810D07A280FD10DE044F463
:1051600000140AE044F4801401E044F4401472781E
:10517000824202D104F58014761C761C30786628B1
:105180000BD013DC582877D009DC002875D04528CF
:10519000F6D04628F4D047281AD19DE118E06328BC
:1051A00035D0642879D0652812D195E1702873D064
:1051B00008DC6728F1D069286FD06E280DD06F28E1
:1051C00006D1B5E073282CD0752875D0782874D016
:1051D0005A46179990476D1C75E1C4F30250022896
:1051E00009D003280DD0D9F8001004280DD00D6087
:1051F00009F1040967E1D9F80010EA17C1E9005282
:10520000F6E7D9F800100D80F2E70D70F0E719F815
:10521000041B8DF8001000208DF80100EA460120E3
:1052200003E059F804AB4FF0FF3061074FF0000185
:1052300002D40DE008F101018846B9420FDA804539
:10524000F8DB1AF808100029F4D108E008F1010190
:1052500088468142FADB1AF808100029F6D1059831
:105260005B46A0EB080721463846179A00F094FAEF
:10527000284400EB080507E04DE029E10DE01AF8AD
:10528000010B5A4617999047B8F10108F7D25B46CF
:1052900021463846179A13E142E00A220092C4F3ED
:1052A00002524FF0000A022A08D059F804CB032A10
:1052B0004FEAEC710AD00DE029E02AE009F107017C
:1052C00021F00702F2E802C1914609E00FFA8CFCD6
:1052D0004FEAEC71042A03D14FFA8CFC4FEAEC71CF
:1052E000002907DA0A460021DCF1000C61EB02011B
:1052F0002D2202E0220504D52B228DF80420012264
:1053000003E0E20701D02022F7E7904659E00A21A6
:1053100002E010220DE010214FF0000A00910BE096
:1053200010224FF0000A44F004040827009203E022
:1053300008224FF0000A0092C4F30252022A05D05C
:1053400059F804CB0021032A08D009E009F107012C
:1053500021F00702F2E802C1914605E01FFA8CFC39
:10536000042A01D10CF0FF0C4FF00008220728D5C9
:10537000702806D0009B83F0100353EA0A0305D07F
:105380000EE040228DF80420012208E05CEA0102D0
:1053900006D030228DF804208DF8050002229046B8
:1053A000009B83F0080353EA0A030AD15CEA010276
:1053B00001D1620705D530228DF804204FF0010895
:1053C0007F1E582804D034A003900EA802900DE050
:1053D00036A0F9E753466046009AFCF783FF8446FF
:1053E0000398825C0298401E029002705CEA010001
:1053F000F0D1029806A9081A00F1200A600702D528
:1054000024F4803400E00127574502DDA7EB0A00B1
:1054100000E0002000EB0A01009005984144401A8A
:105420000590E00306D45B462146179A059800F0E4
:10543000B3F90544002706E001A85A46C05D179954
:1054400090476D1C7F1C4745F6DBE0030CD55B469F
:105450002146179A059800F09FF9054404E0302092
:105460005A46179990476D1C0099481E00900029D4
:10547000F5DC08E0029802995A460078491C02912E
:10548000179990476D1CBAF10001AAF1010AF1DCED
:1054900065E10000092801003031323334353637F8
:1054A0003839616263646566000000003031323370
:1054B0003435363738394142434445460000000010
:1054C00000F058F90544761C307800287FF4ECADE4
:1054D00019B02846BDE8F08F620700D4062709F10D
:1054E000070222F0070CFCE80223E14603F0004823
:1054F0005FEA080C02D00FF2702C0DE05FEA045C4A
:1055000002D50FF2682C07E05FEAC47C02D00FF2EC
:10551000602C01E0AFF2700C4FF0FF3823F0004335
:10552000CDF850C065280CD006DC452809D04628A7
:105530001DD047283DD13DE0662818D067287ED190
:1055400038E00021112F01DB112000E0781CCDE9AB
:10555000000106A90EA8FFF7DDFCDDE90F010E9A98
:1055600003910021009207F1010A04914DE04FF0F0
:1055700000400097CDE9011006A90EA8FFF7CAFC6C
:10558000DDE90F0203920E9B11990022DDF80CA0B9
:105590000093049211B9791C00EB010AB7EB0A00E1
:1055A00004D4C0F1FF3007F1010A0490AAEB070010
:1055B000019044E0012F00DA01270021112F01DDC5
:1055C000112000E03846CDE9000106A90EA8FFF73A
:1055D000A1FCDDE90F010E9A0391002104910092D4
:1055E000BA4621070CD40399514500DA8A46BAF12C
:1055F000010F05DD009AAAF10101515C302908D0A4
:10560000B84202DA10F1040F06DA0121CDE90110E7
:1056100015E0AAF10101E9E7002805DC049901443D
:105620000491AAEB000102E0411C514500DD8A46CD
:105630000499401A401C01904FF00040029020074E
:1056400004D40198504501DBCDF8048000208DF88A
:105650004F0002980DF14F07B0F1004F25D02B20DD
:105660000E9002984FF0020800280CDA4042029097
:105670002D200E9007E00A210298FCF761FF3031DF
:10568000029007F8011DB8F10001A8F10108F2DC51
:1056900002980028EFD1791E0E980870307800F03B
:1056A000200040F0450007F8020D12A8C01B00F1D1
:1056B00007081498007800B1012000EB0A01019856
:1056C00001EBE07105984144401A401E0590E0034B
:1056D00006D45B462146179A059800F05DF805440C
:1056E0001498007818B15A46179990476D1CE0033A
:1056F00024D55B462146179A059800F04DF80544DD
:105700001CE00498002807DBDDE90301884203DD83
:105710000098405C179901E0179930205A4690474D
:10572000049805F10105401C04900198401E019069
:1057300004D12E205A46179990476D1CBAF10001EA
:10574000AAF1010ADDDC05E017F8010B5A461799AA
:1057500090476D1CB8F10001A8F10108F4DC5B462C
:105760002146179A0598ABE62D0000002B0000009B
:10577000200000002DE9F041044600251E46174692
:10578000880404D405E039462020B0476D1C641E0F
:10579000F9D52846BDE8F0812DE9F0410446002501
:1057A0001E469046C80301D5302700E02027880414
:1057B00004D505E041463846B0476D1C641EF9D556
:1057C0002846BDE8F081000013B54FF6FF730122B3
:1057D00069460248FEF714FC00981CBD1401002025
:1057E00070B50D4C60686FF07F41A0FB01026369EA
:1057F000CD1A0023281843EB020122694FF47A7571
:10580000801A064A61EB03011268B2FBF5F2FCF75D
:1058100069FDA06070BD0000580000200C00002051
:105820002DE9F0410446C669002020876087A087E3
:10583000E0870546471E12E001212046FAF7B8FD31
:10584000218FFCF79AFB208739462046FAF7B0FDF6
:10585000218FFCF792FB208705B960876D1CB5424C
:10586000EAD30020BDE8F08192B0FDF701FC9D4C29
:10587000A06D40F08050A065A06D00F080500090B9
:10588000FDF786FD48216846FCF764FD04200025ED
:10589000009002956846FDF7BFFEB8B96015FDF7A8
:1058A00067FCA06D20F08050A065FEF709FC012781
:1058B0008D4E8E4CC2E06570DFF830821AE08A4867
:1058C00001228A492030FEF717FB08B1FDF782F963
:1058D000A0780028FCD0A57098F800102171E0880D
:1058E0003218401CE08011700D2901D00A2901D125
:1058F000E580677060780128E1D1A046E770304606
:105900007BA1A660FCF731FD00287DD079A1D8F8F5
:105910000800FCF72AFD002877D077A1D8F8080006
:10592000FCF723FD002871D074A1D8F80800FCF71B
:105930001CFD00286BD072A1D8F80800FCF715FDFB
:10594000002865D06FA1D8F80800FCF70EFD0028EC
:1059500079D06DA1D8F80800FCF707FD002874D0B5
:105960006AA1D8F80800FCF700FD00286FD068A1F4
:10597000D8F80800FCF7F9FC00286AD065A1D8F82F
:105980000800FCF7F2FC002871D063A1D8F80800E9
:10599000FCF7EBFC00286CD060A1D8F80800FCF7FD
:1059A000E4FC00286FD05EA1D8F80800FCF7DDFC0D
:1059B00000287CD05BA1D8F80800FCF7D6FC0028B2
:1059C00078D059A1D8F80800FCF7CFFC002874D093
:1059D00056A1D8F80800FCF7C8FCA8B354A1D8F821
:1059E0000800FCF7C2FC88B352A1D8F80800FCF705
:1059F000BCFC68B350A1D8F80800FCF7B6FC48B36B
:105A00004EA1D8F8080004E025E027E029E02BE0CB
:105A100030E0FCF7AAFC58B348A1D8F80800FCF71E
:105A2000A4FC28B346A1D8F80800FCF79EFC58B3A4
:105A300088F8035020212C48FCF78CFCE0780128E2
:105A40007FF439AFFEE718E03AE019E03BE01DE0F3
:105A50003CE01EE03DE001F001FCEFE701F056FC08
:105A6000ECE701F065FCE9E701F076FCE6E713E01E
:105A700032E014E001F0B0FCE0E701F0C1FCDDE74A
:105A800001F080FCDAE70FE029E010E001F08EFC85
:105A9000D4E700F0EBF8D1E700F0C8F8CEE701F06A
:105AA00011FCCBE706E008E001F0EAFBC6E701F0F5
:105AB0008BFBC3E701F078FBC0E700F059FFBDE7BF
:105AC00001F040F9BAE701F03FFBB7E701F01AFB3C
:105AD000B4E700F053FDB1E700F054F9AEE700F091
