:020000040800F2
:10000000680D0020D10100087B480008274800083F
:1000100079480008B52D0008DD54000800000000F4
:10002000000000000000000000000000014C00087B
:10003000B72D0008000000007D480008034C0008B0
:10004000EB010008EB010008EB010008EB010008E0
:10005000EB010008EB010008EB010008EB010008D0
:10006000EB010008EB010008EB010008EB010008C0
:10007000EB010008EB010008EB010008EB010008B0
:10008000EB010008EB010008EB010008EB010008A0
:10009000EB010008EB010008EB010008EB01000890
:1000A000EB010008EB010008EB010008EB01000880
:1000B000EB010008EB010008EB010008EB01000870
:1000C000EB010008EB010008EB010008EB01000860
:1000D000EB010008EB010008C5540008EB01000823
:1000E000EB010008EB010008EB010008EB01000840
:1000F000EB010008EB010008EB0100080000000024
:10010000EB010008EB010008EB010008EB0100081F
:10011000EB010008EB010008EB010008EB0100080F
:10012000EB010008EB010008EB010008EB010008FF
:10013000EB010008EB010008EB010008EB010008EF
:10014000EB010008EB010008EB010008EB010008DF
:10015000EB010008EB01000861480008EB01000812
:10016000EB010008EB010008EB010008EB010008BF
:10017000EB010008EB010008000000000000000097
:10018000EB010008EB010008EB010008EB0100089F
:10019000EB010008EB010008000000000000000077
:1001A0000000000000000000EB010008EB01000867
:1001B000EB010008EB010008EB010008DFF80CD0B0
:1001C00002F0D0FB00480047955E0008680D002053
:1001D0000648804706480047FEE7FEE7FEE7FEE7E1
:1001E000FEE7FEE7FEE7FEE7FEE7FEE78D4D0008CF
:1001F000BD010008F0B5044683B0B4F900600D46B7
:10020000300648BF06F07F0034D4C6F3C30040EA8E
:10021000001116F0070002D0012813D01CE022299B
:10022000B8BF2221288F01900091B5F90230B5F9AD
:1002300000206969A86901F075FB07B2E88F60B911
:10024000EF870AE02A8F05F1280000F0ADFB07B226
:10025000A88F10B9AF8700E03746298FB8B201F0F8
:100260008CFE288726F0FF0107F07F00014341F054
:100270008001218003B0F0BD2DE9F041074682B036
:10028000B7F9004088461546200648BF04F07F06AF
:1002900033D4C4F3C30040EA001114F007000BD0BC
:1002A00001281CD12A8F05F1280000F07DFB06B241
:1002B000A88FA8B9AE8713E02229B8BF2221288FC2
:1002C00001900091B5F90230B5F900206969A8697B
:1002D00001F028FB06B2E88F10B9EE8700E0264651
:1002E000298FB0B201F049FE288706F07F0624F07E
:1002F000FF00304340F080003880B8F900703806C5
:1003000048BF07F07F0034D4C7F3C30040EA0011B0
:1003100017F007000BD001281CD12A8F05F1280007
:1003200000F042FB04B2A88FA8B9AC8713E02229E1
:10033000B8BF2221288F01900091B5F90230B5F99C
:1003400000206969A86901F0EDFA04B2E88F10B9DC
:10035000EC8700E03C46298FA0B201F00EFE288712
:1003600027F0FF0104F07F00014341F08001A8F86D
:100370000010301A02B0BDE8F08172B9825EB0F9A7
:100380000030121262F307030380B1F90020B1F9C3
:100390000030121262F307030B80B0F90200B1F9CA
:1003A0000210401A70470A880280498841807047CD
:1003B0002DE9F04F024681B0B2F90460546A00237F
:1003C00000259A469C468946B6F1010FC0F28D8001
:1003D0000FFA89F95FFA85F82746B9F1000F21D4A1
:1003E000002F1EBF7868B0F9020048451CBF3F6867
:1003F000002F31D07868B0F9020048451CBF3F6833
:10040000002F29D07868B0F9020048451CBF3F682A
:10041000002F1EBF7868B0F9020048451CD03F6825
:10042000DEE73F68C7B17868007840451CBF3F6889
:10043000002F11D07868007840451CBF3F68002F1E
:100440000AD07868007840451CBF3F68002F1EBF67
:10045000786800784045E4D120465FF00004D8B1C8
:10046000D0F800B00460BBF1000F04461FBFDBF8FA
:100470000000CBF800405C4600280DD0D0F800B05A
:100480000460BBF1000F04461FBFDBF80000CBF88F
:1004900000405C460028E3D14FB920684068B0F9BD
:1004A0000000C0F300200CF1010CC31813E07868C1
:1004B000B0F900000AF1010A5FEAC07B44BFC0F353
:1004C0004020C318386830B1D0F800B0C7F800B089
:1004D000276807602060B9F1000F58BF09F10109D2
:1004E000681C05B2B542FFF673AF03EB8A00A0EBC0
:1004F0000C0A012904DBBD49204600F00BFA044632
:100500002068056841686A68426069602646296813
:10051000016000200FFA89F12860002921D4002E03
:100520001EBF7068B0F9020088421CBF3668002EFA
:1005300033D07068B0F9020088421CBF3668002EC4
:100540002BD07068B0F9020088421CBF3668002EBC
:100550001EBF7068B0F9020088421ED03668DEE720
:100560003668D6B1716809780FFA88F841451CBF22
:100570003668002E11D07168097841451CBF366875
:10058000002E0AD07168097841451CBF3668002EDC
:100590001EBF716809784145E2D106B9266856B197
:1005A0006068B0F900001FFA8AF101F025FE366894
:1005B0008246002EF4D12068696842686A60416012
:1005C00000220168296005602046894900F0A2F9EF
:1005D0000446D4F80080B8F1000F0CD06068B0F980
:1005E00000001FFA8AF101F007FED8F80080824669
:1005F000B8F1000FF2D11FFA8AF001B0BDE8F08F18
:100600002DE9F0471423B0FBF3F0A0F1020A0846ED
:10061000002601EBCA030660436000275F800831B3
:10062000744F1F801E1D01F1080703EB8A099F42CA
:100630003CBF371D4F450DD20F4600243C6007607C
:100640007E6008317F684FF0FF343C80361D47F6EE
:10065000FF747C804FF0000EBAF1000F00F0A5800F
:100660001AF0030C47F6FF7700F021808EEA0204AF
:1006700004F00F050EF0070444EAC50444EA042818
:1006800001F108049C423CBF341D4C450AD20C4683
:10069000056825600460666008316468361DA4F84A
:1006A000008067800EF1010EBCF1010CDED15FEA23
:1006B0009A0C7AD08EEA020404F00F050EF00704BB
:1006C00044EAC50444EA042801F108049C423CBF02
:1006D000341D4C450AD20C460568256004606660EE
:1006E00008316468361DA4F8008067800EF1010EA1
:1006F0008EEA020404F00F050EF0070444EAC50474
:1007000044EA042801F108049C423CBF341D4C45D6
:100710000AD20C460568256004606660083164688A
:10072000361DA4F8008067800EF1010E8EEA0204E7
:1007300004F00F050EF0070444EAC50444EA042857
:1007400001F108049C423CBF341D4C450AD20C46C2
:10075000056825600460666008316468361DA4F889
:10076000008067800EF1010E8EEA020404F00F058E
:100770000EF0070444EAC50444EA042801F1080421
:100780009C423CBF341D4C450AD20C46056825608E
:100790000460666008316468361DA4F800806780D4
:1007A0000EF1010EBCF1010C84D103684FF0050974
:1007B0000121BAFBF9F90BE082EA0104314601F0AC
:1007C000070644EA06245B68A404A40C5C803B464C
:1007D0001F6837B14E1C4945EED25B6859803146DF
:1007E000F5E7BDE8F0470022014993E079020008EF
:1007F0007B0300088080FFFFF0B41C461368049E52
:1008000003F10805B5423FBF25682E1D059FBE4276
:1008100028BF00200FD203F10806166002681A6094
:1008200003605D602068001D206058680A880280AF
:10083000498841801846F0BC7047016842684B689F
:1008400043604A600A6802600020086008467047FA
:1008500042684B6843604A600A68026008607047FB
:10086000B1F90220002A21D400281EBF4168B1F945
:10087000021091421CBF0068002833D04168B1F9D2
:10088000021091421CBF006800282BD04168B1F9CA
:10089000021091421CBF006800281EBF4168B1F9D8
:1008A000021091421ED00068DEE70068D0B14368B4
:1008B000B1F900201B7893421CBF0068002811D0BA
:1008C00043681B7893421CBF006800280AD0436825
:1008D0001B7893421CBF006800281EBF43681B782A
:1008E0009342E2D17047002188B10268016001465D
:1008F0006AB11368116011464BB11868196000287D
:10090000194604D00268016001461000EDD1084686
:10091000704700002DE9F54F81B088464FF001097E
:1009200002E000BF4FEA4909019E00200190834682
:1009300082467EB30AF1010A35460024002000E019
:10094000401C484503DA2D68641C002DF8D14F4641
:1009500000E08346012C02DA012F19DBC5B16CB12E
:10096000002F18BF002D05D0029A69687068C04733
:10097000012803DA30463668641E02E028462D68F6
:100980007F1EBBF1000F14BFCBF800000190E0E721
:100990002E00CFD10020CBF80000BAF1020FC1DA4F
:1009A000019803B0BDE8F08F2DE9F44FD0F808A00E
:1009B0004668C7680468DFF8E008884640EA08002F
:1009C0000FFA80F9002C4DD004FB04F002001CD07B
:1009D000314610F0030306D0B1F800C0C44421F83A
:1009E00002CB5B1EF8D182080FD0521E0B88434405
:1009F0000B804B8843444B808B8843448B80CB884F
:100A00004344CB800831002AEFD158B332463B46ED
:100A100010F0030C00F00980BCF1010C32F902EB7C
:100A20001EFB08FE43F804EBF6D1800800F01A80A4
:100A300032F902CB1CFB08FC43F804CB401E32F910
:100A400002CB1CFB08FC43F804CB32F902CB1CFBA5
:100A500008FC43F804CB32F902CB1CFB08FC43F83A
:100A600004CBE5D1002200231046002C1CBF04FB60
:100A700004FCBCF1000F49D039461CF0030E10D025
:100A80000D68AA18914502DA0A30002202E0AB4252
:100A9000B8BF401CAEF1010E091D2B46BEF1000F80
:100AA000EED15FEA9C0C31D0D1F800E00EEB0205EC
:100AB000A94502DA0A30002502E07345B8BF401CA0
:100AC0004A685319994502DA0A30002302E0964534
:100AD000B8BF401CD1F808E00EEB0305A94502DAC7
:100AE0000A30002502E07245B8BF401CCB685A1995
:100AF000914502DA0A30002202E09E45B8BF401C50
:100B0000ACF1010C1031BCF1000FCDD1002100B2CD
:100B100001F072FB0146002C3BD000203A462346F0
:100B20004FF0000E4FEA0E0C0CEB00053AF91CB02A
:100B300036F915500CF1010C15FB0BEEA44523D230
:100B40000CEB00053AF91CB036F915500CF1010C0C
:100B500015FB0BEEA44517D20CEB00053AF91CB0BF
:100B600036F915500CF1010C15FB0BEEA4450BD218
:100B70000CEB00053AF91CB036F915500CF1010CDC
:100B800015FB0BEEA445CFD3201842F804EB5B1EF7
:100B9000C6D100204FF0000C0246002C1CBF04FB05
:100BA00004FEBEF1000F49D03B461EF0030510D0F5
:100BB000D3F800B0DC44E14503DA0A324FF0000C10
:100BC00002E05845B8BF521C6D1E1B1D5846002D33
:100BD000EED15FEA9E0E31D01D68AC44E14503DAE8
:100BE0000A324FF0000C02E0A842B8BF521C58680D
:100BF0008444E14503DA0A324FF0000C02E08542FA
:100C0000B8BF521C9D68AC44E14503DA0A324FF08C
:100C1000000C02E0A842B8BF521CD8688444E145E9
:100C200003DA0A324FF0000C02E08542B8BF521CD2
:100C3000AEF1010E1033BEF1000FCDD110B201F0B4
:100C4000DBFA0546534632463946204600F098FC0A
:100C5000002300200246002C1CBF04FB04FCBCF156
:100C6000000F49D039461CF0030E11D0D1F800B066
:100C70005B44994502DA0A32002302E05845B8BFC6
:100C8000521CAEF1010E091D5846BEF1000FEDD108
:100C90005FEA9C0C00F03080D1F800E07344994585
:100CA00002DA0A32002302E07045B8BF521C4868DD
:100CB000C318994502DA0A32002302E08645B8BF1C
:100CC000521CD1F808E07344994502DA0A32002335
:100CD00002E07045B8BF521CC868C318994502DAD3
:100CE0000A32002302E08645B8BF521CACF1010C69
:100CF0001031BCF1000FCFD1294610B201F07CFABF
:100D00000546534632463946204600F0F3FC0021A2
:100D100000220846002C1CBF04FB04F3002B45D026
:100D200013F0030A00F01280D7F800C0614489452F
:100D300002DA0A30002102E06245B8BF401CAAF185
:100D4000010A3F1D6246BAF1000FEDD19B082DD07C
:100D5000D7F800A05144894502DA0A30002102E0A8
:100D60005245B8BF401C7A685118894502DA0A30EA
:100D7000002102E09245B8BF401CD7F808A05144BA
:100D8000894502DA0A30002102E05245B8BF401C12
:100D9000FA685118894502DA0A30002102E09245CA
:100DA000B8BF401C5B1E1037002BD1D1294600B2C2
:100DB00001F022FAC8F10001002C1CBF04FB04F270
:100DC000002A1CD012F0030300F00780B6F8008060
:100DD000884426F8028B5B1EF8D192080FD0338826
:100DE000CB183380521E7388CB187380B388CB180E
:100DF000B380F388CB18F3800836002AEFD1BDF812
:100E0000001001B0BDE8F04F00B201F0F5B90000EC
:100E10002DE9FA4F81B00400BDF93080DFF8780485
:100E200040EA08001546ADF800004BD004FB04F181
:100E3000D9B1284611F0030205D00388434420F8B5
:100E4000023B521EF9D189080FD0491E0288424444
:100E50000280428842444280828842448280C28822
:100E60004244C28008300029EFD104FB04F34BB3A5
:100E7000019A294613F0030707D07F1E31F902CBF0
:100E80001CFB08FC42F804CBF7D19B0800F01A8049
:100E900031F9027B17FB08F742F8047B5B1E31F93E
:100EA000027B17FB08F742F8047B31F9027B17FB42
:100EB00008F742F8047B31F9027B17FB08F742F888
:100EC000047BE5D100234FF0000C1846002C1CBF1A
:100ED00004FB04F7002F49D0019ABDF9001017F068
:100EE000030E11D01668B444614503DA0A304FF09E
:100EF000000C02E0B342B8BF401CAEF1010E121D5F
:100F00003346BEF1000FEDD1BF082FD01668B444B0
:100F1000614503DA0A304FF0000C02E0B342B8BF7B
:100F2000401C53689C44614503DA0A304FF0000CC2
:100F300002E09E42B8BF401C9668B444614503DAA3
:100F40000A304FF0000C02E0B342B8BF401CD36837
:100F50009C44614503DA0A304FF0000C02E09E42E7
:100F6000B8BF401C7F1E1032002FCFD1002100B22D
:100F700001F042F9ADF80200002C47D00020019AA0
:100F8000294623460027064601E000270026DDF813
:100F900008E08C4614F0030900F00A803CF902AB2B
:100FA0003EF902BB761C1AFB0B77B9F10109F5D1AA
:100FB0005FEA940C00F02380DDF8089006EB000E49
:100FC00005EB4E0E09EB46063EF9029B36F902ABE5
:100FD00019FB0A773EF9029B36F902AB19FB0A7737
:100FE0003EF9029B36F902AB19FB0A773EF9029BE8
:100FF00036F902AB19FB0A77BCF1010CE4D12018D9
:1010000042F8047B01EB44015B1EBED100234FF08C
:10101000000C1846002C1CBF04FB04F7002F49D01D
:10102000019ABDF9001017F0030E11D01668B444F0
:10103000614503DA0A304FF0000C02E0B342B8BF5A
:10104000401CAEF1010E121D3346BEF1000FEDD172
:10105000BF082FD01668B444614503DA0A304FF058
:10106000000C02E0B342B8BF401C53689C44614589
:1010700003DA0A304FF0000C02E09E42B8BF401C79
:101080009668B444614503DA0A304FF0000C02E080
:10109000B342B8BF401CD3689C44614503DA0A30B0
:1010A0004FF0000C02E09E42B8BF401C7F1E103281
:1010B000002FCFD1BDF8021000B201F09DF8074615
:1010C000029B01992A46204600F05AFA00224FF06E
:1010D000000E1046002C1CBF04FB04FCBCF1000FEA
:1010E0004CD0019BBDF900101CF0030600F01180EC
:1010F000D3F80090CE44714503DA0A304FF0000E69
:1011000002E04A45B8BF401C761E1B1D4A46002E11
:10111000EED15FEA9C0C31D01E68B644714503DA0B
:101120000A304FF0000E02E0B242B8BF401C5A68CD
:101130009644714503DA0A304FF0000E02E0964201
:10114000B8BF401C9E68B644714503DA0A304FF0C0
:10115000000E02E0B242B8BF401CDA689644714506
:1011600003DA0A304FF0000E02E09642B8BF401C8E
:10117000ACF1010C1033BCF1000FCDD1394600B2F7
:1011800001F03AF80746029B01992A46204600F0F2
:10119000B1FA00224FF0000E1046002C1CBF04FBD9
:1011A00004FCBCF1000F4BD0019BBDF900101CF0FA
:1011B000030610D0D3F80090CE44714503DA0A300C
:1011C0004FF0000E02E04A45B8BF401C761E1B1DC2
:1011D0004A46002EEED15FEA9C0C31D01E68B64420
:1011E000714503DA0A304FF0000E02E0B242B8BF98
:1011F000401C5A689644714503DA0A304FF0000EDD
:1012000002E09642B8BF401C9E68B644714503DABE
:101210000A304FF0000E02E0B242B8BF401CDA685C
:101220009644714503DA0A304FF0000E02E0964210
:10123000B8BF401CACF1010C1033BCF1000FCDD194
:10124000394600B200F0D8FFC8F10001002C1CBFE5
:1012500004FB04F2002A1AD012F0030305D02C88F4
:101260000C1925F8024B5B1EF9D192080FD02B8880
:10127000CB182B80521E6B88CB186B80AB88CB1899
:10128000AB80EB88CB18EB800835002AEFD100B299
:1012900003B0BDE8F08F000000F0FFFF2DE9F04340
:1012A0000125002402B90122B8B1641C04FB04F634
:1012B000F60086423FBF641C04FB04F6F60086423B
:1012C0000BD2641C04FB04F6F60086423FBF641C8C
:1012D00004FB04F6F6008642E7D3491E8908601E27
:1012E00089000E1D00FB00F806EB480C002818BF13
:1012F0005FEA080E62D0644631461EF0030716D03E
:101300006A434FEAE23902EB19494FEA2949A2EB55
:10131000094205EB0209A4F8009034F8029BA944A5
:101320005FFA89F96D1C21F8029B7F1EE8D15FEA04
:101330009E0E43D06A43D71302EB17473F14A2EB2C
:101340000747EA1924F8022BAA18D2B221F8022B77
:101350006A1C07FB02F5EF1305EB17473F14A5EBDB
:1013600007455719278034F8027BD719FFB221F8B7
:10137000027B521C5543EF1305EB17473F14A5EBB7
:1013800007455719278034F8027BD719FFB221F897
:10139000027B571C05FB07F2D51302EB15452D14F4
:1013A000A2EB0542BD18258034F8025B7D19EDB231
:1013B00021F8025B7D1CBEF1010EBBD10CEB480194
:1013C000491E89085E608900C3F808C0091DD960FC
:1013D0001860BDE8F083F0B40024002523460028FF
:1013E00041D040433FD010F003060ED00F683C19A7
:1013F000A24202DA0A33002402E0BD42B8BF5B1CFD
:10140000761E091D3D46002EF0D180082BD00E68B7
:101410003419A24202DA0A33002402E0B542B8BF0E
:101420005B1C4D682C19A24202DA0A33002402E048
:10143000AE42B8BF5B1C8E683419A24202DA0A338E
:10144000002402E0B542B8BF5B1CCD682C19A24253
:1014500002DA0A33002402E0AE42B8BF5B1C401E31
:1014600010310028D3D1F0BC18B2704700B97047D2
:1014700030B4404326D010F0030407D0641E32F984
:10148000025B15FB03F541F8045BF7D1800819D026
:1014900032F9024B14FB03F441F8044B401E32F9BD
:1014A000024B14FB03F441F8044B32F9024B14FBDA
:1014B00003F441F8044B32F9024B14FB03F441F8F6
:1014C000044BE5D130BC7047F0B140431CD010F064
:1014D000030307D0B1F800C094445B1E21F802CB8F
:1014E000002BF7D180080FD00B88D3180B80401E3B
:1014F0004B88D3184B808B88D3188B80CB88D3181C
:10150000CB8008310028EFD17047000000B9704748
:101510002DE9F0414FEA00044FF0000C15461E463D
:1015200010F0030700F0088035F902EB36F9028B62
:101530001EFB08CC7F1EF7D1870819D035F902EBC6
:1015400036F9028B1EFB08CC35F902EB36F9028B1B
:101550001EFB08CC35F902EB36F9028B1EFB08CCDA
:1015600035F902EB36F9028B1EFB08CC7F1EE5D164
:1015700041F804CB02EB4002641ECDD1BDE8F081FE
:1015800000B970472DE9FE4F81B00021019B009307
:1015900003460024022856D3039D009E4FF0000806
:1015A000C146AE46944610F003070DD03CF902AB9D
:1015B000BEF900B01AFB0B88BEF902B01AFB0B99FA
:1015C0000EEB400E7F1EF1D1870833D0BCF900A08E
:1015D000BEF900B01AFB0B88BEF902B00EEB400E4C
:1015E0001AFB0B9BBCF902A0BEF900901AFB0988FC
:1015F000BEF902900EEB400E1AFB09BBBCF904A029
:10160000BEF900901AFB0988BEF902900EEB400E5D
:101610001AFB09BBBCF906A0BEF900901AFB0988A9
:10162000BEF902901AFB09B90EEB400E7F1E0CF1B9
:10163000080CCBD1A41C46F8048B2D1D671C46F862
:10164000049B8742AAD3844247D2039D002605EB20
:1016500044074FF00009154610F0030C00F00C8011
:1016600035F902EBB7F90080761C1EFB089907EBF1
:101670004007BCF1010CF3D1850827D0DDF808C084
:1016800016EB01060CEB4606B7F900E036F902CB83
:1016900007EB40071CFB0E9CB7F9008036F902EB04
:1016A00007EB40071EFB08CCB7F9008036F902EBC8
:1016B00007EB40071EFB08CC36F902EBB7F90080B8
:1016C0001EFB08C907EB40076D1EDDD1019E6518A2
:1016D00046F82590641C8442B7D3009C04EB800438
:1016E0004118009402EB40025B1E7FF452AF04B03D
:1016F000BDE8F08F00B970472DE9FE4F82B00021A0
:10170000029B0193009000230228C0F09780049C64
:10171000DDF804504FF00009CC46A646174610F0FD
:1017200003061AD037F902ABBEF90080BEF902B049
:101730001AFB08F81AFB0BFAC8F3830BC8F3461818
:1017400018FB0B99CAF38308CAF3461A761E1AFBD4
:1017500008CC0EEB400E002EE4D1860800F0648029
:10176000B7F90080BEF900A0BEF902B018FB0AFA72
:1017700018FB0BF8CAF3830BCAF3461A1AFB0B9932
:10178000C8F3830AC8F346180EEB400E18FB0ACCC8
:10179000B7F90280BEF900A0BEF902B018FB0AFA40
:1017A00018FB0BF8CAF3830BCAF3461A1AFB0B9902
:1017B000C8F3830AC8F346180EEB400E18FB0ACC98
:1017C000B7F90480BEF900A0BEF902B018FB0AFA0E
:1017D00018FB0BF8CAF3830BCAF3461A1AFB0B99D2
:1017E000C8F3830AC8F346180EEB400E18FB0ACC68
:1017F000B7F90680BEF900A0BEF902B018FB0AFADC
:1018000018FB0BF8CAF3830BCAF3461A1AFB0B99A1
:10181000C8F3830AC8F34618761E083718FB0ACCAB
:101820000EEB400E002E9BD19B1C45F8049B241D03
:101830005E1C45F804CB8642FFF46CAF834262D253
:10184000049C002504EB43064FF0000C144610F0F6
:10185000030710D034F902EBB6F900801EFB08FE36
:10186000CEF38308CEF3461E6D1C1EFB08CC06EBA0
:1018700040067F1EEED184083ED0039F15EB010584
:1018800007EB450535F9027BB6F900E017FB0EF8CA
:10189000C8F38307C8F3461E06EB40061EFB07C7C6
:1018A00035F902CBB6F900E01CFB0EFCCCF3830E3D
:1018B000CCF3461C06EB40061CFB0E7735F902CB39
:1018C000B6F900E01CFB0EFCCCF3830ECCF3461CF7
:1018D00006EB40061CFB0E7735F902CBB6F900E0AB
:1018E0001CFB0EFCCCF3830ECCF3461C1CFB0E7CC5
:1018F00006EB4006641EC5D1029D5C1845F824C065
:101900005B1C83429CD3019B03EB80030193411832
:10191000009B5B1E02EB400200937FF4F4AE05B027
:10192000BDE8F08F2DE9FE4F88B000AC0025009592
:101930006560A560E560256165610B46A561E561AF
:10194000A94619780026AB46A8462F46AA46002984
:1019500000F08B8019780022002900F07D802C296E
:1019600079D0A1F130020A2A67D32B2918BF2D297B
:101970006AD06D1C2E2963D1052215E0A1F1300239
:101980000BF1010B0A2A54D32E2954D105220BE066
:1019900013F8011F00295FD02C295CD02E2941D1DA
:1019A0005FF0050208F1010813F8011F002953D068
:1019B0002C2950D045292DD113F8011F03227F1C5B
:1019C000002949D02C2946D02B291ED113F8011FFC
:1019D0000622761C00293FD02C293CD030390AF150
:1019E000010A0A290FD3012235E000BF13F8011FB5
:1019F000002931D02C292ED030390A29F6D30122E2
:101A000009F1010927E00722F0E72D29DED00122A4
:101A1000761C20E06529CFD030390A29C4D30122B1
:101A20007F1C18E030390A29B2D3012208F10108DD
:101A300011E00422ACE701220DE004226D1CA7E7AF
:101A4000012209F1010906E013F8011F02226D1CB1
:101A500011B12C2992D15B1C54F82210491C44F876
:101A60002210197800297FF475AF089BBDF950202A
:101A70001946401881420DD293F800C0BCF12C0FDA
:101A800005D0BDF824E08EEA0C0C83F800C0D31812
:101A90008342F1D3089B1A78B2F1000F00F0B080B6
:101AA00093F800C00022BCF1000F00F09F80BCF151
:101AB0002C0F00F09A80ACF130020A2AC0F083802B
:101AC000BCF12B0F18BFBCF12D0F00F083806D1CF3
:101AD000BCF12E0F40F07A80052219E0ACF1300203
:101AE0000BF1010B0A2A6AD3BCF12E0F69D1052232
:101AF0000EE000BF13F801CFBCF1000F76D0BCF1AF
:101B00002C0F72D0BCF12E0F50D1052208F1010824
:101B100013F801CFBCF1000F68D0BCF12C0F64D0DA
:101B2000BCF1450F37D113F801CF03227F1CBCF164
:101B3000000F5BD0BCF12C0F57D0BCF12B0F24D180
:101B400013F801CF0622761CBCF1000F4ED0BCF179
:101B50002C0F4AD0ACF130020AF1010A0A2A12D342
:101B6000012242E013F801CFBCF1000F3ED0BCF1DE
:101B70002C0F3AD0ACF1300CBCF10A0FF2D3012299
:101B800009F1010931E00722ECE7BCF12D0FD7D0B4
:101B90000122761C29E0BCF1650FC4D0ACF1300CF9
:101BA000BCF10A0FB4D301227F1C1EE0ACF1300C53
:101BB000BCF10A0F9ED3012208F1010815E00422AE
:101BC00098E7012211E004226D1C93E7012209F13C
:101BD00001090AE013F801CF02226D1CBCF1000FCD
:101BE00004D0BCF12C0F7FF479AF5B1C54F822C0F9
:101BF0000CF1010C44F822C01A78002A7FF450AF8F
:101C0000089BBDF9502081420AD219782C2904D0B2
:101C1000BDF828C08CEA01011970D3188342F4D3AF
:101C20001599009800F01EFA0146284600F01AFAAD
:101C30000146606800F016FA0146484600F012FAC4
:101C40000146A06800F00EFA0146584600F00AFA74
:101C50000146E06800F006FA0146304600F002FA5C
:101C60000146206900F0FEF90146404600F0FAF90D
:101C70000146606900F0F6F90146384600F0F2F9D5
:101C80000146A06900F0EEF90146504600F0EAF97D
:101C90000146E06900F0E6F90146002000F0E2F9B3
:101CA0000BB0BDE8F08F00002DE9F04700230025C0
:101CB0001C46401EDFF8CC9005E000BFC1F3C10414
:101CC00059F824400425EF187F1C87424ED25DB39B
:101CD0009F184FF0000CBE46A04615F0030607D033
:101CE0000CF1010C18F801AB0EF801AB761EF7D120
:101CF000AE0813D018F801AB0EF801AB0CF1040CD0
:101D000018F801AB0EF801AB761E18F801AB0EF80F
:101D100001AB18F801AB0EF801ABEBD14FF02C0E74
:101D20000CF807E06F1CFB18491C01F00707072F90
:101D3000C9D8DFE807F004040406060D0D14BDE75A
:101D4000C1E7C1F3C10409EB840408252469BAE79B
:101D5000C1F3C10409EB84040825246AB3E7C1F385
:101D6000C10409EB84040825246BACE7401C8342C2
:101D700006D2991800225B1C01F8012B8342FAD38A
:101D8000BDE8F0879000002030B403681C78002282
:101D90007CB12C2C4BD10BE013F8014F4CB12C2C07
:101DA00006D0303C0A2CF7D34C68641C01224C60EE
:101DB0005B1C0360104630BC704700BF13F8014F36
:101DC000002CF6D02C2CF3D0452C18BF652C6BD1F1
:101DD0004C69641C4C61032213F8014F002CE8D0BD
:101DE0002C2CE5D02B2C18BF2D2C65D1CC68641C75
:101DF000CC60062213F8014F002CDAD02C2CD7D05F
:101E00008A69551CA4F130020A2A5AD301228D6135
:101E1000CEE700BF13F8014F002CCAD02C2CC7D03E
:101E20002E2C39D105220C69641C0C61C6E7A4F183
:101E300030020A2A04D20C68641C04220C60E9E710
:101E40002B2C18BF2D2C14D102220C68641C0C60A2
:101E500013F8014F002CACD02C2CA9D08A68551C4B
:101E6000A4F130020A2A11D32E2C12D105228D6042
:101E7000A4E70A68551C2E2C02D105220D609DE7AF
:101E800001224C68641C4C600D6091E704228D6057
:101E9000C0E701228D608BE7303C0A2CBAD30122C7
:101EA0000C69641C0C6183E7303C0A2C86D3012248
:101EB0004C69641C4C617BE70122CC68641CCC60DB
:101EC00076E707228D6167E7401E042813D8DFE814
:101ED00000F00306090C0F00084800687047084826
:101EE00000687047074800687047074800687047F7
:101EF0000648006870470020704700006800002016
:101F00006C00002070000020740000207800002089
:101F100081EA00024B084AF20101D20748BF4B4058
:101F200083EA50025B08D20748BF4B4083EA900225
:101F30005B08D20748BF4B4083EAD0025B08D20758
:101F400048BF4B4083EA10125B08D20748BF4B40A2
:101F500083EA50125B08D20748BF4B4083EA9012D5
:101F60004FEAD01C5B08D00748BF4B40580883EAB3
:101F70000C02D20748BF4840704781EA00030206BE
:101F80004FEA510C4AF20101DB0748BF81EA0C0C11
:101F90008CEA52634FEA5C0CDB0748BF81EA0C0C09
:101FA0008CEA92634FEA5C0CDB0748BF81EA0C0CB9
:101FB0008CEAD2634FEA5C0CDB0748BF81EA0C0C69
:101FC0008CEA12734FEA5C0CDB0748BF81EA0C0C09
:101FD0008CEA52734FEA5C0CDB0748BF81EA0C0CB9
:101FE0008CEA92734FEA5C0CDB0748BF81EA0C0C69
:101FF0008CEAD2724FEA5C03D20748BF4B4083EAB7
:1020000010225B08D20748BF4B4083EA50225B088E
:10201000D20748BF4B4083EA90225B08D20748BFF3
:102020004B4083EAD0225B08D20748BF4B4083EA8B
:1020300010325B08D20748BF4B4083EA50325B083E
:10204000D20748BF4B4083EA90324FEAD03C5B084E
:10205000D00748BF4B40580883EA0C02D20748BF5C
:102060004840704730B481EA000403064D084AF244
:102070000101E40748BF4D4085EA53646D08E40759
:1020800048BF4D4085EA93646D08E40748BF4D4062
:1020900085EAD3646D08E40748BF4D4085EA1374B0
:1020A0006D08E40748BF4D4085EA53746D08E407A6
:1020B00048BF4D4085EA93746D08E40748BF4D4022
:1020C0006C0885EAD373DB0748BF4C40020484EAFE
:1020D00012636408DB0748BF4C4084EA526364081B
:1020E000DB0748BF4C4084EA92636408DB0748BFC3
:1020F0004C4084EAD2636408DB0748BF4C4084EA62
:1021000012736408DB0748BF4C4084EA52736408CA
:10211000DB0748BF4C4084EA92736408DB0748BF82
:102120004C40630884EAD272D20748BF4B40000C8F
:1021300083EA000402065B08E40748BF4B4083EAD9
:1021400052645B08E40748BF4B4083EA92645B0833
:10215000E40748BF4B4083EAD2645B08E40748BF0A
:102160004B4083EA12745B08E40748BF4B4083EAA4
:1021700052745B08E40748BF4B4083EA92745B08E3
:10218000E40748BF4B405C0883EAD272D20748BFDD
:102190004C4084EA10226308D20748BF4B4083EAD0
:1021A00050225B08D20748BF4B4083EA90225B086D
:1021B000D20748BF4B4083EAD0225B08D20748BF12
:1021C0004B4083EA10325B08D20748BF4B4083EA9A
:1021D00050325B08D20748BF4B4083EA9032C40BB1
:1021E0005B08D00748BF4B40580883EA0402D20777
:1021F00048BF484030BC704781EA000302064FEAFE
:10220000510C4AF20101DB0748BF81EA0C0C8CEA51
:1022100052634FEA5C0CDB0748BF81EA0C0C8CEA86
:1022200092634FEA5C0CDB0748BF81EA0C0C8CEA36
:10223000D2634FEA5C0CDB0748BF81EA0C0C8CEAE6
:1022400012734FEA5C0CDB0748BF81EA0C0C8CEA86
:1022500052734FEA5C0CDB0748BF81EA0C0C8CEA36
:1022600092734FEA5C0CDB0748BF81EA0C0C8CEAE6
:10227000D2724FEA5C03D20748BF4B40000483EAA6
:1022800010625B08D20748BF4B4083EA50625B088C
:10229000D20748BF4B4083EA90625B08D20748BF31
:1022A0004B4083EAD0625B08D20748BF4B4083EAC9
:1022B00010725B08D20748BF4B4083EA50725B083C
:1022C000D20748BF4B4083EA90724FEAD07C5B084C
:1022D000D00748BF4B40580883EA0C02D20748BFDA
:1022E000484070472DE9F05F0546002092469B4626
:1022F00088460646814640241BE02846414647461C
:10230000224600F042F953465A46C01A914110D372
:1023100011461846224600F029F92D1A67EB0108EC
:102320004F4622460120002100F020F917EB00095A
:102330004E41201EA4F10104DFDC484631462A4606
:102340004346BDE8F09FD2B201E000F8012B491EE0
:10235000FBD270470022F6E710B513460A46044642
:102360001946FFF7F0FF204610BD10B5002200E02F
:10237000521C835C8C5CA34201D1002BF8D1D8B2F3
:10238000E1B2401A10BD2DE9F04D81EA030404F0DA
:10239000004B21F0004514464FF0000A23F00041A5
:1023A00050EA050220D054EA01021DD0C5F30A57B5
:1023B0000246C5F31303C1F31300C1F30A5640F4F8
:1023C000801543F48013A7EB0608101BD64608F2CD
:1023D000FD3873EB050002D308F1010801E0921803
:1023E0005B41B8F1000F03DA00200146BDE8F08D33
:1023F00000204FF48011064684460EE0171B73EB55
:10240000050705D3121B63EB050306434CEA010CD9
:1024100049084FEA300092185B4150EA0107EDD1BC
:1024200052EA030012D082EA040083EA050108435D
:1024300005D0101BAB4106D20122002306E000228A
:102440004FF0004302E06FF0010253101AEB060058
:102450004CEB085110EB0A0041EB0B01BDE8F04DCD
:1024600000F0DAB80EB540F2334102910021CDE917
:1024700000110A460B4600F0DEF803B000BDC1F3C0
:102480000A5210B5C1F3130140F2FF3341F4801139
:102490009A4201DA002010BD40F233439A42A2F280
:1024A000334203DC524200F070F810BD904010BD82
:1024B00000F0004230F000400AD0C10D01F560711B
:1024C000C0F3160042EA0151C208400711437047A9
:1024D000002001467047000030B5041E71F1000471
:1024E00004DB4FF00044404264EB0101141E73F121
:1024F000000405DB1C464FF00043524263EB04032B
:102500008B4208BF824230BD01F0004330B421F05D
:10251000004150EA010206D00A0DA2F56072C1F333
:102520001301002A02DC30BC00207047440F44EA4B
:10253000C104C100E01830BC00EBC25000F035B857
:1025400030B50B46014600202022012409E021FA83
:1025500002F59D4205D303FA02F5491B04FA02F580
:102560002844151EA2F10102F1DC30BD202A04DB53
:10257000203A00FA02F1002070479140C2F1200396
:1025800020FA03F3194390407047202A04DB203AD5
:1025900021FA02F00021704721FA02F3D040C2F183
:1025A000200291400843194670470029A8BF704790
:1025B000401C490008BF20F00100704710B4B0FA79
:1025C00080FC00FA0CF050EA010404BF10BC704714
:1025D00049B1CCF1200421FA04F411FA0CF118BF2E
:1025E000012121430843A3EB0C01CB1D4FEA0061FD
:1025F0004FEA102042BF002010BC704700EBC350D0
:1026000010440029A4BF10BC7047401C490008BFFB
:1026100020F0010010BC704710B5141E73F10004C7
:1026200008DA401C41F1000192185B411A4301D1C4
:1026300020F0010010BD2DE9F04D92469B4611B1EE
:10264000B1FA81F202E0B0FA80F220329046FFF750
:102650008DFF04460F4640EA0A0041EA0B0153464B
:102660005A46084313D0114653EA010019D0C8F165
:1026700040025046FFF789FF05460E465046594630
:102680004246FFF773FF084305D0012004E02046CF
:102690003946BDE8F08D0020054346EAE0762C433C
:1026A00037430A986305E40AA0EB08000022FD0AFC
:1026B00044EA47540A3002D500200146E9E7010503
:1026C00010196941DDE9084500196941BDE8F04D7F
:1026D000A2E72DE9FE4F804681EA0300C00F0C46B9
:1026E000009021F0004123F00045B8EB0200A94121
:1026F00005D24046214690461C460B46024623F032
:102700000040104347D0270DC7F30A00C3F30A5116
:102710000290401A019040286BDAC3F3130040F492
:10272000801B0098924620B10023D2EB030A63EB92
:102730000B0B01985946C0F140025046FFF716FFB7
:1027400006460D4650465946019A00F01DF910EB19
:1027500008006141002487EA115284EAE7731A43B2
:1027600040D0009A62B3019A012A4FEA075215DC61
:10277000001B61EB02014FF0004202EA0752CDE973
:102780000042001C41F5801132462B46FFF753FFF3
:1027900003B0BDE8F08F40462146F9E7001B61EB2E
:1027A0000201001C41F5801300185B412018A2F5BE
:1027B000001747EB030140EAD570B6196D4111E0EF
:1027C0006D084FEA360645EAC0754FEA0752001B0E
:1027D00061EB0201001C41F5801149084FEA30000D
:1027E0000019514132462B4603B0BDE8F04FFFF7C8
:1027F00013BF0098012240000023D0EB020263EBDC
:10280000E073009821464FEAE074B8EB000061EBFA
:102810000401E9E783F000435BE781F0004158E7FA
:102820002DE9FE4F81EA030404F0004421F0004149
:1028300000944FF0000B23F0004350EA01045ED0F7
:1028400052EA03045BD0C3F30A54C1F30A552C4483
:10285000A4F2F3340194A0FB0254C1F3130141F438
:102860008011C3F3130343F4801301FB024400FB04
:10287000034E840A970A44EA815447EA8357A4FB2B
:10288000076802958D0A05FB07854FEA932C04FB28
:102890000C542705029D4FEA065847EA1637B5EB58
:1028A00008056EEB070C870E920E47EA811742EA85
:1028B0008312A7FB0201B6EB0B0164EB00042B0DA6
:1028C00043EA0C335E1844EB1C50DA465146E7FBF2
:1028D0000201C5F313044FEA0B3343EA14534FEAE2
:1028E0000432019C43EA0603A4F10C040294009C08
:1028F000CDE900B4FFF79FFE03B0BDE8F08F0020E4
:102900000146F9E7C1F30A52C1F3130140F2FF3364
:1029100041F480119A4202DA00200146704740F2E9
:1029200033439A42A2F2334202DC5242FFF72DBEF9
:10293000FFF71CBE30B5041E71F1000404DB4FF03C
:102940000044404264EB0101141E73F1000405DBF6
:102950001C464FF00043524263EB0403994208BF08
:10296000904230BD064C074D06E0E06840F00103A0
:1029700094E8070098471034AC42F6D3FDF722FCE8
:10298000D47E0008F47E0008202A06DBCB17203A0C
:1029900041FA02F043EAE07306E041FA02F3D04064
:1029A000C2F1200291400843194670470A684B68FB
:1029B000A3EB0204C3FB0454C5FB036406EB05044C
:1029C000046000BF00BF00BF00BF00BF00BF00BF6A
:1029D00000BF00BF00BF00BF00BF8A68CB68A3EB89
:1029E0000204C3FB0454C5FB036406EB0504446006
:1029F00000BF00BF00BF00BF00BF00BF00BF00BFDF
:102A000000BF00BF00BF00BF0A684B68A3EB020411
:102A1000C3FB0454C5FB036406EB0504046000BF5C
:102A200000BF00BF00BF00BF00BF00BF00BF00BFAE
:102A300000BF00BF00BF8A68CB68A3EB0204C3FBE2
:102A40000454C5FB036406EB0504446000BF00BFEB
:102A500000BF00BF00BF00BF00BF00BF00BF00BF7E
:102A600000BF00BFA2E7000000BF00BF00BF00BF63
:102A700000BF00BF0A684B68A3EB0204C3FB045409
:102A8000C5FB036406EB0504046000BF00BF09E05A
:102A900000BF00BF00BF00BF00BF00BF00BF00BF3E
:102AA00000BF00BF8A68CB68A3EB0204C3FB0454D9
:102AB000C5FB036406EB0504446000BF00BF00BF14
:102AC00000BF00BF00BF00BF00BF00BF00BF00BF0E
:102AD00000BF0A684B68A3EB0204C3FB0454C5FBA8
:102AE000036406EB0504046000BF00BF00BF00BF25
:102AF00000BF00BF00BF00BF00BF00BF00BF00BFDE
:102B00008A68CB68A3EB0204C3FB0454C5FB0364CF
:102B100006EB0504446000BF00BF00BF00BF00BF5C
:102B200000BF00BF00BF00BF00BF00BF00BF9BE7EA
:102B300070B50400154886B0C16C1FD041F0020189
:102B4000C164C06C00F00200114E0590114D36F8C2
:102B500014000090012001900020029002200390B8
:102B600055F82400694600F07FFA36F8141055F83D
:102B70002400002200F059FB06B070BD41F00401B2
:102B8000C164C06C00F00400DEE7000000100240E9
:102B9000387D0008840000200449054A31F81010EF
:102BA00052F82000002200F040BB0000387D0008F1
:102BB000840000200449054A31F8101052F8200022
:102BC000012200F032BB0000387D000884000020A4
:102BD00030B51C4C87B0A06D40F08050A065A06D52
:102BE00000F08050059000F0E5FCE06C40F0400003
:102BF000E064E06C144D00F040004FF40054059088
:102C000000222146284600F010FB012000F01EFAA9
:102C10000022A110284600F008FB002101200094AA
:102C20000391CDE901016946284600F01DFA4FF4F1
:102C3000205000906946284600F016FA07B00020A0
:102C400030BD00000010024000180048F8B5184CD4
:102C500006460D46A06D40F08050A065A06D00F0C6
:102C60008050009000F0A6FCE06C40F04000E06472
:102C7000E06C012200F040000E4FD402009021468B
:102C8000384600F0D2FA2146062000F023FC00F07E
:102C900081FC16B1304600F0D9F92DB14FF48051C6
:102CA000384600F0BDFA08B10020F8BD0120F8BD9B
:102CB000001002400018004870B5234C86B0A06D8B
:102CC00040F08050A065A06D00F08050059000F0AD
:102CD00071FCE06C40F04000E064E06C00F040000B
:102CE00005901A48006D1A4E000505D50122D10243
:102CF000304600F09AFA0FE04FF4005421460620C7
:102D000000F090FB00F046FC2146002000F0E2FBC2
:102D10000821012000F0DEFB012500242803CDE975
:102D20000004CDE902546946304600F09DF94FF4A5
:102D30002050CDE90005039469460294304600F026
:102D400093F906B0002070BD0010024000700040F2
:102D500000180048F8B5154C06460D46A06D40F029
:102D60008050A065A06D00F08050009000F022FC23
:102D7000E06C40F04000E064E06C00F04000009047
:102D800016B1304600F062F9094C2DB14FF4805174
:102D9000204600F045FA30B101225103204600F0F0
:102DA00044FA0020F8BD0120F8BD000000100240E8
:102DB00000180048FEE770470120FFF7B9FE4FF406
:102DC00096744FF42F754FF448760120FFF7F2FE0A
:102DD000204600F03BF90120FFF7DEFE204600F020
:102DE00035F90120FFF7E6FE204600F02FF901201B
:102DF000FFF7D2FE204600F029F90120FFF7DAFEA6
:102E0000204600F023F90120FFF7C6FE204600F01F
:102E10001DF90120FFF7CEFE284600F017F901202A
:102E2000FFF7BAFE284600F011F90120FFF7C2FEB5
:102E3000284600F00BF90120FFF7AEFE284600F00F
:102E400005F90120FFF7B6FE284600F0FFF8012043
:102E5000FFF7A2FE284600F0F9F80120FFF7AAFECE
:102E6000204600F0F3F80120FFF796FE204600F020
:102E7000EDF80120FFF79EFE204600F0E7F8012064
:102E8000FFF78AFE204600F0E1F80120FFF792FEEE
:102E9000204600F0DBF80120FFF77EFE304600F010
:102EA000D5F892E710B5464C86B0E06C40F00100D2
:102EB000E064E06C00F001000590E06C40F002007E
:102EC000E064E06C00F002000590E06C40F004006B
:102ED000E064E06C00F004000590E06C40F0080055
:102EE000E064E06C00F008000590E06C40F0100039
:102EF000E064E06C00F010000590E06C40F0200011
:102F0000E064E06C00F020000590E06C40F04000D0
:102F1000E064E06C00F040000590E06C40F0800060
:102F2000E064E06C694600F08000059003200190A9
:102F30000390002002904FF6FF7000904FF09040F9
:102F400000F092F869461F4800F08EF869461E4866
:102F500000F08AF869461D4800F086F869461C486A
:102F600000F082F869461B4800F07EF869461A486E
:102F700000F07AF86946194800F076F8E06C20F025
:102F80000100E064E06C20F00200E064E06C20F0FE
:102F90000400E064E06C20F00800E064E06C20F0E5
:102FA0001000E064E06C20F02000E064E06C20F0B1
:102FB0004000E064E06C20F08000E06406B010BDEA
:102FC000001002400004004800080048000C0048BF
:102FD000001000480014004800180048001C004879
:102FE00010B590F825100024022903D00421C163F4
:102FF000012429E001680A6822F00E020A600168D3
:103000000A6822F001020A60816C0A6822F4807268
:103010000A6090F84410036C012202FA01F1596031
:10302000D0E913134B60416D31B10B6823F4807309
:103030000B60D0E916134B6080F82520002180F842
:103040002410816B01B18847204610BD70B504463D
:1030500000F0F0F80546601C00D0641C00F0EAF8AF
:10306000401BA042FAD370BD2DE9F84FDFF888B1BC
:1030700000234FF0010C4FF0030A4FF00F090BF142
:10308000040EB1E00CFA03F632406FD04C68022C0B
:1030900001D0122C11D1DC0800EB84073C6A5D07DB
:1030A000ED0E09FA05F824EA0804D1F8108008FAB0
:1030B00005F848EA0408C7F8208007685D0091F821
:1030C00004800AFA05F408F00308A74308FA05F893
:1030D00048EA0708C0F800804F68012F05D0022F8A
:1030E00003D0112F01D0122F10D1D0F80880CF6853
:1030F00028EA0408AF4047EA080787604768B743F3
:103100000E79C6F300169E403E434660C668A6434D
:103110008C68AC403443C4604C68E40063D5374CE1
:10312000256E45F001052566246E23F0030504F0A5
:1031300001040094324C2F19BD689C07260F09FA30
:1031400006F4A543B0F1904F04D02E4CA04203D119
:10315000012421E000241FE02B4CA04201D10224D5
:103160001AE02A4CA04202D1032415E03BE0284C8F
:10317000A04201D104240FE0264CA04201D1052435
:103180000AE0254CA04201D1062405E0234CA042D0
:1031900001D1072400E00824B4402C43BC60DBF8D4
:1031A00000405D464E689443F60300D514432C60FE
:1031B000DEF8004075464E689443B60300D51443CC
:1031C0002C600D4D08352C684E689443F60200D5EE
:1031D00014432C60084D0C352C684E689443B6029D
:1031E00000D514432C605B1C0A6832FA03F47FF4A8
:1031F00049AFBDE8F88F0000000401400010024014
:10320000000001400004004800080048000C00488D
:10321000001000480014004800180048001C004836
:103220000069084000D0012070470AB181617047F1
:10323000816270470148006870470000000000206C
:1032400002480168491C016070470000000000202E
:1032500010B5032000F058F80F2000F005F800F03A
:1032600017F8002010BD000010B5044607484FF4C1
:103270007A710068B0FBF1F001F06AF80022214693
:10328000501E00F021F8002010BD000004000020B6
:103290007047002809DB00F01F020121914040091E
:1032A000800000F1E020C0F880127047002809DBA0
:1032B00000F01F02012191404009800000F1E02050
:1032C000C0F8001170470000F0B40E4B1B680C46AC
:1032D000C3F30223C3F10705042D00D90425191DEA
:1032E000072901D2002300E0DB1E012606FA05F1C2
:1032F000491E214099409E40761E16403143F0BC45
:1033000002F0FEB80CED00E0064900F00702086884
:103310004FF6FF03184040EA0220034A10430860BA
:10332000704700000CED00E00000FA052A492B4B25
:103330000A682B4940B1B0F5007F086829D020F415
:10334000C06040F480602CE00868C0F3412002288F
:1033500004D051F8800F20F4807022E0D1F8800072
:1033600020F48070C1F88000086820F4C06040F448
:1033700000700860B2FBF3F03222504300E0401EC0
:1033800010B14A695205FAD4486940050AD50320AC
:103390007047C0F34120022806D051F8800F40F456
:1033A0008070086000207047D1F8800040F4807081
:1033B000C1F88000086820F4C06040F40070086024
:1033C000B2FBF3F03222504300E0401E0028DBD075
:1033D0004A695205F9D4D7E70400002040420F00A3
:1033E000007000400C49086820F4804008600B48D9
:1033F0000B4A0068B0FBF2F03222504300E0401E5E
:1034000010B14A699205FAD44869800501D50320B4
:10341000704700207047000000700040040000204A
:1034200040420F002A4A09284FD2DFE800F0051079
:103430001920272E353C4400506A21F420431843BC
:103440005062106A21F48041884310623BE0D06AE8
:1034500021F010031843D062906A8843906232E0F2
:10346000506B08435063106B884310632BE0D06BA4
:103470000843D063906B8843906324E0506C08430A
:103480005064106C884310641DE0D06C0843D06415
:10349000906C8843906416E0506D08435065106D41
:1034A000884310650FE0D36D88B20343D365916DF7
:1034B0008143916507E0536EC1F30B0003435366EC
:1034C000116E814311660020704701207047000093
:1034D000007000402A4A09284FD2DFE800F00510AA
:1034E0001920272E353C4400106A21F480431843EC
:1034F0001062506A21F42041884350623BE0906A98
:1035000008439062D06A21F010018843D06232E013
:10351000106B08431063506B884350632BE0906B33
:1035200008439063D06B8843D06324E0106C084359
:103530001064506C884350641DE0906C08439064A4
:10354000D06C8843D06416E0106D08431065506D50
:10355000884350650FE0936D88B203439365D16D46
:103560008143D16507E0136EC1F30B00034313667B
:10357000516E814351660020704701207047000062
:10358000007000400248016841F4804101607047CA
:10359000007000400248816841F48061816070479A
:1035A000007000400248816841F48071816070477A
:1035B000007000400248416841F40071416070476A
:1035C000007000400648016821F00701091D0160F4
:1035D0000448016841F00401016030BF70470000F9
:1035E0000070004010ED00E00B490A6822F007026D
:1035F000521C0A6009490A6842F004020A60012864
:1036000007D040BF20BF20BF086820F0040008603A
:10361000704730BFF8E700000070004010ED00E098
:103620000B490A6822F00702921C0A6009490A68DD
:1036300042F004020A60012807D040BF20BF20BF2B
:10364000086820F004000860704730BFF8E7000009
:103650000070004010ED00E008480168C1F341210E
:10366000022906D0D0F88000C00505D54FF40070BF
:1036700070474FF480607047002070470070004032
:103680000248016841F48071016070470070004099
:1036900010B50C460D49002848690FD0C04380057D
:1036A00001D5FFF76FFF0A48016821F004010160AE
:1036B000012C08D040BF20BF20BF10BD8005F2D52F
:1036C000FFF790FEEFE730BF10BD00000070004034
:1036D00010ED00E00648016821F00701C91C0160F7
:1036E0000448016841F00401016030BF70470000E8
:1036F0000070004010ED00E02DE9F84F044600276F
:1037000000883E46010504F12008FE4D1ED5E06EFE
:1037100040280AD003DC68B1202804D10FE06028DB
:1037200021D080281FD001270FE0E86840F48030C6
:10373000E86018E00021201D01F0A2F803E000215C
:10374000404601F031F907000DD03E462088C00404
:103750002BD5206FB0F5007F16D00DDCC8B1B0F5C9
:10376000807F0FD11AE0D5F89C00E16E20F0E000D8
:103770000843C5F89C00E9E7B0F5407F13D0B0F5E9
:10378000806F10D001270FE0E86840F48030E860D7
:1037900009E00021201D01F073F803E000214046FC
:1037A00001F002F90746F7B13E46206880033AD59A
:1037B000A86D4FF00008C00009D4A86D40F08050FB
:1037C000A865A86D4FF0010800F080500090DFF868
:1037D00038A3DAF8001041F48071CAF80010FFF73E
:1037E00029FD814610E0D5F89C00216F20F4E060AF
:1037F0000843C5F89C00D8E7FFF71CFDA0EB0900C3
:10380000022801D9032705E0DAF80000C005F3D546
:10381000002F7CD04FEA0706B8F1000F03D0A86D47
:1038200020F08050A8652078C00707D0D5F8880020
:10383000E16B20F003000843C5F88800207880077A
:1038400007D5D5F88800216C20F00C000843C5F896
:1038500088002078400707D5D5F88800616C20F0F3
:1038600030000843C5F888002078000707D5D5F850
:103870008800A16C20F0C0000843C5F888002078BB
:10388000C00607D5D5F88800E16C20F440700843E5
:10389000C5F888002078800607D5D5F88800216D06
:1038A00020F440600843C5F888002088800507D5CB
:1038B000D5F88800616E20F440200843C5F88800E0
:1038C0002088400507D5D5F88800A16E20F4401067
:1038D0000843C5F888002078400607D5D5F8880049
:1038E000616D20F440500843C5F888002078000638
:1038F00007D5D5F88800A16D20F440400843C5F8ED
:1039000088002088C00509D5D5F8880000E027E0A8
:10391000E16D20F440300843C5F888002068C002FB
:1039200007D5D5F89C00216E20F003000843C5F8A8
:103930009C0020884FF0006780044FF0806850D5CD
:10394000D5F88800616F20F040600843C5F8880012
:10395000606FB8423DD1E86840F48010E86040E014
:10396000D5F8900010F4407015D0D4F89010814232
:1039700011D0D5F89000D5F8901020F4407041F4A3
:103980008031C5F89010D5F8901021F48031C5F839
:103990009010C5F89000C00711D0FFF74BFC074608
:1039A00041F2883907E000BFFFF744FCC11B4945DD
:1039B00001D9032630E7D5F890008007F4D5D5F873
:1039C0009000D4F8901020F440700843C5F890009F
:1039D00022E7404505D10121201D00F051FF00B133
:1039E0000646206800032DD5A06F4FF48041884221
:1039F000D5F89C0004D140F48040C5F89C000BE051
:103A000020F48040C5F89C00D5F88800A26F20F013
:103A100040601043C5F88800A06FB84203D1E86841
:103A200040F4801004E0884204D1E86840F480301B
:103A3000E86007E0404505D10121201D00F020FF8E
:103A400000B106462068400317D5D5F88800E16F1D
:103A500020F040600843C5F88800E06FB84204D108
:103A6000E86840F48010E86007E0404505D1012196
:103A7000201D00F005FF00B106462088400413D544
:103A8000D5F88800D4F8801020F040500843C5F8DD
:103A90008800D4F88000B0F1805F05D10221201D9C
:103AA00000F0EEFE00B106462068C00308D5D5F848
:103AB0009C00D4F8841020F004000843C5F89C0052
:103AC0002068800208D5D5F89C00D4F8881020F032
:103AD00018000843C5F89C002068C00110D5D5F82F
:103AE0009C0054F88C1F20F440100843C5F89C003B
:103AF0002068B0F5001F03D1E86840F48010E8604A
:103B0000304603E00010024000700040BDE8F88F2E
:103B10002DE9F047DFF8B09105460E46D9F80000D0
:103B20004FF0000800F00F00B0420CD2D9F800109E
:103B300021F00F013143C9F80010D9F8000000F05E
:103B40000F00B04274D12878604CC00776D0686806
:103B50005F4F032826D0022836D00028206836D0B0
:103B60004005002864DA00F00FF9B84207D9A068D0
:103B700020F0F00040F08000A0604FF08008A068C6
:103B8000696820F003000843A060FFF753FB6968F1
:103B9000074641F28830032922D002292ED08246DE
:103BA00099B346E02068800169D500F091FFB842E2
:103BB000E5D92878800702D5A8680028D7D0A06862
:103BC00010F0F00FD3D0DAE720688003C9E7800750
:103BD000C7E700BFFFF72EFBC11B514501D924E009
:103BE0008246A068C0F381000328F3D126E000BF1D
:103BF000FFF720FBC11B514501D916E08246A068A2
:103C0000C0F381000228F3D118E004E0FFF712FBB3
:103C1000C11B514509D8A06810F00C0FF6D10DE07A
:103C2000FFF708FBC11B514503D90320BDE8F0870E
:103C300025E0A068C0F381000128F1D12878800731
:103C400005D5A068A96820F0F000084305E0B8F1A8
:103C5000800F03D1A06820F0F000A060D9F8001018
:103C6000484601F00F01B1420BD9016821F00F0164
:103C700031430160006800F00F00B04201D0012024
:103C8000D4E72878400705D5A068E96820F4E0600B
:103C90000843A0602878000706D5A068296920F4A9
:103CA000605040EAC100A06000F06EF8A168094AC7
:103CB000C1F30311515CC840074908600F20FFF7AA
:103CC000D3FA0020B2E700000020024000100240BA
:103CD00000B4C404EC7C000804000020164801680D
:103CE00041F00101016000E000BF01688907FBD5D8
:103CF000016821F0F00141F0600101600021816064
:103D000002680E4B1A400260C160C26842F48052E1
:103D1000C2600161026942F48052026141614269FC
:103D200042F480524261026822F480220260816182
:103D3000044903480860704700100240FFF4FEEA9F
:103D400000093D0004000020044805490068896816
:103D5000044AC1F30221515CC840704704000020AE
:103D6000001002402C7D000804480549006889685D
:103D7000044AC1F3C221515CC840704704000020CE
:103D8000001002402C7D000830B52D490023184654
:103D90008A682C4C12F00C0F4FEA640514D08A6824
:103DA000C2F38102032A04D1CA6802F00302012A85
:103DB0000AD08A68C2F38102012A19D08A68C2F344
:103DC0008102022A16D016E00A68120704D4D1F83C
:103DD0009420C2F3032202E00A68C2F303121A4BD2
:103DE00053F822308A6812F00C0F04D1184602E012
:103DF000204600E028468A68C2F38102032A1DD1CA
:103E0000C868CA6800F00300C2F30312521C0228FB
:103E100004D0032805D0B3FBF2F004E0B4FBF2F0C9
:103E200001E0B5FBF2F0CA68C968C2F3062250434C
:103E3000C1F34161491C4900B0FBF1F030BD000005
:103E4000001002400024F400FC7C000870B5104C07
:103E500086B01646E06C0D4640F00100E064E06C70
:103E6000694600F001000590A01500900220019025
:103E700003900020029004904FF09040FFF7F4F878
:103E8000A068354320F0FE402843A06006B070BD16
:103E9000001002402DE9F84304460078FE4DC006AC
:103EA0005DD5A86810F00C0F0AD0A069002828681A
:103EB00071D040F001002860FFF7BCF9064654E0DD
:103EC0002868800702D5A06900287DD0216A28686B
:103ED000000703D5286800F0F00004E0D5F894004E
:103EE000F02202EA1010814216D9084600F02AFE9C
:103EF000002869D1286840F0080028602868216AF5
:103F000020F0F000084328606868E16920F47F40F1
:103F100040EA0120686015E0286840F00800286049
:103F20002868216A20F0F000084328606868E16989
:103F300020F47F4040EA01206860206A00F002FE21
:103F40000028D6D1FFF720FFA968D44AC1F3031196
:103F5000515CC840D24908600F20FFF785F929E07D
:103F6000FFF768F9801B02287ED828688007F7D5FC
:103F7000286840F0080028602868216A20F0F000D6
:103F8000084328606868E16920F47F4040EA012026
:103F900068600FE0FFE720F001002860FFF74AF9B2
:103FA000064604E0FFF746F9801B0228DCD82868A3
:103FB0008007F7D42078C0074AD0A868C0F38100F2
:103FC00002281FD0A86800E098E0C0F38100032811
:103FD00003D1E868C043800714D06068B0F5803F23
:103FE00017D0B0F5A02F286817D020F480302860B3
:103FF000286820F4802028606068E0B1FFF71AF993
:10400000064614E02868800322D56068002875D031
:104010001EE0286840F48030EDE740F480202860FE
:10402000F7E700BFFFF706F9801B64289CD82868D3
:104030008003F7D50CE0FFF7FDF8064605E000BF6A
:10404000FFF7F8F8801B64288ED828688003F7D41F
:104050002078800742D5A868C0F38100012816D0D7
:10406000A868C0F3810000E0CEE0032804D1E8682E
:1040700000F0030002280AD0E068002828681DD05C
:1040800040F480702860FFF7D5F806460BE02868FA
:1040900040050BD5E0680028B9D007E0FFF7CAF863
:1040A000801B0228C2D828684005F7D56868217CA3
:1040B00020F0FE4040EA016068600FE020F480706C
:1040C0002860FFF7B7F8064605E000BFFFF7B2F833
:1040D000801B0228AAD828684005F7D4207800075A
:1040E00029D560690028D5F8940013D040F001006C
:1040F000C5F89400FFF79EF8064606E023E100BFEE
:10410000FFF798F8801B02287ED8D5F89400800726
:10411000F6D510E020F00100C5F89400FFF78AF80A
:10412000064604E0FFF786F8801B02286CD8D5F815
:1041300094008007F6D42078400761D5A86D00264A
:10414000C00008D4A86D40F08050A865A86D012675
:1041500000F08050009053480168C90511D40168EF
:10416000804641F480710160FFF764F8074604E07F
:10417000FFF760F8C01B022846D8D8F80000C00539
:10418000F6D5A068012815D00528D5F8900016D0DE
:1041900020F00100C5F89000D5F8900020F0040050
:1041A000C5F89000A06841F28838B8B1FFF742F82E
:1041B00007460EE0D5F8900040F00100F0E740F02F
:1041C0000400C5F89000F5E7FFF734F8C11B41453E
:1041D0001AD8D5F890008007F6D50CE0FFF72AF83A
:1041E000074604E0FFF726F8C11B41450CD8D5F877
:1041F00090008007F6D41EB1A86D20F08050A8650D
:104200002078800629D500E084E0606A0028D5F88F
:10421000980011D040F00100C5F89800FFF70AF8A7
:10422000064604E0FFF706F8801B022872D8D5F88E
:1042300098008007F6D510E020F00100C5F898003E
:10424000FEF7F8FF064604E0FEF7F4FF801B0228A5
:1042500071D8D5F898008007F6D4A06AF0B3A968A1
:10426000C1F3810103296FD00228286820F08070F3
:1042700028601BD02868000106D42868800003D479
:10428000E86820F00300E860E86807490840E86053
:10429000FEF7D0FF044651E000100240EC7C00081D
:1042A0000400002000700040FFFFEEFEFEF7C2FF9A
:1042B000064604E0FEF7BEFF801B02283BD82868B4
:1042C0008001F7D4206B54F82C1F000110380843EC
:1042D000218A1E4A490802EB415100E031E0A26800
:1042E00041EA02210843217D4FF07E42490802EB5A
:1042F00041610843217B40EAC160E860286840F0E2
:1043000080702860E86840F08070E860FEF792FFF7
:10431000044606E00FE000BFFEF78CFF001B0228FA
:1043200009D828688001F7D50BE000BFFEF782FFAF
:10433000001B022802D90320BDE8F8832868800109
:10434000F4D40020F8E7FFE70120F5E70000E0FFE4
:1043500010B5401EB0F1807F01D3012010BD4FF099
:10436000E02460610F21601701F0CAF80020A0610D
:1043700007202061002010BD4FF0E020016921F0EE
:104380000201016170477047704770477047000035
:104390002DE9F04103680446D8691A68996810F05D
:1043A0000F0F4FF0000569D0604E02F490770E4079
:1043B00037437DD0C70709D0D70507D501271F622E
:1043C000D4F8843043F00103C4F8843083070AD55D
:1043D000CB0708D0276802233B62D4F8843043F02F
:1043E0000403C4F8843043070AD5CB0708D02768F4
:1043F00004233B62D4F8843043F00203C4F88430D1
:1044000003070CD502F02003334308D026680823A5
:104410003362D4F8843043F00803C4F88430D4F80D
:104420008430002B3CD0800609D502F0200001F03A
:104430008051084303D0216F09B120468847D4F842
:104440008400000703D42068806840062AD52046EF
:1044500000F05BFD2068816849061ED5816821F067
:1044600040018160E06FC0B131498163E06FFEF7C8
:10447000B7FD002814D0E06F816B0AE0860617D5DF
:1044800002F0200601F080573E4311D0216F29E051
:104490002046BDE8F04108470AE02046FFF776FFD6
:1044A000BDE8F0812046FFF771FFC4F88450F7E7BC
:1044B000C7024FF020060CD54F020AD5F003186250
:1044C00084F8816084F882602046BDE8F041FFF7FF
:1044D0005CBF070609D502F0800701F400010F4315
:1044E00003D0616F0029D3D1DAE741060CD551061C
:1044F0000AD51968204621F04001196084F88160CE
:10450000656700F08FF9CBE7010206D5510004D5AD
:104510002046BDE8F041FFF737BFC001C0D5002AF3
:10452000BEDA2046BDE8F041FFF72DBF01000010C4
:10453000F74E000810B5040003D094F8810010B1C4
:1045400007E0012010BD002084F88000204600F024
:1045500027F8242084F881002068016821F00101F7
:104560000160204600F0E2FD0128EBD0A06A10B106
:10457000204600F02DFC2068416821F49041416004
:104580002068816821F02A0181602068016841F07B
:10459000010101602046BDE8104000F07DBC000034
:1045A00030B52F4A01682F480225012487B0914277
:1045B00022D1C16C41F00101C164C16C01F0010163
:1045C0000591816D41F400318165806D694600F48B
:1045D000003005900C200090CDE901540720CDE972
:1045E00003404FF09040FEF73FFD002201212620BE
:1045F000FEF76AFE26202EE01B4A91422DD1C16CA7
:1046000041F04001C164C16C01F040010591C16DF0
:1046100041F00101C165C16D01F001010591816D9C
:1046200041F080518165806D00F080500590FEF76B
:10463000C1FF4FF4C0700090CDE901540820CDE9CE
:10464000034069460948FEF70FFD0022012146207C
:10465000FEF73AFE4620FEF729FE07B030BD000007
:104660000044004000100240008000400018004854
:1046700070B590F88230202B6BD1B9B1B2B190F8FF
:104680008030012B65D0012380F880308165A0F84F
:104690005C20A0F85E200021016783684FF48056FB
:1046A000FF24B34207D1036913B10CE0012070BDB0
:1046B00040F2FF130DE07F251BB1B3F1805F05D001
:1046C00009E00369B3B9A0F8604004E003698BB165
:1046D0003F23A0F86030C0F88410222380F8823095
:1046E00003689C6844F001049C60836EB3F1005F32
:1046F00003D01CE0A0F86050EDE7B0F862309342C0
:1047000015D88268B24201D1026972B1124A0267B9
:1047100080F8801001680A6842F480720A600068BC
:10472000816841F0805181600FE00C4AEFE78268B8
:10473000B24201D1026952B1094A026780F8801081
:104740000068016841F490710160002070BD054A65
:10475000F3E7022070BD000089500008894F00086F
:104760002D5000082B4F0008014901208870704728
:10477000200000202DE9F843044690F881001F46F0
:1047800016460D4620284BD1C5B1BEB194F8800025
:10479000012845D0012004F8800F4FF00008C4F82C
:1047A000048021206070FEF745FD24F82C6C8146C2
:1047B00024F82A6C4FF48056803C15E00120BDE8B7
:1047C000F8838021204600F04BFED8B9A068B042A3
:1047D00001D12069C0B115F8010B21680885B4F832
:1047E0005600401EA4F85600B4F856004B464FF051
:1047F000000200970028E4D14FF04001204600F06D
:104800002FFE30B10320DAE735F8020BC0F30800C1
:10481000E3E7202084F8810084F880800020CEE740
:104820000220CCE77047FEE70C4810B50A4901604A
:104830004FF41651416000218160C1600C2201617A
:10484000C0E90521C1610162FFF774FE002801D0B3
:10485000FEF7B2FA10BD0000008000400C010020FD
:1048600010B54620FEF715FDBDE810400148FFF7E2
:104870008FBD00000C010020FEE77047704700006C
:104880002DE9F041434C05468846E0680026810743
:10489000286806D0E16801F0030181420FD170B1B0
:1048A0001AE0012804D0022805D0032807D108E027
:1048B0002168890701E021684905002907DB0126F5
:1048C00064E02168890302D421684903F5E7E168BF
:1048D00021F003010143E160206820F08060206046
:1048E000FEF7A8FC074604E0FEF7A4FCC01B022864
:1048F00043D820680001F7D46FF00F00B8F1000F23
:104900001BD0B8F1010F24D0297D4908420502EBE4
:104910004161AA6841EA02216A6800EB0210014382
:1049200020691D4A104001432161206840F08060E9
:104930002060FEF77FFC074621E0A9682A7B090278
:1049400041EAC2616A6800EB021001432069134A20
:10495000E8E7298A124A490802EB4151AA6841EA6C
:1049600002216A6800EB0210014320690D4AD9E771
:10497000FEF760FCC01B022801D9032606E0206870
:104980000001F5D52069A969084320613046BDE8DA
:10499000F0810000001002400F80FFF90F80FF0738
:1049A0000000E0FF0F809FFF2DE9F041434C0546DA
:1049B0008846E06800268107286806D0E16801F093
:1049C000030181420FD170B11AE0012804D00228FE
:1049D00005D0032807D108E02168890701E0216894
:1049E0004905002907DB012664E02168890302D418
:1049F00021684903F5E7E16821F003010143E16023
:104A0000206820F080502060FEF714FC074604E088
:104A1000FEF710FCC01B022843D820688000F7D4A2
:104A20006FF00F00B8F1000F1BD0B8F1010F24D0C8
:104A3000297D4908420502EB4161AA6841EA022149
:104A40006A6800EB0210014360691D4A104001438F
:104A50006161206840F080502060FEF7EBFB074664
:104A600021E0A9682A7B090241EAC2616A6800EB79
:104A7000021001436069134AE8E7298A124A49088B
:104A800002EB4151AA6841EA02216A6800EB021078
:104A9000014360690D4AD9E7FEF7CCFBC01B022831
:104AA00001D9032606E020688000F5D56069A96970
:104AB000084360613046BDE8F0810000001002400C
:104AC0000F80FFF90F80FF070000E0FF0F809FFFBE
:104AD00018480022C16801F0030101290DD10168C5
:104AE000090704D4D0F89410C1F3032102E001684F
:104AF000C1F30311104A52F82120C16801F00303E9
:104B0000C168C1F30311491C022B02D0032B03D14E
:104B100001E00A4A00E00A4AB2FBF1F1C268C0684B
:104B2000C2F306225143C0F34160401C4000B1FB78
:104B3000F0F0704700100240FC7C00080024F400F4
:104B400000127A00F8B51A4D06460024A86DC00080
:104B500002D5FEF781FD0DE0A86D40F08050A865FC
:104B6000A86D00F080500090FEF776FDA96D21F051
:104B70008051A965B0F5007F03D0802E06D30224B2
:104B800007E0802E05D9A02EF9D801E0702E00D1C3
:104B900001240848016821F00F01214301600068E9
:104BA00000F00F00A04201D00120F8BD0020F8BDA8
:104BB000001002400020024000B591B04421684638
:104BC000FDF7C8FB04200090012002906846FFF723
:104BD00061F908B1FEF7F0F8084850F8901F21F08D
:104BE00018010160016821F4407141F48071016095
:104BF000016841F40041016011B000BD00100240A5
:104C00007047FEF71DBB10B596B0142111A8FDF733
:104C1000A1FB44216846FDF79DFB10200090012078
:104C20000024CDE9060490210A9008916846FFF718
:104C300031F958B90F20CDE91104139414940321CC
:104C400011A81594FEF764FF002801D0FEF7B4F810
:104C500016B010BD30B5BBB0142136A8FDF77AFBF5
:104C600044216846FDF776FB1B4D286820F00F00B5
:104C7000C01C2860FFF732F81020009001200024AB
:104C8000CDE9060490210A9008916846FFF702F9E1
:104C900008B1FEF791F80F20CDE936043894399425
:104CA0003A94286800F00F0136A8FEF731FF08B1EA
:104CB000FEF782F820202594119011A8FEF71CFD24
:104CC00008B1FEF779F84FF040524FF00071002024
:104CD000FFF7BCF83BB030BD0020024030B597B0C4
:104CE000142111A8FDF736FB44216846FDF732FB7D
:104CF000102001250090069550200024CDE90740A2
:104D000068460A94FFF7C6F850B9CDE911541394D8
:104D10001494002111A81594FEF7FAFE002801D082
:104D2000FEF74AF817B030BD10B596B0142111A89F
:104D3000FDF710FB44216846FDF70CFB10200090A6
:104D40000120602100240690CDE907410221CDE930
:104D50000A100C9028200D9007200E900420CDE919
:104D60000F016846FFF796F860B90F2011900320F5
:104D7000CDE912041494042111A81594FEF7C8FE7D
:104D8000002801D0FEF718F816B010BD0D480168D4
:104D900041F4700101600C48016841F001010160BB
:104DA000002181600268094B1A4002608214C260CF
:104DB000026822F48022026081610249C0038039C6
:104DC0000860704788ED00E000100240FFFFF6EA3F
:104DD00090F82810C90706D001684A68C36A22F40F
:104DE00000321A434A6090F82810890706D50168F6
:104DF0004A68036B22F480321A434A6090F8281004
:104E0000490706D501684A68436B22F480221A4399
:104E10004A6090F82810090706D501684A68836B34
:104E200022F400421A434A6090F82810C90606D5B9
:104E300001688A68C36B22F480521A438A6090F832
:104E40002810890606D501688A68036C22F400528E
:104E50001A438A6090F82810490611D501684A68FB
:104E6000436C22F480121A434A60416CB1F5801FF2
:104E700006D101684A68836C22F4C0021A434A6072
:104E800090F82810090606D501684A68C06C22F41B
:104E9000002202434A607047F8B500260446C0F875
:104EA0008460FEF7C7F90546206800686FF07E470A
:104EB000000708D52B4600224FF40011204600972A
:104EC00000F0CEFA60B92068006840070AD52B468A
:104ED00000224FF480012046009700F0C1FA08B18B
:104EE0000320F8BD202084F8810084F8820084F833
:104EF00080600020F8BD10B5806A0021A0F85E1027
:104F0000A0F85610FFF742FA10BD01680A6822F4B3
:104F100090720A6001688A6822F001028A6020218A
:104F200080F8821000210167704710B5B0F860204A
:104F300090F882300168222B04D0088B40F00800E2
:104F4000088310BD898C836D11401980816D891C87
:104F50008165B0F85E10491E0904090CA0F85E10C6
:104F6000EFD101680A6822F490720A6001688A68C9
:104F700022F001028A60202180F88210002101675E
:104F8000FFF7F2FB10BD000070B50446B0F860609A
:104F900090F88200222805D02068018B41F008019A
:104FA000018370BD94F8625023E02068808CA16D6D
:104FB00030400880A06D801CA065B4F85E00401EE3
:104FC000A4F85E00B4F85E0088B92068016821F496
:104FD0008071016020688168124A11408160202040
:104FE00084F88200002020672046FFF7BDFB6D1E7D
:104FF000EDB2002DD9D1B4F85E000028D1D0B4F8BC
:105000005E00B4F862108842CBD22068816821F03B
:1050100080518160044820672068016841F02001C8
:10502000016070BDFEFFFFEF2B4F000810B5B0F818
:10503000602090F882300168222B04D0088B40F069
:105040000800088310BD898C1140826D531C836554
:105050001170B0F85E10491E0904090CA0F85E102A
:10506000F0D101680A6822F490720A6001688A68C7
:1050700022F001028A60202180F88210002101675D
:10508000FFF772FB10BD000070B50446B0F8606019
:1050900090F88200222805D02068018B41F0080199
:1050A000018370BD94F8625022E02068818CA06D6D
:1050B0003140421CA2650170B4F85E00401EA4F8A5
:1050C0005E00B4F85E0088B92068016821F4807140
:1050D000016020688168134A11408160202084F8B3
:1050E0008200002020672046FFF73EFB6D1EEDB2D8
:1050F000002DDAD1B4F85E000028D2D0B4F85E00FA
:10510000B4F862108842CCD22068816821F08051C6
:105110008160054820672068016841F02001016036
:1051200070BD0000FEFFFFEF2D5000082DE9F05F7D
:105130000446016880682369E6691843636910259D
:10514000002733431843BA4A0B68BA4E334003432F
:105150000B6020684168E36821F4405119434160C5
:105160002168A069914201D0236A18438B68B24E2E
:10517000334003438B602068C16A636A21F00F01EA
:105180001943C162AD4B2068AD4998420DD1D1F8A9
:10519000881011F0030106D001295AD0022956D0F7
:1051A000032959D157E0012556E0A64B98420BD16F
:1051B000D1F8881011F00C0147D0042949D00829F2
:1051C00045D00C2948D146E09F4B98420BD1D1F8ED
:1051D000881011F0300138D010293AD0202936D06B
:1051E000302939D137E0994B98420BD1D1F888104A
:1051F00011F0C00129D040292BD0802927D0C02907
:105200002AD128E0924B98420ED1D1F8881011F49F
:1052100040711AD0B1F5807F1BD0B1F5007F16D058
:10522000B1F5407F18D116E0904215D1D1F8881021
:1052300011F4406109D0B1F5806F0AD0B1F5006F6B
:1052400005D0B1F5406F07D105E0002504E0022547
:1052500002E0042500E00825DFF8F8A17E4E4FF0BB
:1052600000094FF4004B90426AD135B1022D07D0AE
:10527000042D0BD0082D20D110E0FEF765FD07E0CE
:10528000606A36F81010BAFBF1F00CE0FEF77CFD16
:10529000616A36F81110B0FBF1F004E0606A36F88C
:1052A0001010BBFBF1F070B36168884601EB41015F
:1052B000814202D8B0EB083F01D901279CE0C5B17B
:1052C000022D19D0042D28D0082DF6D1606A4D4644
:1052D000002336F8102058460021FDF703F8090294
:1052E00041EA106102024FEA580010186941424633
:1052F0000AE0FEF729FD12E0606A4D46002336F809
:1053000010205046E8E777E00023FCF7EBFF534A14
:10531000A0F5407191426DD9CFE7FEF735FD626A85
:105320004D46494636F812200023FCF7DBFF090200
:10533000626841EA10610302500818186941E3E706
:10534000E1694FF6EF78594536D1092DB5D2DFE83E
:1053500005F0060924052A0505052D00ADE7FEF731
:10536000F3FC01E0FEF700FD616A36F81110B0FBB6
:10537000F1F04100606801EB5001B1FBF0F080B248
:10538000A0F11001414598D84FF6F0710140C0F3EB
:10539000420001432068C1602EE0606A36F81010B8
:1053A000BAFBF1F0E5E7FEF7EFFCDDE7616A36F8FE
:1053B0001110BBFBF1F0DCE7092DADD2DFE805F001
:1053C000060928052E050505310076E7FEF7BCFC29
:1053D00001E0FEF7C9FC616A36F81110B0FBF1F18B
:1053E000606801EB5001B1FBF0F080B2A0F1100257
:1053F000424591D82168C8600120A4F86400A4F84F
:105400006200C4F870903846C4F87490BDE8F09F0C
:10541000606A36F81010BAFBF1F1E1E7FEF7B4FC70
:10542000D9E7616A36F81110BBFBF1F1D8E700004B
:1054300000800040F369FFCFFFF4FF110038014006
:10544000001002400044004000480040004C004072
:10545000005000400024F400D47C0008FFFC0F0042
:105460002DE9F041984617460E460446069D1DE07C
:10547000681C1BD02DB1FDF7DDFEA0EB0800A84293
:1054800014D92068016821F4D07101602068816816
:1054900021F001018160202084F8810084F88200DD
:1054A000002084F880000320BDE8F0812068C069F6
:1054B00036EA000004D00020B842D9D00020F3E73B
:1054C0000120F9E710B52620FDF7E3FEBDE8104006
:1054D0000148FEF75DBF00000C010020FEE7000060
:1054E0000FB4054B10B503A9044A029800F0EAF87E
:1054F00010BC5DF814FB0000F55D0008D000002032
:105500000907090E002804DB00F1E02080F80014F0
:10551000704700F00F0000F1E02080F8141D704784
:1055200002E008C8121F08C1002AFAD1704770476C
:10553000002001E001C1121F002AFBD170470000CA
:105540002DE9FF5F82B00021DDE90430020DDDF8B6
:1055500040B0034318D044F61050A2F2FF32424349
:105560001514119801281FD0A5EB0B00401C5FEA11
:10557000000A4FF000064E4FDFF83891B046504613
:1055800015D5CAF1000413E0119801244AA301289B
:1055900001D16FEA0B010298119AC0E90031C0E90C
:1055A000024206B0BDE8F09FCBF10000DFE7044601
:1055B0000021404A491842EB0450CDE9001012E0A6
:1055C000E00707D032463B4640464946FDF728F9FA
:1055D0008046894632463B4610461946FDF720F97B
:1055E00006460F466410002CEAD1DDE90401DDE92E
:1055F0000023BAF1000F06DAFDF712F942464B46D6
:10560000FDF70EF905E0FCF7BEFE42464B46FCF7FF
:10561000BAFE04460E460022284BFDF78BF903D84C
:105620004FF0FF30014607E00022254B204631466F
:10563000FDF74FF8FDF766F9102409E0002C0ADBAE
:105640000A220023FCF74EFE039B30321A55641EDB
:1056500050EA0102F2D1641C039AC4F1110314440C
:10566000119A012A03D0012208430DD10AE0084310
:1056700004D000204FF0110B119072E7A3EB0B0543
:105680006D1E0DE05B4504DD4FF0000205F10105E4
:1056900004E003DA4FF00002A5F10105002AECD086
:1056A00002981199C0E90231C0E9004579E700008C
:1056B000000014400000F03F300000000000F04304
:1056C0000000E03F2DE9FF4F95B09B468946064616
:1056D00000250FE2252877D100242746F84A01212A
:1056E000059400E0044316F8013F203B01FA03F063
:1056F0001042F7D130782A2811D06FF02F0330787C
:10570000A0F13002092A16D8059A44F0020402EBEF
:10571000820203EB42021044761C0590EFE759F831
:10572000042B0592002A03DA504244F400540590F9
:1057300044F00204761C30782E2816D116F8010F9A
:1057400044F004042A280DD06FF02F023078A0F125
:105750003003092B09D807EB870302EB4303C71873
:10576000761CF3E759F8047B761C30786C280FD050
:1057700006DC4C2817D068280DD06A2814D104E024
:10578000742810D07A280FD10DE044F400140AE0F8
:1057900044F4801401E044F440147278824202D14F
:1057A00004F58014761C761C307866280BD013DC48
:1057B000582877D009DC002875D04528F6D046282F
:1057C000F4D047281AD19DE118E0632835D0642829
:1057D00079D0652812D195E1702873D008DC67284C
:1057E000F1D069286FD06E280DD06F2806D1B5E0B2
:1057F00073282CD0752875D0782874D05A461799FC
:1058000090476D1C75E1C4F30250022809D00328AB
:105810000DD0D9F8001004280DD00D6009F104094D
:1058200067E1D9F80010EA17C1E90052F6E7D9F8A4
:1058300000100D80F2E70D70F0E719F8041B8DF8E9
:10584000001000208DF80100EA46012003E059F81D
:1058500004AB4FF0FF3061074FF0000102D40DE0C0
:1058600008F101018846B9420FDA8045F8DB1AF8E1
:1058700008100029F4D108E008F1010188468142AE
:10588000FADB1AF808100029F6D105985B46A0EB60
:10589000080721463846179A00F094FA284400EB8E
:1058A000080507E04DE029E10DE01AF8010B5A4622
:1058B00017999047B8F10108F7D25B462146384660
:1058C000179A13E142E00A220092C4F302524FF009
:1058D000000A022A08D059F804CB032A4FEAEC71D7
:1058E0000AD00DE029E02AE009F1070121F00702C2
:1058F000F2E802C1914609E00FFA8CFC4FEAEC7124
:10590000042A03D14FFA8CFC4FEAEC71002907DA24
:105910000A460021DCF1000C61EB02012D2202E0BD
:10592000220504D52B228DF80420012203E0E20792
:1059300001D02022F7E7904659E00A2102E0102228
:105940000DE010214FF0000A00910BE010224FF003
:10595000000A44F004040827009203E008224FF0F4
:10596000000A0092C4F30252022A05D059F804CB6F
:105970000021032A08D009E009F1070121F00702FC
:10598000F2E802C1914605E01FFA8CFC042A01D11D
:105990000CF0FF0C4FF00008220728D5702806D025
:1059A000009B83F0100353EA0A0305D00EE0402267
:1059B0008DF80420012208E05CEA010206D03022C2
:1059C0008DF804208DF8050002229046009B83F09C
:1059D000080353EA0A030AD15CEA010201D1620713
:1059E00005D530228DF804204FF001087F1E58287D
:1059F00004D034A003900EA802900DE036A0F9E781
:105A000053466046009AFCF76DFC84460398825C1E
:105A10000298401E029002705CEA0100F0D10298E8
:105A200006A9081A00F1200A600702D524F4803480
:105A300000E00127574502DDA7EB0A0000E0002047
:105A400000EB0A01009005984144401A0590E003DC
:105A500006D45B462146179A059800F0B3F9054431
:105A6000002706E001A85A46C05D179990476D1CB3
:105A70007F1C4745F6DBE0030CD55B462146179AB1
:105A8000059800F09FF9054404E030205A46179924
:105A900090476D1C0099481E00900029F5DC08E035
:105AA000029802995A460078491C0291179990472A
:105AB0006D1CBAF10001AAF1010AF1DC65E10000F8
:105AC00009280100303132333435363738396162D4
:105AD0006364656600000000303132333435363798
